{
  "_format": "hh-sol-artifact-1",
  "contractName": "SimpleSwap",
  "sourceName": "contracts/SimpleSwap.sol",
  "abi": [
    {
      "inputs": [
        {
          "internalType": "address",
          "name": "_tokenA",
          "type": "address"
        },
        {
          "internalType": "address",
          "name": "_tokenB",
          "type": "address"
        }
      ],
      "stateMutability": "nonpayable",
      "type": "constructor"
    },
    {
      "anonymous": false,
      "inputs": [
        {
          "indexed": true,
          "internalType": "address",
          "name": "provider",
          "type": "address"
        },
        {
          "indexed": false,
          "internalType": "uint256",
          "name": "amountA",
          "type": "uint256"
        },
        {
          "indexed": false,
          "internalType": "uint256",
          "name": "amountB",
          "type": "uint256"
        },
        {
          "indexed": false,
          "internalType": "uint256",
          "name": "liquidityMinted",
          "type": "uint256"
        }
      ],
      "name": "InitialLiquidityAdded",
      "type": "event"
    },
    {
      "anonymous": false,
      "inputs": [
        {
          "indexed": true,
          "internalType": "address",
          "name": "provider",
          "type": "address"
        },
        {
          "indexed": false,
          "internalType": "uint256",
          "name": "amountA",
          "type": "uint256"
        },
        {
          "indexed": false,
          "internalType": "uint256",
          "name": "amountB",
          "type": "uint256"
        },
        {
          "indexed": false,
          "internalType": "uint256",
          "name": "liquidityMinted",
          "type": "uint256"
        }
      ],
      "name": "LiquidityAdded",
      "type": "event"
    },
    {
      "anonymous": false,
      "inputs": [
        {
          "indexed": true,
          "internalType": "address",
          "name": "provider",
          "type": "address"
        },
        {
          "indexed": false,
          "internalType": "uint256",
          "name": "amountA",
          "type": "uint256"
        },
        {
          "indexed": false,
          "internalType": "uint256",
          "name": "amountB",
          "type": "uint256"
        },
        {
          "indexed": false,
          "internalType": "uint256",
          "name": "liquidityBurned",
          "type": "uint256"
        }
      ],
      "name": "LiquidityRemoved",
      "type": "event"
    },
    {
      "anonymous": false,
      "inputs": [
        {
          "indexed": true,
          "internalType": "address",
          "name": "swapper",
          "type": "address"
        },
        {
          "indexed": false,
          "internalType": "address",
          "name": "tokenIn",
          "type": "address"
        },
        {
          "indexed": false,
          "internalType": "uint256",
          "name": "amountIn",
          "type": "uint256"
        },
        {
          "indexed": false,
          "internalType": "address",
          "name": "tokenOut",
          "type": "address"
        },
        {
          "indexed": false,
          "internalType": "uint256",
          "name": "amountOut",
          "type": "uint256"
        }
      ],
      "name": "TokensSwapped",
      "type": "event"
    },
    {
      "inputs": [
        {
          "internalType": "address",
          "name": "tokenA_",
          "type": "address"
        },
        {
          "internalType": "address",
          "name": "tokenB_",
          "type": "address"
        },
        {
          "internalType": "uint256",
          "name": "amountADesired",
          "type": "uint256"
        },
        {
          "internalType": "uint256",
          "name": "amountBDesired",
          "type": "uint256"
        },
        {
          "internalType": "uint256",
          "name": "amountAMin",
          "type": "uint256"
        },
        {
          "internalType": "uint256",
          "name": "amountBMin",
          "type": "uint256"
        },
        {
          "internalType": "address",
          "name": "to",
          "type": "address"
        },
        {
          "internalType": "uint256",
          "name": "deadline",
          "type": "uint256"
        }
      ],
      "name": "addLiquidity",
      "outputs": [
        {
          "internalType": "uint256",
          "name": "amountA",
          "type": "uint256"
        },
        {
          "internalType": "uint256",
          "name": "amountB",
          "type": "uint256"
        },
        {
          "internalType": "uint256",
          "name": "liquidity",
          "type": "uint256"
        }
      ],
      "stateMutability": "nonpayable",
      "type": "function"
    },
    {
      "inputs": [
        {
          "internalType": "uint256",
          "name": "amountIn",
          "type": "uint256"
        },
        {
          "internalType": "uint256",
          "name": "reserveIn",
          "type": "uint256"
        },
        {
          "internalType": "uint256",
          "name": "reserveOut",
          "type": "uint256"
        }
      ],
      "name": "getAmountOut",
      "outputs": [
        {
          "internalType": "uint256",
          "name": "amountOut",
          "type": "uint256"
        }
      ],
      "stateMutability": "pure",
      "type": "function"
    },
    {
      "inputs": [
        {
          "internalType": "address",
          "name": "tokenA_",
          "type": "address"
        },
        {
          "internalType": "address",
          "name": "tokenB_",
          "type": "address"
        }
      ],
      "name": "getPrice",
      "outputs": [
        {
          "internalType": "uint256",
          "name": "price",
          "type": "uint256"
        }
      ],
      "stateMutability": "view",
      "type": "function"
    },
    {
      "inputs": [],
      "name": "lpToken",
      "outputs": [
        {
          "internalType": "contract LPToken",
          "name": "",
          "type": "address"
        }
      ],
      "stateMutability": "view",
      "type": "function"
    },
    {
      "inputs": [],
      "name": "owner",
      "outputs": [
        {
          "internalType": "address",
          "name": "",
          "type": "address"
        }
      ],
      "stateMutability": "view",
      "type": "function"
    },
    {
      "inputs": [
        {
          "internalType": "address",
          "name": "tokenA_",
          "type": "address"
        },
        {
          "internalType": "address",
          "name": "tokenB_",
          "type": "address"
        },
        {
          "internalType": "uint256",
          "name": "liquidity",
          "type": "uint256"
        },
        {
          "internalType": "uint256",
          "name": "amountAMin",
          "type": "uint256"
        },
        {
          "internalType": "uint256",
          "name": "amountBMin",
          "type": "uint256"
        },
        {
          "internalType": "address",
          "name": "to",
          "type": "address"
        },
        {
          "internalType": "uint256",
          "name": "deadline",
          "type": "uint256"
        }
      ],
      "name": "removeLiquidity",
      "outputs": [
        {
          "internalType": "uint256",
          "name": "amountA",
          "type": "uint256"
        },
        {
          "internalType": "uint256",
          "name": "amountB",
          "type": "uint256"
        }
      ],
      "stateMutability": "nonpayable",
      "type": "function"
    },
    {
      "inputs": [],
      "name": "reserveA",
      "outputs": [
        {
          "internalType": "uint256",
          "name": "",
          "type": "uint256"
        }
      ],
      "stateMutability": "view",
      "type": "function"
    },
    {
      "inputs": [],
      "name": "reserveB",
      "outputs": [
        {
          "internalType": "uint256",
          "name": "",
          "type": "uint256"
        }
      ],
      "stateMutability": "view",
      "type": "function"
    },
    {
      "inputs": [
        {
          "internalType": "uint256",
          "name": "amountIn",
          "type": "uint256"
        },
        {
          "internalType": "uint256",
          "name": "amountOutMin",
          "type": "uint256"
        },
        {
          "internalType": "address[]",
          "name": "path",
          "type": "address[]"
        },
        {
          "internalType": "address",
          "name": "to",
          "type": "address"
        },
        {
          "internalType": "uint256",
          "name": "deadline",
          "type": "uint256"
        }
      ],
      "name": "swapExactTokensForTokens",
      "outputs": [
        {
          "internalType": "uint256[]",
          "name": "amounts",
          "type": "uint256[]"
        }
      ],
      "stateMutability": "nonpayable",
      "type": "function"
    },
    {
      "inputs": [],
      "name": "tokenA",
      "outputs": [
        {
          "internalType": "address",
          "name": "",
          "type": "address"
        }
      ],
      "stateMutability": "view",
      "type": "function"
    },
    {
      "inputs": [],
      "name": "tokenB",
      "outputs": [
        {
          "internalType": "address",
          "name": "",
          "type": "address"
        }
      ],
      "stateMutability": "view",
      "type": "function"
    }
  ],
  "bytecode": "0x608060405234801561001057600080fd5b50604051615b4f380380615b4f83398181016040528101906100329190610264565b61004c67afa76213d09caf1b60c01b6101f160201b60201c565b610066670e43bbb992220b6760c01b6101f160201b60201c565b30604051610073906101f4565b61007d919061035c565b604051809103906000f080158015610099573d6000803e3d6000fd5b506000806101000a81548173ffffffffffffffffffffffffffffffffffffffff021916908373ffffffffffffffffffffffffffffffffffffffff1602179055506100f367b7b64eb168e6da1160c01b6101f160201b60201c565b81600160006101000a81548173ffffffffffffffffffffffffffffffffffffffff021916908373ffffffffffffffffffffffffffffffffffffffff16021790555061014e67211e165515084ff460c01b6101f160201b60201c565b80600260006101000a81548173ffffffffffffffffffffffffffffffffffffffff021916908373ffffffffffffffffffffffffffffffffffffffff1602179055506101a9678c8e108c9524752160c01b6101f160201b60201c565b33600560006101000a81548173ffffffffffffffffffffffffffffffffffffffff021916908373ffffffffffffffffffffffffffffffffffffffff160217905550505061039d565b50565b611a83806140cc83390190565b600080fd5b600073ffffffffffffffffffffffffffffffffffffffff82169050919050565b600061023182610206565b9050919050565b61024181610226565b811461024c57600080fd5b50565b60008151905061025e81610238565b92915050565b6000806040838503121561027b5761027a610201565b5b60006102898582860161024f565b925050602061029a8582860161024f565b9150509250929050565b600082825260208201905092915050565b7f53696d706c6553776170204c5020546f6b656e00000000000000000000000000600082015250565b60006102eb6013836102a4565b91506102f6826102b5565b602082019050919050565b7f53534c5000000000000000000000000000000000000000000000000000000000600082015250565b60006103376004836102a4565b915061034282610301565b602082019050919050565b61035681610226565b82525050565b60006060820190508181036000830152610375816102de565b905081810360208301526103888161032a565b9050610397604083018461034d565b92915050565b613d20806103ac6000396000f3fe608060405234801561001057600080fd5b50600436106100a95760003560e01c80635fcbd285116100715780635fcbd285146101685780638da5cb5b14610186578063ac41865a146101a4578063baa2abde146101d4578063dc5fa6c514610205578063e8e3370014610223576100a9565b8063054d50d4146100ae5780630fc63d10146100de57806319e36f3b146100fc57806338ed17391461011a5780635f64b55b1461014a575b600080fd5b6100c860048036038101906100c39190612d47565b610255565b6040516100d59190612da9565b60405180910390f35b6100e6610404565b6040516100f39190612e05565b60405180910390f35b61010461042a565b6040516101119190612da9565b60405180910390f35b610134600480360381019061012f9190612eb1565b610430565b6040516101419190613009565b60405180910390f35b61015261116b565b60405161015f9190612e05565b60405180910390f35b610170611191565b60405161017d919061308a565b60405180910390f35b61018e6111b5565b60405161019b9190612e05565b60405180910390f35b6101be60048036038101906101b991906130a5565b6111db565b6040516101cb9190612da9565b60405180910390f35b6101ee60048036038101906101e991906130e5565b6115a3565b6040516101fc929190613187565b60405180910390f35b61020d611f68565b60405161021a9190612da9565b60405180910390f35b61023d600480360381019061023891906131b0565b611f6e565b60405161024c93929190613266565b60405180910390f35b600061026b67afce08a1dc76a48b60c01b612b1f565b61027f678a14316c56b4b11760c01b612b1f565b61029367133af24bf511773a60c01b612b1f565b6102a767e61c7a1f89965c2160c01b612b1f565b600084116102ea576040517f08c379a00000000000000000000000000000000000000000000000000000000081526004016102e1906132fa565b60405180910390fd5b6102fe67d0d4e7d723ec8b7a60c01b612b1f565b610312679b589cba02c60fb860c01b612b1f565b61032667bc1f0106f9a78a8960c01b612b1f565b61033a67e21b6268538f44ec60c01b612b1f565b60008311801561034a5750600082115b610389576040517f08c379a000000000000000000000000000000000000000000000000000000000815260040161038090613366565b60405180910390fd5b61039d670fa5e9948f54e05560c01b612b1f565b6103b167df2db2d3c734e31760c01b612b1f565b83836103bd91906133b5565b82856103c991906133e9565b6103d3919061345a565b90506103e9670cf625502025c78e60c01b612b1f565b6103fd679014a30f16e5f7ac60c01b612b1f565b9392505050565b600160009054906101000a900473ffffffffffffffffffffffffffffffffffffffff1681565b60045481565b606061044667927df9618b00cde060c01b612b1f565b61045a677272b7edf79208a560c01b612b1f565b61046e6752663b4add082b6560c01b612b1f565b610482673baf8b3ed132afa460c01b612b1f565b4282116104c4576040517f08c379a00000000000000000000000000000000000000000000000000000000081526004016104bb906134d7565b60405180910390fd5b6104d86773cd13c04687880960c01b612b1f565b6104ec672a11b3a5b0f9cda060c01b612b1f565b61050067859f0a48f4fe650860c01b612b1f565b61051467b21bb9620d71da5260c01b612b1f565b6002858590501480156105a3575084846001818110610536576105356134f7565b5b905060200201602081019061054b9190613526565b73ffffffffffffffffffffffffffffffffffffffff1685856000818110610575576105746134f7565b5b905060200201602081019061058a9190613526565b73ffffffffffffffffffffffffffffffffffffffff1614155b6105e2576040517f08c379a00000000000000000000000000000000000000000000000000000000081526004016105d99061359f565b60405180910390fd5b6105f667122622b53be22f2d60c01b612b1f565b61060a6781637d8895ba28a360c01b612b1f565b61061e6770c7794e1fb7aab260c01b612b1f565b61063267f9fdb0781832321960c01b612b1f565b60008711610675576040517f08c379a000000000000000000000000000000000000000000000000000000000815260040161066c9061360b565b60405180910390fd5b61068967a2769ef6fd903ac460c01b612b1f565b61069d67b4dc9356961aa79260c01b612b1f565b6106b167be41a98f7de10e8460c01b612b1f565b60006040518060400160405280600160009054906101000a900473ffffffffffffffffffffffffffffffffffffffff1673ffffffffffffffffffffffffffffffffffffffff168152602001600260009054906101000a900473ffffffffffffffffffffffffffffffffffffffff1673ffffffffffffffffffffffffffffffffffffffff16815250905061074e67fc498058c7f74ea660c01b612b1f565b61076267b0762056f5a79ab560c01b612b1f565b6000600354905061077d67ef51f09a9a88e7da60c01b612b1f565b610791671c1d4f00350779a660c01b612b1f565b600060045490506107ac67c258c1c29afaa91460c01b612b1f565b6107c067786c714c6531ded360c01b612b1f565b6107d4675d053a39cbb6bd2c60c01b612b1f565b826000015173ffffffffffffffffffffffffffffffffffffffff1688886000818110610803576108026134f7565b5b90506020020160208101906108189190613526565b73ffffffffffffffffffffffffffffffffffffffff161480156108925750826020015173ffffffffffffffffffffffffffffffffffffffff1688886001818110610865576108646134f7565b5b905060200201602081019061087a9190613526565b73ffffffffffffffffffffffffffffffffffffffff16145b80156108ae57506108ad6777b421798d4bbf8b60c01b612b22565b5b8061098f5750826020015173ffffffffffffffffffffffffffffffffffffffff16888860008181106108e3576108e26134f7565b5b90506020020160208101906108f89190613526565b73ffffffffffffffffffffffffffffffffffffffff161480156109725750826000015173ffffffffffffffffffffffffffffffffffffffff1688886001818110610945576109446134f7565b5b905060200201602081019061095a9190613526565b73ffffffffffffffffffffffffffffffffffffffff16145b801561098e575061098d671730ba1c504f708660c01b612b22565b5b5b6109ce576040517f08c379a00000000000000000000000000000000000000000000000000000000081526004016109c59061359f565b60405180910390fd5b6109e267910e99ac159e972b60c01b612b1f565b6109f667c7da7149aa2930c260c01b612b1f565b610a0a679793e7b36d7c9dc160c01b612b1f565b6000610a2067c26edad64174d3d660c01b612b1f565b610a3467ae950aefc52da0d660c01b612b1f565b836000015173ffffffffffffffffffffffffffffffffffffffff1689896000818110610a6357610a626134f7565b5b9050602002016020810190610a789190613526565b73ffffffffffffffffffffffffffffffffffffffff1603610d1b57610aa767469d0b87d4d61b3360c01b612b1f565b610abb6723bd17533d064ee760c01b612b1f565b610acf670384d6883d98b59460c01b612b1f565b836000015173ffffffffffffffffffffffffffffffffffffffff166323b872dd33308e6040518463ffffffff1660e01b8152600401610b109392919061362b565b6020604051808303816000875af1158015610b2f573d6000803e3d6000fd5b505050506040513d601f19601f82011682018060405250810190610b53919061369a565b50610b6867dd32eedda0a221d660c01b612b1f565b8a83610b7491906133b5565b828c610b8091906133e9565b610b8a919061345a565b9050610ba06741be2abdcc9133d860c01b612b1f565b610bb46740f627b27945c37860c01b612b1f565b610bc867fc64b40c3cfe5fc260c01b612b1f565b89811015610c0b576040517f08c379a0000000000000000000000000000000000000000000000000000000008152600401610c0290613713565b60405180910390fd5b610c1f67ca1b1c8c0325acdd60c01b612b1f565b610c3367a2e91fcc53e9a09760c01b612b1f565b610c476710d62a01b41c1cdc60c01b612b1f565b836020015173ffffffffffffffffffffffffffffffffffffffff1663a9059cbb88836040518363ffffffff1660e01b8152600401610c86929190613733565b6020604051808303816000875af1158015610ca5573d6000803e3d6000fd5b505050506040513d601f19601f82011682018060405250810190610cc9919061369a565b50610cde678dcadb22b852870e60c01b612b1f565b8a83610cea91906133b5565b600381905550610d0467b136fcaa71607d3860c01b612b1f565b8082610d10919061375c565b600481905550610f9f565b610d2f67fe85dae170d404f660c01b612b1f565b610d436741c2a81bc228923460c01b612b1f565b610d576765624e39aa424a1a60c01b612b1f565b836020015173ffffffffffffffffffffffffffffffffffffffff166323b872dd33308e6040518463ffffffff1660e01b8152600401610d989392919061362b565b6020604051808303816000875af1158015610db7573d6000803e3d6000fd5b505050506040513d601f19601f82011682018060405250810190610ddb919061369a565b50610df0677b4c5c9fdad7a1dc60c01b612b1f565b8a82610dfc91906133b5565b838c610e0891906133e9565b610e12919061345a565b9050610e2867db7c34a798d8028160c01b612b1f565b610e3c675eca881be89a529860c01b612b1f565b610e5067678944b377108b1560c01b612b1f565b89811015610e93576040517f08c379a0000000000000000000000000000000000000000000000000000000008152600401610e8a90613713565b60405180910390fd5b610ea767e8dc1d648708122260c01b612b1f565b610ebb675220b151c79309ca60c01b612b1f565b610ecf673abf66949540149e60c01b612b1f565b836000015173ffffffffffffffffffffffffffffffffffffffff1663a9059cbb88836040518363ffffffff1660e01b8152600401610f0e929190613733565b6020604051808303816000875af1158015610f2d573d6000803e3d6000fd5b505050506040513d601f19601f82011682018060405250810190610f51919061369a565b50610f6667643aae1a30cb725e60c01b612b1f565b8083610f72919061375c565b600381905550610f8c67ac16aed25ee1428c60c01b612b1f565b8a82610f9891906133b5565b6004819055505b610fb36775f2a07ee0b4287460c01b612b1f565b600267ffffffffffffffff811115610fce57610fcd613790565b5b604051908082528060200260200182016040528015610ffc5781602001602082028036833780820191505090505b5094506110136751bc466dd120172660c01b612b1f565b8a85600081518110611028576110276134f7565b5b602002602001018181525050611048677df208b2e6cb324660c01b612b1f565b808560018151811061105d5761105c6134f7565b5b60200260200101818152505061107d6733eb778961420ae560c01b612b1f565b611091672a235aff65f1e59060c01b612b1f565b3373ffffffffffffffffffffffffffffffffffffffff167f631fb37dba9bbcb8b2f3be2d669e365ae9f1bd850cc57dfe8b7ccd7d979a2bba8a8a60008181106110dd576110dc6134f7565b5b90506020020160208101906110f29190613526565b8d8c8c6001818110611107576111066134f7565b5b905060200201602081019061111c9190613526565b8560405161112d94939291906137bf565b60405180910390a2611149670f561cfdb2bcb03060c01b612b1f565b61115d67247b345f9d2a9c4960c01b612b1f565b505050509695505050505050565b600260009054906101000a900473ffffffffffffffffffffffffffffffffffffffff1681565b60008054906101000a900473ffffffffffffffffffffffffffffffffffffffff1681565b600560009054906101000a900473ffffffffffffffffffffffffffffffffffffffff1681565b60006111f167c0cc46dc0117b2f060c01b612b1f565b61120567982c91054d74e95860c01b612b1f565b611219675dd2e1e05e27b39360c01b612b1f565b60006040518060400160405280600160009054906101000a900473ffffffffffffffffffffffffffffffffffffffff1673ffffffffffffffffffffffffffffffffffffffff168152602001600260009054906101000a900473ffffffffffffffffffffffffffffffffffffffff1673ffffffffffffffffffffffffffffffffffffffff1681525090506112b667fb51bec7b9b841f660c01b612b1f565b6112ca67c33a66768b73e28660c01b612b1f565b6112de674262f52215d7238760c01b612b1f565b806000015173ffffffffffffffffffffffffffffffffffffffff168473ffffffffffffffffffffffffffffffffffffffff1614801561134c5750806020015173ffffffffffffffffffffffffffffffffffffffff168373ffffffffffffffffffffffffffffffffffffffff16145b8015611368575061136767f1d1f535cff22f9760c01b612b22565b5b806113f95750806020015173ffffffffffffffffffffffffffffffffffffffff168473ffffffffffffffffffffffffffffffffffffffff161480156113dc5750806000015173ffffffffffffffffffffffffffffffffffffffff168373ffffffffffffffffffffffffffffffffffffffff16145b80156113f857506113f767295620ae867e3baa60c01b612b22565b5b5b611438576040517f08c379a000000000000000000000000000000000000000000000000000000000815260040161142f90613850565b60405180910390fd5b61144c67c52afa1ce6f59beb60c01b612b1f565b611460679b5ae3d7847c314f60c01b612b1f565b611474673e374ba16b6f705a60c01b612b1f565b6000600354905061148f67eb2f7a1550dca04c60c01b612b1f565b6114a367d33e8f33c13a99e360c01b612b1f565b600060045490506114be67ea01e298bf4ec32f60c01b612b1f565b6114d2676d37225f6955d91c60c01b612b1f565b6114e66766b7eaf003e9c2ec60c01b612b1f565b60008211611529576040517f08c379a0000000000000000000000000000000000000000000000000000000008152600401611520906138bc565b60405180910390fd5b61153d672afdc6dc0832a5d960c01b612b1f565b6115516758019e569f57f1ba60c01b612b1f565b81670de0b6b3a76400008261156691906133e9565b611570919061345a565b935061158667f549eec4cb24472f60c01b612b1f565b61159a677298bf02ff6222fe60c01b612b1f565b50505092915050565b6000806115ba67058a88a2b74d18ae60c01b612b1f565b6115ce67b7e8edc06b2605d060c01b612b1f565b6115e267f010d9830fa8ab0c60c01b612b1f565b6115f6676f8f881dff7b980560c01b612b1f565b428311611638576040517f08c379a000000000000000000000000000000000000000000000000000000000815260040161162f906134d7565b60405180910390fd5b61164c67ae8d1b78a77ab70560c01b612b1f565b61166067605c5c7165039acc60c01b612b1f565b611674673fa0fb9b46bc193d60c01b612b1f565b60006040518060400160405280600160009054906101000a900473ffffffffffffffffffffffffffffffffffffffff1673ffffffffffffffffffffffffffffffffffffffff168152602001600260009054906101000a900473ffffffffffffffffffffffffffffffffffffffff1673ffffffffffffffffffffffffffffffffffffffff168152509050611711679f4ba385491b981a60c01b612b1f565b611725674a2ff02d524ea3ef60c01b612b1f565b6117396722ae50b9cda1ee4560c01b612b1f565b806000015173ffffffffffffffffffffffffffffffffffffffff168a73ffffffffffffffffffffffffffffffffffffffff161480156117a75750806020015173ffffffffffffffffffffffffffffffffffffffff168973ffffffffffffffffffffffffffffffffffffffff16145b6117e6576040517f08c379a00000000000000000000000000000000000000000000000000000000081526004016117dd90613928565b60405180910390fd5b6117fa677b8dc538e005022260c01b612b1f565b61180e67e586009c64820ba360c01b612b1f565b61182267284e94b5c27db3ed60c01b612b1f565b6000600354905061183d67f12e5c1115338a9e60c01b612b1f565b6118516766e9b651c91db0f560c01b612b1f565b6000600454905061186c67c39fd16a9214fed160c01b612b1f565b61188067d163a8741bcee63260c01b612b1f565b60008060009054906101000a900473ffffffffffffffffffffffffffffffffffffffff1673ffffffffffffffffffffffffffffffffffffffff166318160ddd6040518163ffffffff1660e01b8152600401602060405180830381865afa1580156118ee573d6000803e3d6000fd5b505050506040513d601f19601f82011682018060405250810190611912919061395d565b9050611928674dbeedc3c678c2f060c01b612b1f565b80838c61193591906133e9565b61193f919061345a565b9550611955671a1d8ef797ecbae560c01b612b1f565b80828c61196291906133e9565b61196c919061345a565b9450611982673333e06883ab31ef60c01b612b1f565b61199667ca7429e72c70146260c01b612b1f565b6119aa675c41997cd4734d9160c01b612b1f565b898610156119ed576040517f08c379a00000000000000000000000000000000000000000000000000000000081526004016119e4906139d6565b60405180910390fd5b611a01675cd899cd5ae0eda360c01b612b1f565b611a1567b5f2f36dd9a2a20360c01b612b1f565b611a296710691983c9b7e69260c01b612b1f565b611a3d67b0af98a3a8e7192b60c01b612b1f565b88851015611a80576040517f08c379a0000000000000000000000000000000000000000000000000000000008152600401611a7790613a42565b60405180910390fd5b611a9467ea24f9b24ba4a45e60c01b612b1f565b611aa867d33688df8f105a2a60c01b612b1f565b611abc676c4f3d555a10cc1160c01b612b1f565b611ad0677f6ca7d9a11052c060c01b612b1f565b8a60008054906101000a900473ffffffffffffffffffffffffffffffffffffffff1673ffffffffffffffffffffffffffffffffffffffff166370a08231336040518263ffffffff1660e01b8152600401611b2a9190612e05565b602060405180830381865afa158015611b47573d6000803e3d6000fd5b505050506040513d601f19601f82011682018060405250810190611b6b919061395d565b1015611bac576040517f08c379a0000000000000000000000000000000000000000000000000000000008152600401611ba390613aae565b60405180910390fd5b611bc0677348fcfb9e68910860c01b612b1f565b611bd467b7ce76458e49c5fa60c01b612b1f565b611be86702f9187a6188d73c60c01b612b1f565b611bfc67bc6b5aed9f6e3a0a60c01b612b1f565b858310158015611c0c5750848210155b611c4b576040517f08c379a0000000000000000000000000000000000000000000000000000000008152600401611c4290613b1a565b60405180910390fd5b611c5f67c36bdbcf5b5e453b60c01b612b1f565b611c73673fbf57cb7868560560c01b612b1f565b611c8767590191a93cd85aec60c01b612b1f565b60008054906101000a900473ffffffffffffffffffffffffffffffffffffffff1673ffffffffffffffffffffffffffffffffffffffff166379cc6790338d6040518363ffffffff1660e01b8152600401611ce2929190613733565b600060405180830381600087803b158015611cfc57600080fd5b505af1158015611d10573d6000803e3d6000fd5b50505050611d28679bbe50c252ce6c9860c01b612b1f565b611d3c6745e957efd64089c760c01b612b1f565b836000015173ffffffffffffffffffffffffffffffffffffffff1663a9059cbb89886040518363ffffffff1660e01b8152600401611d7b929190613733565b6020604051808303816000875af1158015611d9a573d6000803e3d6000fd5b505050506040513d601f19601f82011682018060405250810190611dbe919061369a565b50611dd367778c21bc5bc4749d60c01b612b1f565b611de7671e4c46b2f9874bd560c01b612b1f565b836020015173ffffffffffffffffffffffffffffffffffffffff1663a9059cbb89876040518363ffffffff1660e01b8152600401611e26929190613733565b6020604051808303816000875af1158015611e45573d6000803e3d6000fd5b505050506040513d601f19601f82011682018060405250810190611e69919061369a565b50611e7e675d50d96a1b6cd4e560c01b612b1f565b8583611e8a919061375c565b600381905550611ea46768392988124c1a1c60c01b612b1f565b8482611eb0919061375c565b600481905550611eca67c5ed206c72d1923d60c01b612b1f565b611ede67774bd6a07f92bf4a60c01b612b1f565b3373ffffffffffffffffffffffffffffffffffffffff167f1dc8bb69df2b8e91fbdcbfcf93d951b3f0000f085a95fe3f7946d6161439245d87878e604051611f2893929190613266565b60405180910390a2611f4467d8b44a31f769b1b760c01b612b1f565b611f5867983d4d7dfcdfdfab60c01b612b1f565b5050505097509795505050505050565b60035481565b6000806000611f87678fa0268ab256728260c01b612b1f565b611f9b67a8551ff4bb553cbd60c01b612b1f565b611faf67c9f47d9068a08adf60c01b612b1f565b60006040518060400160405280600160009054906101000a900473ffffffffffffffffffffffffffffffffffffffff1673ffffffffffffffffffffffffffffffffffffffff168152602001600260009054906101000a900473ffffffffffffffffffffffffffffffffffffffff1673ffffffffffffffffffffffffffffffffffffffff16815250905061204c672dc9ff18dfc75ced60c01b612b1f565b612060671690bcd39df79e5f60c01b612b1f565b61207467da8675b78be003e760c01b612b1f565b4285116120b6576040517f08c379a00000000000000000000000000000000000000000000000000000000081526004016120ad906134d7565b60405180910390fd5b6120ca6730bf962f7d2ca53860c01b612b1f565b6120de67a7fc02c9b8c02b5260c01b612b1f565b6120f267783124e0c61d488e60c01b612b1f565b61210667e0c7e0d0813fbe1060c01b612b1f565b806000015173ffffffffffffffffffffffffffffffffffffffff168c73ffffffffffffffffffffffffffffffffffffffff161480156121745750806020015173ffffffffffffffffffffffffffffffffffffffff168b73ffffffffffffffffffffffffffffffffffffffff16145b6121b3576040517f08c379a00000000000000000000000000000000000000000000000000000000081526004016121aa90613928565b60405180910390fd5b6121c7679071602cd6cd1ef960c01b612b1f565b6121db6754b22f793e3024a760c01b612b1f565b6121ef67f19bd12ea49beef160c01b612b1f565b6000600354905061220a67e9ddfa9f7c44e81d60c01b612b1f565b61221e678abe8d729780b58c60c01b612b1f565b6000600454905061223967c4297a67d23a0d6e60c01b612b1f565b61224d6750f30c0da8329a0a60c01b612b1f565b60008060009054906101000a900473ffffffffffffffffffffffffffffffffffffffff1673ffffffffffffffffffffffffffffffffffffffff166318160ddd6040518163ffffffff1660e01b8152600401602060405180830381865afa1580156122bb573d6000803e3d6000fd5b505050506040513d601f19601f820116820180604052508101906122df919061395d565b90506122f5676979d86489ad5d8960c01b612b1f565b612309679d768ef50f96d4a160c01b612b1f565b6000831480156123195750600082145b1561236557612332674dbd696e71ad95cd60c01b612b1f565b612346674e343ca412f45c6d60c01b612b1f565b8c965061235d672056249f187f963660c01b612b1f565b8b955061269c565b6123796701342473a281aa0d60c01b612b1f565b61238d67f8d7c3947479ba1260c01b612b1f565b6123a167bf01d5650022c49a60c01b612b1f565b6123b567fcf462897f305f9360c01b612b1f565b600083838f6123c491906133e9565b6123ce919061345a565b90506123e4675bb95a408ce7c54760c01b612b1f565b6123f867c980f00b79d61e1560c01b612b1f565b8c81116124d95761241367b81bb7dff99c167260c01b612b1f565b61242767e2ff51304dae939560c01b612b1f565b61243b677dfae0e94fe95d8560c01b612b1f565b61244f6758dcab2a03794f6860c01b612b1f565b8a811015612492576040517f08c379a000000000000000000000000000000000000000000000000000000000815260040161248990613b86565b60405180910390fd5b6124a6672b75bbf1072e62a960c01b612b1f565b6124ba67981f13b2c879afdd60c01b612b1f565b8d97506124d167cb1647703f8dee2760c01b612b1f565b80965061269a565b6124ed6755e6c3b224d7e82660c01b612b1f565b612501675460b615899388bf60c01b612b1f565b612515678aeabc7e0eb1122660c01b612b1f565b612529672f73894fcba2596660c01b612b1f565b600083858f61253891906133e9565b612542919061345a565b90506125586772462fd851bd096760c01b612b1f565b61256c679478b109416fef6660c01b612b1f565b612580677ee054120af72fe360c01b612b1f565b8e8111156125c3576040517f08c379a00000000000000000000000000000000000000000000000000000000081526004016125ba90613bf2565b60405180910390fd5b6125d7677905d886b1d68e2f60c01b612b1f565b6125eb678a38eb051d1cab1b60c01b612b1f565b6125ff6762adaf830d93cfc560c01b612b1f565b61261367c91ffb41170e518a60c01b612b1f565b8c811015612656576040517f08c379a000000000000000000000000000000000000000000000000000000000815260040161264d90613c5e565b60405180910390fd5b61266a676baf7420b58fdf4360c01b612b1f565b61267e67aefdb0d7f1f5ee2360c01b612b1f565b80985061269567b2af4a7af0cefca860c01b612b1f565b8d9750505b505b6126af666742a3c13e37fd60c01b612b1f565b6126c3677683d69b4a91f8ae60c01b612b1f565b836000015173ffffffffffffffffffffffffffffffffffffffff166323b872dd33308a6040518463ffffffff1660e01b81526004016127049392919061362b565b6020604051808303816000875af1158015612723573d6000803e3d6000fd5b505050506040513d601f19601f82011682018060405250810190612747919061369a565b5061275c67354198f1519f388f60c01b612b1f565b61277067b631b689f5570e9b60c01b612b1f565b836020015173ffffffffffffffffffffffffffffffffffffffff166323b872dd3330896040518463ffffffff1660e01b81526004016127b19392919061362b565b6020604051808303816000875af11580156127d0573d6000803e3d6000fd5b505050506040513d601f19601f820116820180604052508101906127f4919061369a565b5061280967af2fcba6bca8394a60c01b612b1f565b61281d673ab423a2116ca40d60c01b612b1f565b6000810361286857612839671405cd8acb3ffbd060c01b612b1f565b61284d67a3b0c64e8c6a264960c01b612b1f565b612861868861285c91906133e9565b612b2d565b94506128c9565b61287c67707c0af60eb3ae9560c01b612b1f565b61289067f6db3e0b3bc3f84760c01b612b1f565b6128c68382896128a091906133e9565b6128aa919061345a565b8383896128b791906133e9565b6128c1919061345a565b612cca565b94505b6128dd67f4a65ca00f60591860c01b612b1f565b6128f1677d4f831196278f5d60c01b612b1f565b6129056778786c99df27b6f960c01b612b1f565b60008511612948576040517f08c379a000000000000000000000000000000000000000000000000000000000815260040161293f90613cca565b60405180910390fd5b61295c67f4e1e906ea7b0add60c01b612b1f565b61297067bf4662c53407579160c01b612b1f565b866003600082825461298291906133b5565b9250508190555061299d6705973e236173061460c01b612b1f565b85600460008282546129af91906133b5565b925050819055506129ca6720cfd1775ab7a8ac60c01b612b1f565b6129de67c1a50fca2e0d938b60c01b612b1f565b60008054906101000a900473ffffffffffffffffffffffffffffffffffffffff1673ffffffffffffffffffffffffffffffffffffffff166340c10f198a876040518363ffffffff1660e01b8152600401612a39929190613733565b600060405180830381600087803b158015612a5357600080fd5b505af1158015612a67573d6000803e3d6000fd5b50505050612a7f6709ea4eb3cd73402960c01b612b1f565b612a9367abb8bb4ddd842d7360c01b612b1f565b3373ffffffffffffffffffffffffffffffffffffffff167f64b83944e79c3ce8d4c297411de637c3e102d064677aac0c163976ebdcd6f50e888888604051612add93929190613266565b60405180910390a2612af9679a0af59d3a04d5da60c01b612b1f565b612b0d67afa02fabc0d7e3a360c01b612b1f565b50505050985098509895505050505050565b50565b600060019050919050565b600060018211612b3f57819050612cc5565b60008290506000600190507001000000000000000000000000000000008210612b7157608082901c9150604081901b90505b680100000000000000008210612b9057604082901c9150602081901b90505b6401000000008210612bab57602082901c9150601081901b90505b620100008210612bc457601082901c9150600881901b90505b6101008210612bdc57600882901c9150600481901b90505b60108210612bf357600482901c9150600281901b90505b60048210612c0357600181901b90505b600181600302901c90506001818581612c1f57612c1e61342b565b5b048201901c90506001818581612c3857612c3761342b565b5b048201901c90506001818581612c5157612c5061342b565b5b048201901c90506001818581612c6a57612c6961342b565b5b048201901c90506001818581612c8357612c8261342b565b5b048201901c90506001818581612c9c57612c9b61342b565b5b048201901c9050612cbe818581612cb657612cb561342b565b5b048211612ce1565b8103925050505b919050565b6000612cd98284108484612ced565b905092915050565b60008115159050919050565b6000612cf884612ce1565b82841802821890509392505050565b600080fd5b600080fd5b6000819050919050565b612d2481612d11565b8114612d2f57600080fd5b50565b600081359050612d4181612d1b565b92915050565b600080600060608486031215612d6057612d5f612d07565b5b6000612d6e86828701612d32565b9350506020612d7f86828701612d32565b9250506040612d9086828701612d32565b9150509250925092565b612da381612d11565b82525050565b6000602082019050612dbe6000830184612d9a565b92915050565b600073ffffffffffffffffffffffffffffffffffffffff82169050919050565b6000612def82612dc4565b9050919050565b612dff81612de4565b82525050565b6000602082019050612e1a6000830184612df6565b92915050565b600080fd5b600080fd5b600080fd5b60008083601f840112612e4557612e44612e20565b5b8235905067ffffffffffffffff811115612e6257612e61612e25565b5b602083019150836020820283011115612e7e57612e7d612e2a565b5b9250929050565b612e8e81612de4565b8114612e9957600080fd5b50565b600081359050612eab81612e85565b92915050565b60008060008060008060a08789031215612ece57612ecd612d07565b5b6000612edc89828a01612d32565b9650506020612eed89828a01612d32565b955050604087013567ffffffffffffffff811115612f0e57612f0d612d0c565b5b612f1a89828a01612e2f565b94509450506060612f2d89828a01612e9c565b9250506080612f3e89828a01612d32565b9150509295509295509295565b600081519050919050565b600082825260208201905092915050565b6000819050602082019050919050565b612f8081612d11565b82525050565b6000612f928383612f77565b60208301905092915050565b6000602082019050919050565b6000612fb682612f4b565b612fc08185612f56565b9350612fcb83612f67565b8060005b83811015612ffc578151612fe38882612f86565b9750612fee83612f9e565b925050600181019050612fcf565b5085935050505092915050565b600060208201905081810360008301526130238184612fab565b905092915050565b6000819050919050565b600061305061304b61304684612dc4565b61302b565b612dc4565b9050919050565b600061306282613035565b9050919050565b600061307482613057565b9050919050565b61308481613069565b82525050565b600060208201905061309f600083018461307b565b92915050565b600080604083850312156130bc576130bb612d07565b5b60006130ca85828601612e9c565b92505060206130db85828601612e9c565b9150509250929050565b600080600080600080600060e0888a03121561310457613103612d07565b5b60006131128a828b01612e9c565b97505060206131238a828b01612e9c565b96505060406131348a828b01612d32565b95505060606131458a828b01612d32565b94505060806131568a828b01612d32565b93505060a06131678a828b01612e9c565b92505060c06131788a828b01612d32565b91505092959891949750929550565b600060408201905061319c6000830185612d9a565b6131a96020830184612d9a565b9392505050565b600080600080600080600080610100898b0312156131d1576131d0612d07565b5b60006131df8b828c01612e9c565b98505060206131f08b828c01612e9c565b97505060406132018b828c01612d32565b96505060606132128b828c01612d32565b95505060806132238b828c01612d32565b94505060a06132348b828c01612d32565b93505060c06132458b828c01612e9c565b92505060e06132568b828c01612d32565b9150509295985092959890939650565b600060608201905061327b6000830186612d9a565b6132886020830185612d9a565b6132956040830184612d9a565b949350505050565b600082825260208201905092915050565b7f616d6f756e74496e203c20300000000000000000000000000000000000000000600082015250565b60006132e4600c8361329d565b91506132ef826132ae565b602082019050919050565b60006020820190508181036000830152613313816132d7565b9050919050565b7f5265736572766573203c20300000000000000000000000000000000000000000600082015250565b6000613350600c8361329d565b915061335b8261331a565b602082019050919050565b6000602082019050818103600083015261337f81613343565b9050919050565b7f4e487b7100000000000000000000000000000000000000000000000000000000600052601160045260246000fd5b60006133c082612d11565b91506133cb83612d11565b92508282019050808211156133e3576133e2613386565b5b92915050565b60006133f482612d11565b91506133ff83612d11565b925082820261340d81612d11565b9150828204841483151761342457613423613386565b5b5092915050565b7f4e487b7100000000000000000000000000000000000000000000000000000000600052601260045260246000fd5b600061346582612d11565b915061347083612d11565b9250826134805761347f61342b565b5b828204905092915050565b7f5472616e73616374206578706972656400000000000000000000000000000000600082015250565b60006134c160108361329d565b91506134cc8261348b565b602082019050919050565b600060208201905081810360008301526134f0816134b4565b9050919050565b7f4e487b7100000000000000000000000000000000000000000000000000000000600052603260045260246000fd5b60006020828403121561353c5761353b612d07565b5b600061354a84828501612e9c565b91505092915050565b7f696e76616c696420746f6b656e73000000000000000000000000000000000000600082015250565b6000613589600e8361329d565b915061359482613553565b602082019050919050565b600060208201905081810360008301526135b88161357c565b9050919050565b7f616d6f756e74496e203000000000000000000000000000000000000000000000600082015250565b60006135f5600a8361329d565b9150613600826135bf565b602082019050919050565b60006020820190508181036000830152613624816135e8565b9050919050565b60006060820190506136406000830186612df6565b61364d6020830185612df6565b61365a6040830184612d9a565b949350505050565b60008115159050919050565b61367781613662565b811461368257600080fd5b50565b6000815190506136948161366e565b92915050565b6000602082840312156136b0576136af612d07565b5b60006136be84828501613685565b91505092915050565b7f696e73756666696369656e7420616d6f756e744f757400000000000000000000600082015250565b60006136fd60168361329d565b9150613708826136c7565b602082019050919050565b6000602082019050818103600083015261372c816136f0565b9050919050565b60006040820190506137486000830185612df6565b6137556020830184612d9a565b9392505050565b600061376782612d11565b915061377283612d11565b925082820390508181111561378a57613789613386565b5b92915050565b7f4e487b7100000000000000000000000000000000000000000000000000000000600052604160045260246000fd5b60006080820190506137d46000830187612df6565b6137e16020830186612d9a565b6137ee6040830185612df6565b6137fb6060830184612d9a565b95945050505050565b7f496e76616c696420746f6b656e73000000000000000000000000000000000000600082015250565b600061383a600e8361329d565b915061384582613804565b602082019050919050565b600060208201905081810360008301526138698161382d565b9050919050565b7f4e6f204120726573657276650000000000000000000000000000000000000000600082015250565b60006138a6600c8361329d565b91506138b182613870565b602082019050919050565b600060208201905081810360008301526138d581613899565b9050919050565b7f6261642070616972000000000000000000000000000000000000000000000000600082015250565b600061391260088361329d565b915061391d826138dc565b602082019050919050565b6000602082019050818103600083015261394181613905565b9050919050565b60008151905061395781612d1b565b92915050565b60006020828403121561397357613972612d07565b5b600061398184828501613948565b91505092915050565b7f41203c206d696e00000000000000000000000000000000000000000000000000600082015250565b60006139c060078361329d565b91506139cb8261398a565b602082019050919050565b600060208201905081810360008301526139ef816139b3565b9050919050565b7f42203c206d696e00000000000000000000000000000000000000000000000000600082015250565b6000613a2c60078361329d565b9150613a37826139f6565b602082019050919050565b60006020820190508181036000830152613a5b81613a1f565b9050919050565b7f4c50206c6f770000000000000000000000000000000000000000000000000000600082015250565b6000613a9860068361329d565b9150613aa382613a62565b602082019050919050565b60006020820190508181036000830152613ac781613a8b565b9050919050565b7f7265736572766573206c6f770000000000000000000000000000000000000000600082015250565b6000613b04600c8361329d565b9150613b0f82613ace565b602082019050919050565b60006020820190508181036000830152613b3381613af7565b9050919050565b7f42206c6f77000000000000000000000000000000000000000000000000000000600082015250565b6000613b7060058361329d565b9150613b7b82613b3a565b602082019050919050565b60006020820190508181036000830152613b9f81613b63565b9050919050565b7f4120686967680000000000000000000000000000000000000000000000000000600082015250565b6000613bdc60068361329d565b9150613be782613ba6565b602082019050919050565b60006020820190508181036000830152613c0b81613bcf565b9050919050565b7f41206c6f77000000000000000000000000000000000000000000000000000000600082015250565b6000613c4860058361329d565b9150613c5382613c12565b602082019050919050565b60006020820190508181036000830152613c7781613c3b565b9050919050565b7f7a65726f206c6971000000000000000000000000000000000000000000000000600082015250565b6000613cb460088361329d565b9150613cbf82613c7e565b602082019050919050565b60006020820190508181036000830152613ce381613ca7565b905091905056fea26469706673582212209bdd067f74eaf92961f1df4f7acdec92803574a92ab7923b7adcbbcfab801c6164736f6c634300081c0033608060405234801561001057600080fd5b50604051611a83380380611a8383398181016040528101906100329190610397565b80838381600390816100449190610643565b5080600490816100549190610643565b505050600073ffffffffffffffffffffffffffffffffffffffff168173ffffffffffffffffffffffffffffffffffffffff16036100c95760006040517f1e4fbdf70000000000000000000000000000000000000000000000000000000081526004016100c09190610724565b60405180910390fd5b6100d8816100fb60201b60201c565b506100f3673cb8a0cd5c5b4cbe60c01b6101c160201b60201c565b50505061073f565b6000600560009054906101000a900473ffffffffffffffffffffffffffffffffffffffff16905081600560006101000a81548173ffffffffffffffffffffffffffffffffffffffff021916908373ffffffffffffffffffffffffffffffffffffffff1602179055508173ffffffffffffffffffffffffffffffffffffffff168173ffffffffffffffffffffffffffffffffffffffff167f8be0079c531659141344cd1fd0a4f28419497f9722a3daafe3b4186f6b6457e060405160405180910390a35050565b50565b6000604051905090565b600080fd5b600080fd5b600080fd5b600080fd5b6000601f19601f8301169050919050565b7f4e487b7100000000000000000000000000000000000000000000000000000000600052604160045260246000fd5b61022b826101e2565b810181811067ffffffffffffffff8211171561024a576102496101f3565b5b80604052505050565b600061025d6101c4565b90506102698282610222565b919050565b600067ffffffffffffffff821115610289576102886101f3565b5b610292826101e2565b9050602081019050919050565b60005b838110156102bd5780820151818401526020810190506102a2565b60008484015250505050565b60006102dc6102d78461026e565b610253565b9050828152602081018484840111156102f8576102f76101dd565b5b61030384828561029f565b509392505050565b600082601f8301126103205761031f6101d8565b5b81516103308482602086016102c9565b91505092915050565b600073ffffffffffffffffffffffffffffffffffffffff82169050919050565b600061036482610339565b9050919050565b61037481610359565b811461037f57600080fd5b50565b6000815190506103918161036b565b92915050565b6000806000606084860312156103b0576103af6101ce565b5b600084015167ffffffffffffffff8111156103ce576103cd6101d3565b5b6103da8682870161030b565b935050602084015167ffffffffffffffff8111156103fb576103fa6101d3565b5b6104078682870161030b565b925050604061041886828701610382565b9150509250925092565b600081519050919050565b7f4e487b7100000000000000000000000000000000000000000000000000000000600052602260045260246000fd5b6000600282049050600182168061047457607f821691505b6020821081036104875761048661042d565b5b50919050565b60008190508160005260206000209050919050565b60006020601f8301049050919050565b600082821b905092915050565b6000600883026104ef7fffffffffffffffffffffffffffffffffffffffffffffffffffffffffffffffff826104b2565b6104f986836104b2565b95508019841693508086168417925050509392505050565b6000819050919050565b6000819050919050565b600061054061053b61053684610511565b61051b565b610511565b9050919050565b6000819050919050565b61055a83610525565b61056e61056682610547565b8484546104bf565b825550505050565b600090565b610583610576565b61058e818484610551565b505050565b5b818110156105b2576105a760008261057b565b600181019050610594565b5050565b601f8211156105f7576105c88161048d565b6105d1846104a2565b810160208510156105e0578190505b6105f46105ec856104a2565b830182610593565b50505b505050565b600082821c905092915050565b600061061a600019846008026105fc565b1980831691505092915050565b60006106338383610609565b9150826002028217905092915050565b61064c82610422565b67ffffffffffffffff811115610665576106646101f3565b5b61066f825461045c565b61067a8282856105b6565b600060209050601f8311600181146106ad576000841561069b578287015190505b6106a58582610627565b86555061070d565b601f1984166106bb8661048d565b60005b828110156106e3578489015182556001820191506020850194506020810190506106be565b8683101561070057848901516106fc601f891682610609565b8355505b6001600288020188555050505b505050505050565b61071e81610359565b82525050565b60006020820190506107396000830184610715565b92915050565b6113358061074e6000396000f3fe608060405234801561001057600080fd5b50600436106100ea5760003560e01c8063715018a61161008c57806395d89b411161006657806395d89b4114610239578063a9059cbb14610257578063dd62ed3e14610287578063f2fde38b146102b7576100ea565b8063715018a6146101f557806379cc6790146101ff5780638da5cb5b1461021b576100ea565b806323b872dd116100c857806323b872dd1461015b578063313ce5671461018b57806340c10f19146101a957806370a08231146101c5576100ea565b806306fdde03146100ef578063095ea7b31461010d57806318160ddd1461013d575b600080fd5b6100f76102d3565b6040516101049190610f89565b60405180910390f35b61012760048036038101906101229190611044565b610365565b604051610134919061109f565b60405180910390f35b610145610388565b60405161015291906110c9565b60405180910390f35b610175600480360381019061017091906110e4565b610392565b604051610182919061109f565b60405180910390f35b6101936103c1565b6040516101a09190611153565b60405180910390f35b6101c360048036038101906101be9190611044565b6103ca565b005b6101df60048036038101906101da919061116e565b610444565b6040516101ec91906110c9565b60405180910390f35b6101fd61048c565b005b61021960048036038101906102149190611044565b6104a0565b005b61022361051a565b60405161023091906111aa565b60405180910390f35b610241610544565b60405161024e9190610f89565b60405180910390f35b610271600480360381019061026c9190611044565b6105d6565b60405161027e919061109f565b60405180910390f35b6102a1600480360381019061029c91906111c5565b6105f9565b6040516102ae91906110c9565b60405180910390f35b6102d160048036038101906102cc919061116e565b610680565b005b6060600380546102e290611234565b80601f016020809104026020016040519081016040528092919081815260200182805461030e90611234565b801561035b5780601f106103305761010080835404028352916020019161035b565b820191906000526020600020905b81548152906001019060200180831161033e57829003601f168201915b5050505050905090565b600080610370610706565b905061037d81858561070e565b600191505092915050565b6000600254905090565b60008061039d610706565b90506103aa858285610720565b6103b58585856107b5565b60019150509392505050565b60006012905090565b6103de67dd498d0ad5a0bee660c01b6108a9565b6103e66108ac565b6103fa673b21fbc42779ece260c01b6108a9565b61040e675c34505675f52b9560c01b6108a9565b610422671d4ed83e47a6364060c01b6108a9565b610436672cc9137215e865f660c01b6108a9565b6104408282610933565b5050565b60008060008373ffffffffffffffffffffffffffffffffffffffff1673ffffffffffffffffffffffffffffffffffffffff168152602001908152602001600020549050919050565b6104946108ac565b61049e60006109b5565b565b6104b467202ac6069fe4ed4a60c01b6108a9565b6104bc6108ac565b6104d067cadfe75d41a5037460c01b6108a9565b6104e4673756d69b21cd7e4a60c01b6108a9565b6104f867e57fb20251e3421c60c01b6108a9565b61050c676ed9b55b5b8ae74f60c01b6108a9565b6105168282610a7b565b5050565b6000600560009054906101000a900473ffffffffffffffffffffffffffffffffffffffff16905090565b60606004805461055390611234565b80601f016020809104026020016040519081016040528092919081815260200182805461057f90611234565b80156105cc5780601f106105a1576101008083540402835291602001916105cc565b820191906000526020600020905b8154815290600101906020018083116105af57829003601f168201915b5050505050905090565b6000806105e1610706565b90506105ee8185856107b5565b600191505092915050565b6000600160008473ffffffffffffffffffffffffffffffffffffffff1673ffffffffffffffffffffffffffffffffffffffff16815260200190815260200160002060008373ffffffffffffffffffffffffffffffffffffffff1673ffffffffffffffffffffffffffffffffffffffff16815260200190815260200160002054905092915050565b6106886108ac565b600073ffffffffffffffffffffffffffffffffffffffff168173ffffffffffffffffffffffffffffffffffffffff16036106fa5760006040517f1e4fbdf70000000000000000000000000000000000000000000000000000000081526004016106f191906111aa565b60405180910390fd5b610703816109b5565b50565b600033905090565b61071b8383836001610afd565b505050565b600061072c84846105f9565b90507fffffffffffffffffffffffffffffffffffffffffffffffffffffffffffffffff8110156107af578181101561079f578281836040517ffb8f41b200000000000000000000000000000000000000000000000000000000815260040161079693929190611265565b60405180910390fd5b6107ae84848484036000610afd565b5b50505050565b600073ffffffffffffffffffffffffffffffffffffffff168373ffffffffffffffffffffffffffffffffffffffff16036108275760006040517f96c6fd1e00000000000000000000000000000000000000000000000000000000815260040161081e91906111aa565b60405180910390fd5b600073ffffffffffffffffffffffffffffffffffffffff168273ffffffffffffffffffffffffffffffffffffffff16036108995760006040517fec442f0500000000000000000000000000000000000000000000000000000000815260040161089091906111aa565b60405180910390fd5b6108a4838383610cd4565b505050565b50565b6108b4610706565b73ffffffffffffffffffffffffffffffffffffffff166108d261051a565b73ffffffffffffffffffffffffffffffffffffffff1614610931576108f5610706565b6040517f118cdaa700000000000000000000000000000000000000000000000000000000815260040161092891906111aa565b60405180910390fd5b565b600073ffffffffffffffffffffffffffffffffffffffff168273ffffffffffffffffffffffffffffffffffffffff16036109a55760006040517fec442f0500000000000000000000000000000000000000000000000000000000815260040161099c91906111aa565b60405180910390fd5b6109b160008383610cd4565b5050565b6000600560009054906101000a900473ffffffffffffffffffffffffffffffffffffffff16905081600560006101000a81548173ffffffffffffffffffffffffffffffffffffffff021916908373ffffffffffffffffffffffffffffffffffffffff1602179055508173ffffffffffffffffffffffffffffffffffffffff168173ffffffffffffffffffffffffffffffffffffffff167f8be0079c531659141344cd1fd0a4f28419497f9722a3daafe3b4186f6b6457e060405160405180910390a35050565b600073ffffffffffffffffffffffffffffffffffffffff168273ffffffffffffffffffffffffffffffffffffffff1603610aed5760006040517f96c6fd1e000000000000000000000000000000000000000000000000000000008152600401610ae491906111aa565b60405180910390fd5b610af982600083610cd4565b5050565b600073ffffffffffffffffffffffffffffffffffffffff168473ffffffffffffffffffffffffffffffffffffffff1603610b6f5760006040517fe602df05000000000000000000000000000000000000000000000000000000008152600401610b6691906111aa565b60405180910390fd5b600073ffffffffffffffffffffffffffffffffffffffff168373ffffffffffffffffffffffffffffffffffffffff1603610be15760006040517f94280d62000000000000000000000000000000000000000000000000000000008152600401610bd891906111aa565b60405180910390fd5b81600160008673ffffffffffffffffffffffffffffffffffffffff1673ffffffffffffffffffffffffffffffffffffffff16815260200190815260200160002060008573ffffffffffffffffffffffffffffffffffffffff1673ffffffffffffffffffffffffffffffffffffffff168152602001908152602001600020819055508015610cce578273ffffffffffffffffffffffffffffffffffffffff168473ffffffffffffffffffffffffffffffffffffffff167f8c5be1e5ebec7d5bd14f71427d1e84f3dd0314c0f7b2291e5b200ac8c7c3b92584604051610cc591906110c9565b60405180910390a35b50505050565b600073ffffffffffffffffffffffffffffffffffffffff168373ffffffffffffffffffffffffffffffffffffffff1603610d26578060026000828254610d1a91906112cb565b92505081905550610df9565b60008060008573ffffffffffffffffffffffffffffffffffffffff1673ffffffffffffffffffffffffffffffffffffffff16815260200190815260200160002054905081811015610db2578381836040517fe450d38c000000000000000000000000000000000000000000000000000000008152600401610da993929190611265565b60405180910390fd5b8181036000808673ffffffffffffffffffffffffffffffffffffffff1673ffffffffffffffffffffffffffffffffffffffff16815260200190815260200160002081905550505b600073ffffffffffffffffffffffffffffffffffffffff168273ffffffffffffffffffffffffffffffffffffffff1603610e425780600260008282540392505081905550610e8f565b806000808473ffffffffffffffffffffffffffffffffffffffff1673ffffffffffffffffffffffffffffffffffffffff168152602001908152602001600020600082825401925050819055505b8173ffffffffffffffffffffffffffffffffffffffff168373ffffffffffffffffffffffffffffffffffffffff167fddf252ad1be2c89b69c2b068fc378daa952ba7f163c4a11628f55a4df523b3ef83604051610eec91906110c9565b60405180910390a3505050565b600081519050919050565b600082825260208201905092915050565b60005b83811015610f33578082015181840152602081019050610f18565b60008484015250505050565b6000601f19601f8301169050919050565b6000610f5b82610ef9565b610f658185610f04565b9350610f75818560208601610f15565b610f7e81610f3f565b840191505092915050565b60006020820190508181036000830152610fa38184610f50565b905092915050565b600080fd5b600073ffffffffffffffffffffffffffffffffffffffff82169050919050565b6000610fdb82610fb0565b9050919050565b610feb81610fd0565b8114610ff657600080fd5b50565b60008135905061100881610fe2565b92915050565b6000819050919050565b6110218161100e565b811461102c57600080fd5b50565b60008135905061103e81611018565b92915050565b6000806040838503121561105b5761105a610fab565b5b600061106985828601610ff9565b925050602061107a8582860161102f565b9150509250929050565b60008115159050919050565b61109981611084565b82525050565b60006020820190506110b46000830184611090565b92915050565b6110c38161100e565b82525050565b60006020820190506110de60008301846110ba565b92915050565b6000806000606084860312156110fd576110fc610fab565b5b600061110b86828701610ff9565b935050602061111c86828701610ff9565b925050604061112d8682870161102f565b9150509250925092565b600060ff82169050919050565b61114d81611137565b82525050565b60006020820190506111686000830184611144565b92915050565b60006020828403121561118457611183610fab565b5b600061119284828501610ff9565b91505092915050565b6111a481610fd0565b82525050565b60006020820190506111bf600083018461119b565b92915050565b600080604083850312156111dc576111db610fab565b5b60006111ea85828601610ff9565b92505060206111fb85828601610ff9565b9150509250929050565b7f4e487b7100000000000000000000000000000000000000000000000000000000600052602260045260246000fd5b6000600282049050600182168061124c57607f821691505b60208210810361125f5761125e611205565b5b50919050565b600060608201905061127a600083018661119b565b61128760208301856110ba565b61129460408301846110ba565b949350505050565b7f4e487b7100000000000000000000000000000000000000000000000000000000600052601160045260246000fd5b60006112d68261100e565b91506112e18361100e565b92508282019050808211156112f9576112f861129c565b5b9291505056fea264697066735822122059c4c326437f45e295ca5a8b829310de0e8eb6114ea67da70556582e7b5f604564736f6c634300081c0033",
  "linkReferences": {},
  "deployedLinkReferences": {}
}