{
  "_format": "hh-sol-artifact-1",
  "contractName": "SimpleSwap",
  "sourceName": "contracts/SimpleSwap.sol",
  "abi": [
    {
      "inputs": [
        {
          "internalType": "address",
          "name": "_tokenA",
          "type": "address"
        },
        {
          "internalType": "address",
          "name": "_tokenB",
          "type": "address"
        }
      ],
      "stateMutability": "nonpayable",
      "type": "constructor"
    },
    {
      "anonymous": false,
      "inputs": [
        {
          "indexed": true,
          "internalType": "address",
          "name": "provider",
          "type": "address"
        },
        {
          "indexed": false,
          "internalType": "uint256",
          "name": "amountA",
          "type": "uint256"
        },
        {
          "indexed": false,
          "internalType": "uint256",
          "name": "amountB",
          "type": "uint256"
        },
        {
          "indexed": false,
          "internalType": "uint256",
          "name": "liquidityMinted",
          "type": "uint256"
        }
      ],
      "name": "InitialLiquidityAdded",
      "type": "event"
    },
    {
      "anonymous": false,
      "inputs": [
        {
          "indexed": true,
          "internalType": "address",
          "name": "provider",
          "type": "address"
        },
        {
          "indexed": false,
          "internalType": "uint256",
          "name": "amountA",
          "type": "uint256"
        },
        {
          "indexed": false,
          "internalType": "uint256",
          "name": "amountB",
          "type": "uint256"
        },
        {
          "indexed": false,
          "internalType": "uint256",
          "name": "liquidityMinted",
          "type": "uint256"
        }
      ],
      "name": "LiquidityAdded",
      "type": "event"
    },
    {
      "anonymous": false,
      "inputs": [
        {
          "indexed": true,
          "internalType": "address",
          "name": "provider",
          "type": "address"
        },
        {
          "indexed": false,
          "internalType": "uint256",
          "name": "amountA",
          "type": "uint256"
        },
        {
          "indexed": false,
          "internalType": "uint256",
          "name": "amountB",
          "type": "uint256"
        },
        {
          "indexed": false,
          "internalType": "uint256",
          "name": "liquidityBurned",
          "type": "uint256"
        }
      ],
      "name": "LiquidityRemoved",
      "type": "event"
    },
    {
      "anonymous": false,
      "inputs": [
        {
          "indexed": true,
          "internalType": "address",
          "name": "swapper",
          "type": "address"
        },
        {
          "indexed": false,
          "internalType": "address",
          "name": "tokenIn",
          "type": "address"
        },
        {
          "indexed": false,
          "internalType": "uint256",
          "name": "amountIn",
          "type": "uint256"
        },
        {
          "indexed": false,
          "internalType": "address",
          "name": "tokenOut",
          "type": "address"
        },
        {
          "indexed": false,
          "internalType": "uint256",
          "name": "amountOut",
          "type": "uint256"
        }
      ],
      "name": "TokensSwapped",
      "type": "event"
    },
    {
      "inputs": [
        {
          "internalType": "address",
          "name": "tokenA_",
          "type": "address"
        },
        {
          "internalType": "address",
          "name": "tokenB_",
          "type": "address"
        },
        {
          "internalType": "uint256",
          "name": "amountADesired",
          "type": "uint256"
        },
        {
          "internalType": "uint256",
          "name": "amountBDesired",
          "type": "uint256"
        },
        {
          "internalType": "uint256",
          "name": "amountAMin",
          "type": "uint256"
        },
        {
          "internalType": "uint256",
          "name": "amountBMin",
          "type": "uint256"
        },
        {
          "internalType": "address",
          "name": "to",
          "type": "address"
        },
        {
          "internalType": "uint256",
          "name": "deadline",
          "type": "uint256"
        }
      ],
      "name": "addLiquidity",
      "outputs": [
        {
          "internalType": "uint256",
          "name": "amountA",
          "type": "uint256"
        },
        {
          "internalType": "uint256",
          "name": "amountB",
          "type": "uint256"
        },
        {
          "internalType": "uint256",
          "name": "liquidity",
          "type": "uint256"
        }
      ],
      "stateMutability": "nonpayable",
      "type": "function"
    },
    {
      "inputs": [],
      "name": "decimals",
      "outputs": [
        {
          "internalType": "uint8",
          "name": "",
          "type": "uint8"
        }
      ],
      "stateMutability": "view",
      "type": "function"
    },
    {
      "inputs": [
        {
          "internalType": "uint256",
          "name": "amountIn",
          "type": "uint256"
        },
        {
          "internalType": "uint256",
          "name": "reserveIn",
          "type": "uint256"
        },
        {
          "internalType": "uint256",
          "name": "reserveOut",
          "type": "uint256"
        }
      ],
      "name": "getAmountOut",
      "outputs": [
        {
          "internalType": "uint256",
          "name": "amountOut",
          "type": "uint256"
        }
      ],
      "stateMutability": "pure",
      "type": "function"
    },
    {
      "inputs": [
        {
          "internalType": "address",
          "name": "tokenA_",
          "type": "address"
        },
        {
          "internalType": "address",
          "name": "tokenB_",
          "type": "address"
        }
      ],
      "name": "getPrice",
      "outputs": [
        {
          "internalType": "uint256",
          "name": "price",
          "type": "uint256"
        }
      ],
      "stateMutability": "view",
      "type": "function"
    },
    {
      "inputs": [],
      "name": "name",
      "outputs": [
        {
          "internalType": "string",
          "name": "",
          "type": "string"
        }
      ],
      "stateMutability": "view",
      "type": "function"
    },
    {
      "inputs": [],
      "name": "owner",
      "outputs": [
        {
          "internalType": "address",
          "name": "",
          "type": "address"
        }
      ],
      "stateMutability": "view",
      "type": "function"
    },
    {
      "inputs": [
        {
          "internalType": "address",
          "name": "tokenA_",
          "type": "address"
        },
        {
          "internalType": "address",
          "name": "tokenB_",
          "type": "address"
        },
        {
          "internalType": "uint256",
          "name": "liquidity",
          "type": "uint256"
        },
        {
          "internalType": "uint256",
          "name": "amountAMin",
          "type": "uint256"
        },
        {
          "internalType": "uint256",
          "name": "amountBMin",
          "type": "uint256"
        },
        {
          "internalType": "address",
          "name": "to",
          "type": "address"
        },
        {
          "internalType": "uint256",
          "name": "deadline",
          "type": "uint256"
        }
      ],
      "name": "removeLiquidity",
      "outputs": [
        {
          "internalType": "uint256",
          "name": "amountA",
          "type": "uint256"
        },
        {
          "internalType": "uint256",
          "name": "amountB",
          "type": "uint256"
        }
      ],
      "stateMutability": "nonpayable",
      "type": "function"
    },
    {
      "inputs": [],
      "name": "reserveA",
      "outputs": [
        {
          "internalType": "uint256",
          "name": "",
          "type": "uint256"
        }
      ],
      "stateMutability": "view",
      "type": "function"
    },
    {
      "inputs": [],
      "name": "reserveB",
      "outputs": [
        {
          "internalType": "uint256",
          "name": "",
          "type": "uint256"
        }
      ],
      "stateMutability": "view",
      "type": "function"
    },
    {
      "inputs": [
        {
          "internalType": "uint256",
          "name": "amountIn",
          "type": "uint256"
        },
        {
          "internalType": "uint256",
          "name": "amountOutMin",
          "type": "uint256"
        },
        {
          "internalType": "address[]",
          "name": "path",
          "type": "address[]"
        },
        {
          "internalType": "address",
          "name": "to",
          "type": "address"
        },
        {
          "internalType": "uint256",
          "name": "deadline",
          "type": "uint256"
        }
      ],
      "name": "swapExactTokensForTokens",
      "outputs": [
        {
          "internalType": "uint256[]",
          "name": "amounts",
          "type": "uint256[]"
        }
      ],
      "stateMutability": "nonpayable",
      "type": "function"
    },
    {
      "inputs": [],
      "name": "symbol",
      "outputs": [
        {
          "internalType": "string",
          "name": "",
          "type": "string"
        }
      ],
      "stateMutability": "view",
      "type": "function"
    },
    {
      "inputs": [],
      "name": "tokenA",
      "outputs": [
        {
          "internalType": "address",
          "name": "",
          "type": "address"
        }
      ],
      "stateMutability": "view",
      "type": "function"
    },
    {
      "inputs": [],
      "name": "tokenB",
      "outputs": [
        {
          "internalType": "address",
          "name": "",
          "type": "address"
        }
      ],
      "stateMutability": "view",
      "type": "function"
    }
  ],
  "bytecode": "0x608060405234801561001057600080fd5b50604051614465380380614465833981810160405281019061003291906102bd565b61004c67afa76213d09caf1b60c01b61025760201b60201c565b610066670e43bbb992220b6760c01b61025760201b60201c565b81600360016101000a81548173ffffffffffffffffffffffffffffffffffffffff021916908373ffffffffffffffffffffffffffffffffffffffff1602179055506100c167b7b64eb168e6da1160c01b61025760201b60201c565b80600460006101000a81548173ffffffffffffffffffffffffffffffffffffffff021916908373ffffffffffffffffffffffffffffffffffffffff16021790555061011c67211e165515084ff460c01b61025760201b60201c565b6040518060400160405280601381526020017f53696d706c6553776170204c5020546f6b656e0000000000000000000000000081525060019081610160919061054d565b5061017b678c8e108c9524752160c01b61025760201b60201c565b6040518060400160405280600481526020017f53534c5000000000000000000000000000000000000000000000000000000000815250600290816101bf919061054d565b506101da678fa0268ab256728260c01b61025760201b60201c565b6012600360006101000a81548160ff021916908360ff16021790555061021067a8551ff4bb553cbd60c01b61025760201b60201c565b336000806101000a81548173ffffffffffffffffffffffffffffffffffffffff021916908373ffffffffffffffffffffffffffffffffffffffff160217905550505061061f565b50565b600080fd5b600073ffffffffffffffffffffffffffffffffffffffff82169050919050565b600061028a8261025f565b9050919050565b61029a8161027f565b81146102a557600080fd5b50565b6000815190506102b781610291565b92915050565b600080604083850312156102d4576102d361025a565b5b60006102e2858286016102a8565b92505060206102f3858286016102a8565b9150509250929050565b600081519050919050565b7f4e487b7100000000000000000000000000000000000000000000000000000000600052604160045260246000fd5b7f4e487b7100000000000000000000000000000000000000000000000000000000600052602260045260246000fd5b6000600282049050600182168061037e57607f821691505b60208210810361039157610390610337565b5b50919050565b60008190508160005260206000209050919050565b60006020601f8301049050919050565b600082821b905092915050565b6000600883026103f97fffffffffffffffffffffffffffffffffffffffffffffffffffffffffffffffff826103bc565b61040386836103bc565b95508019841693508086168417925050509392505050565b6000819050919050565b6000819050919050565b600061044a6104456104408461041b565b610425565b61041b565b9050919050565b6000819050919050565b6104648361042f565b61047861047082610451565b8484546103c9565b825550505050565b600090565b61048d610480565b61049881848461045b565b505050565b5b818110156104bc576104b1600082610485565b60018101905061049e565b5050565b601f821115610501576104d281610397565b6104db846103ac565b810160208510156104ea578190505b6104fe6104f6856103ac565b83018261049d565b50505b505050565b600082821c905092915050565b600061052460001984600802610506565b1980831691505092915050565b600061053d8383610513565b9150826002028217905092915050565b610556826102fd565b67ffffffffffffffff81111561056f5761056e610308565b5b6105798254610366565b6105848282856104c0565b600060209050601f8311600181146105b757600084156105a5578287015190505b6105af8582610531565b865550610617565b601f1984166105c586610397565b60005b828110156105ed578489015182556001820191506020850194506020810190506105c8565b8683101561060a5784890151610606601f891682610513565b8355505b6001600288020188555050505b505050505050565b613e378061062e6000396000f3fe608060405234801561001057600080fd5b50600436106100cf5760003560e01c80635f64b55b1161008c578063ac41865a11610066578063ac41865a14610206578063baa2abde14610236578063dc5fa6c514610267578063e8e3370014610285576100cf565b80635f64b55b146101ac5780638da5cb5b146101ca57806395d89b41146101e8576100cf565b8063054d50d4146100d457806306fdde03146101045780630fc63d101461012257806319e36f3b14610140578063313ce5671461015e57806338ed17391461017c575b600080fd5b6100ee60048036038101906100e99190612de2565b6102b7565b6040516100fb9190612e44565b60405180910390f35b61010c610466565b6040516101199190612eef565b60405180910390f35b61012a610534565b6040516101379190612f52565b60405180910390f35b61014861055a565b6040516101559190612e44565b60405180910390f35b610166610560565b6040516101739190612f89565b60405180910390f35b61019660048036038101906101919190613035565b6105b3565b6040516101a3919061318d565b60405180910390f35b6101b46112ee565b6040516101c19190612f52565b60405180910390f35b6101d2611314565b6040516101df9190612f52565b60405180910390f35b6101f0611338565b6040516101fd9190612eef565b60405180910390f35b610220600480360381019061021b91906131af565b611406565b60405161022d9190612e44565b60405180910390f35b610250600480360381019061024b91906131ef565b6117ce565b60405161025e929190613291565b60405180910390f35b61026f6120ae565b60405161027c9190612e44565b60405180910390f35b61029f600480360381019061029a91906132ba565b6120b4565b6040516102ae93929190613370565b60405180910390f35b60006102cd67bb52215df58af57460c01b612bba565b6102e167795b1287d86cf52460c01b612bba565b6102f567b4d4d62f1850fbde60c01b612bba565b61030967eb26c1f07a326e8c60c01b612bba565b6000841161034c576040517f08c379a0000000000000000000000000000000000000000000000000000000008152600401610343906133f3565b60405180910390fd5b6103606757ca3a5c2880ed2060c01b612bba565b61037467f55d9fa2c167ff3a60c01b612bba565b61038867419b3ae0428da53060c01b612bba565b61039c67cfdd2e205721374b60c01b612bba565b6000831180156103ac5750600082115b6103eb576040517f08c379a00000000000000000000000000000000000000000000000000000000081526004016103e29061345f565b60405180910390fd5b6103ff67d1f092d2dffdeba660c01b612bba565b61041367376ea099f14b9a5560c01b612bba565b838361041f91906134ae565b828561042b91906134e2565b6104359190613553565b905061044b67f61f24e590ff83bd60c01b612bba565b61045f674c0e98d0713a370460c01b612bba565b9392505050565b606061047c67c9f47d9068a08adf60c01b612bba565b610490672dc9ff18dfc75ced60c01b612bba565b6104a4671690bcd39df79e5f60c01b612bba565b600180546104b1906135b3565b80601f01602080910402602001604051908101604052809291908181526020018280546104dd906135b3565b801561052a5780601f106104ff5761010080835404028352916020019161052a565b820191906000526020600020905b81548152906001019060200180831161050d57829003601f168201915b5050505050905090565b600360019054906101000a900473ffffffffffffffffffffffffffffffffffffffff1681565b60065481565b600061057667783124e0c61d488e60c01b612bba565b61058a67e0c7e0d0813fbe1060c01b612bba565b61059e679071602cd6cd1ef960c01b612bba565b600360009054906101000a900460ff16905090565b60606105c967b4dc9356961aa79260c01b612bba565b6105dd67be41a98f7de10e8460c01b612bba565b6105f167fc498058c7f74ea660c01b612bba565b61060567b0762056f5a79ab560c01b612bba565b428211610647576040517f08c379a000000000000000000000000000000000000000000000000000000000815260040161063e90613630565b60405180910390fd5b61065b67ef51f09a9a88e7da60c01b612bba565b61066f671c1d4f00350779a660c01b612bba565b61068367c258c1c29afaa91460c01b612bba565b61069767786c714c6531ded360c01b612bba565b6002858590501480156107265750848460018181106106b9576106b8613650565b5b90506020020160208101906106ce919061367f565b73ffffffffffffffffffffffffffffffffffffffff16858560008181106106f8576106f7613650565b5b905060200201602081019061070d919061367f565b73ffffffffffffffffffffffffffffffffffffffff1614155b610765576040517f08c379a000000000000000000000000000000000000000000000000000000000815260040161075c906136f8565b60405180910390fd5b610779675d053a39cbb6bd2c60c01b612bba565b61078d6777b421798d4bbf8b60c01b612bba565b6107a1671730ba1c504f708660c01b612bba565b6107b567910e99ac159e972b60c01b612bba565b600087116107f8576040517f08c379a00000000000000000000000000000000000000000000000000000000081526004016107ef90613764565b60405180910390fd5b61080c67c7da7149aa2930c260c01b612bba565b610820679793e7b36d7c9dc160c01b612bba565b61083467c26edad64174d3d660c01b612bba565b60006040518060400160405280600360019054906101000a900473ffffffffffffffffffffffffffffffffffffffff1673ffffffffffffffffffffffffffffffffffffffff168152602001600460009054906101000a900473ffffffffffffffffffffffffffffffffffffffff1673ffffffffffffffffffffffffffffffffffffffff1681525090506108d167ae950aefc52da0d660c01b612bba565b6108e567469d0b87d4d61b3360c01b612bba565b600060055490506109006723bd17533d064ee760c01b612bba565b610914670384d6883d98b59460c01b612bba565b6000600654905061092f67dd32eedda0a221d660c01b612bba565b6109436741be2abdcc9133d860c01b612bba565b6109576740f627b27945c37860c01b612bba565b826000015173ffffffffffffffffffffffffffffffffffffffff168888600081811061098657610985613650565b5b905060200201602081019061099b919061367f565b73ffffffffffffffffffffffffffffffffffffffff16148015610a155750826020015173ffffffffffffffffffffffffffffffffffffffff16888860018181106109e8576109e7613650565b5b90506020020160208101906109fd919061367f565b73ffffffffffffffffffffffffffffffffffffffff16145b8015610a315750610a3067fc64b40c3cfe5fc260c01b612bbd565b5b80610b125750826020015173ffffffffffffffffffffffffffffffffffffffff1688886000818110610a6657610a65613650565b5b9050602002016020810190610a7b919061367f565b73ffffffffffffffffffffffffffffffffffffffff16148015610af55750826000015173ffffffffffffffffffffffffffffffffffffffff1688886001818110610ac857610ac7613650565b5b9050602002016020810190610add919061367f565b73ffffffffffffffffffffffffffffffffffffffff16145b8015610b115750610b1067ca1b1c8c0325acdd60c01b612bbd565b5b5b610b51576040517f08c379a0000000000000000000000000000000000000000000000000000000008152600401610b48906136f8565b60405180910390fd5b610b6567a2e91fcc53e9a09760c01b612bba565b610b796710d62a01b41c1cdc60c01b612bba565b610b8d678dcadb22b852870e60c01b612bba565b6000610ba367b136fcaa71607d3860c01b612bba565b610bb767fe85dae170d404f660c01b612bba565b836000015173ffffffffffffffffffffffffffffffffffffffff1689896000818110610be657610be5613650565b5b9050602002016020810190610bfb919061367f565b73ffffffffffffffffffffffffffffffffffffffff1603610e9e57610c2a6741c2a81bc228923460c01b612bba565b610c3e6765624e39aa424a1a60c01b612bba565b610c52677b4c5c9fdad7a1dc60c01b612bba565b836000015173ffffffffffffffffffffffffffffffffffffffff166323b872dd33308e6040518463ffffffff1660e01b8152600401610c9393929190613784565b6020604051808303816000875af1158015610cb2573d6000803e3d6000fd5b505050506040513d601f19601f82011682018060405250810190610cd691906137f3565b50610ceb67db7c34a798d8028160c01b612bba565b8a83610cf791906134ae565b828c610d0391906134e2565b610d0d9190613553565b9050610d23675eca881be89a529860c01b612bba565b610d3767678944b377108b1560c01b612bba565b610d4b67e8dc1d648708122260c01b612bba565b89811015610d8e576040517f08c379a0000000000000000000000000000000000000000000000000000000008152600401610d859061386c565b60405180910390fd5b610da2675220b151c79309ca60c01b612bba565b610db6673abf66949540149e60c01b612bba565b610dca67643aae1a30cb725e60c01b612bba565b836020015173ffffffffffffffffffffffffffffffffffffffff1663a9059cbb88836040518363ffffffff1660e01b8152600401610e0992919061388c565b6020604051808303816000875af1158015610e28573d6000803e3d6000fd5b505050506040513d601f19601f82011682018060405250810190610e4c91906137f3565b50610e6167ac16aed25ee1428c60c01b612bba565b8a83610e6d91906134ae565b600581905550610e876775f2a07ee0b4287460c01b612bba565b8082610e9391906138b5565b600681905550611122565b610eb26751bc466dd120172660c01b612bba565b610ec6677df208b2e6cb324660c01b612bba565b610eda6733eb778961420ae560c01b612bba565b836020015173ffffffffffffffffffffffffffffffffffffffff166323b872dd33308e6040518463ffffffff1660e01b8152600401610f1b93929190613784565b6020604051808303816000875af1158015610f3a573d6000803e3d6000fd5b505050506040513d601f19601f82011682018060405250810190610f5e91906137f3565b50610f73672a235aff65f1e59060c01b612bba565b8a82610f7f91906134ae565b838c610f8b91906134e2565b610f959190613553565b9050610fab670f561cfdb2bcb03060c01b612bba565b610fbf67247b345f9d2a9c4960c01b612bba565b610fd367c0cc46dc0117b2f060c01b612bba565b89811015611016576040517f08c379a000000000000000000000000000000000000000000000000000000000815260040161100d9061386c565b60405180910390fd5b61102a67982c91054d74e95860c01b612bba565b61103e675dd2e1e05e27b39360c01b612bba565b61105267fb51bec7b9b841f660c01b612bba565b836000015173ffffffffffffffffffffffffffffffffffffffff1663a9059cbb88836040518363ffffffff1660e01b815260040161109192919061388c565b6020604051808303816000875af11580156110b0573d6000803e3d6000fd5b505050506040513d601f19601f820116820180604052508101906110d491906137f3565b506110e967c33a66768b73e28660c01b612bba565b80836110f591906138b5565b60058190555061110f674262f52215d7238760c01b612bba565b8a8261111b91906134ae565b6006819055505b61113667f1d1f535cff22f9760c01b612bba565b600267ffffffffffffffff811115611151576111506138e9565b5b60405190808252806020026020018201604052801561117f5781602001602082028036833780820191505090505b50945061119667295620ae867e3baa60c01b612bba565b8a856000815181106111ab576111aa613650565b5b6020026020010181815250506111cb67c52afa1ce6f59beb60c01b612bba565b80856001815181106111e0576111df613650565b5b602002602001018181525050611200679b5ae3d7847c314f60c01b612bba565b611214673e374ba16b6f705a60c01b612bba565b3373ffffffffffffffffffffffffffffffffffffffff167f631fb37dba9bbcb8b2f3be2d669e365ae9f1bd850cc57dfe8b7ccd7d979a2bba8a8a60008181106112605761125f613650565b5b9050602002016020810190611275919061367f565b8d8c8c600181811061128a57611289613650565b5b905060200201602081019061129f919061367f565b856040516112b09493929190613918565b60405180910390a26112cc67eb2f7a1550dca04c60c01b612bba565b6112e067d33e8f33c13a99e360c01b612bba565b505050509695505050505050565b600460009054906101000a900473ffffffffffffffffffffffffffffffffffffffff1681565b60008054906101000a900473ffffffffffffffffffffffffffffffffffffffff1681565b606061134e67da8675b78be003e760c01b612bba565b6113626730bf962f7d2ca53860c01b612bba565b61137667a7fc02c9b8c02b5260c01b612bba565b60028054611383906135b3565b80601f01602080910402602001604051908101604052809291908181526020018280546113af906135b3565b80156113fc5780601f106113d1576101008083540402835291602001916113fc565b820191906000526020600020905b8154815290600101906020018083116113df57829003601f168201915b5050505050905090565b600061141c67ea01e298bf4ec32f60c01b612bba565b611430676d37225f6955d91c60c01b612bba565b6114446766b7eaf003e9c2ec60c01b612bba565b60006040518060400160405280600360019054906101000a900473ffffffffffffffffffffffffffffffffffffffff1673ffffffffffffffffffffffffffffffffffffffff168152602001600460009054906101000a900473ffffffffffffffffffffffffffffffffffffffff1673ffffffffffffffffffffffffffffffffffffffff1681525090506114e1672afdc6dc0832a5d960c01b612bba565b6114f56758019e569f57f1ba60c01b612bba565b61150967f549eec4cb24472f60c01b612bba565b806000015173ffffffffffffffffffffffffffffffffffffffff168473ffffffffffffffffffffffffffffffffffffffff161480156115775750806020015173ffffffffffffffffffffffffffffffffffffffff168373ffffffffffffffffffffffffffffffffffffffff16145b80156115935750611592677298bf02ff6222fe60c01b612bbd565b5b806116245750806020015173ffffffffffffffffffffffffffffffffffffffff168473ffffffffffffffffffffffffffffffffffffffff161480156116075750806000015173ffffffffffffffffffffffffffffffffffffffff168373ffffffffffffffffffffffffffffffffffffffff16145b8015611623575061162267afce08a1dc76a48b60c01b612bbd565b5b5b611663576040517f08c379a000000000000000000000000000000000000000000000000000000000815260040161165a906139a9565b60405180910390fd5b611677678a14316c56b4b11760c01b612bba565b61168b67133af24bf511773a60c01b612bba565b61169f67e61c7a1f89965c2160c01b612bba565b600060055490506116ba67d0d4e7d723ec8b7a60c01b612bba565b6116ce679b589cba02c60fb860c01b612bba565b600060065490506116e967bc1f0106f9a78a8960c01b612bba565b6116fd67e21b6268538f44ec60c01b612bba565b611711670fa5e9948f54e05560c01b612bba565b60008211611754576040517f08c379a000000000000000000000000000000000000000000000000000000000815260040161174b90613a15565b60405180910390fd5b61176867df2db2d3c734e31760c01b612bba565b61177c670cf625502025c78e60c01b612bba565b81670de0b6b3a76400008261179191906134e2565b61179b9190613553565b93506117b1679014a30f16e5f7ac60c01b612bba565b6117c567f05ccccb4d4f5da860c01b612bba565b50505092915050565b6000806117e567e586009c64820ba360c01b612bba565b6117f967284e94b5c27db3ed60c01b612bba565b61180d67f12e5c1115338a9e60c01b612bba565b6118216766e9b651c91db0f560c01b612bba565b428311611863576040517f08c379a000000000000000000000000000000000000000000000000000000000815260040161185a90613630565b60405180910390fd5b61187767c39fd16a9214fed160c01b612bba565b61188b67d163a8741bcee63260c01b612bba565b61189f674dbeedc3c678c2f060c01b612bba565b600060055490506118ba671a1d8ef797ecbae560c01b612bba565b6118ce673333e06883ab31ef60c01b612bba565b600060065490506118e967ca7429e72c70146260c01b612bba565b6118fd675c41997cd4734d9160c01b612bba565b60006007549050611918675cd899cd5ae0eda360c01b612bba565b61192c67b5f2f36dd9a2a20360c01b612bba565b6000600860003373ffffffffffffffffffffffffffffffffffffffff1673ffffffffffffffffffffffffffffffffffffffff1681526020019081526020016000205490506119846710691983c9b7e69260c01b612bba565b61199867b0af98a3a8e7192b60c01b612bba565b60006040518060400160405280600360019054906101000a900473ffffffffffffffffffffffffffffffffffffffff1673ffffffffffffffffffffffffffffffffffffffff168152602001600460009054906101000a900473ffffffffffffffffffffffffffffffffffffffff1673ffffffffffffffffffffffffffffffffffffffff168152509050611a3567ea24f9b24ba4a45e60c01b612bba565b611a4967d33688df8f105a2a60c01b612bba565b611a5d676c4f3d555a10cc1160c01b612bba565b806000015173ffffffffffffffffffffffffffffffffffffffff168e73ffffffffffffffffffffffffffffffffffffffff16148015611acb5750806020015173ffffffffffffffffffffffffffffffffffffffff168d73ffffffffffffffffffffffffffffffffffffffff16145b611b0a576040517f08c379a0000000000000000000000000000000000000000000000000000000008152600401611b0190613a81565b60405180910390fd5b611b1e677f6ca7d9a11052c060c01b612bba565b611b32677348fcfb9e68910860c01b612bba565b82858d611b3f91906134e2565b611b499190613553565b9650611b5f67b7ce76458e49c5fa60c01b612bba565b82848d611b6c91906134e2565b611b769190613553565b9550611b8c6702f9187a6188d73c60c01b612bba565b611ba067bc6b5aed9f6e3a0a60c01b612bba565b611bb467c36bdbcf5b5e453b60c01b612bba565b8a871015611bf7576040517f08c379a0000000000000000000000000000000000000000000000000000000008152600401611bee90613aed565b60405180910390fd5b611c0b673fbf57cb7868560560c01b612bba565b611c1f67590191a93cd85aec60c01b612bba565b611c33679bbe50c252ce6c9860c01b612bba565b611c476745e957efd64089c760c01b612bba565b89861015611c8a576040517f08c379a0000000000000000000000000000000000000000000000000000000008152600401611c8190613b59565b60405180910390fd5b611c9e67778c21bc5bc4749d60c01b612bba565b611cb2671e4c46b2f9874bd560c01b612bba565b611cc6675d50d96a1b6cd4e560c01b612bba565b611cda6768392988124c1a1c60c01b612bba565b8b821015611d1d576040517f08c379a0000000000000000000000000000000000000000000000000000000008152600401611d1490613bc5565b60405180910390fd5b611d3167c5ed206c72d1923d60c01b612bba565b611d4567774bd6a07f92bf4a60c01b612bba565b611d5967d8b44a31f769b1b760c01b612bba565b611d6d67983d4d7dfcdfdfab60c01b612bba565b868510158015611d7d5750858410155b611dbc576040517f08c379a0000000000000000000000000000000000000000000000000000000008152600401611db390613c31565b60405180910390fd5b611dd067927df9618b00cde060c01b612bba565b611de4677272b7edf79208a560c01b612bba565b8b82611df091906138b5565b600860003373ffffffffffffffffffffffffffffffffffffffff1673ffffffffffffffffffffffffffffffffffffffff16815260200190815260200160002081905550611e476752663b4add082b6560c01b612bba565b8b83611e5391906138b5565b600781905550611e6d673baf8b3ed132afa460c01b612bba565b611e816773cd13c04687880960c01b612bba565b806000015173ffffffffffffffffffffffffffffffffffffffff1663a9059cbb8a896040518363ffffffff1660e01b8152600401611ec092919061388c565b6020604051808303816000875af1158015611edf573d6000803e3d6000fd5b505050506040513d601f19601f82011682018060405250810190611f0391906137f3565b50611f18672a11b3a5b0f9cda060c01b612bba565b611f2c67859f0a48f4fe650860c01b612bba565b806020015173ffffffffffffffffffffffffffffffffffffffff1663a9059cbb8a886040518363ffffffff1660e01b8152600401611f6b92919061388c565b6020604051808303816000875af1158015611f8a573d6000803e3d6000fd5b505050506040513d601f19601f82011682018060405250810190611fae91906137f3565b50611fc367b21bb9620d71da5260c01b612bba565b8685611fcf91906138b5565b600581905550611fe967122622b53be22f2d60c01b612bba565b8584611ff591906138b5565b60068190555061200f6781637d8895ba28a360c01b612bba565b6120236770c7794e1fb7aab260c01b612bba565b3373ffffffffffffffffffffffffffffffffffffffff167f1dc8bb69df2b8e91fbdcbfcf93d951b3f0000f085a95fe3f7946d6161439245d88888f60405161206d93929190613370565b60405180910390a261208967f9fdb0781832321960c01b612bba565b61209d67a2769ef6fd903ac460c01b612bba565b505050505097509795505050505050565b60055481565b60008060006120cd6754b22f793e3024a760c01b612bba565b6120e167f19bd12ea49beef160c01b612bba565b6120f567e9ddfa9f7c44e81d60c01b612bba565b60006040518060400160405280600360019054906101000a900473ffffffffffffffffffffffffffffffffffffffff1673ffffffffffffffffffffffffffffffffffffffff168152602001600460009054906101000a900473ffffffffffffffffffffffffffffffffffffffff1673ffffffffffffffffffffffffffffffffffffffff168152509050612192678abe8d729780b58c60c01b612bba565b6121a667c4297a67d23a0d6e60c01b612bba565b6121ba6750f30c0da8329a0a60c01b612bba565b4285116121fc576040517f08c379a00000000000000000000000000000000000000000000000000000000081526004016121f390613630565b60405180910390fd5b612210676979d86489ad5d8960c01b612bba565b612224679d768ef50f96d4a160c01b612bba565b612238674dbd696e71ad95cd60c01b612bba565b61224c674e343ca412f45c6d60c01b612bba565b806000015173ffffffffffffffffffffffffffffffffffffffff168c73ffffffffffffffffffffffffffffffffffffffff161480156122ba5750806020015173ffffffffffffffffffffffffffffffffffffffff168b73ffffffffffffffffffffffffffffffffffffffff16145b6122f9576040517f08c379a00000000000000000000000000000000000000000000000000000000081526004016122f090613a81565b60405180910390fd5b61230d672056249f187f963660c01b612bba565b6123216701342473a281aa0d60c01b612bba565b61233567f8d7c3947479ba1260c01b612bba565b6000600554905061235067bf01d5650022c49a60c01b612bba565b61236467fcf462897f305f9360c01b612bba565b6000600654905061237f675bb95a408ce7c54760c01b612bba565b61239367c980f00b79d61e1560c01b612bba565b600060075490506123ae67b81bb7dff99c167260c01b612bba565b6123c267e2ff51304dae939560c01b612bba565b6000831480156123d25750600082145b1561241e576123eb677dfae0e94fe95d8560c01b612bba565b6123ff6758dcab2a03794f6860c01b612bba565b8c9650612416672b75bbf1072e62a960c01b612bba565b8b9550612754565b61243267981f13b2c879afdd60c01b612bba565b61244667cb1647703f8dee2760c01b612bba565b61245a6755e6c3b224d7e82660c01b612bba565b61246e675460b615899388bf60c01b612bba565b600083838f61247d91906134e2565b6124879190613553565b905061249d678aeabc7e0eb1122660c01b612bba565b6124b1672f73894fcba2596660c01b612bba565b8c8111612592576124cc6772462fd851bd096760c01b612bba565b6124e0679478b109416fef6660c01b612bba565b6124f4677ee054120af72fe360c01b612bba565b612508677905d886b1d68e2f60c01b612bba565b8a81101561254b576040517f08c379a000000000000000000000000000000000000000000000000000000000815260040161254290613c9d565b60405180910390fd5b61255f678a38eb051d1cab1b60c01b612bba565b6125736762adaf830d93cfc560c01b612bba565b8d975061258a67c91ffb41170e518a60c01b612bba565b809650612752565b6125a6676baf7420b58fdf4360c01b612bba565b6125ba67aefdb0d7f1f5ee2360c01b612bba565b6125ce67b2af4a7af0cefca860c01b612bba565b6125e1666742a3c13e37fd60c01b612bba565b600083858f6125f091906134e2565b6125fa9190613553565b9050612610677683d69b4a91f8ae60c01b612bba565b61262467354198f1519f388f60c01b612bba565b61263867b631b689f5570e9b60c01b612bba565b8e81111561267b576040517f08c379a000000000000000000000000000000000000000000000000000000000815260040161267290613d09565b60405180910390fd5b61268f67af2fcba6bca8394a60c01b612bba565b6126a3673ab423a2116ca40d60c01b612bba565b6126b7671405cd8acb3ffbd060c01b612bba565b6126cb67a3b0c64e8c6a264960c01b612bba565b8c81101561270e576040517f08c379a000000000000000000000000000000000000000000000000000000000815260040161270590613d75565b60405180910390fd5b61272267707c0af60eb3ae9560c01b612bba565b61273667f6db3e0b3bc3f84760c01b612bba565b80985061274d67f4a65ca00f60591860c01b612bba565b8d9750505b505b612768677d4f831196278f5d60c01b612bba565b61277c6778786c99df27b6f960c01b612bba565b836000015173ffffffffffffffffffffffffffffffffffffffff166323b872dd33308a6040518463ffffffff1660e01b81526004016127bd93929190613784565b6020604051808303816000875af11580156127dc573d6000803e3d6000fd5b505050506040513d601f19601f8201168201806040525081019061280091906137f3565b5061281567f4e1e906ea7b0add60c01b612bba565b61282967bf4662c53407579160c01b612bba565b836020015173ffffffffffffffffffffffffffffffffffffffff166323b872dd3330896040518463ffffffff1660e01b815260040161286a93929190613784565b6020604051808303816000875af1158015612889573d6000803e3d6000fd5b505050506040513d601f19601f820116820180604052508101906128ad91906137f3565b506128c26705973e236173061460c01b612bba565b6128d66720cfd1775ab7a8ac60c01b612bba565b60008103612921576128f267c1a50fca2e0d938b60c01b612bba565b6129066709ea4eb3cd73402960c01b612bba565b61291a868861291591906134e2565b612bc8565b9450612982565b61293567abb8bb4ddd842d7360c01b612bba565b612949679a0af59d3a04d5da60c01b612bba565b61297f83828961295991906134e2565b6129639190613553565b83838961297091906134e2565b61297a9190613553565b612d65565b94505b61299667afa02fabc0d7e3a360c01b612bba565b6129aa67058a88a2b74d18ae60c01b612bba565b6129be67b7e8edc06b2605d060c01b612bba565b60008511612a01576040517f08c379a00000000000000000000000000000000000000000000000000000000081526004016129f890613de1565b60405180910390fd5b612a1567f010d9830fa8ab0c60c01b612bba565b612a29676f8f881dff7b980560c01b612bba565b8660056000828254612a3b91906134ae565b92505081905550612a5667ae8d1b78a77ab70560c01b612bba565b8560066000828254612a6891906134ae565b92505081905550612a8367605c5c7165039acc60c01b612bba565b8460076000828254612a9591906134ae565b92505081905550612ab0673fa0fb9b46bc193d60c01b612bba565b84600860008b73ffffffffffffffffffffffffffffffffffffffff1673ffffffffffffffffffffffffffffffffffffffff1681526020019081526020016000206000828254612aff91906134ae565b92505081905550612b1a679f4ba385491b981a60c01b612bba565b612b2e674a2ff02d524ea3ef60c01b612bba565b3373ffffffffffffffffffffffffffffffffffffffff167f64b83944e79c3ce8d4c297411de637c3e102d064677aac0c163976ebdcd6f50e888888604051612b7893929190613370565b60405180910390a2612b946722ae50b9cda1ee4560c01b612bba565b612ba8677b8dc538e005022260c01b612bba565b50505050985098509895505050505050565b50565b600060019050919050565b600060018211612bda57819050612d60565b60008290506000600190507001000000000000000000000000000000008210612c0c57608082901c9150604081901b90505b680100000000000000008210612c2b57604082901c9150602081901b90505b6401000000008210612c4657602082901c9150601081901b90505b620100008210612c5f57601082901c9150600881901b90505b6101008210612c7757600882901c9150600481901b90505b60108210612c8e57600482901c9150600281901b90505b60048210612c9e57600181901b90505b600181600302901c90506001818581612cba57612cb9613524565b5b048201901c90506001818581612cd357612cd2613524565b5b048201901c90506001818581612cec57612ceb613524565b5b048201901c90506001818581612d0557612d04613524565b5b048201901c90506001818581612d1e57612d1d613524565b5b048201901c90506001818581612d3757612d36613524565b5b048201901c9050612d59818581612d5157612d50613524565b5b048211612d7c565b8103925050505b919050565b6000612d748284108484612d88565b905092915050565b60008115159050919050565b6000612d9384612d7c565b82841802821890509392505050565b600080fd5b600080fd5b6000819050919050565b612dbf81612dac565b8114612dca57600080fd5b50565b600081359050612ddc81612db6565b92915050565b600080600060608486031215612dfb57612dfa612da2565b5b6000612e0986828701612dcd565b9350506020612e1a86828701612dcd565b9250506040612e2b86828701612dcd565b9150509250925092565b612e3e81612dac565b82525050565b6000602082019050612e596000830184612e35565b92915050565b600081519050919050565b600082825260208201905092915050565b60005b83811015612e99578082015181840152602081019050612e7e565b60008484015250505050565b6000601f19601f8301169050919050565b6000612ec182612e5f565b612ecb8185612e6a565b9350612edb818560208601612e7b565b612ee481612ea5565b840191505092915050565b60006020820190508181036000830152612f098184612eb6565b905092915050565b600073ffffffffffffffffffffffffffffffffffffffff82169050919050565b6000612f3c82612f11565b9050919050565b612f4c81612f31565b82525050565b6000602082019050612f676000830184612f43565b92915050565b600060ff82169050919050565b612f8381612f6d565b82525050565b6000602082019050612f9e6000830184612f7a565b92915050565b600080fd5b600080fd5b600080fd5b60008083601f840112612fc957612fc8612fa4565b5b8235905067ffffffffffffffff811115612fe657612fe5612fa9565b5b60208301915083602082028301111561300257613001612fae565b5b9250929050565b61301281612f31565b811461301d57600080fd5b50565b60008135905061302f81613009565b92915050565b60008060008060008060a0878903121561305257613051612da2565b5b600061306089828a01612dcd565b965050602061307189828a01612dcd565b955050604087013567ffffffffffffffff81111561309257613091612da7565b5b61309e89828a01612fb3565b945094505060606130b189828a01613020565b92505060806130c289828a01612dcd565b9150509295509295509295565b600081519050919050565b600082825260208201905092915050565b6000819050602082019050919050565b61310481612dac565b82525050565b600061311683836130fb565b60208301905092915050565b6000602082019050919050565b600061313a826130cf565b61314481856130da565b935061314f836130eb565b8060005b83811015613180578151613167888261310a565b975061317283613122565b925050600181019050613153565b5085935050505092915050565b600060208201905081810360008301526131a7818461312f565b905092915050565b600080604083850312156131c6576131c5612da2565b5b60006131d485828601613020565b92505060206131e585828601613020565b9150509250929050565b600080600080600080600060e0888a03121561320e5761320d612da2565b5b600061321c8a828b01613020565b975050602061322d8a828b01613020565b965050604061323e8a828b01612dcd565b955050606061324f8a828b01612dcd565b94505060806132608a828b01612dcd565b93505060a06132718a828b01613020565b92505060c06132828a828b01612dcd565b91505092959891949750929550565b60006040820190506132a66000830185612e35565b6132b36020830184612e35565b9392505050565b600080600080600080600080610100898b0312156132db576132da612da2565b5b60006132e98b828c01613020565b98505060206132fa8b828c01613020565b975050604061330b8b828c01612dcd565b965050606061331c8b828c01612dcd565b955050608061332d8b828c01612dcd565b94505060a061333e8b828c01612dcd565b93505060c061334f8b828c01613020565b92505060e06133608b828c01612dcd565b9150509295985092959890939650565b60006060820190506133856000830186612e35565b6133926020830185612e35565b61339f6040830184612e35565b949350505050565b7f616d6f756e74496e203c20300000000000000000000000000000000000000000600082015250565b60006133dd600c83612e6a565b91506133e8826133a7565b602082019050919050565b6000602082019050818103600083015261340c816133d0565b9050919050565b7f5265736572766573203c20300000000000000000000000000000000000000000600082015250565b6000613449600c83612e6a565b915061345482613413565b602082019050919050565b600060208201905081810360008301526134788161343c565b9050919050565b7f4e487b7100000000000000000000000000000000000000000000000000000000600052601160045260246000fd5b60006134b982612dac565b91506134c483612dac565b92508282019050808211156134dc576134db61347f565b5b92915050565b60006134ed82612dac565b91506134f883612dac565b925082820261350681612dac565b9150828204841483151761351d5761351c61347f565b5b5092915050565b7f4e487b7100000000000000000000000000000000000000000000000000000000600052601260045260246000fd5b600061355e82612dac565b915061356983612dac565b92508261357957613578613524565b5b828204905092915050565b7f4e487b7100000000000000000000000000000000000000000000000000000000600052602260045260246000fd5b600060028204905060018216806135cb57607f821691505b6020821081036135de576135dd613584565b5b50919050565b7f5472616e73616374206578706972656400000000000000000000000000000000600082015250565b600061361a601083612e6a565b9150613625826135e4565b602082019050919050565b600060208201905081810360008301526136498161360d565b9050919050565b7f4e487b7100000000000000000000000000000000000000000000000000000000600052603260045260246000fd5b60006020828403121561369557613694612da2565b5b60006136a384828501613020565b91505092915050565b7f696e76616c696420746f6b656e73000000000000000000000000000000000000600082015250565b60006136e2600e83612e6a565b91506136ed826136ac565b602082019050919050565b60006020820190508181036000830152613711816136d5565b9050919050565b7f616d6f756e74496e203000000000000000000000000000000000000000000000600082015250565b600061374e600a83612e6a565b915061375982613718565b602082019050919050565b6000602082019050818103600083015261377d81613741565b9050919050565b60006060820190506137996000830186612f43565b6137a66020830185612f43565b6137b36040830184612e35565b949350505050565b60008115159050919050565b6137d0816137bb565b81146137db57600080fd5b50565b6000815190506137ed816137c7565b92915050565b60006020828403121561380957613808612da2565b5b6000613817848285016137de565b91505092915050565b7f696e73756666696369656e7420616d6f756e744f757400000000000000000000600082015250565b6000613856601683612e6a565b915061386182613820565b602082019050919050565b6000602082019050818103600083015261388581613849565b9050919050565b60006040820190506138a16000830185612f43565b6138ae6020830184612e35565b9392505050565b60006138c082612dac565b91506138cb83612dac565b92508282039050818111156138e3576138e261347f565b5b92915050565b7f4e487b7100000000000000000000000000000000000000000000000000000000600052604160045260246000fd5b600060808201905061392d6000830187612f43565b61393a6020830186612e35565b6139476040830185612f43565b6139546060830184612e35565b95945050505050565b7f496e76616c696420746f6b656e73000000000000000000000000000000000000600082015250565b6000613993600e83612e6a565b915061399e8261395d565b602082019050919050565b600060208201905081810360008301526139c281613986565b9050919050565b7f4e6f204120726573657276650000000000000000000000000000000000000000600082015250565b60006139ff600c83612e6a565b9150613a0a826139c9565b602082019050919050565b60006020820190508181036000830152613a2e816139f2565b9050919050565b7f6261642070616972000000000000000000000000000000000000000000000000600082015250565b6000613a6b600883612e6a565b9150613a7682613a35565b602082019050919050565b60006020820190508181036000830152613a9a81613a5e565b9050919050565b7f41203c206d696e00000000000000000000000000000000000000000000000000600082015250565b6000613ad7600783612e6a565b9150613ae282613aa1565b602082019050919050565b60006020820190508181036000830152613b0681613aca565b9050919050565b7f42203c206d696e00000000000000000000000000000000000000000000000000600082015250565b6000613b43600783612e6a565b9150613b4e82613b0d565b602082019050919050565b60006020820190508181036000830152613b7281613b36565b9050919050565b7f4c50206c6f770000000000000000000000000000000000000000000000000000600082015250565b6000613baf600683612e6a565b9150613bba82613b79565b602082019050919050565b60006020820190508181036000830152613bde81613ba2565b9050919050565b7f7265736572766573206c6f770000000000000000000000000000000000000000600082015250565b6000613c1b600c83612e6a565b9150613c2682613be5565b602082019050919050565b60006020820190508181036000830152613c4a81613c0e565b9050919050565b7f42206c6f77000000000000000000000000000000000000000000000000000000600082015250565b6000613c87600583612e6a565b9150613c9282613c51565b602082019050919050565b60006020820190508181036000830152613cb681613c7a565b9050919050565b7f4120686967680000000000000000000000000000000000000000000000000000600082015250565b6000613cf3600683612e6a565b9150613cfe82613cbd565b602082019050919050565b60006020820190508181036000830152613d2281613ce6565b9050919050565b7f41206c6f77000000000000000000000000000000000000000000000000000000600082015250565b6000613d5f600583612e6a565b9150613d6a82613d29565b602082019050919050565b60006020820190508181036000830152613d8e81613d52565b9050919050565b7f7a65726f206c6971000000000000000000000000000000000000000000000000600082015250565b6000613dcb600883612e6a565b9150613dd682613d95565b602082019050919050565b60006020820190508181036000830152613dfa81613dbe565b905091905056fea2646970667358221220474963e31620b398458d0f303c07dff7853dd00254c6484dbb6e26a3d49c572a64736f6c634300081c0033",
  "linkReferences": {},
  "deployedLinkReferences": {}
}