{"contracts/SimpleSwap.sol":{"SimpleSwap":{"abi":[{"inputs":[{"internalType":"address","name":"_tokenA","type":"address"},{"internalType":"address","name":"_tokenB","type":"address"}],"stateMutability":"nonpayable","type":"constructor"},{"anonymous":false,"inputs":[{"indexed":true,"internalType":"address","name":"provider","type":"address"},{"indexed":false,"internalType":"uint256","name":"amountA","type":"uint256"},{"indexed":false,"internalType":"uint256","name":"amountB","type":"uint256"},{"indexed":false,"internalType":"uint256","name":"liquidityMinted","type":"uint256"}],"name":"InitialLiquidityAdded","type":"event"},{"anonymous":false,"inputs":[{"indexed":true,"internalType":"address","name":"provider","type":"address"},{"indexed":false,"internalType":"uint256","name":"amountA","type":"uint256"},{"indexed":false,"internalType":"uint256","name":"amountB","type":"uint256"},{"indexed":false,"internalType":"uint256","name":"liquidityMinted","type":"uint256"}],"name":"LiquidityAdded","type":"event"},{"anonymous":false,"inputs":[{"indexed":true,"internalType":"address","name":"provider","type":"address"},{"indexed":false,"internalType":"uint256","name":"amountA","type":"uint256"},{"indexed":false,"internalType":"uint256","name":"amountB","type":"uint256"},{"indexed":false,"internalType":"uint256","name":"liquidityBurned","type":"uint256"}],"name":"LiquidityRemoved","type":"event"},{"anonymous":false,"inputs":[{"indexed":true,"internalType":"address","name":"swapper","type":"address"},{"indexed":false,"internalType":"address","name":"tokenIn","type":"address"},{"indexed":false,"internalType":"uint256","name":"amountIn","type":"uint256"},{"indexed":false,"internalType":"address","name":"tokenOut","type":"address"},{"indexed":false,"internalType":"uint256","name":"amountOut","type":"uint256"}],"name":"TokensSwapped","type":"event"},{"inputs":[{"internalType":"address","name":"tokenA_","type":"address"},{"internalType":"address","name":"tokenB_","type":"address"},{"internalType":"uint256","name":"amountADesired","type":"uint256"},{"internalType":"uint256","name":"amountBDesired","type":"uint256"},{"internalType":"uint256","name":"amountAMin","type":"uint256"},{"internalType":"uint256","name":"amountBMin","type":"uint256"},{"internalType":"address","name":"to","type":"address"},{"internalType":"uint256","name":"deadline","type":"uint256"}],"name":"addLiquidity","outputs":[{"internalType":"uint256","name":"amountA","type":"uint256"},{"internalType":"uint256","name":"amountB","type":"uint256"},{"internalType":"uint256","name":"liquidity","type":"uint256"}],"stateMutability":"nonpayable","type":"function"},{"inputs":[],"name":"decimals","outputs":[{"internalType":"uint8","name":"","type":"uint8"}],"stateMutability":"view","type":"function"},{"inputs":[{"internalType":"uint256","name":"amountIn","type":"uint256"},{"internalType":"uint256","name":"reserveIn","type":"uint256"},{"internalType":"uint256","name":"reserveOut","type":"uint256"}],"name":"getAmountOut","outputs":[{"internalType":"uint256","name":"amountOut","type":"uint256"}],"stateMutability":"pure","type":"function"},{"inputs":[{"internalType":"address","name":"tokenA_","type":"address"},{"internalType":"address","name":"tokenB_","type":"address"}],"name":"getPrice","outputs":[{"internalType":"uint256","name":"price","type":"uint256"}],"stateMutability":"view","type":"function"},{"inputs":[],"name":"name","outputs":[{"internalType":"string","name":"","type":"string"}],"stateMutability":"view","type":"function"},{"inputs":[],"name":"owner","outputs":[{"internalType":"address","name":"","type":"address"}],"stateMutability":"view","type":"function"},{"inputs":[{"internalType":"address","name":"tokenA_","type":"address"},{"internalType":"address","name":"tokenB_","type":"address"},{"internalType":"uint256","name":"liquidity","type":"uint256"},{"internalType":"uint256","name":"amountAMin","type":"uint256"},{"internalType":"uint256","name":"amountBMin","type":"uint256"},{"internalType":"address","name":"to","type":"address"},{"internalType":"uint256","name":"deadline","type":"uint256"}],"name":"removeLiquidity","outputs":[{"internalType":"uint256","name":"amountA","type":"uint256"},{"internalType":"uint256","name":"amountB","type":"uint256"}],"stateMutability":"nonpayable","type":"function"},{"inputs":[],"name":"reserveA","outputs":[{"internalType":"uint256","name":"","type":"uint256"}],"stateMutability":"view","type":"function"},{"inputs":[],"name":"reserveB","outputs":[{"internalType":"uint256","name":"","type":"uint256"}],"stateMutability":"view","type":"function"},{"inputs":[{"internalType":"uint256","name":"amountIn","type":"uint256"},{"internalType":"uint256","name":"amountOutMin","type":"uint256"},{"internalType":"address[]","name":"path","type":"address[]"},{"internalType":"address","name":"to","type":"address"},{"internalType":"uint256","name":"deadline","type":"uint256"}],"name":"swapExactTokensForTokens","outputs":[{"internalType":"uint256[]","name":"amounts","type":"uint256[]"}],"stateMutability":"nonpayable","type":"function"},{"inputs":[],"name":"symbol","outputs":[{"internalType":"string","name":"","type":"string"}],"stateMutability":"view","type":"function"},{"inputs":[],"name":"tokenA","outputs":[{"internalType":"address","name":"","type":"address"}],"stateMutability":"view","type":"function"},{"inputs":[],"name":"tokenB","outputs":[{"internalType":"address","name":"","type":"address"}],"stateMutability":"view","type":"function"}],"evm":{"bytecode":{"linkReferences":{},"object":"608060405234801561001057600080fd5b50604051614465380380614465833981810160405281019061003291906102bd565b61004c67b7b64eb168e6da1160c01b61025760201b60201c565b61006667211e165515084ff460c01b61025760201b60201c565b81600360016101000a81548173ffffffffffffffffffffffffffffffffffffffff021916908373ffffffffffffffffffffffffffffffffffffffff1602179055506100c1678c8e108c9524752160c01b61025760201b60201c565b80600460006101000a81548173ffffffffffffffffffffffffffffffffffffffff021916908373ffffffffffffffffffffffffffffffffffffffff16021790555061011c678fa0268ab256728260c01b61025760201b60201c565b6040518060400160405280601381526020017f53696d706c6553776170204c5020546f6b656e0000000000000000000000000081525060019081610160919061054d565b5061017b67a8551ff4bb553cbd60c01b61025760201b60201c565b6040518060400160405280600481526020017f53534c5000000000000000000000000000000000000000000000000000000000815250600290816101bf919061054d565b506101da67c9f47d9068a08adf60c01b61025760201b60201c565b6012600360006101000a81548160ff021916908360ff160217905550610210672dc9ff18dfc75ced60c01b61025760201b60201c565b336000806101000a81548173ffffffffffffffffffffffffffffffffffffffff021916908373ffffffffffffffffffffffffffffffffffffffff160217905550505061061f565b50565b600080fd5b600073ffffffffffffffffffffffffffffffffffffffff82169050919050565b600061028a8261025f565b9050919050565b61029a8161027f565b81146102a557600080fd5b50565b6000815190506102b781610291565b92915050565b600080604083850312156102d4576102d361025a565b5b60006102e2858286016102a8565b92505060206102f3858286016102a8565b9150509250929050565b600081519050919050565b7f4e487b7100000000000000000000000000000000000000000000000000000000600052604160045260246000fd5b7f4e487b7100000000000000000000000000000000000000000000000000000000600052602260045260246000fd5b6000600282049050600182168061037e57607f821691505b60208210810361039157610390610337565b5b50919050565b60008190508160005260206000209050919050565b60006020601f8301049050919050565b600082821b905092915050565b6000600883026103f97fffffffffffffffffffffffffffffffffffffffffffffffffffffffffffffffff826103bc565b61040386836103bc565b95508019841693508086168417925050509392505050565b6000819050919050565b6000819050919050565b600061044a6104456104408461041b565b610425565b61041b565b9050919050565b6000819050919050565b6104648361042f565b61047861047082610451565b8484546103c9565b825550505050565b600090565b61048d610480565b61049881848461045b565b505050565b5b818110156104bc576104b1600082610485565b60018101905061049e565b5050565b601f821115610501576104d281610397565b6104db846103ac565b810160208510156104ea578190505b6104fe6104f6856103ac565b83018261049d565b50505b505050565b600082821c905092915050565b600061052460001984600802610506565b1980831691505092915050565b600061053d8383610513565b9150826002028217905092915050565b610556826102fd565b67ffffffffffffffff81111561056f5761056e610308565b5b6105798254610366565b6105848282856104c0565b600060209050601f8311600181146105b757600084156105a5578287015190505b6105af8582610531565b865550610617565b601f1984166105c586610397565b60005b828110156105ed578489015182556001820191506020850194506020810190506105c8565b8683101561060a5784890151610606601f891682610513565b8355505b6001600288020188555050505b505050505050565b613e378061062e6000396000f3fe608060405234801561001057600080fd5b50600436106100cf5760003560e01c80635f64b55b1161008c578063ac41865a11610066578063ac41865a14610206578063baa2abde14610236578063dc5fa6c514610267578063e8e3370014610285576100cf565b80635f64b55b146101ac5780638da5cb5b146101ca57806395d89b41146101e8576100cf565b8063054d50d4146100d457806306fdde03146101045780630fc63d101461012257806319e36f3b14610140578063313ce5671461015e57806338ed17391461017c575b600080fd5b6100ee60048036038101906100e99190612de2565b6102b7565b6040516100fb9190612e44565b60405180910390f35b61010c610466565b6040516101199190612eef565b60405180910390f35b61012a610534565b6040516101379190612f52565b60405180910390f35b61014861055a565b6040516101559190612e44565b60405180910390f35b610166610560565b6040516101739190612f89565b60405180910390f35b61019660048036038101906101919190613035565b6105b3565b6040516101a3919061318d565b60405180910390f35b6101b46112ee565b6040516101c19190612f52565b60405180910390f35b6101d2611314565b6040516101df9190612f52565b60405180910390f35b6101f0611338565b6040516101fd9190612eef565b60405180910390f35b610220600480360381019061021b91906131af565b611406565b60405161022d9190612e44565b60405180910390f35b610250600480360381019061024b91906131ef565b6117ce565b60405161025e929190613291565b60405180910390f35b61026f6120ae565b60405161027c9190612e44565b60405180910390f35b61029f600480360381019061029a91906132ba565b6120b4565b6040516102ae93929190613370565b60405180910390f35b60006102cd67b4d4d62f1850fbde60c01b612bba565b6102e167eb26c1f07a326e8c60c01b612bba565b6102f56757ca3a5c2880ed2060c01b612bba565b61030967f55d9fa2c167ff3a60c01b612bba565b6000841161034c576040517f08c379a0000000000000000000000000000000000000000000000000000000008152600401610343906133f3565b60405180910390fd5b61036067419b3ae0428da53060c01b612bba565b61037467cfdd2e205721374b60c01b612bba565b61038867d1f092d2dffdeba660c01b612bba565b61039c67376ea099f14b9a5560c01b612bba565b6000831180156103ac5750600082115b6103eb576040517f08c379a00000000000000000000000000000000000000000000000000000000081526004016103e29061345f565b60405180910390fd5b6103ff67f61f24e590ff83bd60c01b612bba565b610413674c0e98d0713a370460c01b612bba565b838361041f91906134ae565b828561042b91906134e2565b6104359190613553565b905061044b67dcfeb4e88eb3c20060c01b612bba565b61045f6746397b741018922060c01b612bba565b9392505050565b606061047c671690bcd39df79e5f60c01b612bba565b61049067da8675b78be003e760c01b612bba565b6104a46730bf962f7d2ca53860c01b612bba565b600180546104b1906135b3565b80601f01602080910402602001604051908101604052809291908181526020018280546104dd906135b3565b801561052a5780601f106104ff5761010080835404028352916020019161052a565b820191906000526020600020905b81548152906001019060200180831161050d57829003601f168201915b5050505050905090565b600360019054906101000a900473ffffffffffffffffffffffffffffffffffffffff1681565b60065481565b6000610576679071602cd6cd1ef960c01b612bba565b61058a6754b22f793e3024a760c01b612bba565b61059e67f19bd12ea49beef160c01b612bba565b600360009054906101000a900460ff16905090565b60606105c967fc498058c7f74ea660c01b612bba565b6105dd67b0762056f5a79ab560c01b612bba565b6105f167ef51f09a9a88e7da60c01b612bba565b610605671c1d4f00350779a660c01b612bba565b428211610647576040517f08c379a000000000000000000000000000000000000000000000000000000000815260040161063e90613630565b60405180910390fd5b61065b67c258c1c29afaa91460c01b612bba565b61066f67786c714c6531ded360c01b612bba565b610683675d053a39cbb6bd2c60c01b612bba565b6106976777b421798d4bbf8b60c01b612bba565b6002858590501480156107265750848460018181106106b9576106b8613650565b5b90506020020160208101906106ce919061367f565b73ffffffffffffffffffffffffffffffffffffffff16858560008181106106f8576106f7613650565b5b905060200201602081019061070d919061367f565b73ffffffffffffffffffffffffffffffffffffffff1614155b610765576040517f08c379a000000000000000000000000000000000000000000000000000000000815260040161075c906136f8565b60405180910390fd5b610779671730ba1c504f708660c01b612bba565b61078d67910e99ac159e972b60c01b612bba565b6107a167c7da7149aa2930c260c01b612bba565b6107b5679793e7b36d7c9dc160c01b612bba565b600087116107f8576040517f08c379a00000000000000000000000000000000000000000000000000000000081526004016107ef90613764565b60405180910390fd5b61080c67c26edad64174d3d660c01b612bba565b61082067ae950aefc52da0d660c01b612bba565b61083467469d0b87d4d61b3360c01b612bba565b60006040518060400160405280600360019054906101000a900473ffffffffffffffffffffffffffffffffffffffff1673ffffffffffffffffffffffffffffffffffffffff168152602001600460009054906101000a900473ffffffffffffffffffffffffffffffffffffffff1673ffffffffffffffffffffffffffffffffffffffff1681525090506108d16723bd17533d064ee760c01b612bba565b6108e5670384d6883d98b59460c01b612bba565b6000600554905061090067dd32eedda0a221d660c01b612bba565b6109146741be2abdcc9133d860c01b612bba565b6000600654905061092f6740f627b27945c37860c01b612bba565b61094367fc64b40c3cfe5fc260c01b612bba565b61095767ca1b1c8c0325acdd60c01b612bba565b826000015173ffffffffffffffffffffffffffffffffffffffff168888600081811061098657610985613650565b5b905060200201602081019061099b919061367f565b73ffffffffffffffffffffffffffffffffffffffff16148015610a155750826020015173ffffffffffffffffffffffffffffffffffffffff16888860018181106109e8576109e7613650565b5b90506020020160208101906109fd919061367f565b73ffffffffffffffffffffffffffffffffffffffff16145b8015610a315750610a3067a2e91fcc53e9a09760c01b612bbd565b5b80610b125750826020015173ffffffffffffffffffffffffffffffffffffffff1688886000818110610a6657610a65613650565b5b9050602002016020810190610a7b919061367f565b73ffffffffffffffffffffffffffffffffffffffff16148015610af55750826000015173ffffffffffffffffffffffffffffffffffffffff1688886001818110610ac857610ac7613650565b5b9050602002016020810190610add919061367f565b73ffffffffffffffffffffffffffffffffffffffff16145b8015610b115750610b106710d62a01b41c1cdc60c01b612bbd565b5b5b610b51576040517f08c379a0000000000000000000000000000000000000000000000000000000008152600401610b48906136f8565b60405180910390fd5b610b65678dcadb22b852870e60c01b612bba565b610b7967b136fcaa71607d3860c01b612bba565b610b8d67fe85dae170d404f660c01b612bba565b6000610ba36741c2a81bc228923460c01b612bba565b610bb76765624e39aa424a1a60c01b612bba565b836000015173ffffffffffffffffffffffffffffffffffffffff1689896000818110610be657610be5613650565b5b9050602002016020810190610bfb919061367f565b73ffffffffffffffffffffffffffffffffffffffff1603610e9e57610c2a677b4c5c9fdad7a1dc60c01b612bba565b610c3e67db7c34a798d8028160c01b612bba565b610c52675eca881be89a529860c01b612bba565b836000015173ffffffffffffffffffffffffffffffffffffffff166323b872dd33308e6040518463ffffffff1660e01b8152600401610c9393929190613784565b6020604051808303816000875af1158015610cb2573d6000803e3d6000fd5b505050506040513d601f19601f82011682018060405250810190610cd691906137f3565b50610ceb67678944b377108b1560c01b612bba565b8a83610cf791906134ae565b828c610d0391906134e2565b610d0d9190613553565b9050610d2367e8dc1d648708122260c01b612bba565b610d37675220b151c79309ca60c01b612bba565b610d4b673abf66949540149e60c01b612bba565b89811015610d8e576040517f08c379a0000000000000000000000000000000000000000000000000000000008152600401610d859061386c565b60405180910390fd5b610da267643aae1a30cb725e60c01b612bba565b610db667ac16aed25ee1428c60c01b612bba565b610dca6775f2a07ee0b4287460c01b612bba565b836020015173ffffffffffffffffffffffffffffffffffffffff1663a9059cbb88836040518363ffffffff1660e01b8152600401610e0992919061388c565b6020604051808303816000875af1158015610e28573d6000803e3d6000fd5b505050506040513d601f19601f82011682018060405250810190610e4c91906137f3565b50610e616751bc466dd120172660c01b612bba565b8a83610e6d91906134ae565b600581905550610e87677df208b2e6cb324660c01b612bba565b8082610e9391906138b5565b600681905550611122565b610eb26733eb778961420ae560c01b612bba565b610ec6672a235aff65f1e59060c01b612bba565b610eda670f561cfdb2bcb03060c01b612bba565b836020015173ffffffffffffffffffffffffffffffffffffffff166323b872dd33308e6040518463ffffffff1660e01b8152600401610f1b93929190613784565b6020604051808303816000875af1158015610f3a573d6000803e3d6000fd5b505050506040513d601f19601f82011682018060405250810190610f5e91906137f3565b50610f7367247b345f9d2a9c4960c01b612bba565b8a82610f7f91906134ae565b838c610f8b91906134e2565b610f959190613553565b9050610fab67c0cc46dc0117b2f060c01b612bba565b610fbf67982c91054d74e95860c01b612bba565b610fd3675dd2e1e05e27b39360c01b612bba565b89811015611016576040517f08c379a000000000000000000000000000000000000000000000000000000000815260040161100d9061386c565b60405180910390fd5b61102a67fb51bec7b9b841f660c01b612bba565b61103e67c33a66768b73e28660c01b612bba565b611052674262f52215d7238760c01b612bba565b836000015173ffffffffffffffffffffffffffffffffffffffff1663a9059cbb88836040518363ffffffff1660e01b815260040161109192919061388c565b6020604051808303816000875af11580156110b0573d6000803e3d6000fd5b505050506040513d601f19601f820116820180604052508101906110d491906137f3565b506110e967f1d1f535cff22f9760c01b612bba565b80836110f591906138b5565b60058190555061110f67295620ae867e3baa60c01b612bba565b8a8261111b91906134ae565b6006819055505b61113667c52afa1ce6f59beb60c01b612bba565b600267ffffffffffffffff811115611151576111506138e9565b5b60405190808252806020026020018201604052801561117f5781602001602082028036833780820191505090505b509450611196679b5ae3d7847c314f60c01b612bba565b8a856000815181106111ab576111aa613650565b5b6020026020010181815250506111cb673e374ba16b6f705a60c01b612bba565b80856001815181106111e0576111df613650565b5b60200260200101818152505061120067eb2f7a1550dca04c60c01b612bba565b61121467d33e8f33c13a99e360c01b612bba565b3373ffffffffffffffffffffffffffffffffffffffff167f631fb37dba9bbcb8b2f3be2d669e365ae9f1bd850cc57dfe8b7ccd7d979a2bba8a8a60008181106112605761125f613650565b5b9050602002016020810190611275919061367f565b8d8c8c600181811061128a57611289613650565b5b905060200201602081019061129f919061367f565b856040516112b09493929190613918565b60405180910390a26112cc67ea01e298bf4ec32f60c01b612bba565b6112e0676d37225f6955d91c60c01b612bba565b505050509695505050505050565b600460009054906101000a900473ffffffffffffffffffffffffffffffffffffffff1681565b60008054906101000a900473ffffffffffffffffffffffffffffffffffffffff1681565b606061134e67a7fc02c9b8c02b5260c01b612bba565b61136267783124e0c61d488e60c01b612bba565b61137667e0c7e0d0813fbe1060c01b612bba565b60028054611383906135b3565b80601f01602080910402602001604051908101604052809291908181526020018280546113af906135b3565b80156113fc5780601f106113d1576101008083540402835291602001916113fc565b820191906000526020600020905b8154815290600101906020018083116113df57829003601f168201915b5050505050905090565b600061141c6766b7eaf003e9c2ec60c01b612bba565b611430672afdc6dc0832a5d960c01b612bba565b6114446758019e569f57f1ba60c01b612bba565b60006040518060400160405280600360019054906101000a900473ffffffffffffffffffffffffffffffffffffffff1673ffffffffffffffffffffffffffffffffffffffff168152602001600460009054906101000a900473ffffffffffffffffffffffffffffffffffffffff1673ffffffffffffffffffffffffffffffffffffffff1681525090506114e167f549eec4cb24472f60c01b612bba565b6114f5677298bf02ff6222fe60c01b612bba565b61150967afce08a1dc76a48b60c01b612bba565b806000015173ffffffffffffffffffffffffffffffffffffffff168473ffffffffffffffffffffffffffffffffffffffff161480156115775750806020015173ffffffffffffffffffffffffffffffffffffffff168373ffffffffffffffffffffffffffffffffffffffff16145b80156115935750611592678a14316c56b4b11760c01b612bbd565b5b806116245750806020015173ffffffffffffffffffffffffffffffffffffffff168473ffffffffffffffffffffffffffffffffffffffff161480156116075750806000015173ffffffffffffffffffffffffffffffffffffffff168373ffffffffffffffffffffffffffffffffffffffff16145b8015611623575061162267133af24bf511773a60c01b612bbd565b5b5b611663576040517f08c379a000000000000000000000000000000000000000000000000000000000815260040161165a906139a9565b60405180910390fd5b61167767e61c7a1f89965c2160c01b612bba565b61168b67d0d4e7d723ec8b7a60c01b612bba565b61169f679b589cba02c60fb860c01b612bba565b600060055490506116ba67bc1f0106f9a78a8960c01b612bba565b6116ce67e21b6268538f44ec60c01b612bba565b600060065490506116e9670fa5e9948f54e05560c01b612bba565b6116fd67df2db2d3c734e31760c01b612bba565b611711670cf625502025c78e60c01b612bba565b60008211611754576040517f08c379a000000000000000000000000000000000000000000000000000000000815260040161174b90613a15565b60405180910390fd5b611768679014a30f16e5f7ac60c01b612bba565b61177c67f05ccccb4d4f5da860c01b612bba565b81670de0b6b3a76400008261179191906134e2565b61179b9190613553565b93506117b167bb52215df58af57460c01b612bba565b6117c567795b1287d86cf52460c01b612bba565b50505092915050565b6000806117e567f12e5c1115338a9e60c01b612bba565b6117f96766e9b651c91db0f560c01b612bba565b61180d67c39fd16a9214fed160c01b612bba565b61182167d163a8741bcee63260c01b612bba565b428311611863576040517f08c379a000000000000000000000000000000000000000000000000000000000815260040161185a90613630565b60405180910390fd5b611877674dbeedc3c678c2f060c01b612bba565b61188b671a1d8ef797ecbae560c01b612bba565b61189f673333e06883ab31ef60c01b612bba565b600060055490506118ba67ca7429e72c70146260c01b612bba565b6118ce675c41997cd4734d9160c01b612bba565b600060065490506118e9675cd899cd5ae0eda360c01b612bba565b6118fd67b5f2f36dd9a2a20360c01b612bba565b600060075490506119186710691983c9b7e69260c01b612bba565b61192c67b0af98a3a8e7192b60c01b612bba565b6000600860003373ffffffffffffffffffffffffffffffffffffffff1673ffffffffffffffffffffffffffffffffffffffff16815260200190815260200160002054905061198467ea24f9b24ba4a45e60c01b612bba565b61199867d33688df8f105a2a60c01b612bba565b60006040518060400160405280600360019054906101000a900473ffffffffffffffffffffffffffffffffffffffff1673ffffffffffffffffffffffffffffffffffffffff168152602001600460009054906101000a900473ffffffffffffffffffffffffffffffffffffffff1673ffffffffffffffffffffffffffffffffffffffff168152509050611a35676c4f3d555a10cc1160c01b612bba565b611a49677f6ca7d9a11052c060c01b612bba565b611a5d677348fcfb9e68910860c01b612bba565b806000015173ffffffffffffffffffffffffffffffffffffffff168e73ffffffffffffffffffffffffffffffffffffffff16148015611acb5750806020015173ffffffffffffffffffffffffffffffffffffffff168d73ffffffffffffffffffffffffffffffffffffffff16145b611b0a576040517f08c379a0000000000000000000000000000000000000000000000000000000008152600401611b0190613a81565b60405180910390fd5b611b1e67b7ce76458e49c5fa60c01b612bba565b611b326702f9187a6188d73c60c01b612bba565b82858d611b3f91906134e2565b611b499190613553565b9650611b5f67bc6b5aed9f6e3a0a60c01b612bba565b82848d611b6c91906134e2565b611b769190613553565b9550611b8c67c36bdbcf5b5e453b60c01b612bba565b611ba0673fbf57cb7868560560c01b612bba565b611bb467590191a93cd85aec60c01b612bba565b8a871015611bf7576040517f08c379a0000000000000000000000000000000000000000000000000000000008152600401611bee90613aed565b60405180910390fd5b611c0b679bbe50c252ce6c9860c01b612bba565b611c1f6745e957efd64089c760c01b612bba565b611c3367778c21bc5bc4749d60c01b612bba565b611c47671e4c46b2f9874bd560c01b612bba565b89861015611c8a576040517f08c379a0000000000000000000000000000000000000000000000000000000008152600401611c8190613b59565b60405180910390fd5b611c9e675d50d96a1b6cd4e560c01b612bba565b611cb26768392988124c1a1c60c01b612bba565b611cc667c5ed206c72d1923d60c01b612bba565b611cda67774bd6a07f92bf4a60c01b612bba565b8b821015611d1d576040517f08c379a0000000000000000000000000000000000000000000000000000000008152600401611d1490613bc5565b60405180910390fd5b611d3167d8b44a31f769b1b760c01b612bba565b611d4567983d4d7dfcdfdfab60c01b612bba565b611d5967927df9618b00cde060c01b612bba565b611d6d677272b7edf79208a560c01b612bba565b868510158015611d7d5750858410155b611dbc576040517f08c379a0000000000000000000000000000000000000000000000000000000008152600401611db390613c31565b60405180910390fd5b611dd06752663b4add082b6560c01b612bba565b611de4673baf8b3ed132afa460c01b612bba565b8b82611df091906138b5565b600860003373ffffffffffffffffffffffffffffffffffffffff1673ffffffffffffffffffffffffffffffffffffffff16815260200190815260200160002081905550611e476773cd13c04687880960c01b612bba565b8b83611e5391906138b5565b600781905550611e6d672a11b3a5b0f9cda060c01b612bba565b611e8167859f0a48f4fe650860c01b612bba565b806000015173ffffffffffffffffffffffffffffffffffffffff1663a9059cbb8a896040518363ffffffff1660e01b8152600401611ec092919061388c565b6020604051808303816000875af1158015611edf573d6000803e3d6000fd5b505050506040513d601f19601f82011682018060405250810190611f0391906137f3565b50611f1867b21bb9620d71da5260c01b612bba565b611f2c67122622b53be22f2d60c01b612bba565b806020015173ffffffffffffffffffffffffffffffffffffffff1663a9059cbb8a886040518363ffffffff1660e01b8152600401611f6b92919061388c565b6020604051808303816000875af1158015611f8a573d6000803e3d6000fd5b505050506040513d601f19601f82011682018060405250810190611fae91906137f3565b50611fc36781637d8895ba28a360c01b612bba565b8685611fcf91906138b5565b600581905550611fe96770c7794e1fb7aab260c01b612bba565b8584611ff591906138b5565b60068190555061200f67f9fdb0781832321960c01b612bba565b61202367a2769ef6fd903ac460c01b612bba565b3373ffffffffffffffffffffffffffffffffffffffff167f1dc8bb69df2b8e91fbdcbfcf93d951b3f0000f085a95fe3f7946d6161439245d88888f60405161206d93929190613370565b60405180910390a261208967b4dc9356961aa79260c01b612bba565b61209d67be41a98f7de10e8460c01b612bba565b505050505097509795505050505050565b60055481565b60008060006120cd67e9ddfa9f7c44e81d60c01b612bba565b6120e1678abe8d729780b58c60c01b612bba565b6120f567c4297a67d23a0d6e60c01b612bba565b60006040518060400160405280600360019054906101000a900473ffffffffffffffffffffffffffffffffffffffff1673ffffffffffffffffffffffffffffffffffffffff168152602001600460009054906101000a900473ffffffffffffffffffffffffffffffffffffffff1673ffffffffffffffffffffffffffffffffffffffff1681525090506121926750f30c0da8329a0a60c01b612bba565b6121a6676979d86489ad5d8960c01b612bba565b6121ba679d768ef50f96d4a160c01b612bba565b4285116121fc576040517f08c379a00000000000000000000000000000000000000000000000000000000081526004016121f390613630565b60405180910390fd5b612210674dbd696e71ad95cd60c01b612bba565b612224674e343ca412f45c6d60c01b612bba565b612238672056249f187f963660c01b612bba565b61224c6701342473a281aa0d60c01b612bba565b806000015173ffffffffffffffffffffffffffffffffffffffff168c73ffffffffffffffffffffffffffffffffffffffff161480156122ba5750806020015173ffffffffffffffffffffffffffffffffffffffff168b73ffffffffffffffffffffffffffffffffffffffff16145b6122f9576040517f08c379a00000000000000000000000000000000000000000000000000000000081526004016122f090613a81565b60405180910390fd5b61230d67f8d7c3947479ba1260c01b612bba565b61232167bf01d5650022c49a60c01b612bba565b61233567fcf462897f305f9360c01b612bba565b60006005549050612350675bb95a408ce7c54760c01b612bba565b61236467c980f00b79d61e1560c01b612bba565b6000600654905061237f67b81bb7dff99c167260c01b612bba565b61239367e2ff51304dae939560c01b612bba565b600060075490506123ae677dfae0e94fe95d8560c01b612bba565b6123c26758dcab2a03794f6860c01b612bba565b6000831480156123d25750600082145b1561241e576123eb672b75bbf1072e62a960c01b612bba565b6123ff67981f13b2c879afdd60c01b612bba565b8c965061241667cb1647703f8dee2760c01b612bba565b8b9550612754565b6124326755e6c3b224d7e82660c01b612bba565b612446675460b615899388bf60c01b612bba565b61245a678aeabc7e0eb1122660c01b612bba565b61246e672f73894fcba2596660c01b612bba565b600083838f61247d91906134e2565b6124879190613553565b905061249d6772462fd851bd096760c01b612bba565b6124b1679478b109416fef6660c01b612bba565b8c8111612592576124cc677ee054120af72fe360c01b612bba565b6124e0677905d886b1d68e2f60c01b612bba565b6124f4678a38eb051d1cab1b60c01b612bba565b6125086762adaf830d93cfc560c01b612bba565b8a81101561254b576040517f08c379a000000000000000000000000000000000000000000000000000000000815260040161254290613c9d565b60405180910390fd5b61255f67c91ffb41170e518a60c01b612bba565b612573676baf7420b58fdf4360c01b612bba565b8d975061258a67aefdb0d7f1f5ee2360c01b612bba565b809650612752565b6125a667b2af4a7af0cefca860c01b612bba565b6125b9666742a3c13e37fd60c01b612bba565b6125cd677683d69b4a91f8ae60c01b612bba565b6125e167354198f1519f388f60c01b612bba565b600083858f6125f091906134e2565b6125fa9190613553565b905061261067b631b689f5570e9b60c01b612bba565b61262467af2fcba6bca8394a60c01b612bba565b612638673ab423a2116ca40d60c01b612bba565b8e81111561267b576040517f08c379a000000000000000000000000000000000000000000000000000000000815260040161267290613d09565b60405180910390fd5b61268f671405cd8acb3ffbd060c01b612bba565b6126a367a3b0c64e8c6a264960c01b612bba565b6126b767707c0af60eb3ae9560c01b612bba565b6126cb67f6db3e0b3bc3f84760c01b612bba565b8c81101561270e576040517f08c379a000000000000000000000000000000000000000000000000000000000815260040161270590613d75565b60405180910390fd5b61272267f4a65ca00f60591860c01b612bba565b612736677d4f831196278f5d60c01b612bba565b80985061274d6778786c99df27b6f960c01b612bba565b8d9750505b505b61276867f4e1e906ea7b0add60c01b612bba565b61277c67bf4662c53407579160c01b612bba565b836000015173ffffffffffffffffffffffffffffffffffffffff166323b872dd33308a6040518463ffffffff1660e01b81526004016127bd93929190613784565b6020604051808303816000875af11580156127dc573d6000803e3d6000fd5b505050506040513d601f19601f8201168201806040525081019061280091906137f3565b506128156705973e236173061460c01b612bba565b6128296720cfd1775ab7a8ac60c01b612bba565b836020015173ffffffffffffffffffffffffffffffffffffffff166323b872dd3330896040518463ffffffff1660e01b815260040161286a93929190613784565b6020604051808303816000875af1158015612889573d6000803e3d6000fd5b505050506040513d601f19601f820116820180604052508101906128ad91906137f3565b506128c267c1a50fca2e0d938b60c01b612bba565b6128d66709ea4eb3cd73402960c01b612bba565b60008103612921576128f267abb8bb4ddd842d7360c01b612bba565b612906679a0af59d3a04d5da60c01b612bba565b61291a868861291591906134e2565b612bc8565b9450612982565b61293567afa02fabc0d7e3a360c01b612bba565b61294967058a88a2b74d18ae60c01b612bba565b61297f83828961295991906134e2565b6129639190613553565b83838961297091906134e2565b61297a9190613553565b612d65565b94505b61299667b7e8edc06b2605d060c01b612bba565b6129aa67f010d9830fa8ab0c60c01b612bba565b6129be676f8f881dff7b980560c01b612bba565b60008511612a01576040517f08c379a00000000000000000000000000000000000000000000000000000000081526004016129f890613de1565b60405180910390fd5b612a1567ae8d1b78a77ab70560c01b612bba565b612a2967605c5c7165039acc60c01b612bba565b8660056000828254612a3b91906134ae565b92505081905550612a56673fa0fb9b46bc193d60c01b612bba565b8560066000828254612a6891906134ae565b92505081905550612a83679f4ba385491b981a60c01b612bba565b8460076000828254612a9591906134ae565b92505081905550612ab0674a2ff02d524ea3ef60c01b612bba565b84600860008b73ffffffffffffffffffffffffffffffffffffffff1673ffffffffffffffffffffffffffffffffffffffff1681526020019081526020016000206000828254612aff91906134ae565b92505081905550612b1a6722ae50b9cda1ee4560c01b612bba565b612b2e677b8dc538e005022260c01b612bba565b3373ffffffffffffffffffffffffffffffffffffffff167f64b83944e79c3ce8d4c297411de637c3e102d064677aac0c163976ebdcd6f50e888888604051612b7893929190613370565b60405180910390a2612b9467e586009c64820ba360c01b612bba565b612ba867284e94b5c27db3ed60c01b612bba565b50505050985098509895505050505050565b50565b600060019050919050565b600060018211612bda57819050612d60565b60008290506000600190507001000000000000000000000000000000008210612c0c57608082901c9150604081901b90505b680100000000000000008210612c2b57604082901c9150602081901b90505b6401000000008210612c4657602082901c9150601081901b90505b620100008210612c5f57601082901c9150600881901b90505b6101008210612c7757600882901c9150600481901b90505b60108210612c8e57600482901c9150600281901b90505b60048210612c9e57600181901b90505b600181600302901c90506001818581612cba57612cb9613524565b5b048201901c90506001818581612cd357612cd2613524565b5b048201901c90506001818581612cec57612ceb613524565b5b048201901c90506001818581612d0557612d04613524565b5b048201901c90506001818581612d1e57612d1d613524565b5b048201901c90506001818581612d3757612d36613524565b5b048201901c9050612d59818581612d5157612d50613524565b5b048211612d7c565b8103925050505b919050565b6000612d748284108484612d88565b905092915050565b60008115159050919050565b6000612d9384612d7c565b82841802821890509392505050565b600080fd5b600080fd5b6000819050919050565b612dbf81612dac565b8114612dca57600080fd5b50565b600081359050612ddc81612db6565b92915050565b600080600060608486031215612dfb57612dfa612da2565b5b6000612e0986828701612dcd565b9350506020612e1a86828701612dcd565b9250506040612e2b86828701612dcd565b9150509250925092565b612e3e81612dac565b82525050565b6000602082019050612e596000830184612e35565b92915050565b600081519050919050565b600082825260208201905092915050565b60005b83811015612e99578082015181840152602081019050612e7e565b60008484015250505050565b6000601f19601f8301169050919050565b6000612ec182612e5f565b612ecb8185612e6a565b9350612edb818560208601612e7b565b612ee481612ea5565b840191505092915050565b60006020820190508181036000830152612f098184612eb6565b905092915050565b600073ffffffffffffffffffffffffffffffffffffffff82169050919050565b6000612f3c82612f11565b9050919050565b612f4c81612f31565b82525050565b6000602082019050612f676000830184612f43565b92915050565b600060ff82169050919050565b612f8381612f6d565b82525050565b6000602082019050612f9e6000830184612f7a565b92915050565b600080fd5b600080fd5b600080fd5b60008083601f840112612fc957612fc8612fa4565b5b8235905067ffffffffffffffff811115612fe657612fe5612fa9565b5b60208301915083602082028301111561300257613001612fae565b5b9250929050565b61301281612f31565b811461301d57600080fd5b50565b60008135905061302f81613009565b92915050565b60008060008060008060a0878903121561305257613051612da2565b5b600061306089828a01612dcd565b965050602061307189828a01612dcd565b955050604087013567ffffffffffffffff81111561309257613091612da7565b5b61309e89828a01612fb3565b945094505060606130b189828a01613020565b92505060806130c289828a01612dcd565b9150509295509295509295565b600081519050919050565b600082825260208201905092915050565b6000819050602082019050919050565b61310481612dac565b82525050565b600061311683836130fb565b60208301905092915050565b6000602082019050919050565b600061313a826130cf565b61314481856130da565b935061314f836130eb565b8060005b83811015613180578151613167888261310a565b975061317283613122565b925050600181019050613153565b5085935050505092915050565b600060208201905081810360008301526131a7818461312f565b905092915050565b600080604083850312156131c6576131c5612da2565b5b60006131d485828601613020565b92505060206131e585828601613020565b9150509250929050565b600080600080600080600060e0888a03121561320e5761320d612da2565b5b600061321c8a828b01613020565b975050602061322d8a828b01613020565b965050604061323e8a828b01612dcd565b955050606061324f8a828b01612dcd565b94505060806132608a828b01612dcd565b93505060a06132718a828b01613020565b92505060c06132828a828b01612dcd565b91505092959891949750929550565b60006040820190506132a66000830185612e35565b6132b36020830184612e35565b9392505050565b600080600080600080600080610100898b0312156132db576132da612da2565b5b60006132e98b828c01613020565b98505060206132fa8b828c01613020565b975050604061330b8b828c01612dcd565b965050606061331c8b828c01612dcd565b955050608061332d8b828c01612dcd565b94505060a061333e8b828c01612dcd565b93505060c061334f8b828c01613020565b92505060e06133608b828c01612dcd565b9150509295985092959890939650565b60006060820190506133856000830186612e35565b6133926020830185612e35565b61339f6040830184612e35565b949350505050565b7f616d6f756e74496e203c20300000000000000000000000000000000000000000600082015250565b60006133dd600c83612e6a565b91506133e8826133a7565b602082019050919050565b6000602082019050818103600083015261340c816133d0565b9050919050565b7f5265736572766573203c20300000000000000000000000000000000000000000600082015250565b6000613449600c83612e6a565b915061345482613413565b602082019050919050565b600060208201905081810360008301526134788161343c565b9050919050565b7f4e487b7100000000000000000000000000000000000000000000000000000000600052601160045260246000fd5b60006134b982612dac565b91506134c483612dac565b92508282019050808211156134dc576134db61347f565b5b92915050565b60006134ed82612dac565b91506134f883612dac565b925082820261350681612dac565b9150828204841483151761351d5761351c61347f565b5b5092915050565b7f4e487b7100000000000000000000000000000000000000000000000000000000600052601260045260246000fd5b600061355e82612dac565b915061356983612dac565b92508261357957613578613524565b5b828204905092915050565b7f4e487b7100000000000000000000000000000000000000000000000000000000600052602260045260246000fd5b600060028204905060018216806135cb57607f821691505b6020821081036135de576135dd613584565b5b50919050565b7f5472616e73616374206578706972656400000000000000000000000000000000600082015250565b600061361a601083612e6a565b9150613625826135e4565b602082019050919050565b600060208201905081810360008301526136498161360d565b9050919050565b7f4e487b7100000000000000000000000000000000000000000000000000000000600052603260045260246000fd5b60006020828403121561369557613694612da2565b5b60006136a384828501613020565b91505092915050565b7f696e76616c696420746f6b656e73000000000000000000000000000000000000600082015250565b60006136e2600e83612e6a565b91506136ed826136ac565b602082019050919050565b60006020820190508181036000830152613711816136d5565b9050919050565b7f616d6f756e74496e203000000000000000000000000000000000000000000000600082015250565b600061374e600a83612e6a565b915061375982613718565b602082019050919050565b6000602082019050818103600083015261377d81613741565b9050919050565b60006060820190506137996000830186612f43565b6137a66020830185612f43565b6137b36040830184612e35565b949350505050565b60008115159050919050565b6137d0816137bb565b81146137db57600080fd5b50565b6000815190506137ed816137c7565b92915050565b60006020828403121561380957613808612da2565b5b6000613817848285016137de565b91505092915050565b7f696e73756666696369656e7420616d6f756e744f757400000000000000000000600082015250565b6000613856601683612e6a565b915061386182613820565b602082019050919050565b6000602082019050818103600083015261388581613849565b9050919050565b60006040820190506138a16000830185612f43565b6138ae6020830184612e35565b9392505050565b60006138c082612dac565b91506138cb83612dac565b92508282039050818111156138e3576138e261347f565b5b92915050565b7f4e487b7100000000000000000000000000000000000000000000000000000000600052604160045260246000fd5b600060808201905061392d6000830187612f43565b61393a6020830186612e35565b6139476040830185612f43565b6139546060830184612e35565b95945050505050565b7f496e76616c696420746f6b656e73000000000000000000000000000000000000600082015250565b6000613993600e83612e6a565b915061399e8261395d565b602082019050919050565b600060208201905081810360008301526139c281613986565b9050919050565b7f4e6f204120726573657276650000000000000000000000000000000000000000600082015250565b60006139ff600c83612e6a565b9150613a0a826139c9565b602082019050919050565b60006020820190508181036000830152613a2e816139f2565b9050919050565b7f6261642070616972000000000000000000000000000000000000000000000000600082015250565b6000613a6b600883612e6a565b9150613a7682613a35565b602082019050919050565b60006020820190508181036000830152613a9a81613a5e565b9050919050565b7f41203c206d696e00000000000000000000000000000000000000000000000000600082015250565b6000613ad7600783612e6a565b9150613ae282613aa1565b602082019050919050565b60006020820190508181036000830152613b0681613aca565b9050919050565b7f42203c206d696e00000000000000000000000000000000000000000000000000600082015250565b6000613b43600783612e6a565b9150613b4e82613b0d565b602082019050919050565b60006020820190508181036000830152613b7281613b36565b9050919050565b7f4c50206c6f770000000000000000000000000000000000000000000000000000600082015250565b6000613baf600683612e6a565b9150613bba82613b79565b602082019050919050565b60006020820190508181036000830152613bde81613ba2565b9050919050565b7f7265736572766573206c6f770000000000000000000000000000000000000000600082015250565b6000613c1b600c83612e6a565b9150613c2682613be5565b602082019050919050565b60006020820190508181036000830152613c4a81613c0e565b9050919050565b7f42206c6f77000000000000000000000000000000000000000000000000000000600082015250565b6000613c87600583612e6a565b9150613c9282613c51565b602082019050919050565b60006020820190508181036000830152613cb681613c7a565b9050919050565b7f4120686967680000000000000000000000000000000000000000000000000000600082015250565b6000613cf3600683612e6a565b9150613cfe82613cbd565b602082019050919050565b60006020820190508181036000830152613d2281613ce6565b9050919050565b7f41206c6f77000000000000000000000000000000000000000000000000000000600082015250565b6000613d5f600583612e6a565b9150613d6a82613d29565b602082019050919050565b60006020820190508181036000830152613d8e81613d52565b9050919050565b7f7a65726f206c6971000000000000000000000000000000000000000000000000600082015250565b6000613dcb600883612e6a565b9150613dd682613d95565b602082019050919050565b60006020820190508181036000830152613dfa81613dbe565b905091905056fea26469706673582212203c83d8c0dc517247a162afb5cd7ed4726ae2e4922e029bc1ae3234423df97dda64736f6c634300081c0033","opcodes":"PUSH1 0x80 PUSH1 0x40 MSTORE CALLVALUE DUP1 ISZERO PUSH2 0x10 JUMPI PUSH1 0x0 DUP1 REVERT JUMPDEST POP PUSH1 0x40 MLOAD PUSH2 0x4465 CODESIZE SUB DUP1 PUSH2 0x4465 DUP4 CODECOPY DUP2 DUP2 ADD PUSH1 0x40 MSTORE DUP2 ADD SWAP1 PUSH2 0x32 SWAP2 SWAP1 PUSH2 0x2BD JUMP JUMPDEST PUSH2 0x4C PUSH8 0xB7B64EB168E6DA11 PUSH1 0xC0 SHL PUSH2 0x257 PUSH1 0x20 SHL PUSH1 0x20 SHR JUMP JUMPDEST PUSH2 0x66 PUSH8 0x211E165515084FF4 PUSH1 0xC0 SHL PUSH2 0x257 PUSH1 0x20 SHL PUSH1 0x20 SHR JUMP JUMPDEST DUP2 PUSH1 0x3 PUSH1 0x1 PUSH2 0x100 EXP DUP2 SLOAD DUP2 PUSH20 0xFFFFFFFFFFFFFFFFFFFFFFFFFFFFFFFFFFFFFFFF MUL NOT AND SWAP1 DUP4 PUSH20 0xFFFFFFFFFFFFFFFFFFFFFFFFFFFFFFFFFFFFFFFF AND MUL OR SWAP1 SSTORE POP PUSH2 0xC1 PUSH8 0x8C8E108C95247521 PUSH1 0xC0 SHL PUSH2 0x257 PUSH1 0x20 SHL PUSH1 0x20 SHR JUMP JUMPDEST DUP1 PUSH1 0x4 PUSH1 0x0 PUSH2 0x100 EXP DUP2 SLOAD DUP2 PUSH20 0xFFFFFFFFFFFFFFFFFFFFFFFFFFFFFFFFFFFFFFFF MUL NOT AND SWAP1 DUP4 PUSH20 0xFFFFFFFFFFFFFFFFFFFFFFFFFFFFFFFFFFFFFFFF AND MUL OR SWAP1 SSTORE POP PUSH2 0x11C PUSH8 0x8FA0268AB2567282 PUSH1 0xC0 SHL PUSH2 0x257 PUSH1 0x20 SHL PUSH1 0x20 SHR JUMP JUMPDEST PUSH1 0x40 MLOAD DUP1 PUSH1 0x40 ADD PUSH1 0x40 MSTORE DUP1 PUSH1 0x13 DUP2 MSTORE PUSH1 0x20 ADD PUSH32 0x53696D706C6553776170204C5020546F6B656E00000000000000000000000000 DUP2 MSTORE POP PUSH1 0x1 SWAP1 DUP2 PUSH2 0x160 SWAP2 SWAP1 PUSH2 0x54D JUMP JUMPDEST POP PUSH2 0x17B PUSH8 0xA8551FF4BB553CBD PUSH1 0xC0 SHL PUSH2 0x257 PUSH1 0x20 SHL PUSH1 0x20 SHR JUMP JUMPDEST PUSH1 0x40 MLOAD DUP1 PUSH1 0x40 ADD PUSH1 0x40 MSTORE DUP1 PUSH1 0x4 DUP2 MSTORE PUSH1 0x20 ADD PUSH32 0x53534C5000000000000000000000000000000000000000000000000000000000 DUP2 MSTORE POP PUSH1 0x2 SWAP1 DUP2 PUSH2 0x1BF SWAP2 SWAP1 PUSH2 0x54D JUMP JUMPDEST POP PUSH2 0x1DA PUSH8 0xC9F47D9068A08ADF PUSH1 0xC0 SHL PUSH2 0x257 PUSH1 0x20 SHL PUSH1 0x20 SHR JUMP JUMPDEST PUSH1 0x12 PUSH1 0x3 PUSH1 0x0 PUSH2 0x100 EXP DUP2 SLOAD DUP2 PUSH1 0xFF MUL NOT AND SWAP1 DUP4 PUSH1 0xFF AND MUL OR SWAP1 SSTORE POP PUSH2 0x210 PUSH8 0x2DC9FF18DFC75CED PUSH1 0xC0 SHL PUSH2 0x257 PUSH1 0x20 SHL PUSH1 0x20 SHR JUMP JUMPDEST CALLER PUSH1 0x0 DUP1 PUSH2 0x100 EXP DUP2 SLOAD DUP2 PUSH20 0xFFFFFFFFFFFFFFFFFFFFFFFFFFFFFFFFFFFFFFFF MUL NOT AND SWAP1 DUP4 PUSH20 0xFFFFFFFFFFFFFFFFFFFFFFFFFFFFFFFFFFFFFFFF AND MUL OR SWAP1 SSTORE POP POP POP PUSH2 0x61F JUMP JUMPDEST POP JUMP JUMPDEST PUSH1 0x0 DUP1 REVERT JUMPDEST PUSH1 0x0 PUSH20 0xFFFFFFFFFFFFFFFFFFFFFFFFFFFFFFFFFFFFFFFF DUP3 AND SWAP1 POP SWAP2 SWAP1 POP JUMP JUMPDEST PUSH1 0x0 PUSH2 0x28A DUP3 PUSH2 0x25F JUMP JUMPDEST SWAP1 POP SWAP2 SWAP1 POP JUMP JUMPDEST PUSH2 0x29A DUP2 PUSH2 0x27F JUMP JUMPDEST DUP2 EQ PUSH2 0x2A5 JUMPI PUSH1 0x0 DUP1 REVERT JUMPDEST POP JUMP JUMPDEST PUSH1 0x0 DUP2 MLOAD SWAP1 POP PUSH2 0x2B7 DUP2 PUSH2 0x291 JUMP JUMPDEST SWAP3 SWAP2 POP POP JUMP JUMPDEST PUSH1 0x0 DUP1 PUSH1 0x40 DUP4 DUP6 SUB SLT ISZERO PUSH2 0x2D4 JUMPI PUSH2 0x2D3 PUSH2 0x25A JUMP JUMPDEST JUMPDEST PUSH1 0x0 PUSH2 0x2E2 DUP6 DUP3 DUP7 ADD PUSH2 0x2A8 JUMP JUMPDEST SWAP3 POP POP PUSH1 0x20 PUSH2 0x2F3 DUP6 DUP3 DUP7 ADD PUSH2 0x2A8 JUMP JUMPDEST SWAP2 POP POP SWAP3 POP SWAP3 SWAP1 POP JUMP JUMPDEST PUSH1 0x0 DUP2 MLOAD SWAP1 POP SWAP2 SWAP1 POP JUMP JUMPDEST PUSH32 0x4E487B7100000000000000000000000000000000000000000000000000000000 PUSH1 0x0 MSTORE PUSH1 0x41 PUSH1 0x4 MSTORE PUSH1 0x24 PUSH1 0x0 REVERT JUMPDEST PUSH32 0x4E487B7100000000000000000000000000000000000000000000000000000000 PUSH1 0x0 MSTORE PUSH1 0x22 PUSH1 0x4 MSTORE PUSH1 0x24 PUSH1 0x0 REVERT JUMPDEST PUSH1 0x0 PUSH1 0x2 DUP3 DIV SWAP1 POP PUSH1 0x1 DUP3 AND DUP1 PUSH2 0x37E JUMPI PUSH1 0x7F DUP3 AND SWAP2 POP JUMPDEST PUSH1 0x20 DUP3 LT DUP2 SUB PUSH2 0x391 JUMPI PUSH2 0x390 PUSH2 0x337 JUMP JUMPDEST JUMPDEST POP SWAP2 SWAP1 POP JUMP JUMPDEST PUSH1 0x0 DUP2 SWAP1 POP DUP2 PUSH1 0x0 MSTORE PUSH1 0x20 PUSH1 0x0 KECCAK256 SWAP1 POP SWAP2 SWAP1 POP JUMP JUMPDEST PUSH1 0x0 PUSH1 0x20 PUSH1 0x1F DUP4 ADD DIV SWAP1 POP SWAP2 SWAP1 POP JUMP JUMPDEST PUSH1 0x0 DUP3 DUP3 SHL SWAP1 POP SWAP3 SWAP2 POP POP JUMP JUMPDEST PUSH1 0x0 PUSH1 0x8 DUP4 MUL PUSH2 0x3F9 PUSH32 0xFFFFFFFFFFFFFFFFFFFFFFFFFFFFFFFFFFFFFFFFFFFFFFFFFFFFFFFFFFFFFFFF DUP3 PUSH2 0x3BC JUMP JUMPDEST PUSH2 0x403 DUP7 DUP4 PUSH2 0x3BC JUMP JUMPDEST SWAP6 POP DUP1 NOT DUP5 AND SWAP4 POP DUP1 DUP7 AND DUP5 OR SWAP3 POP POP POP SWAP4 SWAP3 POP POP POP JUMP JUMPDEST PUSH1 0x0 DUP2 SWAP1 POP SWAP2 SWAP1 POP JUMP JUMPDEST PUSH1 0x0 DUP2 SWAP1 POP SWAP2 SWAP1 POP JUMP JUMPDEST PUSH1 0x0 PUSH2 0x44A PUSH2 0x445 PUSH2 0x440 DUP5 PUSH2 0x41B JUMP JUMPDEST PUSH2 0x425 JUMP JUMPDEST PUSH2 0x41B JUMP JUMPDEST SWAP1 POP SWAP2 SWAP1 POP JUMP JUMPDEST PUSH1 0x0 DUP2 SWAP1 POP SWAP2 SWAP1 POP JUMP JUMPDEST PUSH2 0x464 DUP4 PUSH2 0x42F JUMP JUMPDEST PUSH2 0x478 PUSH2 0x470 DUP3 PUSH2 0x451 JUMP JUMPDEST DUP5 DUP5 SLOAD PUSH2 0x3C9 JUMP JUMPDEST DUP3 SSTORE POP POP POP POP JUMP JUMPDEST PUSH1 0x0 SWAP1 JUMP JUMPDEST PUSH2 0x48D PUSH2 0x480 JUMP JUMPDEST PUSH2 0x498 DUP2 DUP5 DUP5 PUSH2 0x45B JUMP JUMPDEST POP POP POP JUMP JUMPDEST JUMPDEST DUP2 DUP2 LT ISZERO PUSH2 0x4BC JUMPI PUSH2 0x4B1 PUSH1 0x0 DUP3 PUSH2 0x485 JUMP JUMPDEST PUSH1 0x1 DUP2 ADD SWAP1 POP PUSH2 0x49E JUMP JUMPDEST POP POP JUMP JUMPDEST PUSH1 0x1F DUP3 GT ISZERO PUSH2 0x501 JUMPI PUSH2 0x4D2 DUP2 PUSH2 0x397 JUMP JUMPDEST PUSH2 0x4DB DUP5 PUSH2 0x3AC JUMP JUMPDEST DUP2 ADD PUSH1 0x20 DUP6 LT ISZERO PUSH2 0x4EA JUMPI DUP2 SWAP1 POP JUMPDEST PUSH2 0x4FE PUSH2 0x4F6 DUP6 PUSH2 0x3AC JUMP JUMPDEST DUP4 ADD DUP3 PUSH2 0x49D JUMP JUMPDEST POP POP JUMPDEST POP POP POP JUMP JUMPDEST PUSH1 0x0 DUP3 DUP3 SHR SWAP1 POP SWAP3 SWAP2 POP POP JUMP JUMPDEST PUSH1 0x0 PUSH2 0x524 PUSH1 0x0 NOT DUP5 PUSH1 0x8 MUL PUSH2 0x506 JUMP JUMPDEST NOT DUP1 DUP4 AND SWAP2 POP POP SWAP3 SWAP2 POP POP JUMP JUMPDEST PUSH1 0x0 PUSH2 0x53D DUP4 DUP4 PUSH2 0x513 JUMP JUMPDEST SWAP2 POP DUP3 PUSH1 0x2 MUL DUP3 OR SWAP1 POP SWAP3 SWAP2 POP POP JUMP JUMPDEST PUSH2 0x556 DUP3 PUSH2 0x2FD JUMP JUMPDEST PUSH8 0xFFFFFFFFFFFFFFFF DUP2 GT ISZERO PUSH2 0x56F JUMPI PUSH2 0x56E PUSH2 0x308 JUMP JUMPDEST JUMPDEST PUSH2 0x579 DUP3 SLOAD PUSH2 0x366 JUMP JUMPDEST PUSH2 0x584 DUP3 DUP3 DUP6 PUSH2 0x4C0 JUMP JUMPDEST PUSH1 0x0 PUSH1 0x20 SWAP1 POP PUSH1 0x1F DUP4 GT PUSH1 0x1 DUP2 EQ PUSH2 0x5B7 JUMPI PUSH1 0x0 DUP5 ISZERO PUSH2 0x5A5 JUMPI DUP3 DUP8 ADD MLOAD SWAP1 POP JUMPDEST PUSH2 0x5AF DUP6 DUP3 PUSH2 0x531 JUMP JUMPDEST DUP7 SSTORE POP PUSH2 0x617 JUMP JUMPDEST PUSH1 0x1F NOT DUP5 AND PUSH2 0x5C5 DUP7 PUSH2 0x397 JUMP JUMPDEST PUSH1 0x0 JUMPDEST DUP3 DUP2 LT ISZERO PUSH2 0x5ED JUMPI DUP5 DUP10 ADD MLOAD DUP3 SSTORE PUSH1 0x1 DUP3 ADD SWAP2 POP PUSH1 0x20 DUP6 ADD SWAP5 POP PUSH1 0x20 DUP2 ADD SWAP1 POP PUSH2 0x5C8 JUMP JUMPDEST DUP7 DUP4 LT ISZERO PUSH2 0x60A JUMPI DUP5 DUP10 ADD MLOAD PUSH2 0x606 PUSH1 0x1F DUP10 AND DUP3 PUSH2 0x513 JUMP JUMPDEST DUP4 SSTORE POP JUMPDEST PUSH1 0x1 PUSH1 0x2 DUP9 MUL ADD DUP9 SSTORE POP POP POP JUMPDEST POP POP POP POP POP POP JUMP JUMPDEST PUSH2 0x3E37 DUP1 PUSH2 0x62E PUSH1 0x0 CODECOPY PUSH1 0x0 RETURN INVALID PUSH1 0x80 PUSH1 0x40 MSTORE CALLVALUE DUP1 ISZERO PUSH2 0x10 JUMPI PUSH1 0x0 DUP1 REVERT JUMPDEST POP PUSH1 0x4 CALLDATASIZE LT PUSH2 0xCF JUMPI PUSH1 0x0 CALLDATALOAD PUSH1 0xE0 SHR DUP1 PUSH4 0x5F64B55B GT PUSH2 0x8C JUMPI DUP1 PUSH4 0xAC41865A GT PUSH2 0x66 JUMPI DUP1 PUSH4 0xAC41865A EQ PUSH2 0x206 JUMPI DUP1 PUSH4 0xBAA2ABDE EQ PUSH2 0x236 JUMPI DUP1 PUSH4 0xDC5FA6C5 EQ PUSH2 0x267 JUMPI DUP1 PUSH4 0xE8E33700 EQ PUSH2 0x285 JUMPI PUSH2 0xCF JUMP JUMPDEST DUP1 PUSH4 0x5F64B55B EQ PUSH2 0x1AC JUMPI DUP1 PUSH4 0x8DA5CB5B EQ PUSH2 0x1CA JUMPI DUP1 PUSH4 0x95D89B41 EQ PUSH2 0x1E8 JUMPI PUSH2 0xCF JUMP JUMPDEST DUP1 PUSH4 0x54D50D4 EQ PUSH2 0xD4 JUMPI DUP1 PUSH4 0x6FDDE03 EQ PUSH2 0x104 JUMPI DUP1 PUSH4 0xFC63D10 EQ PUSH2 0x122 JUMPI DUP1 PUSH4 0x19E36F3B EQ PUSH2 0x140 JUMPI DUP1 PUSH4 0x313CE567 EQ PUSH2 0x15E JUMPI DUP1 PUSH4 0x38ED1739 EQ PUSH2 0x17C JUMPI JUMPDEST PUSH1 0x0 DUP1 REVERT JUMPDEST PUSH2 0xEE PUSH1 0x4 DUP1 CALLDATASIZE SUB DUP2 ADD SWAP1 PUSH2 0xE9 SWAP2 SWAP1 PUSH2 0x2DE2 JUMP JUMPDEST PUSH2 0x2B7 JUMP JUMPDEST PUSH1 0x40 MLOAD PUSH2 0xFB SWAP2 SWAP1 PUSH2 0x2E44 JUMP JUMPDEST PUSH1 0x40 MLOAD DUP1 SWAP2 SUB SWAP1 RETURN JUMPDEST PUSH2 0x10C PUSH2 0x466 JUMP JUMPDEST PUSH1 0x40 MLOAD PUSH2 0x119 SWAP2 SWAP1 PUSH2 0x2EEF JUMP JUMPDEST PUSH1 0x40 MLOAD DUP1 SWAP2 SUB SWAP1 RETURN JUMPDEST PUSH2 0x12A PUSH2 0x534 JUMP JUMPDEST PUSH1 0x40 MLOAD PUSH2 0x137 SWAP2 SWAP1 PUSH2 0x2F52 JUMP JUMPDEST PUSH1 0x40 MLOAD DUP1 SWAP2 SUB SWAP1 RETURN JUMPDEST PUSH2 0x148 PUSH2 0x55A JUMP JUMPDEST PUSH1 0x40 MLOAD PUSH2 0x155 SWAP2 SWAP1 PUSH2 0x2E44 JUMP JUMPDEST PUSH1 0x40 MLOAD DUP1 SWAP2 SUB SWAP1 RETURN JUMPDEST PUSH2 0x166 PUSH2 0x560 JUMP JUMPDEST PUSH1 0x40 MLOAD PUSH2 0x173 SWAP2 SWAP1 PUSH2 0x2F89 JUMP JUMPDEST PUSH1 0x40 MLOAD DUP1 SWAP2 SUB SWAP1 RETURN JUMPDEST PUSH2 0x196 PUSH1 0x4 DUP1 CALLDATASIZE SUB DUP2 ADD SWAP1 PUSH2 0x191 SWAP2 SWAP1 PUSH2 0x3035 JUMP JUMPDEST PUSH2 0x5B3 JUMP JUMPDEST PUSH1 0x40 MLOAD PUSH2 0x1A3 SWAP2 SWAP1 PUSH2 0x318D JUMP JUMPDEST PUSH1 0x40 MLOAD DUP1 SWAP2 SUB SWAP1 RETURN JUMPDEST PUSH2 0x1B4 PUSH2 0x12EE JUMP JUMPDEST PUSH1 0x40 MLOAD PUSH2 0x1C1 SWAP2 SWAP1 PUSH2 0x2F52 JUMP JUMPDEST PUSH1 0x40 MLOAD DUP1 SWAP2 SUB SWAP1 RETURN JUMPDEST PUSH2 0x1D2 PUSH2 0x1314 JUMP JUMPDEST PUSH1 0x40 MLOAD PUSH2 0x1DF SWAP2 SWAP1 PUSH2 0x2F52 JUMP JUMPDEST PUSH1 0x40 MLOAD DUP1 SWAP2 SUB SWAP1 RETURN JUMPDEST PUSH2 0x1F0 PUSH2 0x1338 JUMP JUMPDEST PUSH1 0x40 MLOAD PUSH2 0x1FD SWAP2 SWAP1 PUSH2 0x2EEF JUMP JUMPDEST PUSH1 0x40 MLOAD DUP1 SWAP2 SUB SWAP1 RETURN JUMPDEST PUSH2 0x220 PUSH1 0x4 DUP1 CALLDATASIZE SUB DUP2 ADD SWAP1 PUSH2 0x21B SWAP2 SWAP1 PUSH2 0x31AF JUMP JUMPDEST PUSH2 0x1406 JUMP JUMPDEST PUSH1 0x40 MLOAD PUSH2 0x22D SWAP2 SWAP1 PUSH2 0x2E44 JUMP JUMPDEST PUSH1 0x40 MLOAD DUP1 SWAP2 SUB SWAP1 RETURN JUMPDEST PUSH2 0x250 PUSH1 0x4 DUP1 CALLDATASIZE SUB DUP2 ADD SWAP1 PUSH2 0x24B SWAP2 SWAP1 PUSH2 0x31EF JUMP JUMPDEST PUSH2 0x17CE JUMP JUMPDEST PUSH1 0x40 MLOAD PUSH2 0x25E SWAP3 SWAP2 SWAP1 PUSH2 0x3291 JUMP JUMPDEST PUSH1 0x40 MLOAD DUP1 SWAP2 SUB SWAP1 RETURN JUMPDEST PUSH2 0x26F PUSH2 0x20AE JUMP JUMPDEST PUSH1 0x40 MLOAD PUSH2 0x27C SWAP2 SWAP1 PUSH2 0x2E44 JUMP JUMPDEST PUSH1 0x40 MLOAD DUP1 SWAP2 SUB SWAP1 RETURN JUMPDEST PUSH2 0x29F PUSH1 0x4 DUP1 CALLDATASIZE SUB DUP2 ADD SWAP1 PUSH2 0x29A SWAP2 SWAP1 PUSH2 0x32BA JUMP JUMPDEST PUSH2 0x20B4 JUMP JUMPDEST PUSH1 0x40 MLOAD PUSH2 0x2AE SWAP4 SWAP3 SWAP2 SWAP1 PUSH2 0x3370 JUMP JUMPDEST PUSH1 0x40 MLOAD DUP1 SWAP2 SUB SWAP1 RETURN JUMPDEST PUSH1 0x0 PUSH2 0x2CD PUSH8 0xB4D4D62F1850FBDE PUSH1 0xC0 SHL PUSH2 0x2BBA JUMP JUMPDEST PUSH2 0x2E1 PUSH8 0xEB26C1F07A326E8C PUSH1 0xC0 SHL PUSH2 0x2BBA JUMP JUMPDEST PUSH2 0x2F5 PUSH8 0x57CA3A5C2880ED20 PUSH1 0xC0 SHL PUSH2 0x2BBA JUMP JUMPDEST PUSH2 0x309 PUSH8 0xF55D9FA2C167FF3A PUSH1 0xC0 SHL PUSH2 0x2BBA JUMP JUMPDEST PUSH1 0x0 DUP5 GT PUSH2 0x34C JUMPI PUSH1 0x40 MLOAD PUSH32 0x8C379A000000000000000000000000000000000000000000000000000000000 DUP2 MSTORE PUSH1 0x4 ADD PUSH2 0x343 SWAP1 PUSH2 0x33F3 JUMP JUMPDEST PUSH1 0x40 MLOAD DUP1 SWAP2 SUB SWAP1 REVERT JUMPDEST PUSH2 0x360 PUSH8 0x419B3AE0428DA530 PUSH1 0xC0 SHL PUSH2 0x2BBA JUMP JUMPDEST PUSH2 0x374 PUSH8 0xCFDD2E205721374B PUSH1 0xC0 SHL PUSH2 0x2BBA JUMP JUMPDEST PUSH2 0x388 PUSH8 0xD1F092D2DFFDEBA6 PUSH1 0xC0 SHL PUSH2 0x2BBA JUMP JUMPDEST PUSH2 0x39C PUSH8 0x376EA099F14B9A55 PUSH1 0xC0 SHL PUSH2 0x2BBA JUMP JUMPDEST PUSH1 0x0 DUP4 GT DUP1 ISZERO PUSH2 0x3AC JUMPI POP PUSH1 0x0 DUP3 GT JUMPDEST PUSH2 0x3EB JUMPI PUSH1 0x40 MLOAD PUSH32 0x8C379A000000000000000000000000000000000000000000000000000000000 DUP2 MSTORE PUSH1 0x4 ADD PUSH2 0x3E2 SWAP1 PUSH2 0x345F JUMP JUMPDEST PUSH1 0x40 MLOAD DUP1 SWAP2 SUB SWAP1 REVERT JUMPDEST PUSH2 0x3FF PUSH8 0xF61F24E590FF83BD PUSH1 0xC0 SHL PUSH2 0x2BBA JUMP JUMPDEST PUSH2 0x413 PUSH8 0x4C0E98D0713A3704 PUSH1 0xC0 SHL PUSH2 0x2BBA JUMP JUMPDEST DUP4 DUP4 PUSH2 0x41F SWAP2 SWAP1 PUSH2 0x34AE JUMP JUMPDEST DUP3 DUP6 PUSH2 0x42B SWAP2 SWAP1 PUSH2 0x34E2 JUMP JUMPDEST PUSH2 0x435 SWAP2 SWAP1 PUSH2 0x3553 JUMP JUMPDEST SWAP1 POP PUSH2 0x44B PUSH8 0xDCFEB4E88EB3C200 PUSH1 0xC0 SHL PUSH2 0x2BBA JUMP JUMPDEST PUSH2 0x45F PUSH8 0x46397B7410189220 PUSH1 0xC0 SHL PUSH2 0x2BBA JUMP JUMPDEST SWAP4 SWAP3 POP POP POP JUMP JUMPDEST PUSH1 0x60 PUSH2 0x47C PUSH8 0x1690BCD39DF79E5F PUSH1 0xC0 SHL PUSH2 0x2BBA JUMP JUMPDEST PUSH2 0x490 PUSH8 0xDA8675B78BE003E7 PUSH1 0xC0 SHL PUSH2 0x2BBA JUMP JUMPDEST PUSH2 0x4A4 PUSH8 0x30BF962F7D2CA538 PUSH1 0xC0 SHL PUSH2 0x2BBA JUMP JUMPDEST PUSH1 0x1 DUP1 SLOAD PUSH2 0x4B1 SWAP1 PUSH2 0x35B3 JUMP JUMPDEST DUP1 PUSH1 0x1F ADD PUSH1 0x20 DUP1 SWAP2 DIV MUL PUSH1 0x20 ADD PUSH1 0x40 MLOAD SWAP1 DUP2 ADD PUSH1 0x40 MSTORE DUP1 SWAP3 SWAP2 SWAP1 DUP2 DUP2 MSTORE PUSH1 0x20 ADD DUP3 DUP1 SLOAD PUSH2 0x4DD SWAP1 PUSH2 0x35B3 JUMP JUMPDEST DUP1 ISZERO PUSH2 0x52A JUMPI DUP1 PUSH1 0x1F LT PUSH2 0x4FF JUMPI PUSH2 0x100 DUP1 DUP4 SLOAD DIV MUL DUP4 MSTORE SWAP2 PUSH1 0x20 ADD SWAP2 PUSH2 0x52A JUMP JUMPDEST DUP3 ADD SWAP2 SWAP1 PUSH1 0x0 MSTORE PUSH1 0x20 PUSH1 0x0 KECCAK256 SWAP1 JUMPDEST DUP2 SLOAD DUP2 MSTORE SWAP1 PUSH1 0x1 ADD SWAP1 PUSH1 0x20 ADD DUP1 DUP4 GT PUSH2 0x50D JUMPI DUP3 SWAP1 SUB PUSH1 0x1F AND DUP3 ADD SWAP2 JUMPDEST POP POP POP POP POP SWAP1 POP SWAP1 JUMP JUMPDEST PUSH1 0x3 PUSH1 0x1 SWAP1 SLOAD SWAP1 PUSH2 0x100 EXP SWAP1 DIV PUSH20 0xFFFFFFFFFFFFFFFFFFFFFFFFFFFFFFFFFFFFFFFF AND DUP2 JUMP JUMPDEST PUSH1 0x6 SLOAD DUP2 JUMP JUMPDEST PUSH1 0x0 PUSH2 0x576 PUSH8 0x9071602CD6CD1EF9 PUSH1 0xC0 SHL PUSH2 0x2BBA JUMP JUMPDEST PUSH2 0x58A PUSH8 0x54B22F793E3024A7 PUSH1 0xC0 SHL PUSH2 0x2BBA JUMP JUMPDEST PUSH2 0x59E PUSH8 0xF19BD12EA49BEEF1 PUSH1 0xC0 SHL PUSH2 0x2BBA JUMP JUMPDEST PUSH1 0x3 PUSH1 0x0 SWAP1 SLOAD SWAP1 PUSH2 0x100 EXP SWAP1 DIV PUSH1 0xFF AND SWAP1 POP SWAP1 JUMP JUMPDEST PUSH1 0x60 PUSH2 0x5C9 PUSH8 0xFC498058C7F74EA6 PUSH1 0xC0 SHL PUSH2 0x2BBA JUMP JUMPDEST PUSH2 0x5DD PUSH8 0xB0762056F5A79AB5 PUSH1 0xC0 SHL PUSH2 0x2BBA JUMP JUMPDEST PUSH2 0x5F1 PUSH8 0xEF51F09A9A88E7DA PUSH1 0xC0 SHL PUSH2 0x2BBA JUMP JUMPDEST PUSH2 0x605 PUSH8 0x1C1D4F00350779A6 PUSH1 0xC0 SHL PUSH2 0x2BBA JUMP JUMPDEST TIMESTAMP DUP3 GT PUSH2 0x647 JUMPI PUSH1 0x40 MLOAD PUSH32 0x8C379A000000000000000000000000000000000000000000000000000000000 DUP2 MSTORE PUSH1 0x4 ADD PUSH2 0x63E SWAP1 PUSH2 0x3630 JUMP JUMPDEST PUSH1 0x40 MLOAD DUP1 SWAP2 SUB SWAP1 REVERT JUMPDEST PUSH2 0x65B PUSH8 0xC258C1C29AFAA914 PUSH1 0xC0 SHL PUSH2 0x2BBA JUMP JUMPDEST PUSH2 0x66F PUSH8 0x786C714C6531DED3 PUSH1 0xC0 SHL PUSH2 0x2BBA JUMP JUMPDEST PUSH2 0x683 PUSH8 0x5D053A39CBB6BD2C PUSH1 0xC0 SHL PUSH2 0x2BBA JUMP JUMPDEST PUSH2 0x697 PUSH8 0x77B421798D4BBF8B PUSH1 0xC0 SHL PUSH2 0x2BBA JUMP JUMPDEST PUSH1 0x2 DUP6 DUP6 SWAP1 POP EQ DUP1 ISZERO PUSH2 0x726 JUMPI POP DUP5 DUP5 PUSH1 0x1 DUP2 DUP2 LT PUSH2 0x6B9 JUMPI PUSH2 0x6B8 PUSH2 0x3650 JUMP JUMPDEST JUMPDEST SWAP1 POP PUSH1 0x20 MUL ADD PUSH1 0x20 DUP2 ADD SWAP1 PUSH2 0x6CE SWAP2 SWAP1 PUSH2 0x367F JUMP JUMPDEST PUSH20 0xFFFFFFFFFFFFFFFFFFFFFFFFFFFFFFFFFFFFFFFF AND DUP6 DUP6 PUSH1 0x0 DUP2 DUP2 LT PUSH2 0x6F8 JUMPI PUSH2 0x6F7 PUSH2 0x3650 JUMP JUMPDEST JUMPDEST SWAP1 POP PUSH1 0x20 MUL ADD PUSH1 0x20 DUP2 ADD SWAP1 PUSH2 0x70D SWAP2 SWAP1 PUSH2 0x367F JUMP JUMPDEST PUSH20 0xFFFFFFFFFFFFFFFFFFFFFFFFFFFFFFFFFFFFFFFF AND EQ ISZERO JUMPDEST PUSH2 0x765 JUMPI PUSH1 0x40 MLOAD PUSH32 0x8C379A000000000000000000000000000000000000000000000000000000000 DUP2 MSTORE PUSH1 0x4 ADD PUSH2 0x75C SWAP1 PUSH2 0x36F8 JUMP JUMPDEST PUSH1 0x40 MLOAD DUP1 SWAP2 SUB SWAP1 REVERT JUMPDEST PUSH2 0x779 PUSH8 0x1730BA1C504F7086 PUSH1 0xC0 SHL PUSH2 0x2BBA JUMP JUMPDEST PUSH2 0x78D PUSH8 0x910E99AC159E972B PUSH1 0xC0 SHL PUSH2 0x2BBA JUMP JUMPDEST PUSH2 0x7A1 PUSH8 0xC7DA7149AA2930C2 PUSH1 0xC0 SHL PUSH2 0x2BBA JUMP JUMPDEST PUSH2 0x7B5 PUSH8 0x9793E7B36D7C9DC1 PUSH1 0xC0 SHL PUSH2 0x2BBA JUMP JUMPDEST PUSH1 0x0 DUP8 GT PUSH2 0x7F8 JUMPI PUSH1 0x40 MLOAD PUSH32 0x8C379A000000000000000000000000000000000000000000000000000000000 DUP2 MSTORE PUSH1 0x4 ADD PUSH2 0x7EF SWAP1 PUSH2 0x3764 JUMP JUMPDEST PUSH1 0x40 MLOAD DUP1 SWAP2 SUB SWAP1 REVERT JUMPDEST PUSH2 0x80C PUSH8 0xC26EDAD64174D3D6 PUSH1 0xC0 SHL PUSH2 0x2BBA JUMP JUMPDEST PUSH2 0x820 PUSH8 0xAE950AEFC52DA0D6 PUSH1 0xC0 SHL PUSH2 0x2BBA JUMP JUMPDEST PUSH2 0x834 PUSH8 0x469D0B87D4D61B33 PUSH1 0xC0 SHL PUSH2 0x2BBA JUMP JUMPDEST PUSH1 0x0 PUSH1 0x40 MLOAD DUP1 PUSH1 0x40 ADD PUSH1 0x40 MSTORE DUP1 PUSH1 0x3 PUSH1 0x1 SWAP1 SLOAD SWAP1 PUSH2 0x100 EXP SWAP1 DIV PUSH20 0xFFFFFFFFFFFFFFFFFFFFFFFFFFFFFFFFFFFFFFFF AND PUSH20 0xFFFFFFFFFFFFFFFFFFFFFFFFFFFFFFFFFFFFFFFF AND DUP2 MSTORE PUSH1 0x20 ADD PUSH1 0x4 PUSH1 0x0 SWAP1 SLOAD SWAP1 PUSH2 0x100 EXP SWAP1 DIV PUSH20 0xFFFFFFFFFFFFFFFFFFFFFFFFFFFFFFFFFFFFFFFF AND PUSH20 0xFFFFFFFFFFFFFFFFFFFFFFFFFFFFFFFFFFFFFFFF AND DUP2 MSTORE POP SWAP1 POP PUSH2 0x8D1 PUSH8 0x23BD17533D064EE7 PUSH1 0xC0 SHL PUSH2 0x2BBA JUMP JUMPDEST PUSH2 0x8E5 PUSH8 0x384D6883D98B594 PUSH1 0xC0 SHL PUSH2 0x2BBA JUMP JUMPDEST PUSH1 0x0 PUSH1 0x5 SLOAD SWAP1 POP PUSH2 0x900 PUSH8 0xDD32EEDDA0A221D6 PUSH1 0xC0 SHL PUSH2 0x2BBA JUMP JUMPDEST PUSH2 0x914 PUSH8 0x41BE2ABDCC9133D8 PUSH1 0xC0 SHL PUSH2 0x2BBA JUMP JUMPDEST PUSH1 0x0 PUSH1 0x6 SLOAD SWAP1 POP PUSH2 0x92F PUSH8 0x40F627B27945C378 PUSH1 0xC0 SHL PUSH2 0x2BBA JUMP JUMPDEST PUSH2 0x943 PUSH8 0xFC64B40C3CFE5FC2 PUSH1 0xC0 SHL PUSH2 0x2BBA JUMP JUMPDEST PUSH2 0x957 PUSH8 0xCA1B1C8C0325ACDD PUSH1 0xC0 SHL PUSH2 0x2BBA JUMP JUMPDEST DUP3 PUSH1 0x0 ADD MLOAD PUSH20 0xFFFFFFFFFFFFFFFFFFFFFFFFFFFFFFFFFFFFFFFF AND DUP9 DUP9 PUSH1 0x0 DUP2 DUP2 LT PUSH2 0x986 JUMPI PUSH2 0x985 PUSH2 0x3650 JUMP JUMPDEST JUMPDEST SWAP1 POP PUSH1 0x20 MUL ADD PUSH1 0x20 DUP2 ADD SWAP1 PUSH2 0x99B SWAP2 SWAP1 PUSH2 0x367F JUMP JUMPDEST PUSH20 0xFFFFFFFFFFFFFFFFFFFFFFFFFFFFFFFFFFFFFFFF AND EQ DUP1 ISZERO PUSH2 0xA15 JUMPI POP DUP3 PUSH1 0x20 ADD MLOAD PUSH20 0xFFFFFFFFFFFFFFFFFFFFFFFFFFFFFFFFFFFFFFFF AND DUP9 DUP9 PUSH1 0x1 DUP2 DUP2 LT PUSH2 0x9E8 JUMPI PUSH2 0x9E7 PUSH2 0x3650 JUMP JUMPDEST JUMPDEST SWAP1 POP PUSH1 0x20 MUL ADD PUSH1 0x20 DUP2 ADD SWAP1 PUSH2 0x9FD SWAP2 SWAP1 PUSH2 0x367F JUMP JUMPDEST PUSH20 0xFFFFFFFFFFFFFFFFFFFFFFFFFFFFFFFFFFFFFFFF AND EQ JUMPDEST DUP1 ISZERO PUSH2 0xA31 JUMPI POP PUSH2 0xA30 PUSH8 0xA2E91FCC53E9A097 PUSH1 0xC0 SHL PUSH2 0x2BBD JUMP JUMPDEST JUMPDEST DUP1 PUSH2 0xB12 JUMPI POP DUP3 PUSH1 0x20 ADD MLOAD PUSH20 0xFFFFFFFFFFFFFFFFFFFFFFFFFFFFFFFFFFFFFFFF AND DUP9 DUP9 PUSH1 0x0 DUP2 DUP2 LT PUSH2 0xA66 JUMPI PUSH2 0xA65 PUSH2 0x3650 JUMP JUMPDEST JUMPDEST SWAP1 POP PUSH1 0x20 MUL ADD PUSH1 0x20 DUP2 ADD SWAP1 PUSH2 0xA7B SWAP2 SWAP1 PUSH2 0x367F JUMP JUMPDEST PUSH20 0xFFFFFFFFFFFFFFFFFFFFFFFFFFFFFFFFFFFFFFFF AND EQ DUP1 ISZERO PUSH2 0xAF5 JUMPI POP DUP3 PUSH1 0x0 ADD MLOAD PUSH20 0xFFFFFFFFFFFFFFFFFFFFFFFFFFFFFFFFFFFFFFFF AND DUP9 DUP9 PUSH1 0x1 DUP2 DUP2 LT PUSH2 0xAC8 JUMPI PUSH2 0xAC7 PUSH2 0x3650 JUMP JUMPDEST JUMPDEST SWAP1 POP PUSH1 0x20 MUL ADD PUSH1 0x20 DUP2 ADD SWAP1 PUSH2 0xADD SWAP2 SWAP1 PUSH2 0x367F JUMP JUMPDEST PUSH20 0xFFFFFFFFFFFFFFFFFFFFFFFFFFFFFFFFFFFFFFFF AND EQ JUMPDEST DUP1 ISZERO PUSH2 0xB11 JUMPI POP PUSH2 0xB10 PUSH8 0x10D62A01B41C1CDC PUSH1 0xC0 SHL PUSH2 0x2BBD JUMP JUMPDEST JUMPDEST JUMPDEST PUSH2 0xB51 JUMPI PUSH1 0x40 MLOAD PUSH32 0x8C379A000000000000000000000000000000000000000000000000000000000 DUP2 MSTORE PUSH1 0x4 ADD PUSH2 0xB48 SWAP1 PUSH2 0x36F8 JUMP JUMPDEST PUSH1 0x40 MLOAD DUP1 SWAP2 SUB SWAP1 REVERT JUMPDEST PUSH2 0xB65 PUSH8 0x8DCADB22B852870E PUSH1 0xC0 SHL PUSH2 0x2BBA JUMP JUMPDEST PUSH2 0xB79 PUSH8 0xB136FCAA71607D38 PUSH1 0xC0 SHL PUSH2 0x2BBA JUMP JUMPDEST PUSH2 0xB8D PUSH8 0xFE85DAE170D404F6 PUSH1 0xC0 SHL PUSH2 0x2BBA JUMP JUMPDEST PUSH1 0x0 PUSH2 0xBA3 PUSH8 0x41C2A81BC2289234 PUSH1 0xC0 SHL PUSH2 0x2BBA JUMP JUMPDEST PUSH2 0xBB7 PUSH8 0x65624E39AA424A1A PUSH1 0xC0 SHL PUSH2 0x2BBA JUMP JUMPDEST DUP4 PUSH1 0x0 ADD MLOAD PUSH20 0xFFFFFFFFFFFFFFFFFFFFFFFFFFFFFFFFFFFFFFFF AND DUP10 DUP10 PUSH1 0x0 DUP2 DUP2 LT PUSH2 0xBE6 JUMPI PUSH2 0xBE5 PUSH2 0x3650 JUMP JUMPDEST JUMPDEST SWAP1 POP PUSH1 0x20 MUL ADD PUSH1 0x20 DUP2 ADD SWAP1 PUSH2 0xBFB SWAP2 SWAP1 PUSH2 0x367F JUMP JUMPDEST PUSH20 0xFFFFFFFFFFFFFFFFFFFFFFFFFFFFFFFFFFFFFFFF AND SUB PUSH2 0xE9E JUMPI PUSH2 0xC2A PUSH8 0x7B4C5C9FDAD7A1DC PUSH1 0xC0 SHL PUSH2 0x2BBA JUMP JUMPDEST PUSH2 0xC3E PUSH8 0xDB7C34A798D80281 PUSH1 0xC0 SHL PUSH2 0x2BBA JUMP JUMPDEST PUSH2 0xC52 PUSH8 0x5ECA881BE89A5298 PUSH1 0xC0 SHL PUSH2 0x2BBA JUMP JUMPDEST DUP4 PUSH1 0x0 ADD MLOAD PUSH20 0xFFFFFFFFFFFFFFFFFFFFFFFFFFFFFFFFFFFFFFFF AND PUSH4 0x23B872DD CALLER ADDRESS DUP15 PUSH1 0x40 MLOAD DUP5 PUSH4 0xFFFFFFFF AND PUSH1 0xE0 SHL DUP2 MSTORE PUSH1 0x4 ADD PUSH2 0xC93 SWAP4 SWAP3 SWAP2 SWAP1 PUSH2 0x3784 JUMP JUMPDEST PUSH1 0x20 PUSH1 0x40 MLOAD DUP1 DUP4 SUB DUP2 PUSH1 0x0 DUP8 GAS CALL ISZERO DUP1 ISZERO PUSH2 0xCB2 JUMPI RETURNDATASIZE PUSH1 0x0 DUP1 RETURNDATACOPY RETURNDATASIZE PUSH1 0x0 REVERT JUMPDEST POP POP POP POP PUSH1 0x40 MLOAD RETURNDATASIZE PUSH1 0x1F NOT PUSH1 0x1F DUP3 ADD AND DUP3 ADD DUP1 PUSH1 0x40 MSTORE POP DUP2 ADD SWAP1 PUSH2 0xCD6 SWAP2 SWAP1 PUSH2 0x37F3 JUMP JUMPDEST POP PUSH2 0xCEB PUSH8 0x678944B377108B15 PUSH1 0xC0 SHL PUSH2 0x2BBA JUMP JUMPDEST DUP11 DUP4 PUSH2 0xCF7 SWAP2 SWAP1 PUSH2 0x34AE JUMP JUMPDEST DUP3 DUP13 PUSH2 0xD03 SWAP2 SWAP1 PUSH2 0x34E2 JUMP JUMPDEST PUSH2 0xD0D SWAP2 SWAP1 PUSH2 0x3553 JUMP JUMPDEST SWAP1 POP PUSH2 0xD23 PUSH8 0xE8DC1D6487081222 PUSH1 0xC0 SHL PUSH2 0x2BBA JUMP JUMPDEST PUSH2 0xD37 PUSH8 0x5220B151C79309CA PUSH1 0xC0 SHL PUSH2 0x2BBA JUMP JUMPDEST PUSH2 0xD4B PUSH8 0x3ABF66949540149E PUSH1 0xC0 SHL PUSH2 0x2BBA JUMP JUMPDEST DUP10 DUP2 LT ISZERO PUSH2 0xD8E JUMPI PUSH1 0x40 MLOAD PUSH32 0x8C379A000000000000000000000000000000000000000000000000000000000 DUP2 MSTORE PUSH1 0x4 ADD PUSH2 0xD85 SWAP1 PUSH2 0x386C JUMP JUMPDEST PUSH1 0x40 MLOAD DUP1 SWAP2 SUB SWAP1 REVERT JUMPDEST PUSH2 0xDA2 PUSH8 0x643AAE1A30CB725E PUSH1 0xC0 SHL PUSH2 0x2BBA JUMP JUMPDEST PUSH2 0xDB6 PUSH8 0xAC16AED25EE1428C PUSH1 0xC0 SHL PUSH2 0x2BBA JUMP JUMPDEST PUSH2 0xDCA PUSH8 0x75F2A07EE0B42874 PUSH1 0xC0 SHL PUSH2 0x2BBA JUMP JUMPDEST DUP4 PUSH1 0x20 ADD MLOAD PUSH20 0xFFFFFFFFFFFFFFFFFFFFFFFFFFFFFFFFFFFFFFFF AND PUSH4 0xA9059CBB DUP9 DUP4 PUSH1 0x40 MLOAD DUP4 PUSH4 0xFFFFFFFF AND PUSH1 0xE0 SHL DUP2 MSTORE PUSH1 0x4 ADD PUSH2 0xE09 SWAP3 SWAP2 SWAP1 PUSH2 0x388C JUMP JUMPDEST PUSH1 0x20 PUSH1 0x40 MLOAD DUP1 DUP4 SUB DUP2 PUSH1 0x0 DUP8 GAS CALL ISZERO DUP1 ISZERO PUSH2 0xE28 JUMPI RETURNDATASIZE PUSH1 0x0 DUP1 RETURNDATACOPY RETURNDATASIZE PUSH1 0x0 REVERT JUMPDEST POP POP POP POP PUSH1 0x40 MLOAD RETURNDATASIZE PUSH1 0x1F NOT PUSH1 0x1F DUP3 ADD AND DUP3 ADD DUP1 PUSH1 0x40 MSTORE POP DUP2 ADD SWAP1 PUSH2 0xE4C SWAP2 SWAP1 PUSH2 0x37F3 JUMP JUMPDEST POP PUSH2 0xE61 PUSH8 0x51BC466DD1201726 PUSH1 0xC0 SHL PUSH2 0x2BBA JUMP JUMPDEST DUP11 DUP4 PUSH2 0xE6D SWAP2 SWAP1 PUSH2 0x34AE JUMP JUMPDEST PUSH1 0x5 DUP2 SWAP1 SSTORE POP PUSH2 0xE87 PUSH8 0x7DF208B2E6CB3246 PUSH1 0xC0 SHL PUSH2 0x2BBA JUMP JUMPDEST DUP1 DUP3 PUSH2 0xE93 SWAP2 SWAP1 PUSH2 0x38B5 JUMP JUMPDEST PUSH1 0x6 DUP2 SWAP1 SSTORE POP PUSH2 0x1122 JUMP JUMPDEST PUSH2 0xEB2 PUSH8 0x33EB778961420AE5 PUSH1 0xC0 SHL PUSH2 0x2BBA JUMP JUMPDEST PUSH2 0xEC6 PUSH8 0x2A235AFF65F1E590 PUSH1 0xC0 SHL PUSH2 0x2BBA JUMP JUMPDEST PUSH2 0xEDA PUSH8 0xF561CFDB2BCB030 PUSH1 0xC0 SHL PUSH2 0x2BBA JUMP JUMPDEST DUP4 PUSH1 0x20 ADD MLOAD PUSH20 0xFFFFFFFFFFFFFFFFFFFFFFFFFFFFFFFFFFFFFFFF AND PUSH4 0x23B872DD CALLER ADDRESS DUP15 PUSH1 0x40 MLOAD DUP5 PUSH4 0xFFFFFFFF AND PUSH1 0xE0 SHL DUP2 MSTORE PUSH1 0x4 ADD PUSH2 0xF1B SWAP4 SWAP3 SWAP2 SWAP1 PUSH2 0x3784 JUMP JUMPDEST PUSH1 0x20 PUSH1 0x40 MLOAD DUP1 DUP4 SUB DUP2 PUSH1 0x0 DUP8 GAS CALL ISZERO DUP1 ISZERO PUSH2 0xF3A JUMPI RETURNDATASIZE PUSH1 0x0 DUP1 RETURNDATACOPY RETURNDATASIZE PUSH1 0x0 REVERT JUMPDEST POP POP POP POP PUSH1 0x40 MLOAD RETURNDATASIZE PUSH1 0x1F NOT PUSH1 0x1F DUP3 ADD AND DUP3 ADD DUP1 PUSH1 0x40 MSTORE POP DUP2 ADD SWAP1 PUSH2 0xF5E SWAP2 SWAP1 PUSH2 0x37F3 JUMP JUMPDEST POP PUSH2 0xF73 PUSH8 0x247B345F9D2A9C49 PUSH1 0xC0 SHL PUSH2 0x2BBA JUMP JUMPDEST DUP11 DUP3 PUSH2 0xF7F SWAP2 SWAP1 PUSH2 0x34AE JUMP JUMPDEST DUP4 DUP13 PUSH2 0xF8B SWAP2 SWAP1 PUSH2 0x34E2 JUMP JUMPDEST PUSH2 0xF95 SWAP2 SWAP1 PUSH2 0x3553 JUMP JUMPDEST SWAP1 POP PUSH2 0xFAB PUSH8 0xC0CC46DC0117B2F0 PUSH1 0xC0 SHL PUSH2 0x2BBA JUMP JUMPDEST PUSH2 0xFBF PUSH8 0x982C91054D74E958 PUSH1 0xC0 SHL PUSH2 0x2BBA JUMP JUMPDEST PUSH2 0xFD3 PUSH8 0x5DD2E1E05E27B393 PUSH1 0xC0 SHL PUSH2 0x2BBA JUMP JUMPDEST DUP10 DUP2 LT ISZERO PUSH2 0x1016 JUMPI PUSH1 0x40 MLOAD PUSH32 0x8C379A000000000000000000000000000000000000000000000000000000000 DUP2 MSTORE PUSH1 0x4 ADD PUSH2 0x100D SWAP1 PUSH2 0x386C JUMP JUMPDEST PUSH1 0x40 MLOAD DUP1 SWAP2 SUB SWAP1 REVERT JUMPDEST PUSH2 0x102A PUSH8 0xFB51BEC7B9B841F6 PUSH1 0xC0 SHL PUSH2 0x2BBA JUMP JUMPDEST PUSH2 0x103E PUSH8 0xC33A66768B73E286 PUSH1 0xC0 SHL PUSH2 0x2BBA JUMP JUMPDEST PUSH2 0x1052 PUSH8 0x4262F52215D72387 PUSH1 0xC0 SHL PUSH2 0x2BBA JUMP JUMPDEST DUP4 PUSH1 0x0 ADD MLOAD PUSH20 0xFFFFFFFFFFFFFFFFFFFFFFFFFFFFFFFFFFFFFFFF AND PUSH4 0xA9059CBB DUP9 DUP4 PUSH1 0x40 MLOAD DUP4 PUSH4 0xFFFFFFFF AND PUSH1 0xE0 SHL DUP2 MSTORE PUSH1 0x4 ADD PUSH2 0x1091 SWAP3 SWAP2 SWAP1 PUSH2 0x388C JUMP JUMPDEST PUSH1 0x20 PUSH1 0x40 MLOAD DUP1 DUP4 SUB DUP2 PUSH1 0x0 DUP8 GAS CALL ISZERO DUP1 ISZERO PUSH2 0x10B0 JUMPI RETURNDATASIZE PUSH1 0x0 DUP1 RETURNDATACOPY RETURNDATASIZE PUSH1 0x0 REVERT JUMPDEST POP POP POP POP PUSH1 0x40 MLOAD RETURNDATASIZE PUSH1 0x1F NOT PUSH1 0x1F DUP3 ADD AND DUP3 ADD DUP1 PUSH1 0x40 MSTORE POP DUP2 ADD SWAP1 PUSH2 0x10D4 SWAP2 SWAP1 PUSH2 0x37F3 JUMP JUMPDEST POP PUSH2 0x10E9 PUSH8 0xF1D1F535CFF22F97 PUSH1 0xC0 SHL PUSH2 0x2BBA JUMP JUMPDEST DUP1 DUP4 PUSH2 0x10F5 SWAP2 SWAP1 PUSH2 0x38B5 JUMP JUMPDEST PUSH1 0x5 DUP2 SWAP1 SSTORE POP PUSH2 0x110F PUSH8 0x295620AE867E3BAA PUSH1 0xC0 SHL PUSH2 0x2BBA JUMP JUMPDEST DUP11 DUP3 PUSH2 0x111B SWAP2 SWAP1 PUSH2 0x34AE JUMP JUMPDEST PUSH1 0x6 DUP2 SWAP1 SSTORE POP JUMPDEST PUSH2 0x1136 PUSH8 0xC52AFA1CE6F59BEB PUSH1 0xC0 SHL PUSH2 0x2BBA JUMP JUMPDEST PUSH1 0x2 PUSH8 0xFFFFFFFFFFFFFFFF DUP2 GT ISZERO PUSH2 0x1151 JUMPI PUSH2 0x1150 PUSH2 0x38E9 JUMP JUMPDEST JUMPDEST PUSH1 0x40 MLOAD SWAP1 DUP1 DUP3 MSTORE DUP1 PUSH1 0x20 MUL PUSH1 0x20 ADD DUP3 ADD PUSH1 0x40 MSTORE DUP1 ISZERO PUSH2 0x117F JUMPI DUP2 PUSH1 0x20 ADD PUSH1 0x20 DUP3 MUL DUP1 CALLDATASIZE DUP4 CALLDATACOPY DUP1 DUP3 ADD SWAP2 POP POP SWAP1 POP JUMPDEST POP SWAP5 POP PUSH2 0x1196 PUSH8 0x9B5AE3D7847C314F PUSH1 0xC0 SHL PUSH2 0x2BBA JUMP JUMPDEST DUP11 DUP6 PUSH1 0x0 DUP2 MLOAD DUP2 LT PUSH2 0x11AB JUMPI PUSH2 0x11AA PUSH2 0x3650 JUMP JUMPDEST JUMPDEST PUSH1 0x20 MUL PUSH1 0x20 ADD ADD DUP2 DUP2 MSTORE POP POP PUSH2 0x11CB PUSH8 0x3E374BA16B6F705A PUSH1 0xC0 SHL PUSH2 0x2BBA JUMP JUMPDEST DUP1 DUP6 PUSH1 0x1 DUP2 MLOAD DUP2 LT PUSH2 0x11E0 JUMPI PUSH2 0x11DF PUSH2 0x3650 JUMP JUMPDEST JUMPDEST PUSH1 0x20 MUL PUSH1 0x20 ADD ADD DUP2 DUP2 MSTORE POP POP PUSH2 0x1200 PUSH8 0xEB2F7A1550DCA04C PUSH1 0xC0 SHL PUSH2 0x2BBA JUMP JUMPDEST PUSH2 0x1214 PUSH8 0xD33E8F33C13A99E3 PUSH1 0xC0 SHL PUSH2 0x2BBA JUMP JUMPDEST CALLER PUSH20 0xFFFFFFFFFFFFFFFFFFFFFFFFFFFFFFFFFFFFFFFF AND PUSH32 0x631FB37DBA9BBCB8B2F3BE2D669E365AE9F1BD850CC57DFE8B7CCD7D979A2BBA DUP11 DUP11 PUSH1 0x0 DUP2 DUP2 LT PUSH2 0x1260 JUMPI PUSH2 0x125F PUSH2 0x3650 JUMP JUMPDEST JUMPDEST SWAP1 POP PUSH1 0x20 MUL ADD PUSH1 0x20 DUP2 ADD SWAP1 PUSH2 0x1275 SWAP2 SWAP1 PUSH2 0x367F JUMP JUMPDEST DUP14 DUP13 DUP13 PUSH1 0x1 DUP2 DUP2 LT PUSH2 0x128A JUMPI PUSH2 0x1289 PUSH2 0x3650 JUMP JUMPDEST JUMPDEST SWAP1 POP PUSH1 0x20 MUL ADD PUSH1 0x20 DUP2 ADD SWAP1 PUSH2 0x129F SWAP2 SWAP1 PUSH2 0x367F JUMP JUMPDEST DUP6 PUSH1 0x40 MLOAD PUSH2 0x12B0 SWAP5 SWAP4 SWAP3 SWAP2 SWAP1 PUSH2 0x3918 JUMP JUMPDEST PUSH1 0x40 MLOAD DUP1 SWAP2 SUB SWAP1 LOG2 PUSH2 0x12CC PUSH8 0xEA01E298BF4EC32F PUSH1 0xC0 SHL PUSH2 0x2BBA JUMP JUMPDEST PUSH2 0x12E0 PUSH8 0x6D37225F6955D91C PUSH1 0xC0 SHL PUSH2 0x2BBA JUMP JUMPDEST POP POP POP POP SWAP7 SWAP6 POP POP POP POP POP POP JUMP JUMPDEST PUSH1 0x4 PUSH1 0x0 SWAP1 SLOAD SWAP1 PUSH2 0x100 EXP SWAP1 DIV PUSH20 0xFFFFFFFFFFFFFFFFFFFFFFFFFFFFFFFFFFFFFFFF AND DUP2 JUMP JUMPDEST PUSH1 0x0 DUP1 SLOAD SWAP1 PUSH2 0x100 EXP SWAP1 DIV PUSH20 0xFFFFFFFFFFFFFFFFFFFFFFFFFFFFFFFFFFFFFFFF AND DUP2 JUMP JUMPDEST PUSH1 0x60 PUSH2 0x134E PUSH8 0xA7FC02C9B8C02B52 PUSH1 0xC0 SHL PUSH2 0x2BBA JUMP JUMPDEST PUSH2 0x1362 PUSH8 0x783124E0C61D488E PUSH1 0xC0 SHL PUSH2 0x2BBA JUMP JUMPDEST PUSH2 0x1376 PUSH8 0xE0C7E0D0813FBE10 PUSH1 0xC0 SHL PUSH2 0x2BBA JUMP JUMPDEST PUSH1 0x2 DUP1 SLOAD PUSH2 0x1383 SWAP1 PUSH2 0x35B3 JUMP JUMPDEST DUP1 PUSH1 0x1F ADD PUSH1 0x20 DUP1 SWAP2 DIV MUL PUSH1 0x20 ADD PUSH1 0x40 MLOAD SWAP1 DUP2 ADD PUSH1 0x40 MSTORE DUP1 SWAP3 SWAP2 SWAP1 DUP2 DUP2 MSTORE PUSH1 0x20 ADD DUP3 DUP1 SLOAD PUSH2 0x13AF SWAP1 PUSH2 0x35B3 JUMP JUMPDEST DUP1 ISZERO PUSH2 0x13FC JUMPI DUP1 PUSH1 0x1F LT PUSH2 0x13D1 JUMPI PUSH2 0x100 DUP1 DUP4 SLOAD DIV MUL DUP4 MSTORE SWAP2 PUSH1 0x20 ADD SWAP2 PUSH2 0x13FC JUMP JUMPDEST DUP3 ADD SWAP2 SWAP1 PUSH1 0x0 MSTORE PUSH1 0x20 PUSH1 0x0 KECCAK256 SWAP1 JUMPDEST DUP2 SLOAD DUP2 MSTORE SWAP1 PUSH1 0x1 ADD SWAP1 PUSH1 0x20 ADD DUP1 DUP4 GT PUSH2 0x13DF JUMPI DUP3 SWAP1 SUB PUSH1 0x1F AND DUP3 ADD SWAP2 JUMPDEST POP POP POP POP POP SWAP1 POP SWAP1 JUMP JUMPDEST PUSH1 0x0 PUSH2 0x141C PUSH8 0x66B7EAF003E9C2EC PUSH1 0xC0 SHL PUSH2 0x2BBA JUMP JUMPDEST PUSH2 0x1430 PUSH8 0x2AFDC6DC0832A5D9 PUSH1 0xC0 SHL PUSH2 0x2BBA JUMP JUMPDEST PUSH2 0x1444 PUSH8 0x58019E569F57F1BA PUSH1 0xC0 SHL PUSH2 0x2BBA JUMP JUMPDEST PUSH1 0x0 PUSH1 0x40 MLOAD DUP1 PUSH1 0x40 ADD PUSH1 0x40 MSTORE DUP1 PUSH1 0x3 PUSH1 0x1 SWAP1 SLOAD SWAP1 PUSH2 0x100 EXP SWAP1 DIV PUSH20 0xFFFFFFFFFFFFFFFFFFFFFFFFFFFFFFFFFFFFFFFF AND PUSH20 0xFFFFFFFFFFFFFFFFFFFFFFFFFFFFFFFFFFFFFFFF AND DUP2 MSTORE PUSH1 0x20 ADD PUSH1 0x4 PUSH1 0x0 SWAP1 SLOAD SWAP1 PUSH2 0x100 EXP SWAP1 DIV PUSH20 0xFFFFFFFFFFFFFFFFFFFFFFFFFFFFFFFFFFFFFFFF AND PUSH20 0xFFFFFFFFFFFFFFFFFFFFFFFFFFFFFFFFFFFFFFFF AND DUP2 MSTORE POP SWAP1 POP PUSH2 0x14E1 PUSH8 0xF549EEC4CB24472F PUSH1 0xC0 SHL PUSH2 0x2BBA JUMP JUMPDEST PUSH2 0x14F5 PUSH8 0x7298BF02FF6222FE PUSH1 0xC0 SHL PUSH2 0x2BBA JUMP JUMPDEST PUSH2 0x1509 PUSH8 0xAFCE08A1DC76A48B PUSH1 0xC0 SHL PUSH2 0x2BBA JUMP JUMPDEST DUP1 PUSH1 0x0 ADD MLOAD PUSH20 0xFFFFFFFFFFFFFFFFFFFFFFFFFFFFFFFFFFFFFFFF AND DUP5 PUSH20 0xFFFFFFFFFFFFFFFFFFFFFFFFFFFFFFFFFFFFFFFF AND EQ DUP1 ISZERO PUSH2 0x1577 JUMPI POP DUP1 PUSH1 0x20 ADD MLOAD PUSH20 0xFFFFFFFFFFFFFFFFFFFFFFFFFFFFFFFFFFFFFFFF AND DUP4 PUSH20 0xFFFFFFFFFFFFFFFFFFFFFFFFFFFFFFFFFFFFFFFF AND EQ JUMPDEST DUP1 ISZERO PUSH2 0x1593 JUMPI POP PUSH2 0x1592 PUSH8 0x8A14316C56B4B117 PUSH1 0xC0 SHL PUSH2 0x2BBD JUMP JUMPDEST JUMPDEST DUP1 PUSH2 0x1624 JUMPI POP DUP1 PUSH1 0x20 ADD MLOAD PUSH20 0xFFFFFFFFFFFFFFFFFFFFFFFFFFFFFFFFFFFFFFFF AND DUP5 PUSH20 0xFFFFFFFFFFFFFFFFFFFFFFFFFFFFFFFFFFFFFFFF AND EQ DUP1 ISZERO PUSH2 0x1607 JUMPI POP DUP1 PUSH1 0x0 ADD MLOAD PUSH20 0xFFFFFFFFFFFFFFFFFFFFFFFFFFFFFFFFFFFFFFFF AND DUP4 PUSH20 0xFFFFFFFFFFFFFFFFFFFFFFFFFFFFFFFFFFFFFFFF AND EQ JUMPDEST DUP1 ISZERO PUSH2 0x1623 JUMPI POP PUSH2 0x1622 PUSH8 0x133AF24BF511773A PUSH1 0xC0 SHL PUSH2 0x2BBD JUMP JUMPDEST JUMPDEST JUMPDEST PUSH2 0x1663 JUMPI PUSH1 0x40 MLOAD PUSH32 0x8C379A000000000000000000000000000000000000000000000000000000000 DUP2 MSTORE PUSH1 0x4 ADD PUSH2 0x165A SWAP1 PUSH2 0x39A9 JUMP JUMPDEST PUSH1 0x40 MLOAD DUP1 SWAP2 SUB SWAP1 REVERT JUMPDEST PUSH2 0x1677 PUSH8 0xE61C7A1F89965C21 PUSH1 0xC0 SHL PUSH2 0x2BBA JUMP JUMPDEST PUSH2 0x168B PUSH8 0xD0D4E7D723EC8B7A PUSH1 0xC0 SHL PUSH2 0x2BBA JUMP JUMPDEST PUSH2 0x169F PUSH8 0x9B589CBA02C60FB8 PUSH1 0xC0 SHL PUSH2 0x2BBA JUMP JUMPDEST PUSH1 0x0 PUSH1 0x5 SLOAD SWAP1 POP PUSH2 0x16BA PUSH8 0xBC1F0106F9A78A89 PUSH1 0xC0 SHL PUSH2 0x2BBA JUMP JUMPDEST PUSH2 0x16CE PUSH8 0xE21B6268538F44EC PUSH1 0xC0 SHL PUSH2 0x2BBA JUMP JUMPDEST PUSH1 0x0 PUSH1 0x6 SLOAD SWAP1 POP PUSH2 0x16E9 PUSH8 0xFA5E9948F54E055 PUSH1 0xC0 SHL PUSH2 0x2BBA JUMP JUMPDEST PUSH2 0x16FD PUSH8 0xDF2DB2D3C734E317 PUSH1 0xC0 SHL PUSH2 0x2BBA JUMP JUMPDEST PUSH2 0x1711 PUSH8 0xCF625502025C78E PUSH1 0xC0 SHL PUSH2 0x2BBA JUMP JUMPDEST PUSH1 0x0 DUP3 GT PUSH2 0x1754 JUMPI PUSH1 0x40 MLOAD PUSH32 0x8C379A000000000000000000000000000000000000000000000000000000000 DUP2 MSTORE PUSH1 0x4 ADD PUSH2 0x174B SWAP1 PUSH2 0x3A15 JUMP JUMPDEST PUSH1 0x40 MLOAD DUP1 SWAP2 SUB SWAP1 REVERT JUMPDEST PUSH2 0x1768 PUSH8 0x9014A30F16E5F7AC PUSH1 0xC0 SHL PUSH2 0x2BBA JUMP JUMPDEST PUSH2 0x177C PUSH8 0xF05CCCCB4D4F5DA8 PUSH1 0xC0 SHL PUSH2 0x2BBA JUMP JUMPDEST DUP2 PUSH8 0xDE0B6B3A7640000 DUP3 PUSH2 0x1791 SWAP2 SWAP1 PUSH2 0x34E2 JUMP JUMPDEST PUSH2 0x179B SWAP2 SWAP1 PUSH2 0x3553 JUMP JUMPDEST SWAP4 POP PUSH2 0x17B1 PUSH8 0xBB52215DF58AF574 PUSH1 0xC0 SHL PUSH2 0x2BBA JUMP JUMPDEST PUSH2 0x17C5 PUSH8 0x795B1287D86CF524 PUSH1 0xC0 SHL PUSH2 0x2BBA JUMP JUMPDEST POP POP POP SWAP3 SWAP2 POP POP JUMP JUMPDEST PUSH1 0x0 DUP1 PUSH2 0x17E5 PUSH8 0xF12E5C1115338A9E PUSH1 0xC0 SHL PUSH2 0x2BBA JUMP JUMPDEST PUSH2 0x17F9 PUSH8 0x66E9B651C91DB0F5 PUSH1 0xC0 SHL PUSH2 0x2BBA JUMP JUMPDEST PUSH2 0x180D PUSH8 0xC39FD16A9214FED1 PUSH1 0xC0 SHL PUSH2 0x2BBA JUMP JUMPDEST PUSH2 0x1821 PUSH8 0xD163A8741BCEE632 PUSH1 0xC0 SHL PUSH2 0x2BBA JUMP JUMPDEST TIMESTAMP DUP4 GT PUSH2 0x1863 JUMPI PUSH1 0x40 MLOAD PUSH32 0x8C379A000000000000000000000000000000000000000000000000000000000 DUP2 MSTORE PUSH1 0x4 ADD PUSH2 0x185A SWAP1 PUSH2 0x3630 JUMP JUMPDEST PUSH1 0x40 MLOAD DUP1 SWAP2 SUB SWAP1 REVERT JUMPDEST PUSH2 0x1877 PUSH8 0x4DBEEDC3C678C2F0 PUSH1 0xC0 SHL PUSH2 0x2BBA JUMP JUMPDEST PUSH2 0x188B PUSH8 0x1A1D8EF797ECBAE5 PUSH1 0xC0 SHL PUSH2 0x2BBA JUMP JUMPDEST PUSH2 0x189F PUSH8 0x3333E06883AB31EF PUSH1 0xC0 SHL PUSH2 0x2BBA JUMP JUMPDEST PUSH1 0x0 PUSH1 0x5 SLOAD SWAP1 POP PUSH2 0x18BA PUSH8 0xCA7429E72C701462 PUSH1 0xC0 SHL PUSH2 0x2BBA JUMP JUMPDEST PUSH2 0x18CE PUSH8 0x5C41997CD4734D91 PUSH1 0xC0 SHL PUSH2 0x2BBA JUMP JUMPDEST PUSH1 0x0 PUSH1 0x6 SLOAD SWAP1 POP PUSH2 0x18E9 PUSH8 0x5CD899CD5AE0EDA3 PUSH1 0xC0 SHL PUSH2 0x2BBA JUMP JUMPDEST PUSH2 0x18FD PUSH8 0xB5F2F36DD9A2A203 PUSH1 0xC0 SHL PUSH2 0x2BBA JUMP JUMPDEST PUSH1 0x0 PUSH1 0x7 SLOAD SWAP1 POP PUSH2 0x1918 PUSH8 0x10691983C9B7E692 PUSH1 0xC0 SHL PUSH2 0x2BBA JUMP JUMPDEST PUSH2 0x192C PUSH8 0xB0AF98A3A8E7192B PUSH1 0xC0 SHL PUSH2 0x2BBA JUMP JUMPDEST PUSH1 0x0 PUSH1 0x8 PUSH1 0x0 CALLER PUSH20 0xFFFFFFFFFFFFFFFFFFFFFFFFFFFFFFFFFFFFFFFF AND PUSH20 0xFFFFFFFFFFFFFFFFFFFFFFFFFFFFFFFFFFFFFFFF AND DUP2 MSTORE PUSH1 0x20 ADD SWAP1 DUP2 MSTORE PUSH1 0x20 ADD PUSH1 0x0 KECCAK256 SLOAD SWAP1 POP PUSH2 0x1984 PUSH8 0xEA24F9B24BA4A45E PUSH1 0xC0 SHL PUSH2 0x2BBA JUMP JUMPDEST PUSH2 0x1998 PUSH8 0xD33688DF8F105A2A PUSH1 0xC0 SHL PUSH2 0x2BBA JUMP JUMPDEST PUSH1 0x0 PUSH1 0x40 MLOAD DUP1 PUSH1 0x40 ADD PUSH1 0x40 MSTORE DUP1 PUSH1 0x3 PUSH1 0x1 SWAP1 SLOAD SWAP1 PUSH2 0x100 EXP SWAP1 DIV PUSH20 0xFFFFFFFFFFFFFFFFFFFFFFFFFFFFFFFFFFFFFFFF AND PUSH20 0xFFFFFFFFFFFFFFFFFFFFFFFFFFFFFFFFFFFFFFFF AND DUP2 MSTORE PUSH1 0x20 ADD PUSH1 0x4 PUSH1 0x0 SWAP1 SLOAD SWAP1 PUSH2 0x100 EXP SWAP1 DIV PUSH20 0xFFFFFFFFFFFFFFFFFFFFFFFFFFFFFFFFFFFFFFFF AND PUSH20 0xFFFFFFFFFFFFFFFFFFFFFFFFFFFFFFFFFFFFFFFF AND DUP2 MSTORE POP SWAP1 POP PUSH2 0x1A35 PUSH8 0x6C4F3D555A10CC11 PUSH1 0xC0 SHL PUSH2 0x2BBA JUMP JUMPDEST PUSH2 0x1A49 PUSH8 0x7F6CA7D9A11052C0 PUSH1 0xC0 SHL PUSH2 0x2BBA JUMP JUMPDEST PUSH2 0x1A5D PUSH8 0x7348FCFB9E689108 PUSH1 0xC0 SHL PUSH2 0x2BBA JUMP JUMPDEST DUP1 PUSH1 0x0 ADD MLOAD PUSH20 0xFFFFFFFFFFFFFFFFFFFFFFFFFFFFFFFFFFFFFFFF AND DUP15 PUSH20 0xFFFFFFFFFFFFFFFFFFFFFFFFFFFFFFFFFFFFFFFF AND EQ DUP1 ISZERO PUSH2 0x1ACB JUMPI POP DUP1 PUSH1 0x20 ADD MLOAD PUSH20 0xFFFFFFFFFFFFFFFFFFFFFFFFFFFFFFFFFFFFFFFF AND DUP14 PUSH20 0xFFFFFFFFFFFFFFFFFFFFFFFFFFFFFFFFFFFFFFFF AND EQ JUMPDEST PUSH2 0x1B0A JUMPI PUSH1 0x40 MLOAD PUSH32 0x8C379A000000000000000000000000000000000000000000000000000000000 DUP2 MSTORE PUSH1 0x4 ADD PUSH2 0x1B01 SWAP1 PUSH2 0x3A81 JUMP JUMPDEST PUSH1 0x40 MLOAD DUP1 SWAP2 SUB SWAP1 REVERT JUMPDEST PUSH2 0x1B1E PUSH8 0xB7CE76458E49C5FA PUSH1 0xC0 SHL PUSH2 0x2BBA JUMP JUMPDEST PUSH2 0x1B32 PUSH8 0x2F9187A6188D73C PUSH1 0xC0 SHL PUSH2 0x2BBA JUMP JUMPDEST DUP3 DUP6 DUP14 PUSH2 0x1B3F SWAP2 SWAP1 PUSH2 0x34E2 JUMP JUMPDEST PUSH2 0x1B49 SWAP2 SWAP1 PUSH2 0x3553 JUMP JUMPDEST SWAP7 POP PUSH2 0x1B5F PUSH8 0xBC6B5AED9F6E3A0A PUSH1 0xC0 SHL PUSH2 0x2BBA JUMP JUMPDEST DUP3 DUP5 DUP14 PUSH2 0x1B6C SWAP2 SWAP1 PUSH2 0x34E2 JUMP JUMPDEST PUSH2 0x1B76 SWAP2 SWAP1 PUSH2 0x3553 JUMP JUMPDEST SWAP6 POP PUSH2 0x1B8C PUSH8 0xC36BDBCF5B5E453B PUSH1 0xC0 SHL PUSH2 0x2BBA JUMP JUMPDEST PUSH2 0x1BA0 PUSH8 0x3FBF57CB78685605 PUSH1 0xC0 SHL PUSH2 0x2BBA JUMP JUMPDEST PUSH2 0x1BB4 PUSH8 0x590191A93CD85AEC PUSH1 0xC0 SHL PUSH2 0x2BBA JUMP JUMPDEST DUP11 DUP8 LT ISZERO PUSH2 0x1BF7 JUMPI PUSH1 0x40 MLOAD PUSH32 0x8C379A000000000000000000000000000000000000000000000000000000000 DUP2 MSTORE PUSH1 0x4 ADD PUSH2 0x1BEE SWAP1 PUSH2 0x3AED JUMP JUMPDEST PUSH1 0x40 MLOAD DUP1 SWAP2 SUB SWAP1 REVERT JUMPDEST PUSH2 0x1C0B PUSH8 0x9BBE50C252CE6C98 PUSH1 0xC0 SHL PUSH2 0x2BBA JUMP JUMPDEST PUSH2 0x1C1F PUSH8 0x45E957EFD64089C7 PUSH1 0xC0 SHL PUSH2 0x2BBA JUMP JUMPDEST PUSH2 0x1C33 PUSH8 0x778C21BC5BC4749D PUSH1 0xC0 SHL PUSH2 0x2BBA JUMP JUMPDEST PUSH2 0x1C47 PUSH8 0x1E4C46B2F9874BD5 PUSH1 0xC0 SHL PUSH2 0x2BBA JUMP JUMPDEST DUP10 DUP7 LT ISZERO PUSH2 0x1C8A JUMPI PUSH1 0x40 MLOAD PUSH32 0x8C379A000000000000000000000000000000000000000000000000000000000 DUP2 MSTORE PUSH1 0x4 ADD PUSH2 0x1C81 SWAP1 PUSH2 0x3B59 JUMP JUMPDEST PUSH1 0x40 MLOAD DUP1 SWAP2 SUB SWAP1 REVERT JUMPDEST PUSH2 0x1C9E PUSH8 0x5D50D96A1B6CD4E5 PUSH1 0xC0 SHL PUSH2 0x2BBA JUMP JUMPDEST PUSH2 0x1CB2 PUSH8 0x68392988124C1A1C PUSH1 0xC0 SHL PUSH2 0x2BBA JUMP JUMPDEST PUSH2 0x1CC6 PUSH8 0xC5ED206C72D1923D PUSH1 0xC0 SHL PUSH2 0x2BBA JUMP JUMPDEST PUSH2 0x1CDA PUSH8 0x774BD6A07F92BF4A PUSH1 0xC0 SHL PUSH2 0x2BBA JUMP JUMPDEST DUP12 DUP3 LT ISZERO PUSH2 0x1D1D JUMPI PUSH1 0x40 MLOAD PUSH32 0x8C379A000000000000000000000000000000000000000000000000000000000 DUP2 MSTORE PUSH1 0x4 ADD PUSH2 0x1D14 SWAP1 PUSH2 0x3BC5 JUMP JUMPDEST PUSH1 0x40 MLOAD DUP1 SWAP2 SUB SWAP1 REVERT JUMPDEST PUSH2 0x1D31 PUSH8 0xD8B44A31F769B1B7 PUSH1 0xC0 SHL PUSH2 0x2BBA JUMP JUMPDEST PUSH2 0x1D45 PUSH8 0x983D4D7DFCDFDFAB PUSH1 0xC0 SHL PUSH2 0x2BBA JUMP JUMPDEST PUSH2 0x1D59 PUSH8 0x927DF9618B00CDE0 PUSH1 0xC0 SHL PUSH2 0x2BBA JUMP JUMPDEST PUSH2 0x1D6D PUSH8 0x7272B7EDF79208A5 PUSH1 0xC0 SHL PUSH2 0x2BBA JUMP JUMPDEST DUP7 DUP6 LT ISZERO DUP1 ISZERO PUSH2 0x1D7D JUMPI POP DUP6 DUP5 LT ISZERO JUMPDEST PUSH2 0x1DBC JUMPI PUSH1 0x40 MLOAD PUSH32 0x8C379A000000000000000000000000000000000000000000000000000000000 DUP2 MSTORE PUSH1 0x4 ADD PUSH2 0x1DB3 SWAP1 PUSH2 0x3C31 JUMP JUMPDEST PUSH1 0x40 MLOAD DUP1 SWAP2 SUB SWAP1 REVERT JUMPDEST PUSH2 0x1DD0 PUSH8 0x52663B4ADD082B65 PUSH1 0xC0 SHL PUSH2 0x2BBA JUMP JUMPDEST PUSH2 0x1DE4 PUSH8 0x3BAF8B3ED132AFA4 PUSH1 0xC0 SHL PUSH2 0x2BBA JUMP JUMPDEST DUP12 DUP3 PUSH2 0x1DF0 SWAP2 SWAP1 PUSH2 0x38B5 JUMP JUMPDEST PUSH1 0x8 PUSH1 0x0 CALLER PUSH20 0xFFFFFFFFFFFFFFFFFFFFFFFFFFFFFFFFFFFFFFFF AND PUSH20 0xFFFFFFFFFFFFFFFFFFFFFFFFFFFFFFFFFFFFFFFF AND DUP2 MSTORE PUSH1 0x20 ADD SWAP1 DUP2 MSTORE PUSH1 0x20 ADD PUSH1 0x0 KECCAK256 DUP2 SWAP1 SSTORE POP PUSH2 0x1E47 PUSH8 0x73CD13C046878809 PUSH1 0xC0 SHL PUSH2 0x2BBA JUMP JUMPDEST DUP12 DUP4 PUSH2 0x1E53 SWAP2 SWAP1 PUSH2 0x38B5 JUMP JUMPDEST PUSH1 0x7 DUP2 SWAP1 SSTORE POP PUSH2 0x1E6D PUSH8 0x2A11B3A5B0F9CDA0 PUSH1 0xC0 SHL PUSH2 0x2BBA JUMP JUMPDEST PUSH2 0x1E81 PUSH8 0x859F0A48F4FE6508 PUSH1 0xC0 SHL PUSH2 0x2BBA JUMP JUMPDEST DUP1 PUSH1 0x0 ADD MLOAD PUSH20 0xFFFFFFFFFFFFFFFFFFFFFFFFFFFFFFFFFFFFFFFF AND PUSH4 0xA9059CBB DUP11 DUP10 PUSH1 0x40 MLOAD DUP4 PUSH4 0xFFFFFFFF AND PUSH1 0xE0 SHL DUP2 MSTORE PUSH1 0x4 ADD PUSH2 0x1EC0 SWAP3 SWAP2 SWAP1 PUSH2 0x388C JUMP JUMPDEST PUSH1 0x20 PUSH1 0x40 MLOAD DUP1 DUP4 SUB DUP2 PUSH1 0x0 DUP8 GAS CALL ISZERO DUP1 ISZERO PUSH2 0x1EDF JUMPI RETURNDATASIZE PUSH1 0x0 DUP1 RETURNDATACOPY RETURNDATASIZE PUSH1 0x0 REVERT JUMPDEST POP POP POP POP PUSH1 0x40 MLOAD RETURNDATASIZE PUSH1 0x1F NOT PUSH1 0x1F DUP3 ADD AND DUP3 ADD DUP1 PUSH1 0x40 MSTORE POP DUP2 ADD SWAP1 PUSH2 0x1F03 SWAP2 SWAP1 PUSH2 0x37F3 JUMP JUMPDEST POP PUSH2 0x1F18 PUSH8 0xB21BB9620D71DA52 PUSH1 0xC0 SHL PUSH2 0x2BBA JUMP JUMPDEST PUSH2 0x1F2C PUSH8 0x122622B53BE22F2D PUSH1 0xC0 SHL PUSH2 0x2BBA JUMP JUMPDEST DUP1 PUSH1 0x20 ADD MLOAD PUSH20 0xFFFFFFFFFFFFFFFFFFFFFFFFFFFFFFFFFFFFFFFF AND PUSH4 0xA9059CBB DUP11 DUP9 PUSH1 0x40 MLOAD DUP4 PUSH4 0xFFFFFFFF AND PUSH1 0xE0 SHL DUP2 MSTORE PUSH1 0x4 ADD PUSH2 0x1F6B SWAP3 SWAP2 SWAP1 PUSH2 0x388C JUMP JUMPDEST PUSH1 0x20 PUSH1 0x40 MLOAD DUP1 DUP4 SUB DUP2 PUSH1 0x0 DUP8 GAS CALL ISZERO DUP1 ISZERO PUSH2 0x1F8A JUMPI RETURNDATASIZE PUSH1 0x0 DUP1 RETURNDATACOPY RETURNDATASIZE PUSH1 0x0 REVERT JUMPDEST POP POP POP POP PUSH1 0x40 MLOAD RETURNDATASIZE PUSH1 0x1F NOT PUSH1 0x1F DUP3 ADD AND DUP3 ADD DUP1 PUSH1 0x40 MSTORE POP DUP2 ADD SWAP1 PUSH2 0x1FAE SWAP2 SWAP1 PUSH2 0x37F3 JUMP JUMPDEST POP PUSH2 0x1FC3 PUSH8 0x81637D8895BA28A3 PUSH1 0xC0 SHL PUSH2 0x2BBA JUMP JUMPDEST DUP7 DUP6 PUSH2 0x1FCF SWAP2 SWAP1 PUSH2 0x38B5 JUMP JUMPDEST PUSH1 0x5 DUP2 SWAP1 SSTORE POP PUSH2 0x1FE9 PUSH8 0x70C7794E1FB7AAB2 PUSH1 0xC0 SHL PUSH2 0x2BBA JUMP JUMPDEST DUP6 DUP5 PUSH2 0x1FF5 SWAP2 SWAP1 PUSH2 0x38B5 JUMP JUMPDEST PUSH1 0x6 DUP2 SWAP1 SSTORE POP PUSH2 0x200F PUSH8 0xF9FDB07818323219 PUSH1 0xC0 SHL PUSH2 0x2BBA JUMP JUMPDEST PUSH2 0x2023 PUSH8 0xA2769EF6FD903AC4 PUSH1 0xC0 SHL PUSH2 0x2BBA JUMP JUMPDEST CALLER PUSH20 0xFFFFFFFFFFFFFFFFFFFFFFFFFFFFFFFFFFFFFFFF AND PUSH32 0x1DC8BB69DF2B8E91FBDCBFCF93D951B3F0000F085A95FE3F7946D6161439245D DUP9 DUP9 DUP16 PUSH1 0x40 MLOAD PUSH2 0x206D SWAP4 SWAP3 SWAP2 SWAP1 PUSH2 0x3370 JUMP JUMPDEST PUSH1 0x40 MLOAD DUP1 SWAP2 SUB SWAP1 LOG2 PUSH2 0x2089 PUSH8 0xB4DC9356961AA792 PUSH1 0xC0 SHL PUSH2 0x2BBA JUMP JUMPDEST PUSH2 0x209D PUSH8 0xBE41A98F7DE10E84 PUSH1 0xC0 SHL PUSH2 0x2BBA JUMP JUMPDEST POP POP POP POP POP SWAP8 POP SWAP8 SWAP6 POP POP POP POP POP POP JUMP JUMPDEST PUSH1 0x5 SLOAD DUP2 JUMP JUMPDEST PUSH1 0x0 DUP1 PUSH1 0x0 PUSH2 0x20CD PUSH8 0xE9DDFA9F7C44E81D PUSH1 0xC0 SHL PUSH2 0x2BBA JUMP JUMPDEST PUSH2 0x20E1 PUSH8 0x8ABE8D729780B58C PUSH1 0xC0 SHL PUSH2 0x2BBA JUMP JUMPDEST PUSH2 0x20F5 PUSH8 0xC4297A67D23A0D6E PUSH1 0xC0 SHL PUSH2 0x2BBA JUMP JUMPDEST PUSH1 0x0 PUSH1 0x40 MLOAD DUP1 PUSH1 0x40 ADD PUSH1 0x40 MSTORE DUP1 PUSH1 0x3 PUSH1 0x1 SWAP1 SLOAD SWAP1 PUSH2 0x100 EXP SWAP1 DIV PUSH20 0xFFFFFFFFFFFFFFFFFFFFFFFFFFFFFFFFFFFFFFFF AND PUSH20 0xFFFFFFFFFFFFFFFFFFFFFFFFFFFFFFFFFFFFFFFF AND DUP2 MSTORE PUSH1 0x20 ADD PUSH1 0x4 PUSH1 0x0 SWAP1 SLOAD SWAP1 PUSH2 0x100 EXP SWAP1 DIV PUSH20 0xFFFFFFFFFFFFFFFFFFFFFFFFFFFFFFFFFFFFFFFF AND PUSH20 0xFFFFFFFFFFFFFFFFFFFFFFFFFFFFFFFFFFFFFFFF AND DUP2 MSTORE POP SWAP1 POP PUSH2 0x2192 PUSH8 0x50F30C0DA8329A0A PUSH1 0xC0 SHL PUSH2 0x2BBA JUMP JUMPDEST PUSH2 0x21A6 PUSH8 0x6979D86489AD5D89 PUSH1 0xC0 SHL PUSH2 0x2BBA JUMP JUMPDEST PUSH2 0x21BA PUSH8 0x9D768EF50F96D4A1 PUSH1 0xC0 SHL PUSH2 0x2BBA JUMP JUMPDEST TIMESTAMP DUP6 GT PUSH2 0x21FC JUMPI PUSH1 0x40 MLOAD PUSH32 0x8C379A000000000000000000000000000000000000000000000000000000000 DUP2 MSTORE PUSH1 0x4 ADD PUSH2 0x21F3 SWAP1 PUSH2 0x3630 JUMP JUMPDEST PUSH1 0x40 MLOAD DUP1 SWAP2 SUB SWAP1 REVERT JUMPDEST PUSH2 0x2210 PUSH8 0x4DBD696E71AD95CD PUSH1 0xC0 SHL PUSH2 0x2BBA JUMP JUMPDEST PUSH2 0x2224 PUSH8 0x4E343CA412F45C6D PUSH1 0xC0 SHL PUSH2 0x2BBA JUMP JUMPDEST PUSH2 0x2238 PUSH8 0x2056249F187F9636 PUSH1 0xC0 SHL PUSH2 0x2BBA JUMP JUMPDEST PUSH2 0x224C PUSH8 0x1342473A281AA0D PUSH1 0xC0 SHL PUSH2 0x2BBA JUMP JUMPDEST DUP1 PUSH1 0x0 ADD MLOAD PUSH20 0xFFFFFFFFFFFFFFFFFFFFFFFFFFFFFFFFFFFFFFFF AND DUP13 PUSH20 0xFFFFFFFFFFFFFFFFFFFFFFFFFFFFFFFFFFFFFFFF AND EQ DUP1 ISZERO PUSH2 0x22BA JUMPI POP DUP1 PUSH1 0x20 ADD MLOAD PUSH20 0xFFFFFFFFFFFFFFFFFFFFFFFFFFFFFFFFFFFFFFFF AND DUP12 PUSH20 0xFFFFFFFFFFFFFFFFFFFFFFFFFFFFFFFFFFFFFFFF AND EQ JUMPDEST PUSH2 0x22F9 JUMPI PUSH1 0x40 MLOAD PUSH32 0x8C379A000000000000000000000000000000000000000000000000000000000 DUP2 MSTORE PUSH1 0x4 ADD PUSH2 0x22F0 SWAP1 PUSH2 0x3A81 JUMP JUMPDEST PUSH1 0x40 MLOAD DUP1 SWAP2 SUB SWAP1 REVERT JUMPDEST PUSH2 0x230D PUSH8 0xF8D7C3947479BA12 PUSH1 0xC0 SHL PUSH2 0x2BBA JUMP JUMPDEST PUSH2 0x2321 PUSH8 0xBF01D5650022C49A PUSH1 0xC0 SHL PUSH2 0x2BBA JUMP JUMPDEST PUSH2 0x2335 PUSH8 0xFCF462897F305F93 PUSH1 0xC0 SHL PUSH2 0x2BBA JUMP JUMPDEST PUSH1 0x0 PUSH1 0x5 SLOAD SWAP1 POP PUSH2 0x2350 PUSH8 0x5BB95A408CE7C547 PUSH1 0xC0 SHL PUSH2 0x2BBA JUMP JUMPDEST PUSH2 0x2364 PUSH8 0xC980F00B79D61E15 PUSH1 0xC0 SHL PUSH2 0x2BBA JUMP JUMPDEST PUSH1 0x0 PUSH1 0x6 SLOAD SWAP1 POP PUSH2 0x237F PUSH8 0xB81BB7DFF99C1672 PUSH1 0xC0 SHL PUSH2 0x2BBA JUMP JUMPDEST PUSH2 0x2393 PUSH8 0xE2FF51304DAE9395 PUSH1 0xC0 SHL PUSH2 0x2BBA JUMP JUMPDEST PUSH1 0x0 PUSH1 0x7 SLOAD SWAP1 POP PUSH2 0x23AE PUSH8 0x7DFAE0E94FE95D85 PUSH1 0xC0 SHL PUSH2 0x2BBA JUMP JUMPDEST PUSH2 0x23C2 PUSH8 0x58DCAB2A03794F68 PUSH1 0xC0 SHL PUSH2 0x2BBA JUMP JUMPDEST PUSH1 0x0 DUP4 EQ DUP1 ISZERO PUSH2 0x23D2 JUMPI POP PUSH1 0x0 DUP3 EQ JUMPDEST ISZERO PUSH2 0x241E JUMPI PUSH2 0x23EB PUSH8 0x2B75BBF1072E62A9 PUSH1 0xC0 SHL PUSH2 0x2BBA JUMP JUMPDEST PUSH2 0x23FF PUSH8 0x981F13B2C879AFDD PUSH1 0xC0 SHL PUSH2 0x2BBA JUMP JUMPDEST DUP13 SWAP7 POP PUSH2 0x2416 PUSH8 0xCB1647703F8DEE27 PUSH1 0xC0 SHL PUSH2 0x2BBA JUMP JUMPDEST DUP12 SWAP6 POP PUSH2 0x2754 JUMP JUMPDEST PUSH2 0x2432 PUSH8 0x55E6C3B224D7E826 PUSH1 0xC0 SHL PUSH2 0x2BBA JUMP JUMPDEST PUSH2 0x2446 PUSH8 0x5460B615899388BF PUSH1 0xC0 SHL PUSH2 0x2BBA JUMP JUMPDEST PUSH2 0x245A PUSH8 0x8AEABC7E0EB11226 PUSH1 0xC0 SHL PUSH2 0x2BBA JUMP JUMPDEST PUSH2 0x246E PUSH8 0x2F73894FCBA25966 PUSH1 0xC0 SHL PUSH2 0x2BBA JUMP JUMPDEST PUSH1 0x0 DUP4 DUP4 DUP16 PUSH2 0x247D SWAP2 SWAP1 PUSH2 0x34E2 JUMP JUMPDEST PUSH2 0x2487 SWAP2 SWAP1 PUSH2 0x3553 JUMP JUMPDEST SWAP1 POP PUSH2 0x249D PUSH8 0x72462FD851BD0967 PUSH1 0xC0 SHL PUSH2 0x2BBA JUMP JUMPDEST PUSH2 0x24B1 PUSH8 0x9478B109416FEF66 PUSH1 0xC0 SHL PUSH2 0x2BBA JUMP JUMPDEST DUP13 DUP2 GT PUSH2 0x2592 JUMPI PUSH2 0x24CC PUSH8 0x7EE054120AF72FE3 PUSH1 0xC0 SHL PUSH2 0x2BBA JUMP JUMPDEST PUSH2 0x24E0 PUSH8 0x7905D886B1D68E2F PUSH1 0xC0 SHL PUSH2 0x2BBA JUMP JUMPDEST PUSH2 0x24F4 PUSH8 0x8A38EB051D1CAB1B PUSH1 0xC0 SHL PUSH2 0x2BBA JUMP JUMPDEST PUSH2 0x2508 PUSH8 0x62ADAF830D93CFC5 PUSH1 0xC0 SHL PUSH2 0x2BBA JUMP JUMPDEST DUP11 DUP2 LT ISZERO PUSH2 0x254B JUMPI PUSH1 0x40 MLOAD PUSH32 0x8C379A000000000000000000000000000000000000000000000000000000000 DUP2 MSTORE PUSH1 0x4 ADD PUSH2 0x2542 SWAP1 PUSH2 0x3C9D JUMP JUMPDEST PUSH1 0x40 MLOAD DUP1 SWAP2 SUB SWAP1 REVERT JUMPDEST PUSH2 0x255F PUSH8 0xC91FFB41170E518A PUSH1 0xC0 SHL PUSH2 0x2BBA JUMP JUMPDEST PUSH2 0x2573 PUSH8 0x6BAF7420B58FDF43 PUSH1 0xC0 SHL PUSH2 0x2BBA JUMP JUMPDEST DUP14 SWAP8 POP PUSH2 0x258A PUSH8 0xAEFDB0D7F1F5EE23 PUSH1 0xC0 SHL PUSH2 0x2BBA JUMP JUMPDEST DUP1 SWAP7 POP PUSH2 0x2752 JUMP JUMPDEST PUSH2 0x25A6 PUSH8 0xB2AF4A7AF0CEFCA8 PUSH1 0xC0 SHL PUSH2 0x2BBA JUMP JUMPDEST PUSH2 0x25B9 PUSH7 0x6742A3C13E37FD PUSH1 0xC0 SHL PUSH2 0x2BBA JUMP JUMPDEST PUSH2 0x25CD PUSH8 0x7683D69B4A91F8AE PUSH1 0xC0 SHL PUSH2 0x2BBA JUMP JUMPDEST PUSH2 0x25E1 PUSH8 0x354198F1519F388F PUSH1 0xC0 SHL PUSH2 0x2BBA JUMP JUMPDEST PUSH1 0x0 DUP4 DUP6 DUP16 PUSH2 0x25F0 SWAP2 SWAP1 PUSH2 0x34E2 JUMP JUMPDEST PUSH2 0x25FA SWAP2 SWAP1 PUSH2 0x3553 JUMP JUMPDEST SWAP1 POP PUSH2 0x2610 PUSH8 0xB631B689F5570E9B PUSH1 0xC0 SHL PUSH2 0x2BBA JUMP JUMPDEST PUSH2 0x2624 PUSH8 0xAF2FCBA6BCA8394A PUSH1 0xC0 SHL PUSH2 0x2BBA JUMP JUMPDEST PUSH2 0x2638 PUSH8 0x3AB423A2116CA40D PUSH1 0xC0 SHL PUSH2 0x2BBA JUMP JUMPDEST DUP15 DUP2 GT ISZERO PUSH2 0x267B JUMPI PUSH1 0x40 MLOAD PUSH32 0x8C379A000000000000000000000000000000000000000000000000000000000 DUP2 MSTORE PUSH1 0x4 ADD PUSH2 0x2672 SWAP1 PUSH2 0x3D09 JUMP JUMPDEST PUSH1 0x40 MLOAD DUP1 SWAP2 SUB SWAP1 REVERT JUMPDEST PUSH2 0x268F PUSH8 0x1405CD8ACB3FFBD0 PUSH1 0xC0 SHL PUSH2 0x2BBA JUMP JUMPDEST PUSH2 0x26A3 PUSH8 0xA3B0C64E8C6A2649 PUSH1 0xC0 SHL PUSH2 0x2BBA JUMP JUMPDEST PUSH2 0x26B7 PUSH8 0x707C0AF60EB3AE95 PUSH1 0xC0 SHL PUSH2 0x2BBA JUMP JUMPDEST PUSH2 0x26CB PUSH8 0xF6DB3E0B3BC3F847 PUSH1 0xC0 SHL PUSH2 0x2BBA JUMP JUMPDEST DUP13 DUP2 LT ISZERO PUSH2 0x270E JUMPI PUSH1 0x40 MLOAD PUSH32 0x8C379A000000000000000000000000000000000000000000000000000000000 DUP2 MSTORE PUSH1 0x4 ADD PUSH2 0x2705 SWAP1 PUSH2 0x3D75 JUMP JUMPDEST PUSH1 0x40 MLOAD DUP1 SWAP2 SUB SWAP1 REVERT JUMPDEST PUSH2 0x2722 PUSH8 0xF4A65CA00F605918 PUSH1 0xC0 SHL PUSH2 0x2BBA JUMP JUMPDEST PUSH2 0x2736 PUSH8 0x7D4F831196278F5D PUSH1 0xC0 SHL PUSH2 0x2BBA JUMP JUMPDEST DUP1 SWAP9 POP PUSH2 0x274D PUSH8 0x78786C99DF27B6F9 PUSH1 0xC0 SHL PUSH2 0x2BBA JUMP JUMPDEST DUP14 SWAP8 POP POP JUMPDEST POP JUMPDEST PUSH2 0x2768 PUSH8 0xF4E1E906EA7B0ADD PUSH1 0xC0 SHL PUSH2 0x2BBA JUMP JUMPDEST PUSH2 0x277C PUSH8 0xBF4662C534075791 PUSH1 0xC0 SHL PUSH2 0x2BBA JUMP JUMPDEST DUP4 PUSH1 0x0 ADD MLOAD PUSH20 0xFFFFFFFFFFFFFFFFFFFFFFFFFFFFFFFFFFFFFFFF AND PUSH4 0x23B872DD CALLER ADDRESS DUP11 PUSH1 0x40 MLOAD DUP5 PUSH4 0xFFFFFFFF AND PUSH1 0xE0 SHL DUP2 MSTORE PUSH1 0x4 ADD PUSH2 0x27BD SWAP4 SWAP3 SWAP2 SWAP1 PUSH2 0x3784 JUMP JUMPDEST PUSH1 0x20 PUSH1 0x40 MLOAD DUP1 DUP4 SUB DUP2 PUSH1 0x0 DUP8 GAS CALL ISZERO DUP1 ISZERO PUSH2 0x27DC JUMPI RETURNDATASIZE PUSH1 0x0 DUP1 RETURNDATACOPY RETURNDATASIZE PUSH1 0x0 REVERT JUMPDEST POP POP POP POP PUSH1 0x40 MLOAD RETURNDATASIZE PUSH1 0x1F NOT PUSH1 0x1F DUP3 ADD AND DUP3 ADD DUP1 PUSH1 0x40 MSTORE POP DUP2 ADD SWAP1 PUSH2 0x2800 SWAP2 SWAP1 PUSH2 0x37F3 JUMP JUMPDEST POP PUSH2 0x2815 PUSH8 0x5973E2361730614 PUSH1 0xC0 SHL PUSH2 0x2BBA JUMP JUMPDEST PUSH2 0x2829 PUSH8 0x20CFD1775AB7A8AC PUSH1 0xC0 SHL PUSH2 0x2BBA JUMP JUMPDEST DUP4 PUSH1 0x20 ADD MLOAD PUSH20 0xFFFFFFFFFFFFFFFFFFFFFFFFFFFFFFFFFFFFFFFF AND PUSH4 0x23B872DD CALLER ADDRESS DUP10 PUSH1 0x40 MLOAD DUP5 PUSH4 0xFFFFFFFF AND PUSH1 0xE0 SHL DUP2 MSTORE PUSH1 0x4 ADD PUSH2 0x286A SWAP4 SWAP3 SWAP2 SWAP1 PUSH2 0x3784 JUMP JUMPDEST PUSH1 0x20 PUSH1 0x40 MLOAD DUP1 DUP4 SUB DUP2 PUSH1 0x0 DUP8 GAS CALL ISZERO DUP1 ISZERO PUSH2 0x2889 JUMPI RETURNDATASIZE PUSH1 0x0 DUP1 RETURNDATACOPY RETURNDATASIZE PUSH1 0x0 REVERT JUMPDEST POP POP POP POP PUSH1 0x40 MLOAD RETURNDATASIZE PUSH1 0x1F NOT PUSH1 0x1F DUP3 ADD AND DUP3 ADD DUP1 PUSH1 0x40 MSTORE POP DUP2 ADD SWAP1 PUSH2 0x28AD SWAP2 SWAP1 PUSH2 0x37F3 JUMP JUMPDEST POP PUSH2 0x28C2 PUSH8 0xC1A50FCA2E0D938B PUSH1 0xC0 SHL PUSH2 0x2BBA JUMP JUMPDEST PUSH2 0x28D6 PUSH8 0x9EA4EB3CD734029 PUSH1 0xC0 SHL PUSH2 0x2BBA JUMP JUMPDEST PUSH1 0x0 DUP2 SUB PUSH2 0x2921 JUMPI PUSH2 0x28F2 PUSH8 0xABB8BB4DDD842D73 PUSH1 0xC0 SHL PUSH2 0x2BBA JUMP JUMPDEST PUSH2 0x2906 PUSH8 0x9A0AF59D3A04D5DA PUSH1 0xC0 SHL PUSH2 0x2BBA JUMP JUMPDEST PUSH2 0x291A DUP7 DUP9 PUSH2 0x2915 SWAP2 SWAP1 PUSH2 0x34E2 JUMP JUMPDEST PUSH2 0x2BC8 JUMP JUMPDEST SWAP5 POP PUSH2 0x2982 JUMP JUMPDEST PUSH2 0x2935 PUSH8 0xAFA02FABC0D7E3A3 PUSH1 0xC0 SHL PUSH2 0x2BBA JUMP JUMPDEST PUSH2 0x2949 PUSH8 0x58A88A2B74D18AE PUSH1 0xC0 SHL PUSH2 0x2BBA JUMP JUMPDEST PUSH2 0x297F DUP4 DUP3 DUP10 PUSH2 0x2959 SWAP2 SWAP1 PUSH2 0x34E2 JUMP JUMPDEST PUSH2 0x2963 SWAP2 SWAP1 PUSH2 0x3553 JUMP JUMPDEST DUP4 DUP4 DUP10 PUSH2 0x2970 SWAP2 SWAP1 PUSH2 0x34E2 JUMP JUMPDEST PUSH2 0x297A SWAP2 SWAP1 PUSH2 0x3553 JUMP JUMPDEST PUSH2 0x2D65 JUMP JUMPDEST SWAP5 POP JUMPDEST PUSH2 0x2996 PUSH8 0xB7E8EDC06B2605D0 PUSH1 0xC0 SHL PUSH2 0x2BBA JUMP JUMPDEST PUSH2 0x29AA PUSH8 0xF010D9830FA8AB0C PUSH1 0xC0 SHL PUSH2 0x2BBA JUMP JUMPDEST PUSH2 0x29BE PUSH8 0x6F8F881DFF7B9805 PUSH1 0xC0 SHL PUSH2 0x2BBA JUMP JUMPDEST PUSH1 0x0 DUP6 GT PUSH2 0x2A01 JUMPI PUSH1 0x40 MLOAD PUSH32 0x8C379A000000000000000000000000000000000000000000000000000000000 DUP2 MSTORE PUSH1 0x4 ADD PUSH2 0x29F8 SWAP1 PUSH2 0x3DE1 JUMP JUMPDEST PUSH1 0x40 MLOAD DUP1 SWAP2 SUB SWAP1 REVERT JUMPDEST PUSH2 0x2A15 PUSH8 0xAE8D1B78A77AB705 PUSH1 0xC0 SHL PUSH2 0x2BBA JUMP JUMPDEST PUSH2 0x2A29 PUSH8 0x605C5C7165039ACC PUSH1 0xC0 SHL PUSH2 0x2BBA JUMP JUMPDEST DUP7 PUSH1 0x5 PUSH1 0x0 DUP3 DUP3 SLOAD PUSH2 0x2A3B SWAP2 SWAP1 PUSH2 0x34AE JUMP JUMPDEST SWAP3 POP POP DUP2 SWAP1 SSTORE POP PUSH2 0x2A56 PUSH8 0x3FA0FB9B46BC193D PUSH1 0xC0 SHL PUSH2 0x2BBA JUMP JUMPDEST DUP6 PUSH1 0x6 PUSH1 0x0 DUP3 DUP3 SLOAD PUSH2 0x2A68 SWAP2 SWAP1 PUSH2 0x34AE JUMP JUMPDEST SWAP3 POP POP DUP2 SWAP1 SSTORE POP PUSH2 0x2A83 PUSH8 0x9F4BA385491B981A PUSH1 0xC0 SHL PUSH2 0x2BBA JUMP JUMPDEST DUP5 PUSH1 0x7 PUSH1 0x0 DUP3 DUP3 SLOAD PUSH2 0x2A95 SWAP2 SWAP1 PUSH2 0x34AE JUMP JUMPDEST SWAP3 POP POP DUP2 SWAP1 SSTORE POP PUSH2 0x2AB0 PUSH8 0x4A2FF02D524EA3EF PUSH1 0xC0 SHL PUSH2 0x2BBA JUMP JUMPDEST DUP5 PUSH1 0x8 PUSH1 0x0 DUP12 PUSH20 0xFFFFFFFFFFFFFFFFFFFFFFFFFFFFFFFFFFFFFFFF AND PUSH20 0xFFFFFFFFFFFFFFFFFFFFFFFFFFFFFFFFFFFFFFFF AND DUP2 MSTORE PUSH1 0x20 ADD SWAP1 DUP2 MSTORE PUSH1 0x20 ADD PUSH1 0x0 KECCAK256 PUSH1 0x0 DUP3 DUP3 SLOAD PUSH2 0x2AFF SWAP2 SWAP1 PUSH2 0x34AE JUMP JUMPDEST SWAP3 POP POP DUP2 SWAP1 SSTORE POP PUSH2 0x2B1A PUSH8 0x22AE50B9CDA1EE45 PUSH1 0xC0 SHL PUSH2 0x2BBA JUMP JUMPDEST PUSH2 0x2B2E PUSH8 0x7B8DC538E0050222 PUSH1 0xC0 SHL PUSH2 0x2BBA JUMP JUMPDEST CALLER PUSH20 0xFFFFFFFFFFFFFFFFFFFFFFFFFFFFFFFFFFFFFFFF AND PUSH32 0x64B83944E79C3CE8D4C297411DE637C3E102D064677AAC0C163976EBDCD6F50E DUP9 DUP9 DUP9 PUSH1 0x40 MLOAD PUSH2 0x2B78 SWAP4 SWAP3 SWAP2 SWAP1 PUSH2 0x3370 JUMP JUMPDEST PUSH1 0x40 MLOAD DUP1 SWAP2 SUB SWAP1 LOG2 PUSH2 0x2B94 PUSH8 0xE586009C64820BA3 PUSH1 0xC0 SHL PUSH2 0x2BBA JUMP JUMPDEST PUSH2 0x2BA8 PUSH8 0x284E94B5C27DB3ED PUSH1 0xC0 SHL PUSH2 0x2BBA JUMP JUMPDEST POP POP POP POP SWAP9 POP SWAP9 POP SWAP9 SWAP6 POP POP POP POP POP POP JUMP JUMPDEST POP JUMP JUMPDEST PUSH1 0x0 PUSH1 0x1 SWAP1 POP SWAP2 SWAP1 POP JUMP JUMPDEST PUSH1 0x0 PUSH1 0x1 DUP3 GT PUSH2 0x2BDA JUMPI DUP2 SWAP1 POP PUSH2 0x2D60 JUMP JUMPDEST PUSH1 0x0 DUP3 SWAP1 POP PUSH1 0x0 PUSH1 0x1 SWAP1 POP PUSH17 0x100000000000000000000000000000000 DUP3 LT PUSH2 0x2C0C JUMPI PUSH1 0x80 DUP3 SWAP1 SHR SWAP2 POP PUSH1 0x40 DUP2 SWAP1 SHL SWAP1 POP JUMPDEST PUSH9 0x10000000000000000 DUP3 LT PUSH2 0x2C2B JUMPI PUSH1 0x40 DUP3 SWAP1 SHR SWAP2 POP PUSH1 0x20 DUP2 SWAP1 SHL SWAP1 POP JUMPDEST PUSH5 0x100000000 DUP3 LT PUSH2 0x2C46 JUMPI PUSH1 0x20 DUP3 SWAP1 SHR SWAP2 POP PUSH1 0x10 DUP2 SWAP1 SHL SWAP1 POP JUMPDEST PUSH3 0x10000 DUP3 LT PUSH2 0x2C5F JUMPI PUSH1 0x10 DUP3 SWAP1 SHR SWAP2 POP PUSH1 0x8 DUP2 SWAP1 SHL SWAP1 POP JUMPDEST PUSH2 0x100 DUP3 LT PUSH2 0x2C77 JUMPI PUSH1 0x8 DUP3 SWAP1 SHR SWAP2 POP PUSH1 0x4 DUP2 SWAP1 SHL SWAP1 POP JUMPDEST PUSH1 0x10 DUP3 LT PUSH2 0x2C8E JUMPI PUSH1 0x4 DUP3 SWAP1 SHR SWAP2 POP PUSH1 0x2 DUP2 SWAP1 SHL SWAP1 POP JUMPDEST PUSH1 0x4 DUP3 LT PUSH2 0x2C9E JUMPI PUSH1 0x1 DUP2 SWAP1 SHL SWAP1 POP JUMPDEST PUSH1 0x1 DUP2 PUSH1 0x3 MUL SWAP1 SHR SWAP1 POP PUSH1 0x1 DUP2 DUP6 DUP2 PUSH2 0x2CBA JUMPI PUSH2 0x2CB9 PUSH2 0x3524 JUMP JUMPDEST JUMPDEST DIV DUP3 ADD SWAP1 SHR SWAP1 POP PUSH1 0x1 DUP2 DUP6 DUP2 PUSH2 0x2CD3 JUMPI PUSH2 0x2CD2 PUSH2 0x3524 JUMP JUMPDEST JUMPDEST DIV DUP3 ADD SWAP1 SHR SWAP1 POP PUSH1 0x1 DUP2 DUP6 DUP2 PUSH2 0x2CEC JUMPI PUSH2 0x2CEB PUSH2 0x3524 JUMP JUMPDEST JUMPDEST DIV DUP3 ADD SWAP1 SHR SWAP1 POP PUSH1 0x1 DUP2 DUP6 DUP2 PUSH2 0x2D05 JUMPI PUSH2 0x2D04 PUSH2 0x3524 JUMP JUMPDEST JUMPDEST DIV DUP3 ADD SWAP1 SHR SWAP1 POP PUSH1 0x1 DUP2 DUP6 DUP2 PUSH2 0x2D1E JUMPI PUSH2 0x2D1D PUSH2 0x3524 JUMP JUMPDEST JUMPDEST DIV DUP3 ADD SWAP1 SHR SWAP1 POP PUSH1 0x1 DUP2 DUP6 DUP2 PUSH2 0x2D37 JUMPI PUSH2 0x2D36 PUSH2 0x3524 JUMP JUMPDEST JUMPDEST DIV DUP3 ADD SWAP1 SHR SWAP1 POP PUSH2 0x2D59 DUP2 DUP6 DUP2 PUSH2 0x2D51 JUMPI PUSH2 0x2D50 PUSH2 0x3524 JUMP JUMPDEST JUMPDEST DIV DUP3 GT PUSH2 0x2D7C JUMP JUMPDEST DUP2 SUB SWAP3 POP POP POP JUMPDEST SWAP2 SWAP1 POP JUMP JUMPDEST PUSH1 0x0 PUSH2 0x2D74 DUP3 DUP5 LT DUP5 DUP5 PUSH2 0x2D88 JUMP JUMPDEST SWAP1 POP SWAP3 SWAP2 POP POP JUMP JUMPDEST PUSH1 0x0 DUP2 ISZERO ISZERO SWAP1 POP SWAP2 SWAP1 POP JUMP JUMPDEST PUSH1 0x0 PUSH2 0x2D93 DUP5 PUSH2 0x2D7C JUMP JUMPDEST DUP3 DUP5 XOR MUL DUP3 XOR SWAP1 POP SWAP4 SWAP3 POP POP POP JUMP JUMPDEST PUSH1 0x0 DUP1 REVERT JUMPDEST PUSH1 0x0 DUP1 REVERT JUMPDEST PUSH1 0x0 DUP2 SWAP1 POP SWAP2 SWAP1 POP JUMP JUMPDEST PUSH2 0x2DBF DUP2 PUSH2 0x2DAC JUMP JUMPDEST DUP2 EQ PUSH2 0x2DCA JUMPI PUSH1 0x0 DUP1 REVERT JUMPDEST POP JUMP JUMPDEST PUSH1 0x0 DUP2 CALLDATALOAD SWAP1 POP PUSH2 0x2DDC DUP2 PUSH2 0x2DB6 JUMP JUMPDEST SWAP3 SWAP2 POP POP JUMP JUMPDEST PUSH1 0x0 DUP1 PUSH1 0x0 PUSH1 0x60 DUP5 DUP7 SUB SLT ISZERO PUSH2 0x2DFB JUMPI PUSH2 0x2DFA PUSH2 0x2DA2 JUMP JUMPDEST JUMPDEST PUSH1 0x0 PUSH2 0x2E09 DUP7 DUP3 DUP8 ADD PUSH2 0x2DCD JUMP JUMPDEST SWAP4 POP POP PUSH1 0x20 PUSH2 0x2E1A DUP7 DUP3 DUP8 ADD PUSH2 0x2DCD JUMP JUMPDEST SWAP3 POP POP PUSH1 0x40 PUSH2 0x2E2B DUP7 DUP3 DUP8 ADD PUSH2 0x2DCD JUMP JUMPDEST SWAP2 POP POP SWAP3 POP SWAP3 POP SWAP3 JUMP JUMPDEST PUSH2 0x2E3E DUP2 PUSH2 0x2DAC JUMP JUMPDEST DUP3 MSTORE POP POP JUMP JUMPDEST PUSH1 0x0 PUSH1 0x20 DUP3 ADD SWAP1 POP PUSH2 0x2E59 PUSH1 0x0 DUP4 ADD DUP5 PUSH2 0x2E35 JUMP JUMPDEST SWAP3 SWAP2 POP POP JUMP JUMPDEST PUSH1 0x0 DUP2 MLOAD SWAP1 POP SWAP2 SWAP1 POP JUMP JUMPDEST PUSH1 0x0 DUP3 DUP3 MSTORE PUSH1 0x20 DUP3 ADD SWAP1 POP SWAP3 SWAP2 POP POP JUMP JUMPDEST PUSH1 0x0 JUMPDEST DUP4 DUP2 LT ISZERO PUSH2 0x2E99 JUMPI DUP1 DUP3 ADD MLOAD DUP2 DUP5 ADD MSTORE PUSH1 0x20 DUP2 ADD SWAP1 POP PUSH2 0x2E7E JUMP JUMPDEST PUSH1 0x0 DUP5 DUP5 ADD MSTORE POP POP POP POP JUMP JUMPDEST PUSH1 0x0 PUSH1 0x1F NOT PUSH1 0x1F DUP4 ADD AND SWAP1 POP SWAP2 SWAP1 POP JUMP JUMPDEST PUSH1 0x0 PUSH2 0x2EC1 DUP3 PUSH2 0x2E5F JUMP JUMPDEST PUSH2 0x2ECB DUP2 DUP6 PUSH2 0x2E6A JUMP JUMPDEST SWAP4 POP PUSH2 0x2EDB DUP2 DUP6 PUSH1 0x20 DUP7 ADD PUSH2 0x2E7B JUMP JUMPDEST PUSH2 0x2EE4 DUP2 PUSH2 0x2EA5 JUMP JUMPDEST DUP5 ADD SWAP2 POP POP SWAP3 SWAP2 POP POP JUMP JUMPDEST PUSH1 0x0 PUSH1 0x20 DUP3 ADD SWAP1 POP DUP2 DUP2 SUB PUSH1 0x0 DUP4 ADD MSTORE PUSH2 0x2F09 DUP2 DUP5 PUSH2 0x2EB6 JUMP JUMPDEST SWAP1 POP SWAP3 SWAP2 POP POP JUMP JUMPDEST PUSH1 0x0 PUSH20 0xFFFFFFFFFFFFFFFFFFFFFFFFFFFFFFFFFFFFFFFF DUP3 AND SWAP1 POP SWAP2 SWAP1 POP JUMP JUMPDEST PUSH1 0x0 PUSH2 0x2F3C DUP3 PUSH2 0x2F11 JUMP JUMPDEST SWAP1 POP SWAP2 SWAP1 POP JUMP JUMPDEST PUSH2 0x2F4C DUP2 PUSH2 0x2F31 JUMP JUMPDEST DUP3 MSTORE POP POP JUMP JUMPDEST PUSH1 0x0 PUSH1 0x20 DUP3 ADD SWAP1 POP PUSH2 0x2F67 PUSH1 0x0 DUP4 ADD DUP5 PUSH2 0x2F43 JUMP JUMPDEST SWAP3 SWAP2 POP POP JUMP JUMPDEST PUSH1 0x0 PUSH1 0xFF DUP3 AND SWAP1 POP SWAP2 SWAP1 POP JUMP JUMPDEST PUSH2 0x2F83 DUP2 PUSH2 0x2F6D JUMP JUMPDEST DUP3 MSTORE POP POP JUMP JUMPDEST PUSH1 0x0 PUSH1 0x20 DUP3 ADD SWAP1 POP PUSH2 0x2F9E PUSH1 0x0 DUP4 ADD DUP5 PUSH2 0x2F7A JUMP JUMPDEST SWAP3 SWAP2 POP POP JUMP JUMPDEST PUSH1 0x0 DUP1 REVERT JUMPDEST PUSH1 0x0 DUP1 REVERT JUMPDEST PUSH1 0x0 DUP1 REVERT JUMPDEST PUSH1 0x0 DUP1 DUP4 PUSH1 0x1F DUP5 ADD SLT PUSH2 0x2FC9 JUMPI PUSH2 0x2FC8 PUSH2 0x2FA4 JUMP JUMPDEST JUMPDEST DUP3 CALLDATALOAD SWAP1 POP PUSH8 0xFFFFFFFFFFFFFFFF DUP2 GT ISZERO PUSH2 0x2FE6 JUMPI PUSH2 0x2FE5 PUSH2 0x2FA9 JUMP JUMPDEST JUMPDEST PUSH1 0x20 DUP4 ADD SWAP2 POP DUP4 PUSH1 0x20 DUP3 MUL DUP4 ADD GT ISZERO PUSH2 0x3002 JUMPI PUSH2 0x3001 PUSH2 0x2FAE JUMP JUMPDEST JUMPDEST SWAP3 POP SWAP3 SWAP1 POP JUMP JUMPDEST PUSH2 0x3012 DUP2 PUSH2 0x2F31 JUMP JUMPDEST DUP2 EQ PUSH2 0x301D JUMPI PUSH1 0x0 DUP1 REVERT JUMPDEST POP JUMP JUMPDEST PUSH1 0x0 DUP2 CALLDATALOAD SWAP1 POP PUSH2 0x302F DUP2 PUSH2 0x3009 JUMP JUMPDEST SWAP3 SWAP2 POP POP JUMP JUMPDEST PUSH1 0x0 DUP1 PUSH1 0x0 DUP1 PUSH1 0x0 DUP1 PUSH1 0xA0 DUP8 DUP10 SUB SLT ISZERO PUSH2 0x3052 JUMPI PUSH2 0x3051 PUSH2 0x2DA2 JUMP JUMPDEST JUMPDEST PUSH1 0x0 PUSH2 0x3060 DUP10 DUP3 DUP11 ADD PUSH2 0x2DCD JUMP JUMPDEST SWAP7 POP POP PUSH1 0x20 PUSH2 0x3071 DUP10 DUP3 DUP11 ADD PUSH2 0x2DCD JUMP JUMPDEST SWAP6 POP POP PUSH1 0x40 DUP8 ADD CALLDATALOAD PUSH8 0xFFFFFFFFFFFFFFFF DUP2 GT ISZERO PUSH2 0x3092 JUMPI PUSH2 0x3091 PUSH2 0x2DA7 JUMP JUMPDEST JUMPDEST PUSH2 0x309E DUP10 DUP3 DUP11 ADD PUSH2 0x2FB3 JUMP JUMPDEST SWAP5 POP SWAP5 POP POP PUSH1 0x60 PUSH2 0x30B1 DUP10 DUP3 DUP11 ADD PUSH2 0x3020 JUMP JUMPDEST SWAP3 POP POP PUSH1 0x80 PUSH2 0x30C2 DUP10 DUP3 DUP11 ADD PUSH2 0x2DCD JUMP JUMPDEST SWAP2 POP POP SWAP3 SWAP6 POP SWAP3 SWAP6 POP SWAP3 SWAP6 JUMP JUMPDEST PUSH1 0x0 DUP2 MLOAD SWAP1 POP SWAP2 SWAP1 POP JUMP JUMPDEST PUSH1 0x0 DUP3 DUP3 MSTORE PUSH1 0x20 DUP3 ADD SWAP1 POP SWAP3 SWAP2 POP POP JUMP JUMPDEST PUSH1 0x0 DUP2 SWAP1 POP PUSH1 0x20 DUP3 ADD SWAP1 POP SWAP2 SWAP1 POP JUMP JUMPDEST PUSH2 0x3104 DUP2 PUSH2 0x2DAC JUMP JUMPDEST DUP3 MSTORE POP POP JUMP JUMPDEST PUSH1 0x0 PUSH2 0x3116 DUP4 DUP4 PUSH2 0x30FB JUMP JUMPDEST PUSH1 0x20 DUP4 ADD SWAP1 POP SWAP3 SWAP2 POP POP JUMP JUMPDEST PUSH1 0x0 PUSH1 0x20 DUP3 ADD SWAP1 POP SWAP2 SWAP1 POP JUMP JUMPDEST PUSH1 0x0 PUSH2 0x313A DUP3 PUSH2 0x30CF JUMP JUMPDEST PUSH2 0x3144 DUP2 DUP6 PUSH2 0x30DA JUMP JUMPDEST SWAP4 POP PUSH2 0x314F DUP4 PUSH2 0x30EB JUMP JUMPDEST DUP1 PUSH1 0x0 JUMPDEST DUP4 DUP2 LT ISZERO PUSH2 0x3180 JUMPI DUP2 MLOAD PUSH2 0x3167 DUP9 DUP3 PUSH2 0x310A JUMP JUMPDEST SWAP8 POP PUSH2 0x3172 DUP4 PUSH2 0x3122 JUMP JUMPDEST SWAP3 POP POP PUSH1 0x1 DUP2 ADD SWAP1 POP PUSH2 0x3153 JUMP JUMPDEST POP DUP6 SWAP4 POP POP POP POP SWAP3 SWAP2 POP POP JUMP JUMPDEST PUSH1 0x0 PUSH1 0x20 DUP3 ADD SWAP1 POP DUP2 DUP2 SUB PUSH1 0x0 DUP4 ADD MSTORE PUSH2 0x31A7 DUP2 DUP5 PUSH2 0x312F JUMP JUMPDEST SWAP1 POP SWAP3 SWAP2 POP POP JUMP JUMPDEST PUSH1 0x0 DUP1 PUSH1 0x40 DUP4 DUP6 SUB SLT ISZERO PUSH2 0x31C6 JUMPI PUSH2 0x31C5 PUSH2 0x2DA2 JUMP JUMPDEST JUMPDEST PUSH1 0x0 PUSH2 0x31D4 DUP6 DUP3 DUP7 ADD PUSH2 0x3020 JUMP JUMPDEST SWAP3 POP POP PUSH1 0x20 PUSH2 0x31E5 DUP6 DUP3 DUP7 ADD PUSH2 0x3020 JUMP JUMPDEST SWAP2 POP POP SWAP3 POP SWAP3 SWAP1 POP JUMP JUMPDEST PUSH1 0x0 DUP1 PUSH1 0x0 DUP1 PUSH1 0x0 DUP1 PUSH1 0x0 PUSH1 0xE0 DUP9 DUP11 SUB SLT ISZERO PUSH2 0x320E JUMPI PUSH2 0x320D PUSH2 0x2DA2 JUMP JUMPDEST JUMPDEST PUSH1 0x0 PUSH2 0x321C DUP11 DUP3 DUP12 ADD PUSH2 0x3020 JUMP JUMPDEST SWAP8 POP POP PUSH1 0x20 PUSH2 0x322D DUP11 DUP3 DUP12 ADD PUSH2 0x3020 JUMP JUMPDEST SWAP7 POP POP PUSH1 0x40 PUSH2 0x323E DUP11 DUP3 DUP12 ADD PUSH2 0x2DCD JUMP JUMPDEST SWAP6 POP POP PUSH1 0x60 PUSH2 0x324F DUP11 DUP3 DUP12 ADD PUSH2 0x2DCD JUMP JUMPDEST SWAP5 POP POP PUSH1 0x80 PUSH2 0x3260 DUP11 DUP3 DUP12 ADD PUSH2 0x2DCD JUMP JUMPDEST SWAP4 POP POP PUSH1 0xA0 PUSH2 0x3271 DUP11 DUP3 DUP12 ADD PUSH2 0x3020 JUMP JUMPDEST SWAP3 POP POP PUSH1 0xC0 PUSH2 0x3282 DUP11 DUP3 DUP12 ADD PUSH2 0x2DCD JUMP JUMPDEST SWAP2 POP POP SWAP3 SWAP6 SWAP9 SWAP2 SWAP5 SWAP8 POP SWAP3 SWAP6 POP JUMP JUMPDEST PUSH1 0x0 PUSH1 0x40 DUP3 ADD SWAP1 POP PUSH2 0x32A6 PUSH1 0x0 DUP4 ADD DUP6 PUSH2 0x2E35 JUMP JUMPDEST PUSH2 0x32B3 PUSH1 0x20 DUP4 ADD DUP5 PUSH2 0x2E35 JUMP JUMPDEST SWAP4 SWAP3 POP POP POP JUMP JUMPDEST PUSH1 0x0 DUP1 PUSH1 0x0 DUP1 PUSH1 0x0 DUP1 PUSH1 0x0 DUP1 PUSH2 0x100 DUP10 DUP12 SUB SLT ISZERO PUSH2 0x32DB JUMPI PUSH2 0x32DA PUSH2 0x2DA2 JUMP JUMPDEST JUMPDEST PUSH1 0x0 PUSH2 0x32E9 DUP12 DUP3 DUP13 ADD PUSH2 0x3020 JUMP JUMPDEST SWAP9 POP POP PUSH1 0x20 PUSH2 0x32FA DUP12 DUP3 DUP13 ADD PUSH2 0x3020 JUMP JUMPDEST SWAP8 POP POP PUSH1 0x40 PUSH2 0x330B DUP12 DUP3 DUP13 ADD PUSH2 0x2DCD JUMP JUMPDEST SWAP7 POP POP PUSH1 0x60 PUSH2 0x331C DUP12 DUP3 DUP13 ADD PUSH2 0x2DCD JUMP JUMPDEST SWAP6 POP POP PUSH1 0x80 PUSH2 0x332D DUP12 DUP3 DUP13 ADD PUSH2 0x2DCD JUMP JUMPDEST SWAP5 POP POP PUSH1 0xA0 PUSH2 0x333E DUP12 DUP3 DUP13 ADD PUSH2 0x2DCD JUMP JUMPDEST SWAP4 POP POP PUSH1 0xC0 PUSH2 0x334F DUP12 DUP3 DUP13 ADD PUSH2 0x3020 JUMP JUMPDEST SWAP3 POP POP PUSH1 0xE0 PUSH2 0x3360 DUP12 DUP3 DUP13 ADD PUSH2 0x2DCD JUMP JUMPDEST SWAP2 POP POP SWAP3 SWAP6 SWAP9 POP SWAP3 SWAP6 SWAP9 SWAP1 SWAP4 SWAP7 POP JUMP JUMPDEST PUSH1 0x0 PUSH1 0x60 DUP3 ADD SWAP1 POP PUSH2 0x3385 PUSH1 0x0 DUP4 ADD DUP7 PUSH2 0x2E35 JUMP JUMPDEST PUSH2 0x3392 PUSH1 0x20 DUP4 ADD DUP6 PUSH2 0x2E35 JUMP JUMPDEST PUSH2 0x339F PUSH1 0x40 DUP4 ADD DUP5 PUSH2 0x2E35 JUMP JUMPDEST SWAP5 SWAP4 POP POP POP POP JUMP JUMPDEST PUSH32 0x616D6F756E74496E203C20300000000000000000000000000000000000000000 PUSH1 0x0 DUP3 ADD MSTORE POP JUMP JUMPDEST PUSH1 0x0 PUSH2 0x33DD PUSH1 0xC DUP4 PUSH2 0x2E6A JUMP JUMPDEST SWAP2 POP PUSH2 0x33E8 DUP3 PUSH2 0x33A7 JUMP JUMPDEST PUSH1 0x20 DUP3 ADD SWAP1 POP SWAP2 SWAP1 POP JUMP JUMPDEST PUSH1 0x0 PUSH1 0x20 DUP3 ADD SWAP1 POP DUP2 DUP2 SUB PUSH1 0x0 DUP4 ADD MSTORE PUSH2 0x340C DUP2 PUSH2 0x33D0 JUMP JUMPDEST SWAP1 POP SWAP2 SWAP1 POP JUMP JUMPDEST PUSH32 0x5265736572766573203C20300000000000000000000000000000000000000000 PUSH1 0x0 DUP3 ADD MSTORE POP JUMP JUMPDEST PUSH1 0x0 PUSH2 0x3449 PUSH1 0xC DUP4 PUSH2 0x2E6A JUMP JUMPDEST SWAP2 POP PUSH2 0x3454 DUP3 PUSH2 0x3413 JUMP JUMPDEST PUSH1 0x20 DUP3 ADD SWAP1 POP SWAP2 SWAP1 POP JUMP JUMPDEST PUSH1 0x0 PUSH1 0x20 DUP3 ADD SWAP1 POP DUP2 DUP2 SUB PUSH1 0x0 DUP4 ADD MSTORE PUSH2 0x3478 DUP2 PUSH2 0x343C JUMP JUMPDEST SWAP1 POP SWAP2 SWAP1 POP JUMP JUMPDEST PUSH32 0x4E487B7100000000000000000000000000000000000000000000000000000000 PUSH1 0x0 MSTORE PUSH1 0x11 PUSH1 0x4 MSTORE PUSH1 0x24 PUSH1 0x0 REVERT JUMPDEST PUSH1 0x0 PUSH2 0x34B9 DUP3 PUSH2 0x2DAC JUMP JUMPDEST SWAP2 POP PUSH2 0x34C4 DUP4 PUSH2 0x2DAC JUMP JUMPDEST SWAP3 POP DUP3 DUP3 ADD SWAP1 POP DUP1 DUP3 GT ISZERO PUSH2 0x34DC JUMPI PUSH2 0x34DB PUSH2 0x347F JUMP JUMPDEST JUMPDEST SWAP3 SWAP2 POP POP JUMP JUMPDEST PUSH1 0x0 PUSH2 0x34ED DUP3 PUSH2 0x2DAC JUMP JUMPDEST SWAP2 POP PUSH2 0x34F8 DUP4 PUSH2 0x2DAC JUMP JUMPDEST SWAP3 POP DUP3 DUP3 MUL PUSH2 0x3506 DUP2 PUSH2 0x2DAC JUMP JUMPDEST SWAP2 POP DUP3 DUP3 DIV DUP5 EQ DUP4 ISZERO OR PUSH2 0x351D JUMPI PUSH2 0x351C PUSH2 0x347F JUMP JUMPDEST JUMPDEST POP SWAP3 SWAP2 POP POP JUMP JUMPDEST PUSH32 0x4E487B7100000000000000000000000000000000000000000000000000000000 PUSH1 0x0 MSTORE PUSH1 0x12 PUSH1 0x4 MSTORE PUSH1 0x24 PUSH1 0x0 REVERT JUMPDEST PUSH1 0x0 PUSH2 0x355E DUP3 PUSH2 0x2DAC JUMP JUMPDEST SWAP2 POP PUSH2 0x3569 DUP4 PUSH2 0x2DAC JUMP JUMPDEST SWAP3 POP DUP3 PUSH2 0x3579 JUMPI PUSH2 0x3578 PUSH2 0x3524 JUMP JUMPDEST JUMPDEST DUP3 DUP3 DIV SWAP1 POP SWAP3 SWAP2 POP POP JUMP JUMPDEST PUSH32 0x4E487B7100000000000000000000000000000000000000000000000000000000 PUSH1 0x0 MSTORE PUSH1 0x22 PUSH1 0x4 MSTORE PUSH1 0x24 PUSH1 0x0 REVERT JUMPDEST PUSH1 0x0 PUSH1 0x2 DUP3 DIV SWAP1 POP PUSH1 0x1 DUP3 AND DUP1 PUSH2 0x35CB JUMPI PUSH1 0x7F DUP3 AND SWAP2 POP JUMPDEST PUSH1 0x20 DUP3 LT DUP2 SUB PUSH2 0x35DE JUMPI PUSH2 0x35DD PUSH2 0x3584 JUMP JUMPDEST JUMPDEST POP SWAP2 SWAP1 POP JUMP JUMPDEST PUSH32 0x5472616E73616374206578706972656400000000000000000000000000000000 PUSH1 0x0 DUP3 ADD MSTORE POP JUMP JUMPDEST PUSH1 0x0 PUSH2 0x361A PUSH1 0x10 DUP4 PUSH2 0x2E6A JUMP JUMPDEST SWAP2 POP PUSH2 0x3625 DUP3 PUSH2 0x35E4 JUMP JUMPDEST PUSH1 0x20 DUP3 ADD SWAP1 POP SWAP2 SWAP1 POP JUMP JUMPDEST PUSH1 0x0 PUSH1 0x20 DUP3 ADD SWAP1 POP DUP2 DUP2 SUB PUSH1 0x0 DUP4 ADD MSTORE PUSH2 0x3649 DUP2 PUSH2 0x360D JUMP JUMPDEST SWAP1 POP SWAP2 SWAP1 POP JUMP JUMPDEST PUSH32 0x4E487B7100000000000000000000000000000000000000000000000000000000 PUSH1 0x0 MSTORE PUSH1 0x32 PUSH1 0x4 MSTORE PUSH1 0x24 PUSH1 0x0 REVERT JUMPDEST PUSH1 0x0 PUSH1 0x20 DUP3 DUP5 SUB SLT ISZERO PUSH2 0x3695 JUMPI PUSH2 0x3694 PUSH2 0x2DA2 JUMP JUMPDEST JUMPDEST PUSH1 0x0 PUSH2 0x36A3 DUP5 DUP3 DUP6 ADD PUSH2 0x3020 JUMP JUMPDEST SWAP2 POP POP SWAP3 SWAP2 POP POP JUMP JUMPDEST PUSH32 0x696E76616C696420746F6B656E73000000000000000000000000000000000000 PUSH1 0x0 DUP3 ADD MSTORE POP JUMP JUMPDEST PUSH1 0x0 PUSH2 0x36E2 PUSH1 0xE DUP4 PUSH2 0x2E6A JUMP JUMPDEST SWAP2 POP PUSH2 0x36ED DUP3 PUSH2 0x36AC JUMP JUMPDEST PUSH1 0x20 DUP3 ADD SWAP1 POP SWAP2 SWAP1 POP JUMP JUMPDEST PUSH1 0x0 PUSH1 0x20 DUP3 ADD SWAP1 POP DUP2 DUP2 SUB PUSH1 0x0 DUP4 ADD MSTORE PUSH2 0x3711 DUP2 PUSH2 0x36D5 JUMP JUMPDEST SWAP1 POP SWAP2 SWAP1 POP JUMP JUMPDEST PUSH32 0x616D6F756E74496E203000000000000000000000000000000000000000000000 PUSH1 0x0 DUP3 ADD MSTORE POP JUMP JUMPDEST PUSH1 0x0 PUSH2 0x374E PUSH1 0xA DUP4 PUSH2 0x2E6A JUMP JUMPDEST SWAP2 POP PUSH2 0x3759 DUP3 PUSH2 0x3718 JUMP JUMPDEST PUSH1 0x20 DUP3 ADD SWAP1 POP SWAP2 SWAP1 POP JUMP JUMPDEST PUSH1 0x0 PUSH1 0x20 DUP3 ADD SWAP1 POP DUP2 DUP2 SUB PUSH1 0x0 DUP4 ADD MSTORE PUSH2 0x377D DUP2 PUSH2 0x3741 JUMP JUMPDEST SWAP1 POP SWAP2 SWAP1 POP JUMP JUMPDEST PUSH1 0x0 PUSH1 0x60 DUP3 ADD SWAP1 POP PUSH2 0x3799 PUSH1 0x0 DUP4 ADD DUP7 PUSH2 0x2F43 JUMP JUMPDEST PUSH2 0x37A6 PUSH1 0x20 DUP4 ADD DUP6 PUSH2 0x2F43 JUMP JUMPDEST PUSH2 0x37B3 PUSH1 0x40 DUP4 ADD DUP5 PUSH2 0x2E35 JUMP JUMPDEST SWAP5 SWAP4 POP POP POP POP JUMP JUMPDEST PUSH1 0x0 DUP2 ISZERO ISZERO SWAP1 POP SWAP2 SWAP1 POP JUMP JUMPDEST PUSH2 0x37D0 DUP2 PUSH2 0x37BB JUMP JUMPDEST DUP2 EQ PUSH2 0x37DB JUMPI PUSH1 0x0 DUP1 REVERT JUMPDEST POP JUMP JUMPDEST PUSH1 0x0 DUP2 MLOAD SWAP1 POP PUSH2 0x37ED DUP2 PUSH2 0x37C7 JUMP JUMPDEST SWAP3 SWAP2 POP POP JUMP JUMPDEST PUSH1 0x0 PUSH1 0x20 DUP3 DUP5 SUB SLT ISZERO PUSH2 0x3809 JUMPI PUSH2 0x3808 PUSH2 0x2DA2 JUMP JUMPDEST JUMPDEST PUSH1 0x0 PUSH2 0x3817 DUP5 DUP3 DUP6 ADD PUSH2 0x37DE JUMP JUMPDEST SWAP2 POP POP SWAP3 SWAP2 POP POP JUMP JUMPDEST PUSH32 0x696E73756666696369656E7420616D6F756E744F757400000000000000000000 PUSH1 0x0 DUP3 ADD MSTORE POP JUMP JUMPDEST PUSH1 0x0 PUSH2 0x3856 PUSH1 0x16 DUP4 PUSH2 0x2E6A JUMP JUMPDEST SWAP2 POP PUSH2 0x3861 DUP3 PUSH2 0x3820 JUMP JUMPDEST PUSH1 0x20 DUP3 ADD SWAP1 POP SWAP2 SWAP1 POP JUMP JUMPDEST PUSH1 0x0 PUSH1 0x20 DUP3 ADD SWAP1 POP DUP2 DUP2 SUB PUSH1 0x0 DUP4 ADD MSTORE PUSH2 0x3885 DUP2 PUSH2 0x3849 JUMP JUMPDEST SWAP1 POP SWAP2 SWAP1 POP JUMP JUMPDEST PUSH1 0x0 PUSH1 0x40 DUP3 ADD SWAP1 POP PUSH2 0x38A1 PUSH1 0x0 DUP4 ADD DUP6 PUSH2 0x2F43 JUMP JUMPDEST PUSH2 0x38AE PUSH1 0x20 DUP4 ADD DUP5 PUSH2 0x2E35 JUMP JUMPDEST SWAP4 SWAP3 POP POP POP JUMP JUMPDEST PUSH1 0x0 PUSH2 0x38C0 DUP3 PUSH2 0x2DAC JUMP JUMPDEST SWAP2 POP PUSH2 0x38CB DUP4 PUSH2 0x2DAC JUMP JUMPDEST SWAP3 POP DUP3 DUP3 SUB SWAP1 POP DUP2 DUP2 GT ISZERO PUSH2 0x38E3 JUMPI PUSH2 0x38E2 PUSH2 0x347F JUMP JUMPDEST JUMPDEST SWAP3 SWAP2 POP POP JUMP JUMPDEST PUSH32 0x4E487B7100000000000000000000000000000000000000000000000000000000 PUSH1 0x0 MSTORE PUSH1 0x41 PUSH1 0x4 MSTORE PUSH1 0x24 PUSH1 0x0 REVERT JUMPDEST PUSH1 0x0 PUSH1 0x80 DUP3 ADD SWAP1 POP PUSH2 0x392D PUSH1 0x0 DUP4 ADD DUP8 PUSH2 0x2F43 JUMP JUMPDEST PUSH2 0x393A PUSH1 0x20 DUP4 ADD DUP7 PUSH2 0x2E35 JUMP JUMPDEST PUSH2 0x3947 PUSH1 0x40 DUP4 ADD DUP6 PUSH2 0x2F43 JUMP JUMPDEST PUSH2 0x3954 PUSH1 0x60 DUP4 ADD DUP5 PUSH2 0x2E35 JUMP JUMPDEST SWAP6 SWAP5 POP POP POP POP POP JUMP JUMPDEST PUSH32 0x496E76616C696420746F6B656E73000000000000000000000000000000000000 PUSH1 0x0 DUP3 ADD MSTORE POP JUMP JUMPDEST PUSH1 0x0 PUSH2 0x3993 PUSH1 0xE DUP4 PUSH2 0x2E6A JUMP JUMPDEST SWAP2 POP PUSH2 0x399E DUP3 PUSH2 0x395D JUMP JUMPDEST PUSH1 0x20 DUP3 ADD SWAP1 POP SWAP2 SWAP1 POP JUMP JUMPDEST PUSH1 0x0 PUSH1 0x20 DUP3 ADD SWAP1 POP DUP2 DUP2 SUB PUSH1 0x0 DUP4 ADD MSTORE PUSH2 0x39C2 DUP2 PUSH2 0x3986 JUMP JUMPDEST SWAP1 POP SWAP2 SWAP1 POP JUMP JUMPDEST PUSH32 0x4E6F204120726573657276650000000000000000000000000000000000000000 PUSH1 0x0 DUP3 ADD MSTORE POP JUMP JUMPDEST PUSH1 0x0 PUSH2 0x39FF PUSH1 0xC DUP4 PUSH2 0x2E6A JUMP JUMPDEST SWAP2 POP PUSH2 0x3A0A DUP3 PUSH2 0x39C9 JUMP JUMPDEST PUSH1 0x20 DUP3 ADD SWAP1 POP SWAP2 SWAP1 POP JUMP JUMPDEST PUSH1 0x0 PUSH1 0x20 DUP3 ADD SWAP1 POP DUP2 DUP2 SUB PUSH1 0x0 DUP4 ADD MSTORE PUSH2 0x3A2E DUP2 PUSH2 0x39F2 JUMP JUMPDEST SWAP1 POP SWAP2 SWAP1 POP JUMP JUMPDEST PUSH32 0x6261642070616972000000000000000000000000000000000000000000000000 PUSH1 0x0 DUP3 ADD MSTORE POP JUMP JUMPDEST PUSH1 0x0 PUSH2 0x3A6B PUSH1 0x8 DUP4 PUSH2 0x2E6A JUMP JUMPDEST SWAP2 POP PUSH2 0x3A76 DUP3 PUSH2 0x3A35 JUMP JUMPDEST PUSH1 0x20 DUP3 ADD SWAP1 POP SWAP2 SWAP1 POP JUMP JUMPDEST PUSH1 0x0 PUSH1 0x20 DUP3 ADD SWAP1 POP DUP2 DUP2 SUB PUSH1 0x0 DUP4 ADD MSTORE PUSH2 0x3A9A DUP2 PUSH2 0x3A5E JUMP JUMPDEST SWAP1 POP SWAP2 SWAP1 POP JUMP JUMPDEST PUSH32 0x41203C206D696E00000000000000000000000000000000000000000000000000 PUSH1 0x0 DUP3 ADD MSTORE POP JUMP JUMPDEST PUSH1 0x0 PUSH2 0x3AD7 PUSH1 0x7 DUP4 PUSH2 0x2E6A JUMP JUMPDEST SWAP2 POP PUSH2 0x3AE2 DUP3 PUSH2 0x3AA1 JUMP JUMPDEST PUSH1 0x20 DUP3 ADD SWAP1 POP SWAP2 SWAP1 POP JUMP JUMPDEST PUSH1 0x0 PUSH1 0x20 DUP3 ADD SWAP1 POP DUP2 DUP2 SUB PUSH1 0x0 DUP4 ADD MSTORE PUSH2 0x3B06 DUP2 PUSH2 0x3ACA JUMP JUMPDEST SWAP1 POP SWAP2 SWAP1 POP JUMP JUMPDEST PUSH32 0x42203C206D696E00000000000000000000000000000000000000000000000000 PUSH1 0x0 DUP3 ADD MSTORE POP JUMP JUMPDEST PUSH1 0x0 PUSH2 0x3B43 PUSH1 0x7 DUP4 PUSH2 0x2E6A JUMP JUMPDEST SWAP2 POP PUSH2 0x3B4E DUP3 PUSH2 0x3B0D JUMP JUMPDEST PUSH1 0x20 DUP3 ADD SWAP1 POP SWAP2 SWAP1 POP JUMP JUMPDEST PUSH1 0x0 PUSH1 0x20 DUP3 ADD SWAP1 POP DUP2 DUP2 SUB PUSH1 0x0 DUP4 ADD MSTORE PUSH2 0x3B72 DUP2 PUSH2 0x3B36 JUMP JUMPDEST SWAP1 POP SWAP2 SWAP1 POP JUMP JUMPDEST PUSH32 0x4C50206C6F770000000000000000000000000000000000000000000000000000 PUSH1 0x0 DUP3 ADD MSTORE POP JUMP JUMPDEST PUSH1 0x0 PUSH2 0x3BAF PUSH1 0x6 DUP4 PUSH2 0x2E6A JUMP JUMPDEST SWAP2 POP PUSH2 0x3BBA DUP3 PUSH2 0x3B79 JUMP JUMPDEST PUSH1 0x20 DUP3 ADD SWAP1 POP SWAP2 SWAP1 POP JUMP JUMPDEST PUSH1 0x0 PUSH1 0x20 DUP3 ADD SWAP1 POP DUP2 DUP2 SUB PUSH1 0x0 DUP4 ADD MSTORE PUSH2 0x3BDE DUP2 PUSH2 0x3BA2 JUMP JUMPDEST SWAP1 POP SWAP2 SWAP1 POP JUMP JUMPDEST PUSH32 0x7265736572766573206C6F770000000000000000000000000000000000000000 PUSH1 0x0 DUP3 ADD MSTORE POP JUMP JUMPDEST PUSH1 0x0 PUSH2 0x3C1B PUSH1 0xC DUP4 PUSH2 0x2E6A JUMP JUMPDEST SWAP2 POP PUSH2 0x3C26 DUP3 PUSH2 0x3BE5 JUMP JUMPDEST PUSH1 0x20 DUP3 ADD SWAP1 POP SWAP2 SWAP1 POP JUMP JUMPDEST PUSH1 0x0 PUSH1 0x20 DUP3 ADD SWAP1 POP DUP2 DUP2 SUB PUSH1 0x0 DUP4 ADD MSTORE PUSH2 0x3C4A DUP2 PUSH2 0x3C0E JUMP JUMPDEST SWAP1 POP SWAP2 SWAP1 POP JUMP JUMPDEST PUSH32 0x42206C6F77000000000000000000000000000000000000000000000000000000 PUSH1 0x0 DUP3 ADD MSTORE POP JUMP JUMPDEST PUSH1 0x0 PUSH2 0x3C87 PUSH1 0x5 DUP4 PUSH2 0x2E6A JUMP JUMPDEST SWAP2 POP PUSH2 0x3C92 DUP3 PUSH2 0x3C51 JUMP JUMPDEST PUSH1 0x20 DUP3 ADD SWAP1 POP SWAP2 SWAP1 POP JUMP JUMPDEST PUSH1 0x0 PUSH1 0x20 DUP3 ADD SWAP1 POP DUP2 DUP2 SUB PUSH1 0x0 DUP4 ADD MSTORE PUSH2 0x3CB6 DUP2 PUSH2 0x3C7A JUMP JUMPDEST SWAP1 POP SWAP2 SWAP1 POP JUMP JUMPDEST PUSH32 0x4120686967680000000000000000000000000000000000000000000000000000 PUSH1 0x0 DUP3 ADD MSTORE POP JUMP JUMPDEST PUSH1 0x0 PUSH2 0x3CF3 PUSH1 0x6 DUP4 PUSH2 0x2E6A JUMP JUMPDEST SWAP2 POP PUSH2 0x3CFE DUP3 PUSH2 0x3CBD JUMP JUMPDEST PUSH1 0x20 DUP3 ADD SWAP1 POP SWAP2 SWAP1 POP JUMP JUMPDEST PUSH1 0x0 PUSH1 0x20 DUP3 ADD SWAP1 POP DUP2 DUP2 SUB PUSH1 0x0 DUP4 ADD MSTORE PUSH2 0x3D22 DUP2 PUSH2 0x3CE6 JUMP JUMPDEST SWAP1 POP SWAP2 SWAP1 POP JUMP JUMPDEST PUSH32 0x41206C6F77000000000000000000000000000000000000000000000000000000 PUSH1 0x0 DUP3 ADD MSTORE POP JUMP JUMPDEST PUSH1 0x0 PUSH2 0x3D5F PUSH1 0x5 DUP4 PUSH2 0x2E6A JUMP JUMPDEST SWAP2 POP PUSH2 0x3D6A DUP3 PUSH2 0x3D29 JUMP JUMPDEST PUSH1 0x20 DUP3 ADD SWAP1 POP SWAP2 SWAP1 POP JUMP JUMPDEST PUSH1 0x0 PUSH1 0x20 DUP3 ADD SWAP1 POP DUP2 DUP2 SUB PUSH1 0x0 DUP4 ADD MSTORE PUSH2 0x3D8E DUP2 PUSH2 0x3D52 JUMP JUMPDEST SWAP1 POP SWAP2 SWAP1 POP JUMP JUMPDEST PUSH32 0x7A65726F206C6971000000000000000000000000000000000000000000000000 PUSH1 0x0 DUP3 ADD MSTORE POP JUMP JUMPDEST PUSH1 0x0 PUSH2 0x3DCB PUSH1 0x8 DUP4 PUSH2 0x2E6A JUMP JUMPDEST SWAP2 POP PUSH2 0x3DD6 DUP3 PUSH2 0x3D95 JUMP JUMPDEST PUSH1 0x20 DUP3 ADD SWAP1 POP SWAP2 SWAP1 POP JUMP JUMPDEST PUSH1 0x0 PUSH1 0x20 DUP3 ADD SWAP1 POP DUP2 DUP2 SUB PUSH1 0x0 DUP4 ADD MSTORE PUSH2 0x3DFA DUP2 PUSH2 0x3DBE JUMP JUMPDEST SWAP1 POP SWAP2 SWAP1 POP JUMP INVALID LOG2 PUSH5 0x6970667358 0x22 SLT KECCAK256 EXTCODECOPY DUP4 0xD8 0xC0 0xDC MLOAD PUSH19 0x47A162AFB5CD7ED4726AE2E4922E029BC1AE32 CALLVALUE TIMESTAMP RETURNDATASIZE 0xF9 PUSH30 0xDA64736F6C634300081C0033000000000000000000000000000000000000 "},"methodIdentifiers":{"addLiquidity(address,address,uint256,uint256,uint256,uint256,address,uint256)":"e8e33700","decimals()":"313ce567","getAmountOut(uint256,uint256,uint256)":"054d50d4","getPrice(address,address)":"ac41865a","name()":"06fdde03","owner()":"8da5cb5b","removeLiquidity(address,address,uint256,uint256,uint256,address,uint256)":"baa2abde","reserveA()":"dc5fa6c5","reserveB()":"19e36f3b","swapExactTokensForTokens(uint256,uint256,address[],address,uint256)":"38ed1739","symbol()":"95d89b41","tokenA()":"0fc63d10","tokenB()":"5f64b55b"}}}}}