{"contracts/SimpleSwap.sol":{"SimpleSwap":{"abi":[{"inputs":[{"internalType":"address","name":"_tokenA","type":"address"},{"internalType":"address","name":"_tokenB","type":"address"}],"stateMutability":"nonpayable","type":"constructor"},{"anonymous":false,"inputs":[{"indexed":true,"internalType":"address","name":"provider","type":"address"},{"indexed":false,"internalType":"uint256","name":"amountA","type":"uint256"},{"indexed":false,"internalType":"uint256","name":"amountB","type":"uint256"},{"indexed":false,"internalType":"uint256","name":"liquidityMinted","type":"uint256"}],"name":"InitialLiquidityAdded","type":"event"},{"anonymous":false,"inputs":[{"indexed":true,"internalType":"address","name":"provider","type":"address"},{"indexed":false,"internalType":"uint256","name":"amountA","type":"uint256"},{"indexed":false,"internalType":"uint256","name":"amountB","type":"uint256"},{"indexed":false,"internalType":"uint256","name":"liquidityMinted","type":"uint256"}],"name":"LiquidityAdded","type":"event"},{"anonymous":false,"inputs":[{"indexed":true,"internalType":"address","name":"provider","type":"address"},{"indexed":false,"internalType":"uint256","name":"amountA","type":"uint256"},{"indexed":false,"internalType":"uint256","name":"amountB","type":"uint256"},{"indexed":false,"internalType":"uint256","name":"liquidityBurned","type":"uint256"}],"name":"LiquidityRemoved","type":"event"},{"anonymous":false,"inputs":[{"indexed":true,"internalType":"address","name":"swapper","type":"address"},{"indexed":false,"internalType":"address","name":"tokenIn","type":"address"},{"indexed":false,"internalType":"uint256","name":"amountIn","type":"uint256"},{"indexed":false,"internalType":"address","name":"tokenOut","type":"address"},{"indexed":false,"internalType":"uint256","name":"amountOut","type":"uint256"}],"name":"TokensSwapped","type":"event"},{"inputs":[{"internalType":"address","name":"tokenA_","type":"address"},{"internalType":"address","name":"tokenB_","type":"address"},{"internalType":"uint256","name":"amountADesired","type":"uint256"},{"internalType":"uint256","name":"amountBDesired","type":"uint256"},{"internalType":"uint256","name":"amountAMin","type":"uint256"},{"internalType":"uint256","name":"amountBMin","type":"uint256"},{"internalType":"address","name":"to","type":"address"},{"internalType":"uint256","name":"deadline","type":"uint256"}],"name":"addLiquidity","outputs":[{"internalType":"uint256","name":"amountA","type":"uint256"},{"internalType":"uint256","name":"amountB","type":"uint256"},{"internalType":"uint256","name":"liquidity","type":"uint256"}],"stateMutability":"nonpayable","type":"function"},{"inputs":[{"internalType":"uint256","name":"amountIn","type":"uint256"},{"internalType":"uint256","name":"reserveIn","type":"uint256"},{"internalType":"uint256","name":"reserveOut","type":"uint256"}],"name":"getAmountOut","outputs":[{"internalType":"uint256","name":"amountOut","type":"uint256"}],"stateMutability":"pure","type":"function"},{"inputs":[{"internalType":"address","name":"tokenA_","type":"address"},{"internalType":"address","name":"tokenB_","type":"address"}],"name":"getPrice","outputs":[{"internalType":"uint256","name":"price","type":"uint256"}],"stateMutability":"view","type":"function"},{"inputs":[],"name":"lpToken","outputs":[{"internalType":"contract LPToken","name":"","type":"address"}],"stateMutability":"view","type":"function"},{"inputs":[],"name":"owner","outputs":[{"internalType":"address","name":"","type":"address"}],"stateMutability":"view","type":"function"},{"inputs":[{"internalType":"address","name":"tokenA_","type":"address"},{"internalType":"address","name":"tokenB_","type":"address"},{"internalType":"uint256","name":"liquidity","type":"uint256"},{"internalType":"uint256","name":"amountAMin","type":"uint256"},{"internalType":"uint256","name":"amountBMin","type":"uint256"},{"internalType":"address","name":"to","type":"address"},{"internalType":"uint256","name":"deadline","type":"uint256"}],"name":"removeLiquidity","outputs":[{"internalType":"uint256","name":"amountA","type":"uint256"},{"internalType":"uint256","name":"amountB","type":"uint256"}],"stateMutability":"nonpayable","type":"function"},{"inputs":[],"name":"reserveA","outputs":[{"internalType":"uint256","name":"","type":"uint256"}],"stateMutability":"view","type":"function"},{"inputs":[],"name":"reserveB","outputs":[{"internalType":"uint256","name":"","type":"uint256"}],"stateMutability":"view","type":"function"},{"inputs":[{"internalType":"uint256","name":"amountIn","type":"uint256"},{"internalType":"uint256","name":"amountOutMin","type":"uint256"},{"internalType":"address[]","name":"path","type":"address[]"},{"internalType":"address","name":"to","type":"address"},{"internalType":"uint256","name":"deadline","type":"uint256"}],"name":"swapExactTokensForTokens","outputs":[{"internalType":"uint256[]","name":"amounts","type":"uint256[]"}],"stateMutability":"nonpayable","type":"function"},{"inputs":[],"name":"tokenA","outputs":[{"internalType":"address","name":"","type":"address"}],"stateMutability":"view","type":"function"},{"inputs":[],"name":"tokenB","outputs":[{"internalType":"address","name":"","type":"address"}],"stateMutability":"view","type":"function"}],"evm":{"bytecode":{"linkReferences":{},"object":"608060405234801561001057600080fd5b50604051615b4f380380615b4f83398181016040528101906100329190610264565b61004c67afa76213d09caf1b60c01b6101f160201b60201c565b610066670e43bbb992220b6760c01b6101f160201b60201c565b30604051610073906101f4565b61007d919061035c565b604051809103906000f080158015610099573d6000803e3d6000fd5b506000806101000a81548173ffffffffffffffffffffffffffffffffffffffff021916908373ffffffffffffffffffffffffffffffffffffffff1602179055506100f367b7b64eb168e6da1160c01b6101f160201b60201c565b81600160006101000a81548173ffffffffffffffffffffffffffffffffffffffff021916908373ffffffffffffffffffffffffffffffffffffffff16021790555061014e67211e165515084ff460c01b6101f160201b60201c565b80600260006101000a81548173ffffffffffffffffffffffffffffffffffffffff021916908373ffffffffffffffffffffffffffffffffffffffff1602179055506101a9678c8e108c9524752160c01b6101f160201b60201c565b33600560006101000a81548173ffffffffffffffffffffffffffffffffffffffff021916908373ffffffffffffffffffffffffffffffffffffffff160217905550505061039d565b50565b611a83806140cc83390190565b600080fd5b600073ffffffffffffffffffffffffffffffffffffffff82169050919050565b600061023182610206565b9050919050565b61024181610226565b811461024c57600080fd5b50565b60008151905061025e81610238565b92915050565b6000806040838503121561027b5761027a610201565b5b60006102898582860161024f565b925050602061029a8582860161024f565b9150509250929050565b600082825260208201905092915050565b7f53696d706c6553776170204c5020546f6b656e00000000000000000000000000600082015250565b60006102eb6013836102a4565b91506102f6826102b5565b602082019050919050565b7f53534c5000000000000000000000000000000000000000000000000000000000600082015250565b60006103376004836102a4565b915061034282610301565b602082019050919050565b61035681610226565b82525050565b60006060820190508181036000830152610375816102de565b905081810360208301526103888161032a565b9050610397604083018461034d565b92915050565b613d20806103ac6000396000f3fe608060405234801561001057600080fd5b50600436106100a95760003560e01c80635fcbd285116100715780635fcbd285146101685780638da5cb5b14610186578063ac41865a146101a4578063baa2abde146101d4578063dc5fa6c514610205578063e8e3370014610223576100a9565b8063054d50d4146100ae5780630fc63d10146100de57806319e36f3b146100fc57806338ed17391461011a5780635f64b55b1461014a575b600080fd5b6100c860048036038101906100c39190612d47565b610255565b6040516100d59190612da9565b60405180910390f35b6100e6610404565b6040516100f39190612e05565b60405180910390f35b61010461042a565b6040516101119190612da9565b60405180910390f35b610134600480360381019061012f9190612eb1565b610430565b6040516101419190613009565b60405180910390f35b61015261116b565b60405161015f9190612e05565b60405180910390f35b610170611191565b60405161017d919061308a565b60405180910390f35b61018e6111b5565b60405161019b9190612e05565b60405180910390f35b6101be60048036038101906101b991906130a5565b6111db565b6040516101cb9190612da9565b60405180910390f35b6101ee60048036038101906101e991906130e5565b6115a3565b6040516101fc929190613187565b60405180910390f35b61020d611f68565b60405161021a9190612da9565b60405180910390f35b61023d600480360381019061023891906131b0565b611f6e565b60405161024c93929190613266565b60405180910390f35b600061026b67afce08a1dc76a48b60c01b612b1f565b61027f678a14316c56b4b11760c01b612b1f565b61029367133af24bf511773a60c01b612b1f565b6102a767e61c7a1f89965c2160c01b612b1f565b600084116102ea576040517f08c379a00000000000000000000000000000000000000000000000000000000081526004016102e1906132fa565b60405180910390fd5b6102fe67d0d4e7d723ec8b7a60c01b612b1f565b610312679b589cba02c60fb860c01b612b1f565b61032667bc1f0106f9a78a8960c01b612b1f565b61033a67e21b6268538f44ec60c01b612b1f565b60008311801561034a5750600082115b610389576040517f08c379a000000000000000000000000000000000000000000000000000000000815260040161038090613366565b60405180910390fd5b61039d670fa5e9948f54e05560c01b612b1f565b6103b167df2db2d3c734e31760c01b612b1f565b83836103bd91906133b5565b82856103c991906133e9565b6103d3919061345a565b90506103e9670cf625502025c78e60c01b612b1f565b6103fd679014a30f16e5f7ac60c01b612b1f565b9392505050565b600160009054906101000a900473ffffffffffffffffffffffffffffffffffffffff1681565b60045481565b606061044667927df9618b00cde060c01b612b1f565b61045a677272b7edf79208a560c01b612b1f565b61046e6752663b4add082b6560c01b612b1f565b610482673baf8b3ed132afa460c01b612b1f565b4282116104c4576040517f08c379a00000000000000000000000000000000000000000000000000000000081526004016104bb906134d7565b60405180910390fd5b6104d86773cd13c04687880960c01b612b1f565b6104ec672a11b3a5b0f9cda060c01b612b1f565b61050067859f0a48f4fe650860c01b612b1f565b61051467b21bb9620d71da5260c01b612b1f565b6002858590501480156105a3575084846001818110610536576105356134f7565b5b905060200201602081019061054b9190613526565b73ffffffffffffffffffffffffffffffffffffffff1685856000818110610575576105746134f7565b5b905060200201602081019061058a9190613526565b73ffffffffffffffffffffffffffffffffffffffff1614155b6105e2576040517f08c379a00000000000000000000000000000000000000000000000000000000081526004016105d99061359f565b60405180910390fd5b6105f667122622b53be22f2d60c01b612b1f565b61060a6781637d8895ba28a360c01b612b1f565b61061e6770c7794e1fb7aab260c01b612b1f565b61063267f9fdb0781832321960c01b612b1f565b60008711610675576040517f08c379a000000000000000000000000000000000000000000000000000000000815260040161066c9061360b565b60405180910390fd5b61068967a2769ef6fd903ac460c01b612b1f565b61069d67b4dc9356961aa79260c01b612b1f565b6106b167be41a98f7de10e8460c01b612b1f565b60006040518060400160405280600160009054906101000a900473ffffffffffffffffffffffffffffffffffffffff1673ffffffffffffffffffffffffffffffffffffffff168152602001600260009054906101000a900473ffffffffffffffffffffffffffffffffffffffff1673ffffffffffffffffffffffffffffffffffffffff16815250905061074e67fc498058c7f74ea660c01b612b1f565b61076267b0762056f5a79ab560c01b612b1f565b6000600354905061077d67ef51f09a9a88e7da60c01b612b1f565b610791671c1d4f00350779a660c01b612b1f565b600060045490506107ac67c258c1c29afaa91460c01b612b1f565b6107c067786c714c6531ded360c01b612b1f565b6107d4675d053a39cbb6bd2c60c01b612b1f565b826000015173ffffffffffffffffffffffffffffffffffffffff1688886000818110610803576108026134f7565b5b90506020020160208101906108189190613526565b73ffffffffffffffffffffffffffffffffffffffff161480156108925750826020015173ffffffffffffffffffffffffffffffffffffffff1688886001818110610865576108646134f7565b5b905060200201602081019061087a9190613526565b73ffffffffffffffffffffffffffffffffffffffff16145b80156108ae57506108ad6777b421798d4bbf8b60c01b612b22565b5b8061098f5750826020015173ffffffffffffffffffffffffffffffffffffffff16888860008181106108e3576108e26134f7565b5b90506020020160208101906108f89190613526565b73ffffffffffffffffffffffffffffffffffffffff161480156109725750826000015173ffffffffffffffffffffffffffffffffffffffff1688886001818110610945576109446134f7565b5b905060200201602081019061095a9190613526565b73ffffffffffffffffffffffffffffffffffffffff16145b801561098e575061098d671730ba1c504f708660c01b612b22565b5b5b6109ce576040517f08c379a00000000000000000000000000000000000000000000000000000000081526004016109c59061359f565b60405180910390fd5b6109e267910e99ac159e972b60c01b612b1f565b6109f667c7da7149aa2930c260c01b612b1f565b610a0a679793e7b36d7c9dc160c01b612b1f565b6000610a2067c26edad64174d3d660c01b612b1f565b610a3467ae950aefc52da0d660c01b612b1f565b836000015173ffffffffffffffffffffffffffffffffffffffff1689896000818110610a6357610a626134f7565b5b9050602002016020810190610a789190613526565b73ffffffffffffffffffffffffffffffffffffffff1603610d1b57610aa767469d0b87d4d61b3360c01b612b1f565b610abb6723bd17533d064ee760c01b612b1f565b610acf670384d6883d98b59460c01b612b1f565b836000015173ffffffffffffffffffffffffffffffffffffffff166323b872dd33308e6040518463ffffffff1660e01b8152600401610b109392919061362b565b6020604051808303816000875af1158015610b2f573d6000803e3d6000fd5b505050506040513d601f19601f82011682018060405250810190610b53919061369a565b50610b6867dd32eedda0a221d660c01b612b1f565b8a83610b7491906133b5565b828c610b8091906133e9565b610b8a919061345a565b9050610ba06741be2abdcc9133d860c01b612b1f565b610bb46740f627b27945c37860c01b612b1f565b610bc867fc64b40c3cfe5fc260c01b612b1f565b89811015610c0b576040517f08c379a0000000000000000000000000000000000000000000000000000000008152600401610c0290613713565b60405180910390fd5b610c1f67ca1b1c8c0325acdd60c01b612b1f565b610c3367a2e91fcc53e9a09760c01b612b1f565b610c476710d62a01b41c1cdc60c01b612b1f565b836020015173ffffffffffffffffffffffffffffffffffffffff1663a9059cbb88836040518363ffffffff1660e01b8152600401610c86929190613733565b6020604051808303816000875af1158015610ca5573d6000803e3d6000fd5b505050506040513d601f19601f82011682018060405250810190610cc9919061369a565b50610cde678dcadb22b852870e60c01b612b1f565b8a83610cea91906133b5565b600381905550610d0467b136fcaa71607d3860c01b612b1f565b8082610d10919061375c565b600481905550610f9f565b610d2f67fe85dae170d404f660c01b612b1f565b610d436741c2a81bc228923460c01b612b1f565b610d576765624e39aa424a1a60c01b612b1f565b836020015173ffffffffffffffffffffffffffffffffffffffff166323b872dd33308e6040518463ffffffff1660e01b8152600401610d989392919061362b565b6020604051808303816000875af1158015610db7573d6000803e3d6000fd5b505050506040513d601f19601f82011682018060405250810190610ddb919061369a565b50610df0677b4c5c9fdad7a1dc60c01b612b1f565b8a82610dfc91906133b5565b838c610e0891906133e9565b610e12919061345a565b9050610e2867db7c34a798d8028160c01b612b1f565b610e3c675eca881be89a529860c01b612b1f565b610e5067678944b377108b1560c01b612b1f565b89811015610e93576040517f08c379a0000000000000000000000000000000000000000000000000000000008152600401610e8a90613713565b60405180910390fd5b610ea767e8dc1d648708122260c01b612b1f565b610ebb675220b151c79309ca60c01b612b1f565b610ecf673abf66949540149e60c01b612b1f565b836000015173ffffffffffffffffffffffffffffffffffffffff1663a9059cbb88836040518363ffffffff1660e01b8152600401610f0e929190613733565b6020604051808303816000875af1158015610f2d573d6000803e3d6000fd5b505050506040513d601f19601f82011682018060405250810190610f51919061369a565b50610f6667643aae1a30cb725e60c01b612b1f565b8083610f72919061375c565b600381905550610f8c67ac16aed25ee1428c60c01b612b1f565b8a82610f9891906133b5565b6004819055505b610fb36775f2a07ee0b4287460c01b612b1f565b600267ffffffffffffffff811115610fce57610fcd613790565b5b604051908082528060200260200182016040528015610ffc5781602001602082028036833780820191505090505b5094506110136751bc466dd120172660c01b612b1f565b8a85600081518110611028576110276134f7565b5b602002602001018181525050611048677df208b2e6cb324660c01b612b1f565b808560018151811061105d5761105c6134f7565b5b60200260200101818152505061107d6733eb778961420ae560c01b612b1f565b611091672a235aff65f1e59060c01b612b1f565b3373ffffffffffffffffffffffffffffffffffffffff167f631fb37dba9bbcb8b2f3be2d669e365ae9f1bd850cc57dfe8b7ccd7d979a2bba8a8a60008181106110dd576110dc6134f7565b5b90506020020160208101906110f29190613526565b8d8c8c6001818110611107576111066134f7565b5b905060200201602081019061111c9190613526565b8560405161112d94939291906137bf565b60405180910390a2611149670f561cfdb2bcb03060c01b612b1f565b61115d67247b345f9d2a9c4960c01b612b1f565b505050509695505050505050565b600260009054906101000a900473ffffffffffffffffffffffffffffffffffffffff1681565b60008054906101000a900473ffffffffffffffffffffffffffffffffffffffff1681565b600560009054906101000a900473ffffffffffffffffffffffffffffffffffffffff1681565b60006111f167c0cc46dc0117b2f060c01b612b1f565b61120567982c91054d74e95860c01b612b1f565b611219675dd2e1e05e27b39360c01b612b1f565b60006040518060400160405280600160009054906101000a900473ffffffffffffffffffffffffffffffffffffffff1673ffffffffffffffffffffffffffffffffffffffff168152602001600260009054906101000a900473ffffffffffffffffffffffffffffffffffffffff1673ffffffffffffffffffffffffffffffffffffffff1681525090506112b667fb51bec7b9b841f660c01b612b1f565b6112ca67c33a66768b73e28660c01b612b1f565b6112de674262f52215d7238760c01b612b1f565b806000015173ffffffffffffffffffffffffffffffffffffffff168473ffffffffffffffffffffffffffffffffffffffff1614801561134c5750806020015173ffffffffffffffffffffffffffffffffffffffff168373ffffffffffffffffffffffffffffffffffffffff16145b8015611368575061136767f1d1f535cff22f9760c01b612b22565b5b806113f95750806020015173ffffffffffffffffffffffffffffffffffffffff168473ffffffffffffffffffffffffffffffffffffffff161480156113dc5750806000015173ffffffffffffffffffffffffffffffffffffffff168373ffffffffffffffffffffffffffffffffffffffff16145b80156113f857506113f767295620ae867e3baa60c01b612b22565b5b5b611438576040517f08c379a000000000000000000000000000000000000000000000000000000000815260040161142f90613850565b60405180910390fd5b61144c67c52afa1ce6f59beb60c01b612b1f565b611460679b5ae3d7847c314f60c01b612b1f565b611474673e374ba16b6f705a60c01b612b1f565b6000600354905061148f67eb2f7a1550dca04c60c01b612b1f565b6114a367d33e8f33c13a99e360c01b612b1f565b600060045490506114be67ea01e298bf4ec32f60c01b612b1f565b6114d2676d37225f6955d91c60c01b612b1f565b6114e66766b7eaf003e9c2ec60c01b612b1f565b60008211611529576040517f08c379a0000000000000000000000000000000000000000000000000000000008152600401611520906138bc565b60405180910390fd5b61153d672afdc6dc0832a5d960c01b612b1f565b6115516758019e569f57f1ba60c01b612b1f565b81670de0b6b3a76400008261156691906133e9565b611570919061345a565b935061158667f549eec4cb24472f60c01b612b1f565b61159a677298bf02ff6222fe60c01b612b1f565b50505092915050565b6000806115ba67058a88a2b74d18ae60c01b612b1f565b6115ce67b7e8edc06b2605d060c01b612b1f565b6115e267f010d9830fa8ab0c60c01b612b1f565b6115f6676f8f881dff7b980560c01b612b1f565b428311611638576040517f08c379a000000000000000000000000000000000000000000000000000000000815260040161162f906134d7565b60405180910390fd5b61164c67ae8d1b78a77ab70560c01b612b1f565b61166067605c5c7165039acc60c01b612b1f565b611674673fa0fb9b46bc193d60c01b612b1f565b60006040518060400160405280600160009054906101000a900473ffffffffffffffffffffffffffffffffffffffff1673ffffffffffffffffffffffffffffffffffffffff168152602001600260009054906101000a900473ffffffffffffffffffffffffffffffffffffffff1673ffffffffffffffffffffffffffffffffffffffff168152509050611711679f4ba385491b981a60c01b612b1f565b611725674a2ff02d524ea3ef60c01b612b1f565b6117396722ae50b9cda1ee4560c01b612b1f565b806000015173ffffffffffffffffffffffffffffffffffffffff168a73ffffffffffffffffffffffffffffffffffffffff161480156117a75750806020015173ffffffffffffffffffffffffffffffffffffffff168973ffffffffffffffffffffffffffffffffffffffff16145b6117e6576040517f08c379a00000000000000000000000000000000000000000000000000000000081526004016117dd90613928565b60405180910390fd5b6117fa677b8dc538e005022260c01b612b1f565b61180e67e586009c64820ba360c01b612b1f565b61182267284e94b5c27db3ed60c01b612b1f565b6000600354905061183d67f12e5c1115338a9e60c01b612b1f565b6118516766e9b651c91db0f560c01b612b1f565b6000600454905061186c67c39fd16a9214fed160c01b612b1f565b61188067d163a8741bcee63260c01b612b1f565b60008060009054906101000a900473ffffffffffffffffffffffffffffffffffffffff1673ffffffffffffffffffffffffffffffffffffffff166318160ddd6040518163ffffffff1660e01b8152600401602060405180830381865afa1580156118ee573d6000803e3d6000fd5b505050506040513d601f19601f82011682018060405250810190611912919061395d565b9050611928674dbeedc3c678c2f060c01b612b1f565b80838c61193591906133e9565b61193f919061345a565b9550611955671a1d8ef797ecbae560c01b612b1f565b80828c61196291906133e9565b61196c919061345a565b9450611982673333e06883ab31ef60c01b612b1f565b61199667ca7429e72c70146260c01b612b1f565b6119aa675c41997cd4734d9160c01b612b1f565b898610156119ed576040517f08c379a00000000000000000000000000000000000000000000000000000000081526004016119e4906139d6565b60405180910390fd5b611a01675cd899cd5ae0eda360c01b612b1f565b611a1567b5f2f36dd9a2a20360c01b612b1f565b611a296710691983c9b7e69260c01b612b1f565b611a3d67b0af98a3a8e7192b60c01b612b1f565b88851015611a80576040517f08c379a0000000000000000000000000000000000000000000000000000000008152600401611a7790613a42565b60405180910390fd5b611a9467ea24f9b24ba4a45e60c01b612b1f565b611aa867d33688df8f105a2a60c01b612b1f565b611abc676c4f3d555a10cc1160c01b612b1f565b611ad0677f6ca7d9a11052c060c01b612b1f565b8a60008054906101000a900473ffffffffffffffffffffffffffffffffffffffff1673ffffffffffffffffffffffffffffffffffffffff166370a08231336040518263ffffffff1660e01b8152600401611b2a9190612e05565b602060405180830381865afa158015611b47573d6000803e3d6000fd5b505050506040513d601f19601f82011682018060405250810190611b6b919061395d565b1015611bac576040517f08c379a0000000000000000000000000000000000000000000000000000000008152600401611ba390613aae565b60405180910390fd5b611bc0677348fcfb9e68910860c01b612b1f565b611bd467b7ce76458e49c5fa60c01b612b1f565b611be86702f9187a6188d73c60c01b612b1f565b611bfc67bc6b5aed9f6e3a0a60c01b612b1f565b858310158015611c0c5750848210155b611c4b576040517f08c379a0000000000000000000000000000000000000000000000000000000008152600401611c4290613b1a565b60405180910390fd5b611c5f67c36bdbcf5b5e453b60c01b612b1f565b611c73673fbf57cb7868560560c01b612b1f565b611c8767590191a93cd85aec60c01b612b1f565b60008054906101000a900473ffffffffffffffffffffffffffffffffffffffff1673ffffffffffffffffffffffffffffffffffffffff166379cc6790338d6040518363ffffffff1660e01b8152600401611ce2929190613733565b600060405180830381600087803b158015611cfc57600080fd5b505af1158015611d10573d6000803e3d6000fd5b50505050611d28679bbe50c252ce6c9860c01b612b1f565b611d3c6745e957efd64089c760c01b612b1f565b836000015173ffffffffffffffffffffffffffffffffffffffff1663a9059cbb89886040518363ffffffff1660e01b8152600401611d7b929190613733565b6020604051808303816000875af1158015611d9a573d6000803e3d6000fd5b505050506040513d601f19601f82011682018060405250810190611dbe919061369a565b50611dd367778c21bc5bc4749d60c01b612b1f565b611de7671e4c46b2f9874bd560c01b612b1f565b836020015173ffffffffffffffffffffffffffffffffffffffff1663a9059cbb89876040518363ffffffff1660e01b8152600401611e26929190613733565b6020604051808303816000875af1158015611e45573d6000803e3d6000fd5b505050506040513d601f19601f82011682018060405250810190611e69919061369a565b50611e7e675d50d96a1b6cd4e560c01b612b1f565b8583611e8a919061375c565b600381905550611ea46768392988124c1a1c60c01b612b1f565b8482611eb0919061375c565b600481905550611eca67c5ed206c72d1923d60c01b612b1f565b611ede67774bd6a07f92bf4a60c01b612b1f565b3373ffffffffffffffffffffffffffffffffffffffff167f1dc8bb69df2b8e91fbdcbfcf93d951b3f0000f085a95fe3f7946d6161439245d87878e604051611f2893929190613266565b60405180910390a2611f4467d8b44a31f769b1b760c01b612b1f565b611f5867983d4d7dfcdfdfab60c01b612b1f565b5050505097509795505050505050565b60035481565b6000806000611f87678fa0268ab256728260c01b612b1f565b611f9b67a8551ff4bb553cbd60c01b612b1f565b611faf67c9f47d9068a08adf60c01b612b1f565b60006040518060400160405280600160009054906101000a900473ffffffffffffffffffffffffffffffffffffffff1673ffffffffffffffffffffffffffffffffffffffff168152602001600260009054906101000a900473ffffffffffffffffffffffffffffffffffffffff1673ffffffffffffffffffffffffffffffffffffffff16815250905061204c672dc9ff18dfc75ced60c01b612b1f565b612060671690bcd39df79e5f60c01b612b1f565b61207467da8675b78be003e760c01b612b1f565b4285116120b6576040517f08c379a00000000000000000000000000000000000000000000000000000000081526004016120ad906134d7565b60405180910390fd5b6120ca6730bf962f7d2ca53860c01b612b1f565b6120de67a7fc02c9b8c02b5260c01b612b1f565b6120f267783124e0c61d488e60c01b612b1f565b61210667e0c7e0d0813fbe1060c01b612b1f565b806000015173ffffffffffffffffffffffffffffffffffffffff168c73ffffffffffffffffffffffffffffffffffffffff161480156121745750806020015173ffffffffffffffffffffffffffffffffffffffff168b73ffffffffffffffffffffffffffffffffffffffff16145b6121b3576040517f08c379a00000000000000000000000000000000000000000000000000000000081526004016121aa90613928565b60405180910390fd5b6121c7679071602cd6cd1ef960c01b612b1f565b6121db6754b22f793e3024a760c01b612b1f565b6121ef67f19bd12ea49beef160c01b612b1f565b6000600354905061220a67e9ddfa9f7c44e81d60c01b612b1f565b61221e678abe8d729780b58c60c01b612b1f565b6000600454905061223967c4297a67d23a0d6e60c01b612b1f565b61224d6750f30c0da8329a0a60c01b612b1f565b60008060009054906101000a900473ffffffffffffffffffffffffffffffffffffffff1673ffffffffffffffffffffffffffffffffffffffff166318160ddd6040518163ffffffff1660e01b8152600401602060405180830381865afa1580156122bb573d6000803e3d6000fd5b505050506040513d601f19601f820116820180604052508101906122df919061395d565b90506122f5676979d86489ad5d8960c01b612b1f565b612309679d768ef50f96d4a160c01b612b1f565b6000831480156123195750600082145b1561236557612332674dbd696e71ad95cd60c01b612b1f565b612346674e343ca412f45c6d60c01b612b1f565b8c965061235d672056249f187f963660c01b612b1f565b8b955061269c565b6123796701342473a281aa0d60c01b612b1f565b61238d67f8d7c3947479ba1260c01b612b1f565b6123a167bf01d5650022c49a60c01b612b1f565b6123b567fcf462897f305f9360c01b612b1f565b600083838f6123c491906133e9565b6123ce919061345a565b90506123e4675bb95a408ce7c54760c01b612b1f565b6123f867c980f00b79d61e1560c01b612b1f565b8c81116124d95761241367b81bb7dff99c167260c01b612b1f565b61242767e2ff51304dae939560c01b612b1f565b61243b677dfae0e94fe95d8560c01b612b1f565b61244f6758dcab2a03794f6860c01b612b1f565b8a811015612492576040517f08c379a000000000000000000000000000000000000000000000000000000000815260040161248990613b86565b60405180910390fd5b6124a6672b75bbf1072e62a960c01b612b1f565b6124ba67981f13b2c879afdd60c01b612b1f565b8d97506124d167cb1647703f8dee2760c01b612b1f565b80965061269a565b6124ed6755e6c3b224d7e82660c01b612b1f565b612501675460b615899388bf60c01b612b1f565b612515678aeabc7e0eb1122660c01b612b1f565b612529672f73894fcba2596660c01b612b1f565b600083858f61253891906133e9565b612542919061345a565b90506125586772462fd851bd096760c01b612b1f565b61256c679478b109416fef6660c01b612b1f565b612580677ee054120af72fe360c01b612b1f565b8e8111156125c3576040517f08c379a00000000000000000000000000000000000000000000000000000000081526004016125ba90613bf2565b60405180910390fd5b6125d7677905d886b1d68e2f60c01b612b1f565b6125eb678a38eb051d1cab1b60c01b612b1f565b6125ff6762adaf830d93cfc560c01b612b1f565b61261367c91ffb41170e518a60c01b612b1f565b8c811015612656576040517f08c379a000000000000000000000000000000000000000000000000000000000815260040161264d90613c5e565b60405180910390fd5b61266a676baf7420b58fdf4360c01b612b1f565b61267e67aefdb0d7f1f5ee2360c01b612b1f565b80985061269567b2af4a7af0cefca860c01b612b1f565b8d9750505b505b6126af666742a3c13e37fd60c01b612b1f565b6126c3677683d69b4a91f8ae60c01b612b1f565b836000015173ffffffffffffffffffffffffffffffffffffffff166323b872dd33308a6040518463ffffffff1660e01b81526004016127049392919061362b565b6020604051808303816000875af1158015612723573d6000803e3d6000fd5b505050506040513d601f19601f82011682018060405250810190612747919061369a565b5061275c67354198f1519f388f60c01b612b1f565b61277067b631b689f5570e9b60c01b612b1f565b836020015173ffffffffffffffffffffffffffffffffffffffff166323b872dd3330896040518463ffffffff1660e01b81526004016127b19392919061362b565b6020604051808303816000875af11580156127d0573d6000803e3d6000fd5b505050506040513d601f19601f820116820180604052508101906127f4919061369a565b5061280967af2fcba6bca8394a60c01b612b1f565b61281d673ab423a2116ca40d60c01b612b1f565b6000810361286857612839671405cd8acb3ffbd060c01b612b1f565b61284d67a3b0c64e8c6a264960c01b612b1f565b612861868861285c91906133e9565b612b2d565b94506128c9565b61287c67707c0af60eb3ae9560c01b612b1f565b61289067f6db3e0b3bc3f84760c01b612b1f565b6128c68382896128a091906133e9565b6128aa919061345a565b8383896128b791906133e9565b6128c1919061345a565b612cca565b94505b6128dd67f4a65ca00f60591860c01b612b1f565b6128f1677d4f831196278f5d60c01b612b1f565b6129056778786c99df27b6f960c01b612b1f565b60008511612948576040517f08c379a000000000000000000000000000000000000000000000000000000000815260040161293f90613cca565b60405180910390fd5b61295c67f4e1e906ea7b0add60c01b612b1f565b61297067bf4662c53407579160c01b612b1f565b866003600082825461298291906133b5565b9250508190555061299d6705973e236173061460c01b612b1f565b85600460008282546129af91906133b5565b925050819055506129ca6720cfd1775ab7a8ac60c01b612b1f565b6129de67c1a50fca2e0d938b60c01b612b1f565b60008054906101000a900473ffffffffffffffffffffffffffffffffffffffff1673ffffffffffffffffffffffffffffffffffffffff166340c10f198a876040518363ffffffff1660e01b8152600401612a39929190613733565b600060405180830381600087803b158015612a5357600080fd5b505af1158015612a67573d6000803e3d6000fd5b50505050612a7f6709ea4eb3cd73402960c01b612b1f565b612a9367abb8bb4ddd842d7360c01b612b1f565b3373ffffffffffffffffffffffffffffffffffffffff167f64b83944e79c3ce8d4c297411de637c3e102d064677aac0c163976ebdcd6f50e888888604051612add93929190613266565b60405180910390a2612af9679a0af59d3a04d5da60c01b612b1f565b612b0d67afa02fabc0d7e3a360c01b612b1f565b50505050985098509895505050505050565b50565b600060019050919050565b600060018211612b3f57819050612cc5565b60008290506000600190507001000000000000000000000000000000008210612b7157608082901c9150604081901b90505b680100000000000000008210612b9057604082901c9150602081901b90505b6401000000008210612bab57602082901c9150601081901b90505b620100008210612bc457601082901c9150600881901b90505b6101008210612bdc57600882901c9150600481901b90505b60108210612bf357600482901c9150600281901b90505b60048210612c0357600181901b90505b600181600302901c90506001818581612c1f57612c1e61342b565b5b048201901c90506001818581612c3857612c3761342b565b5b048201901c90506001818581612c5157612c5061342b565b5b048201901c90506001818581612c6a57612c6961342b565b5b048201901c90506001818581612c8357612c8261342b565b5b048201901c90506001818581612c9c57612c9b61342b565b5b048201901c9050612cbe818581612cb657612cb561342b565b5b048211612ce1565b8103925050505b919050565b6000612cd98284108484612ced565b905092915050565b60008115159050919050565b6000612cf884612ce1565b82841802821890509392505050565b600080fd5b600080fd5b6000819050919050565b612d2481612d11565b8114612d2f57600080fd5b50565b600081359050612d4181612d1b565b92915050565b600080600060608486031215612d6057612d5f612d07565b5b6000612d6e86828701612d32565b9350506020612d7f86828701612d32565b9250506040612d9086828701612d32565b9150509250925092565b612da381612d11565b82525050565b6000602082019050612dbe6000830184612d9a565b92915050565b600073ffffffffffffffffffffffffffffffffffffffff82169050919050565b6000612def82612dc4565b9050919050565b612dff81612de4565b82525050565b6000602082019050612e1a6000830184612df6565b92915050565b600080fd5b600080fd5b600080fd5b60008083601f840112612e4557612e44612e20565b5b8235905067ffffffffffffffff811115612e6257612e61612e25565b5b602083019150836020820283011115612e7e57612e7d612e2a565b5b9250929050565b612e8e81612de4565b8114612e9957600080fd5b50565b600081359050612eab81612e85565b92915050565b60008060008060008060a08789031215612ece57612ecd612d07565b5b6000612edc89828a01612d32565b9650506020612eed89828a01612d32565b955050604087013567ffffffffffffffff811115612f0e57612f0d612d0c565b5b612f1a89828a01612e2f565b94509450506060612f2d89828a01612e9c565b9250506080612f3e89828a01612d32565b9150509295509295509295565b600081519050919050565b600082825260208201905092915050565b6000819050602082019050919050565b612f8081612d11565b82525050565b6000612f928383612f77565b60208301905092915050565b6000602082019050919050565b6000612fb682612f4b565b612fc08185612f56565b9350612fcb83612f67565b8060005b83811015612ffc578151612fe38882612f86565b9750612fee83612f9e565b925050600181019050612fcf565b5085935050505092915050565b600060208201905081810360008301526130238184612fab565b905092915050565b6000819050919050565b600061305061304b61304684612dc4565b61302b565b612dc4565b9050919050565b600061306282613035565b9050919050565b600061307482613057565b9050919050565b61308481613069565b82525050565b600060208201905061309f600083018461307b565b92915050565b600080604083850312156130bc576130bb612d07565b5b60006130ca85828601612e9c565b92505060206130db85828601612e9c565b9150509250929050565b600080600080600080600060e0888a03121561310457613103612d07565b5b60006131128a828b01612e9c565b97505060206131238a828b01612e9c565b96505060406131348a828b01612d32565b95505060606131458a828b01612d32565b94505060806131568a828b01612d32565b93505060a06131678a828b01612e9c565b92505060c06131788a828b01612d32565b91505092959891949750929550565b600060408201905061319c6000830185612d9a565b6131a96020830184612d9a565b9392505050565b600080600080600080600080610100898b0312156131d1576131d0612d07565b5b60006131df8b828c01612e9c565b98505060206131f08b828c01612e9c565b97505060406132018b828c01612d32565b96505060606132128b828c01612d32565b95505060806132238b828c01612d32565b94505060a06132348b828c01612d32565b93505060c06132458b828c01612e9c565b92505060e06132568b828c01612d32565b9150509295985092959890939650565b600060608201905061327b6000830186612d9a565b6132886020830185612d9a565b6132956040830184612d9a565b949350505050565b600082825260208201905092915050565b7f616d6f756e74496e203c20300000000000000000000000000000000000000000600082015250565b60006132e4600c8361329d565b91506132ef826132ae565b602082019050919050565b60006020820190508181036000830152613313816132d7565b9050919050565b7f5265736572766573203c20300000000000000000000000000000000000000000600082015250565b6000613350600c8361329d565b915061335b8261331a565b602082019050919050565b6000602082019050818103600083015261337f81613343565b9050919050565b7f4e487b7100000000000000000000000000000000000000000000000000000000600052601160045260246000fd5b60006133c082612d11565b91506133cb83612d11565b92508282019050808211156133e3576133e2613386565b5b92915050565b60006133f482612d11565b91506133ff83612d11565b925082820261340d81612d11565b9150828204841483151761342457613423613386565b5b5092915050565b7f4e487b7100000000000000000000000000000000000000000000000000000000600052601260045260246000fd5b600061346582612d11565b915061347083612d11565b9250826134805761347f61342b565b5b828204905092915050565b7f5472616e73616374206578706972656400000000000000000000000000000000600082015250565b60006134c160108361329d565b91506134cc8261348b565b602082019050919050565b600060208201905081810360008301526134f0816134b4565b9050919050565b7f4e487b7100000000000000000000000000000000000000000000000000000000600052603260045260246000fd5b60006020828403121561353c5761353b612d07565b5b600061354a84828501612e9c565b91505092915050565b7f696e76616c696420746f6b656e73000000000000000000000000000000000000600082015250565b6000613589600e8361329d565b915061359482613553565b602082019050919050565b600060208201905081810360008301526135b88161357c565b9050919050565b7f616d6f756e74496e203000000000000000000000000000000000000000000000600082015250565b60006135f5600a8361329d565b9150613600826135bf565b602082019050919050565b60006020820190508181036000830152613624816135e8565b9050919050565b60006060820190506136406000830186612df6565b61364d6020830185612df6565b61365a6040830184612d9a565b949350505050565b60008115159050919050565b61367781613662565b811461368257600080fd5b50565b6000815190506136948161366e565b92915050565b6000602082840312156136b0576136af612d07565b5b60006136be84828501613685565b91505092915050565b7f696e73756666696369656e7420616d6f756e744f757400000000000000000000600082015250565b60006136fd60168361329d565b9150613708826136c7565b602082019050919050565b6000602082019050818103600083015261372c816136f0565b9050919050565b60006040820190506137486000830185612df6565b6137556020830184612d9a565b9392505050565b600061376782612d11565b915061377283612d11565b925082820390508181111561378a57613789613386565b5b92915050565b7f4e487b7100000000000000000000000000000000000000000000000000000000600052604160045260246000fd5b60006080820190506137d46000830187612df6565b6137e16020830186612d9a565b6137ee6040830185612df6565b6137fb6060830184612d9a565b95945050505050565b7f496e76616c696420746f6b656e73000000000000000000000000000000000000600082015250565b600061383a600e8361329d565b915061384582613804565b602082019050919050565b600060208201905081810360008301526138698161382d565b9050919050565b7f4e6f204120726573657276650000000000000000000000000000000000000000600082015250565b60006138a6600c8361329d565b91506138b182613870565b602082019050919050565b600060208201905081810360008301526138d581613899565b9050919050565b7f6261642070616972000000000000000000000000000000000000000000000000600082015250565b600061391260088361329d565b915061391d826138dc565b602082019050919050565b6000602082019050818103600083015261394181613905565b9050919050565b60008151905061395781612d1b565b92915050565b60006020828403121561397357613972612d07565b5b600061398184828501613948565b91505092915050565b7f41203c206d696e00000000000000000000000000000000000000000000000000600082015250565b60006139c060078361329d565b91506139cb8261398a565b602082019050919050565b600060208201905081810360008301526139ef816139b3565b9050919050565b7f42203c206d696e00000000000000000000000000000000000000000000000000600082015250565b6000613a2c60078361329d565b9150613a37826139f6565b602082019050919050565b60006020820190508181036000830152613a5b81613a1f565b9050919050565b7f4c50206c6f770000000000000000000000000000000000000000000000000000600082015250565b6000613a9860068361329d565b9150613aa382613a62565b602082019050919050565b60006020820190508181036000830152613ac781613a8b565b9050919050565b7f7265736572766573206c6f770000000000000000000000000000000000000000600082015250565b6000613b04600c8361329d565b9150613b0f82613ace565b602082019050919050565b60006020820190508181036000830152613b3381613af7565b9050919050565b7f42206c6f77000000000000000000000000000000000000000000000000000000600082015250565b6000613b7060058361329d565b9150613b7b82613b3a565b602082019050919050565b60006020820190508181036000830152613b9f81613b63565b9050919050565b7f4120686967680000000000000000000000000000000000000000000000000000600082015250565b6000613bdc60068361329d565b9150613be782613ba6565b602082019050919050565b60006020820190508181036000830152613c0b81613bcf565b9050919050565b7f41206c6f77000000000000000000000000000000000000000000000000000000600082015250565b6000613c4860058361329d565b9150613c5382613c12565b602082019050919050565b60006020820190508181036000830152613c7781613c3b565b9050919050565b7f7a65726f206c6971000000000000000000000000000000000000000000000000600082015250565b6000613cb460088361329d565b9150613cbf82613c7e565b602082019050919050565b60006020820190508181036000830152613ce381613ca7565b905091905056fea26469706673582212209bdd067f74eaf92961f1df4f7acdec92803574a92ab7923b7adcbbcfab801c6164736f6c634300081c0033608060405234801561001057600080fd5b50604051611a83380380611a8383398181016040528101906100329190610397565b80838381600390816100449190610643565b5080600490816100549190610643565b505050600073ffffffffffffffffffffffffffffffffffffffff168173ffffffffffffffffffffffffffffffffffffffff16036100c95760006040517f1e4fbdf70000000000000000000000000000000000000000000000000000000081526004016100c09190610724565b60405180910390fd5b6100d8816100fb60201b60201c565b506100f3673cb8a0cd5c5b4cbe60c01b6101c160201b60201c565b50505061073f565b6000600560009054906101000a900473ffffffffffffffffffffffffffffffffffffffff16905081600560006101000a81548173ffffffffffffffffffffffffffffffffffffffff021916908373ffffffffffffffffffffffffffffffffffffffff1602179055508173ffffffffffffffffffffffffffffffffffffffff168173ffffffffffffffffffffffffffffffffffffffff167f8be0079c531659141344cd1fd0a4f28419497f9722a3daafe3b4186f6b6457e060405160405180910390a35050565b50565b6000604051905090565b600080fd5b600080fd5b600080fd5b600080fd5b6000601f19601f8301169050919050565b7f4e487b7100000000000000000000000000000000000000000000000000000000600052604160045260246000fd5b61022b826101e2565b810181811067ffffffffffffffff8211171561024a576102496101f3565b5b80604052505050565b600061025d6101c4565b90506102698282610222565b919050565b600067ffffffffffffffff821115610289576102886101f3565b5b610292826101e2565b9050602081019050919050565b60005b838110156102bd5780820151818401526020810190506102a2565b60008484015250505050565b60006102dc6102d78461026e565b610253565b9050828152602081018484840111156102f8576102f76101dd565b5b61030384828561029f565b509392505050565b600082601f8301126103205761031f6101d8565b5b81516103308482602086016102c9565b91505092915050565b600073ffffffffffffffffffffffffffffffffffffffff82169050919050565b600061036482610339565b9050919050565b61037481610359565b811461037f57600080fd5b50565b6000815190506103918161036b565b92915050565b6000806000606084860312156103b0576103af6101ce565b5b600084015167ffffffffffffffff8111156103ce576103cd6101d3565b5b6103da8682870161030b565b935050602084015167ffffffffffffffff8111156103fb576103fa6101d3565b5b6104078682870161030b565b925050604061041886828701610382565b9150509250925092565b600081519050919050565b7f4e487b7100000000000000000000000000000000000000000000000000000000600052602260045260246000fd5b6000600282049050600182168061047457607f821691505b6020821081036104875761048661042d565b5b50919050565b60008190508160005260206000209050919050565b60006020601f8301049050919050565b600082821b905092915050565b6000600883026104ef7fffffffffffffffffffffffffffffffffffffffffffffffffffffffffffffffff826104b2565b6104f986836104b2565b95508019841693508086168417925050509392505050565b6000819050919050565b6000819050919050565b600061054061053b61053684610511565b61051b565b610511565b9050919050565b6000819050919050565b61055a83610525565b61056e61056682610547565b8484546104bf565b825550505050565b600090565b610583610576565b61058e818484610551565b505050565b5b818110156105b2576105a760008261057b565b600181019050610594565b5050565b601f8211156105f7576105c88161048d565b6105d1846104a2565b810160208510156105e0578190505b6105f46105ec856104a2565b830182610593565b50505b505050565b600082821c905092915050565b600061061a600019846008026105fc565b1980831691505092915050565b60006106338383610609565b9150826002028217905092915050565b61064c82610422565b67ffffffffffffffff811115610665576106646101f3565b5b61066f825461045c565b61067a8282856105b6565b600060209050601f8311600181146106ad576000841561069b578287015190505b6106a58582610627565b86555061070d565b601f1984166106bb8661048d565b60005b828110156106e3578489015182556001820191506020850194506020810190506106be565b8683101561070057848901516106fc601f891682610609565b8355505b6001600288020188555050505b505050505050565b61071e81610359565b82525050565b60006020820190506107396000830184610715565b92915050565b6113358061074e6000396000f3fe608060405234801561001057600080fd5b50600436106100ea5760003560e01c8063715018a61161008c57806395d89b411161006657806395d89b4114610239578063a9059cbb14610257578063dd62ed3e14610287578063f2fde38b146102b7576100ea565b8063715018a6146101f557806379cc6790146101ff5780638da5cb5b1461021b576100ea565b806323b872dd116100c857806323b872dd1461015b578063313ce5671461018b57806340c10f19146101a957806370a08231146101c5576100ea565b806306fdde03146100ef578063095ea7b31461010d57806318160ddd1461013d575b600080fd5b6100f76102d3565b6040516101049190610f89565b60405180910390f35b61012760048036038101906101229190611044565b610365565b604051610134919061109f565b60405180910390f35b610145610388565b60405161015291906110c9565b60405180910390f35b610175600480360381019061017091906110e4565b610392565b604051610182919061109f565b60405180910390f35b6101936103c1565b6040516101a09190611153565b60405180910390f35b6101c360048036038101906101be9190611044565b6103ca565b005b6101df60048036038101906101da919061116e565b610444565b6040516101ec91906110c9565b60405180910390f35b6101fd61048c565b005b61021960048036038101906102149190611044565b6104a0565b005b61022361051a565b60405161023091906111aa565b60405180910390f35b610241610544565b60405161024e9190610f89565b60405180910390f35b610271600480360381019061026c9190611044565b6105d6565b60405161027e919061109f565b60405180910390f35b6102a1600480360381019061029c91906111c5565b6105f9565b6040516102ae91906110c9565b60405180910390f35b6102d160048036038101906102cc919061116e565b610680565b005b6060600380546102e290611234565b80601f016020809104026020016040519081016040528092919081815260200182805461030e90611234565b801561035b5780601f106103305761010080835404028352916020019161035b565b820191906000526020600020905b81548152906001019060200180831161033e57829003601f168201915b5050505050905090565b600080610370610706565b905061037d81858561070e565b600191505092915050565b6000600254905090565b60008061039d610706565b90506103aa858285610720565b6103b58585856107b5565b60019150509392505050565b60006012905090565b6103de67dd498d0ad5a0bee660c01b6108a9565b6103e66108ac565b6103fa673b21fbc42779ece260c01b6108a9565b61040e675c34505675f52b9560c01b6108a9565b610422671d4ed83e47a6364060c01b6108a9565b610436672cc9137215e865f660c01b6108a9565b6104408282610933565b5050565b60008060008373ffffffffffffffffffffffffffffffffffffffff1673ffffffffffffffffffffffffffffffffffffffff168152602001908152602001600020549050919050565b6104946108ac565b61049e60006109b5565b565b6104b467202ac6069fe4ed4a60c01b6108a9565b6104bc6108ac565b6104d067cadfe75d41a5037460c01b6108a9565b6104e4673756d69b21cd7e4a60c01b6108a9565b6104f867e57fb20251e3421c60c01b6108a9565b61050c676ed9b55b5b8ae74f60c01b6108a9565b6105168282610a7b565b5050565b6000600560009054906101000a900473ffffffffffffffffffffffffffffffffffffffff16905090565b60606004805461055390611234565b80601f016020809104026020016040519081016040528092919081815260200182805461057f90611234565b80156105cc5780601f106105a1576101008083540402835291602001916105cc565b820191906000526020600020905b8154815290600101906020018083116105af57829003601f168201915b5050505050905090565b6000806105e1610706565b90506105ee8185856107b5565b600191505092915050565b6000600160008473ffffffffffffffffffffffffffffffffffffffff1673ffffffffffffffffffffffffffffffffffffffff16815260200190815260200160002060008373ffffffffffffffffffffffffffffffffffffffff1673ffffffffffffffffffffffffffffffffffffffff16815260200190815260200160002054905092915050565b6106886108ac565b600073ffffffffffffffffffffffffffffffffffffffff168173ffffffffffffffffffffffffffffffffffffffff16036106fa5760006040517f1e4fbdf70000000000000000000000000000000000000000000000000000000081526004016106f191906111aa565b60405180910390fd5b610703816109b5565b50565b600033905090565b61071b8383836001610afd565b505050565b600061072c84846105f9565b90507fffffffffffffffffffffffffffffffffffffffffffffffffffffffffffffffff8110156107af578181101561079f578281836040517ffb8f41b200000000000000000000000000000000000000000000000000000000815260040161079693929190611265565b60405180910390fd5b6107ae84848484036000610afd565b5b50505050565b600073ffffffffffffffffffffffffffffffffffffffff168373ffffffffffffffffffffffffffffffffffffffff16036108275760006040517f96c6fd1e00000000000000000000000000000000000000000000000000000000815260040161081e91906111aa565b60405180910390fd5b600073ffffffffffffffffffffffffffffffffffffffff168273ffffffffffffffffffffffffffffffffffffffff16036108995760006040517fec442f0500000000000000000000000000000000000000000000000000000000815260040161089091906111aa565b60405180910390fd5b6108a4838383610cd4565b505050565b50565b6108b4610706565b73ffffffffffffffffffffffffffffffffffffffff166108d261051a565b73ffffffffffffffffffffffffffffffffffffffff1614610931576108f5610706565b6040517f118cdaa700000000000000000000000000000000000000000000000000000000815260040161092891906111aa565b60405180910390fd5b565b600073ffffffffffffffffffffffffffffffffffffffff168273ffffffffffffffffffffffffffffffffffffffff16036109a55760006040517fec442f0500000000000000000000000000000000000000000000000000000000815260040161099c91906111aa565b60405180910390fd5b6109b160008383610cd4565b5050565b6000600560009054906101000a900473ffffffffffffffffffffffffffffffffffffffff16905081600560006101000a81548173ffffffffffffffffffffffffffffffffffffffff021916908373ffffffffffffffffffffffffffffffffffffffff1602179055508173ffffffffffffffffffffffffffffffffffffffff168173ffffffffffffffffffffffffffffffffffffffff167f8be0079c531659141344cd1fd0a4f28419497f9722a3daafe3b4186f6b6457e060405160405180910390a35050565b600073ffffffffffffffffffffffffffffffffffffffff168273ffffffffffffffffffffffffffffffffffffffff1603610aed5760006040517f96c6fd1e000000000000000000000000000000000000000000000000000000008152600401610ae491906111aa565b60405180910390fd5b610af982600083610cd4565b5050565b600073ffffffffffffffffffffffffffffffffffffffff168473ffffffffffffffffffffffffffffffffffffffff1603610b6f5760006040517fe602df05000000000000000000000000000000000000000000000000000000008152600401610b6691906111aa565b60405180910390fd5b600073ffffffffffffffffffffffffffffffffffffffff168373ffffffffffffffffffffffffffffffffffffffff1603610be15760006040517f94280d62000000000000000000000000000000000000000000000000000000008152600401610bd891906111aa565b60405180910390fd5b81600160008673ffffffffffffffffffffffffffffffffffffffff1673ffffffffffffffffffffffffffffffffffffffff16815260200190815260200160002060008573ffffffffffffffffffffffffffffffffffffffff1673ffffffffffffffffffffffffffffffffffffffff168152602001908152602001600020819055508015610cce578273ffffffffffffffffffffffffffffffffffffffff168473ffffffffffffffffffffffffffffffffffffffff167f8c5be1e5ebec7d5bd14f71427d1e84f3dd0314c0f7b2291e5b200ac8c7c3b92584604051610cc591906110c9565b60405180910390a35b50505050565b600073ffffffffffffffffffffffffffffffffffffffff168373ffffffffffffffffffffffffffffffffffffffff1603610d26578060026000828254610d1a91906112cb565b92505081905550610df9565b60008060008573ffffffffffffffffffffffffffffffffffffffff1673ffffffffffffffffffffffffffffffffffffffff16815260200190815260200160002054905081811015610db2578381836040517fe450d38c000000000000000000000000000000000000000000000000000000008152600401610da993929190611265565b60405180910390fd5b8181036000808673ffffffffffffffffffffffffffffffffffffffff1673ffffffffffffffffffffffffffffffffffffffff16815260200190815260200160002081905550505b600073ffffffffffffffffffffffffffffffffffffffff168273ffffffffffffffffffffffffffffffffffffffff1603610e425780600260008282540392505081905550610e8f565b806000808473ffffffffffffffffffffffffffffffffffffffff1673ffffffffffffffffffffffffffffffffffffffff168152602001908152602001600020600082825401925050819055505b8173ffffffffffffffffffffffffffffffffffffffff168373ffffffffffffffffffffffffffffffffffffffff167fddf252ad1be2c89b69c2b068fc378daa952ba7f163c4a11628f55a4df523b3ef83604051610eec91906110c9565b60405180910390a3505050565b600081519050919050565b600082825260208201905092915050565b60005b83811015610f33578082015181840152602081019050610f18565b60008484015250505050565b6000601f19601f8301169050919050565b6000610f5b82610ef9565b610f658185610f04565b9350610f75818560208601610f15565b610f7e81610f3f565b840191505092915050565b60006020820190508181036000830152610fa38184610f50565b905092915050565b600080fd5b600073ffffffffffffffffffffffffffffffffffffffff82169050919050565b6000610fdb82610fb0565b9050919050565b610feb81610fd0565b8114610ff657600080fd5b50565b60008135905061100881610fe2565b92915050565b6000819050919050565b6110218161100e565b811461102c57600080fd5b50565b60008135905061103e81611018565b92915050565b6000806040838503121561105b5761105a610fab565b5b600061106985828601610ff9565b925050602061107a8582860161102f565b9150509250929050565b60008115159050919050565b61109981611084565b82525050565b60006020820190506110b46000830184611090565b92915050565b6110c38161100e565b82525050565b60006020820190506110de60008301846110ba565b92915050565b6000806000606084860312156110fd576110fc610fab565b5b600061110b86828701610ff9565b935050602061111c86828701610ff9565b925050604061112d8682870161102f565b9150509250925092565b600060ff82169050919050565b61114d81611137565b82525050565b60006020820190506111686000830184611144565b92915050565b60006020828403121561118457611183610fab565b5b600061119284828501610ff9565b91505092915050565b6111a481610fd0565b82525050565b60006020820190506111bf600083018461119b565b92915050565b600080604083850312156111dc576111db610fab565b5b60006111ea85828601610ff9565b92505060206111fb85828601610ff9565b9150509250929050565b7f4e487b7100000000000000000000000000000000000000000000000000000000600052602260045260246000fd5b6000600282049050600182168061124c57607f821691505b60208210810361125f5761125e611205565b5b50919050565b600060608201905061127a600083018661119b565b61128760208301856110ba565b61129460408301846110ba565b949350505050565b7f4e487b7100000000000000000000000000000000000000000000000000000000600052601160045260246000fd5b60006112d68261100e565b91506112e18361100e565b92508282019050808211156112f9576112f861129c565b5b9291505056fea264697066735822122059c4c326437f45e295ca5a8b829310de0e8eb6114ea67da70556582e7b5f604564736f6c634300081c0033","opcodes":"PUSH1 0x80 PUSH1 0x40 MSTORE CALLVALUE DUP1 ISZERO PUSH2 0x10 JUMPI PUSH1 0x0 DUP1 REVERT JUMPDEST POP PUSH1 0x40 MLOAD PUSH2 0x5B4F CODESIZE SUB DUP1 PUSH2 0x5B4F DUP4 CODECOPY DUP2 DUP2 ADD PUSH1 0x40 MSTORE DUP2 ADD SWAP1 PUSH2 0x32 SWAP2 SWAP1 PUSH2 0x264 JUMP JUMPDEST PUSH2 0x4C PUSH8 0xAFA76213D09CAF1B PUSH1 0xC0 SHL PUSH2 0x1F1 PUSH1 0x20 SHL PUSH1 0x20 SHR JUMP JUMPDEST PUSH2 0x66 PUSH8 0xE43BBB992220B67 PUSH1 0xC0 SHL PUSH2 0x1F1 PUSH1 0x20 SHL PUSH1 0x20 SHR JUMP JUMPDEST ADDRESS PUSH1 0x40 MLOAD PUSH2 0x73 SWAP1 PUSH2 0x1F4 JUMP JUMPDEST PUSH2 0x7D SWAP2 SWAP1 PUSH2 0x35C JUMP JUMPDEST PUSH1 0x40 MLOAD DUP1 SWAP2 SUB SWAP1 PUSH1 0x0 CREATE DUP1 ISZERO DUP1 ISZERO PUSH2 0x99 JUMPI RETURNDATASIZE PUSH1 0x0 DUP1 RETURNDATACOPY RETURNDATASIZE PUSH1 0x0 REVERT JUMPDEST POP PUSH1 0x0 DUP1 PUSH2 0x100 EXP DUP2 SLOAD DUP2 PUSH20 0xFFFFFFFFFFFFFFFFFFFFFFFFFFFFFFFFFFFFFFFF MUL NOT AND SWAP1 DUP4 PUSH20 0xFFFFFFFFFFFFFFFFFFFFFFFFFFFFFFFFFFFFFFFF AND MUL OR SWAP1 SSTORE POP PUSH2 0xF3 PUSH8 0xB7B64EB168E6DA11 PUSH1 0xC0 SHL PUSH2 0x1F1 PUSH1 0x20 SHL PUSH1 0x20 SHR JUMP JUMPDEST DUP2 PUSH1 0x1 PUSH1 0x0 PUSH2 0x100 EXP DUP2 SLOAD DUP2 PUSH20 0xFFFFFFFFFFFFFFFFFFFFFFFFFFFFFFFFFFFFFFFF MUL NOT AND SWAP1 DUP4 PUSH20 0xFFFFFFFFFFFFFFFFFFFFFFFFFFFFFFFFFFFFFFFF AND MUL OR SWAP1 SSTORE POP PUSH2 0x14E PUSH8 0x211E165515084FF4 PUSH1 0xC0 SHL PUSH2 0x1F1 PUSH1 0x20 SHL PUSH1 0x20 SHR JUMP JUMPDEST DUP1 PUSH1 0x2 PUSH1 0x0 PUSH2 0x100 EXP DUP2 SLOAD DUP2 PUSH20 0xFFFFFFFFFFFFFFFFFFFFFFFFFFFFFFFFFFFFFFFF MUL NOT AND SWAP1 DUP4 PUSH20 0xFFFFFFFFFFFFFFFFFFFFFFFFFFFFFFFFFFFFFFFF AND MUL OR SWAP1 SSTORE POP PUSH2 0x1A9 PUSH8 0x8C8E108C95247521 PUSH1 0xC0 SHL PUSH2 0x1F1 PUSH1 0x20 SHL PUSH1 0x20 SHR JUMP JUMPDEST CALLER PUSH1 0x5 PUSH1 0x0 PUSH2 0x100 EXP DUP2 SLOAD DUP2 PUSH20 0xFFFFFFFFFFFFFFFFFFFFFFFFFFFFFFFFFFFFFFFF MUL NOT AND SWAP1 DUP4 PUSH20 0xFFFFFFFFFFFFFFFFFFFFFFFFFFFFFFFFFFFFFFFF AND MUL OR SWAP1 SSTORE POP POP POP PUSH2 0x39D JUMP JUMPDEST POP JUMP JUMPDEST PUSH2 0x1A83 DUP1 PUSH2 0x40CC DUP4 CODECOPY ADD SWAP1 JUMP JUMPDEST PUSH1 0x0 DUP1 REVERT JUMPDEST PUSH1 0x0 PUSH20 0xFFFFFFFFFFFFFFFFFFFFFFFFFFFFFFFFFFFFFFFF DUP3 AND SWAP1 POP SWAP2 SWAP1 POP JUMP JUMPDEST PUSH1 0x0 PUSH2 0x231 DUP3 PUSH2 0x206 JUMP JUMPDEST SWAP1 POP SWAP2 SWAP1 POP JUMP JUMPDEST PUSH2 0x241 DUP2 PUSH2 0x226 JUMP JUMPDEST DUP2 EQ PUSH2 0x24C JUMPI PUSH1 0x0 DUP1 REVERT JUMPDEST POP JUMP JUMPDEST PUSH1 0x0 DUP2 MLOAD SWAP1 POP PUSH2 0x25E DUP2 PUSH2 0x238 JUMP JUMPDEST SWAP3 SWAP2 POP POP JUMP JUMPDEST PUSH1 0x0 DUP1 PUSH1 0x40 DUP4 DUP6 SUB SLT ISZERO PUSH2 0x27B JUMPI PUSH2 0x27A PUSH2 0x201 JUMP JUMPDEST JUMPDEST PUSH1 0x0 PUSH2 0x289 DUP6 DUP3 DUP7 ADD PUSH2 0x24F JUMP JUMPDEST SWAP3 POP POP PUSH1 0x20 PUSH2 0x29A DUP6 DUP3 DUP7 ADD PUSH2 0x24F JUMP JUMPDEST SWAP2 POP POP SWAP3 POP SWAP3 SWAP1 POP JUMP JUMPDEST PUSH1 0x0 DUP3 DUP3 MSTORE PUSH1 0x20 DUP3 ADD SWAP1 POP SWAP3 SWAP2 POP POP JUMP JUMPDEST PUSH32 0x53696D706C6553776170204C5020546F6B656E00000000000000000000000000 PUSH1 0x0 DUP3 ADD MSTORE POP JUMP JUMPDEST PUSH1 0x0 PUSH2 0x2EB PUSH1 0x13 DUP4 PUSH2 0x2A4 JUMP JUMPDEST SWAP2 POP PUSH2 0x2F6 DUP3 PUSH2 0x2B5 JUMP JUMPDEST PUSH1 0x20 DUP3 ADD SWAP1 POP SWAP2 SWAP1 POP JUMP JUMPDEST PUSH32 0x53534C5000000000000000000000000000000000000000000000000000000000 PUSH1 0x0 DUP3 ADD MSTORE POP JUMP JUMPDEST PUSH1 0x0 PUSH2 0x337 PUSH1 0x4 DUP4 PUSH2 0x2A4 JUMP JUMPDEST SWAP2 POP PUSH2 0x342 DUP3 PUSH2 0x301 JUMP JUMPDEST PUSH1 0x20 DUP3 ADD SWAP1 POP SWAP2 SWAP1 POP JUMP JUMPDEST PUSH2 0x356 DUP2 PUSH2 0x226 JUMP JUMPDEST DUP3 MSTORE POP POP JUMP JUMPDEST PUSH1 0x0 PUSH1 0x60 DUP3 ADD SWAP1 POP DUP2 DUP2 SUB PUSH1 0x0 DUP4 ADD MSTORE PUSH2 0x375 DUP2 PUSH2 0x2DE JUMP JUMPDEST SWAP1 POP DUP2 DUP2 SUB PUSH1 0x20 DUP4 ADD MSTORE PUSH2 0x388 DUP2 PUSH2 0x32A JUMP JUMPDEST SWAP1 POP PUSH2 0x397 PUSH1 0x40 DUP4 ADD DUP5 PUSH2 0x34D JUMP JUMPDEST SWAP3 SWAP2 POP POP JUMP JUMPDEST PUSH2 0x3D20 DUP1 PUSH2 0x3AC PUSH1 0x0 CODECOPY PUSH1 0x0 RETURN INVALID PUSH1 0x80 PUSH1 0x40 MSTORE CALLVALUE DUP1 ISZERO PUSH2 0x10 JUMPI PUSH1 0x0 DUP1 REVERT JUMPDEST POP PUSH1 0x4 CALLDATASIZE LT PUSH2 0xA9 JUMPI PUSH1 0x0 CALLDATALOAD PUSH1 0xE0 SHR DUP1 PUSH4 0x5FCBD285 GT PUSH2 0x71 JUMPI DUP1 PUSH4 0x5FCBD285 EQ PUSH2 0x168 JUMPI DUP1 PUSH4 0x8DA5CB5B EQ PUSH2 0x186 JUMPI DUP1 PUSH4 0xAC41865A EQ PUSH2 0x1A4 JUMPI DUP1 PUSH4 0xBAA2ABDE EQ PUSH2 0x1D4 JUMPI DUP1 PUSH4 0xDC5FA6C5 EQ PUSH2 0x205 JUMPI DUP1 PUSH4 0xE8E33700 EQ PUSH2 0x223 JUMPI PUSH2 0xA9 JUMP JUMPDEST DUP1 PUSH4 0x54D50D4 EQ PUSH2 0xAE JUMPI DUP1 PUSH4 0xFC63D10 EQ PUSH2 0xDE JUMPI DUP1 PUSH4 0x19E36F3B EQ PUSH2 0xFC JUMPI DUP1 PUSH4 0x38ED1739 EQ PUSH2 0x11A JUMPI DUP1 PUSH4 0x5F64B55B EQ PUSH2 0x14A JUMPI JUMPDEST PUSH1 0x0 DUP1 REVERT JUMPDEST PUSH2 0xC8 PUSH1 0x4 DUP1 CALLDATASIZE SUB DUP2 ADD SWAP1 PUSH2 0xC3 SWAP2 SWAP1 PUSH2 0x2D47 JUMP JUMPDEST PUSH2 0x255 JUMP JUMPDEST PUSH1 0x40 MLOAD PUSH2 0xD5 SWAP2 SWAP1 PUSH2 0x2DA9 JUMP JUMPDEST PUSH1 0x40 MLOAD DUP1 SWAP2 SUB SWAP1 RETURN JUMPDEST PUSH2 0xE6 PUSH2 0x404 JUMP JUMPDEST PUSH1 0x40 MLOAD PUSH2 0xF3 SWAP2 SWAP1 PUSH2 0x2E05 JUMP JUMPDEST PUSH1 0x40 MLOAD DUP1 SWAP2 SUB SWAP1 RETURN JUMPDEST PUSH2 0x104 PUSH2 0x42A JUMP JUMPDEST PUSH1 0x40 MLOAD PUSH2 0x111 SWAP2 SWAP1 PUSH2 0x2DA9 JUMP JUMPDEST PUSH1 0x40 MLOAD DUP1 SWAP2 SUB SWAP1 RETURN JUMPDEST PUSH2 0x134 PUSH1 0x4 DUP1 CALLDATASIZE SUB DUP2 ADD SWAP1 PUSH2 0x12F SWAP2 SWAP1 PUSH2 0x2EB1 JUMP JUMPDEST PUSH2 0x430 JUMP JUMPDEST PUSH1 0x40 MLOAD PUSH2 0x141 SWAP2 SWAP1 PUSH2 0x3009 JUMP JUMPDEST PUSH1 0x40 MLOAD DUP1 SWAP2 SUB SWAP1 RETURN JUMPDEST PUSH2 0x152 PUSH2 0x116B JUMP JUMPDEST PUSH1 0x40 MLOAD PUSH2 0x15F SWAP2 SWAP1 PUSH2 0x2E05 JUMP JUMPDEST PUSH1 0x40 MLOAD DUP1 SWAP2 SUB SWAP1 RETURN JUMPDEST PUSH2 0x170 PUSH2 0x1191 JUMP JUMPDEST PUSH1 0x40 MLOAD PUSH2 0x17D SWAP2 SWAP1 PUSH2 0x308A JUMP JUMPDEST PUSH1 0x40 MLOAD DUP1 SWAP2 SUB SWAP1 RETURN JUMPDEST PUSH2 0x18E PUSH2 0x11B5 JUMP JUMPDEST PUSH1 0x40 MLOAD PUSH2 0x19B SWAP2 SWAP1 PUSH2 0x2E05 JUMP JUMPDEST PUSH1 0x40 MLOAD DUP1 SWAP2 SUB SWAP1 RETURN JUMPDEST PUSH2 0x1BE PUSH1 0x4 DUP1 CALLDATASIZE SUB DUP2 ADD SWAP1 PUSH2 0x1B9 SWAP2 SWAP1 PUSH2 0x30A5 JUMP JUMPDEST PUSH2 0x11DB JUMP JUMPDEST PUSH1 0x40 MLOAD PUSH2 0x1CB SWAP2 SWAP1 PUSH2 0x2DA9 JUMP JUMPDEST PUSH1 0x40 MLOAD DUP1 SWAP2 SUB SWAP1 RETURN JUMPDEST PUSH2 0x1EE PUSH1 0x4 DUP1 CALLDATASIZE SUB DUP2 ADD SWAP1 PUSH2 0x1E9 SWAP2 SWAP1 PUSH2 0x30E5 JUMP JUMPDEST PUSH2 0x15A3 JUMP JUMPDEST PUSH1 0x40 MLOAD PUSH2 0x1FC SWAP3 SWAP2 SWAP1 PUSH2 0x3187 JUMP JUMPDEST PUSH1 0x40 MLOAD DUP1 SWAP2 SUB SWAP1 RETURN JUMPDEST PUSH2 0x20D PUSH2 0x1F68 JUMP JUMPDEST PUSH1 0x40 MLOAD PUSH2 0x21A SWAP2 SWAP1 PUSH2 0x2DA9 JUMP JUMPDEST PUSH1 0x40 MLOAD DUP1 SWAP2 SUB SWAP1 RETURN JUMPDEST PUSH2 0x23D PUSH1 0x4 DUP1 CALLDATASIZE SUB DUP2 ADD SWAP1 PUSH2 0x238 SWAP2 SWAP1 PUSH2 0x31B0 JUMP JUMPDEST PUSH2 0x1F6E JUMP JUMPDEST PUSH1 0x40 MLOAD PUSH2 0x24C SWAP4 SWAP3 SWAP2 SWAP1 PUSH2 0x3266 JUMP JUMPDEST PUSH1 0x40 MLOAD DUP1 SWAP2 SUB SWAP1 RETURN JUMPDEST PUSH1 0x0 PUSH2 0x26B PUSH8 0xAFCE08A1DC76A48B PUSH1 0xC0 SHL PUSH2 0x2B1F JUMP JUMPDEST PUSH2 0x27F PUSH8 0x8A14316C56B4B117 PUSH1 0xC0 SHL PUSH2 0x2B1F JUMP JUMPDEST PUSH2 0x293 PUSH8 0x133AF24BF511773A PUSH1 0xC0 SHL PUSH2 0x2B1F JUMP JUMPDEST PUSH2 0x2A7 PUSH8 0xE61C7A1F89965C21 PUSH1 0xC0 SHL PUSH2 0x2B1F JUMP JUMPDEST PUSH1 0x0 DUP5 GT PUSH2 0x2EA JUMPI PUSH1 0x40 MLOAD PUSH32 0x8C379A000000000000000000000000000000000000000000000000000000000 DUP2 MSTORE PUSH1 0x4 ADD PUSH2 0x2E1 SWAP1 PUSH2 0x32FA JUMP JUMPDEST PUSH1 0x40 MLOAD DUP1 SWAP2 SUB SWAP1 REVERT JUMPDEST PUSH2 0x2FE PUSH8 0xD0D4E7D723EC8B7A PUSH1 0xC0 SHL PUSH2 0x2B1F JUMP JUMPDEST PUSH2 0x312 PUSH8 0x9B589CBA02C60FB8 PUSH1 0xC0 SHL PUSH2 0x2B1F JUMP JUMPDEST PUSH2 0x326 PUSH8 0xBC1F0106F9A78A89 PUSH1 0xC0 SHL PUSH2 0x2B1F JUMP JUMPDEST PUSH2 0x33A PUSH8 0xE21B6268538F44EC PUSH1 0xC0 SHL PUSH2 0x2B1F JUMP JUMPDEST PUSH1 0x0 DUP4 GT DUP1 ISZERO PUSH2 0x34A JUMPI POP PUSH1 0x0 DUP3 GT JUMPDEST PUSH2 0x389 JUMPI PUSH1 0x40 MLOAD PUSH32 0x8C379A000000000000000000000000000000000000000000000000000000000 DUP2 MSTORE PUSH1 0x4 ADD PUSH2 0x380 SWAP1 PUSH2 0x3366 JUMP JUMPDEST PUSH1 0x40 MLOAD DUP1 SWAP2 SUB SWAP1 REVERT JUMPDEST PUSH2 0x39D PUSH8 0xFA5E9948F54E055 PUSH1 0xC0 SHL PUSH2 0x2B1F JUMP JUMPDEST PUSH2 0x3B1 PUSH8 0xDF2DB2D3C734E317 PUSH1 0xC0 SHL PUSH2 0x2B1F JUMP JUMPDEST DUP4 DUP4 PUSH2 0x3BD SWAP2 SWAP1 PUSH2 0x33B5 JUMP JUMPDEST DUP3 DUP6 PUSH2 0x3C9 SWAP2 SWAP1 PUSH2 0x33E9 JUMP JUMPDEST PUSH2 0x3D3 SWAP2 SWAP1 PUSH2 0x345A JUMP JUMPDEST SWAP1 POP PUSH2 0x3E9 PUSH8 0xCF625502025C78E PUSH1 0xC0 SHL PUSH2 0x2B1F JUMP JUMPDEST PUSH2 0x3FD PUSH8 0x9014A30F16E5F7AC PUSH1 0xC0 SHL PUSH2 0x2B1F JUMP JUMPDEST SWAP4 SWAP3 POP POP POP JUMP JUMPDEST PUSH1 0x1 PUSH1 0x0 SWAP1 SLOAD SWAP1 PUSH2 0x100 EXP SWAP1 DIV PUSH20 0xFFFFFFFFFFFFFFFFFFFFFFFFFFFFFFFFFFFFFFFF AND DUP2 JUMP JUMPDEST PUSH1 0x4 SLOAD DUP2 JUMP JUMPDEST PUSH1 0x60 PUSH2 0x446 PUSH8 0x927DF9618B00CDE0 PUSH1 0xC0 SHL PUSH2 0x2B1F JUMP JUMPDEST PUSH2 0x45A PUSH8 0x7272B7EDF79208A5 PUSH1 0xC0 SHL PUSH2 0x2B1F JUMP JUMPDEST PUSH2 0x46E PUSH8 0x52663B4ADD082B65 PUSH1 0xC0 SHL PUSH2 0x2B1F JUMP JUMPDEST PUSH2 0x482 PUSH8 0x3BAF8B3ED132AFA4 PUSH1 0xC0 SHL PUSH2 0x2B1F JUMP JUMPDEST TIMESTAMP DUP3 GT PUSH2 0x4C4 JUMPI PUSH1 0x40 MLOAD PUSH32 0x8C379A000000000000000000000000000000000000000000000000000000000 DUP2 MSTORE PUSH1 0x4 ADD PUSH2 0x4BB SWAP1 PUSH2 0x34D7 JUMP JUMPDEST PUSH1 0x40 MLOAD DUP1 SWAP2 SUB SWAP1 REVERT JUMPDEST PUSH2 0x4D8 PUSH8 0x73CD13C046878809 PUSH1 0xC0 SHL PUSH2 0x2B1F JUMP JUMPDEST PUSH2 0x4EC PUSH8 0x2A11B3A5B0F9CDA0 PUSH1 0xC0 SHL PUSH2 0x2B1F JUMP JUMPDEST PUSH2 0x500 PUSH8 0x859F0A48F4FE6508 PUSH1 0xC0 SHL PUSH2 0x2B1F JUMP JUMPDEST PUSH2 0x514 PUSH8 0xB21BB9620D71DA52 PUSH1 0xC0 SHL PUSH2 0x2B1F JUMP JUMPDEST PUSH1 0x2 DUP6 DUP6 SWAP1 POP EQ DUP1 ISZERO PUSH2 0x5A3 JUMPI POP DUP5 DUP5 PUSH1 0x1 DUP2 DUP2 LT PUSH2 0x536 JUMPI PUSH2 0x535 PUSH2 0x34F7 JUMP JUMPDEST JUMPDEST SWAP1 POP PUSH1 0x20 MUL ADD PUSH1 0x20 DUP2 ADD SWAP1 PUSH2 0x54B SWAP2 SWAP1 PUSH2 0x3526 JUMP JUMPDEST PUSH20 0xFFFFFFFFFFFFFFFFFFFFFFFFFFFFFFFFFFFFFFFF AND DUP6 DUP6 PUSH1 0x0 DUP2 DUP2 LT PUSH2 0x575 JUMPI PUSH2 0x574 PUSH2 0x34F7 JUMP JUMPDEST JUMPDEST SWAP1 POP PUSH1 0x20 MUL ADD PUSH1 0x20 DUP2 ADD SWAP1 PUSH2 0x58A SWAP2 SWAP1 PUSH2 0x3526 JUMP JUMPDEST PUSH20 0xFFFFFFFFFFFFFFFFFFFFFFFFFFFFFFFFFFFFFFFF AND EQ ISZERO JUMPDEST PUSH2 0x5E2 JUMPI PUSH1 0x40 MLOAD PUSH32 0x8C379A000000000000000000000000000000000000000000000000000000000 DUP2 MSTORE PUSH1 0x4 ADD PUSH2 0x5D9 SWAP1 PUSH2 0x359F JUMP JUMPDEST PUSH1 0x40 MLOAD DUP1 SWAP2 SUB SWAP1 REVERT JUMPDEST PUSH2 0x5F6 PUSH8 0x122622B53BE22F2D PUSH1 0xC0 SHL PUSH2 0x2B1F JUMP JUMPDEST PUSH2 0x60A PUSH8 0x81637D8895BA28A3 PUSH1 0xC0 SHL PUSH2 0x2B1F JUMP JUMPDEST PUSH2 0x61E PUSH8 0x70C7794E1FB7AAB2 PUSH1 0xC0 SHL PUSH2 0x2B1F JUMP JUMPDEST PUSH2 0x632 PUSH8 0xF9FDB07818323219 PUSH1 0xC0 SHL PUSH2 0x2B1F JUMP JUMPDEST PUSH1 0x0 DUP8 GT PUSH2 0x675 JUMPI PUSH1 0x40 MLOAD PUSH32 0x8C379A000000000000000000000000000000000000000000000000000000000 DUP2 MSTORE PUSH1 0x4 ADD PUSH2 0x66C SWAP1 PUSH2 0x360B JUMP JUMPDEST PUSH1 0x40 MLOAD DUP1 SWAP2 SUB SWAP1 REVERT JUMPDEST PUSH2 0x689 PUSH8 0xA2769EF6FD903AC4 PUSH1 0xC0 SHL PUSH2 0x2B1F JUMP JUMPDEST PUSH2 0x69D PUSH8 0xB4DC9356961AA792 PUSH1 0xC0 SHL PUSH2 0x2B1F JUMP JUMPDEST PUSH2 0x6B1 PUSH8 0xBE41A98F7DE10E84 PUSH1 0xC0 SHL PUSH2 0x2B1F JUMP JUMPDEST PUSH1 0x0 PUSH1 0x40 MLOAD DUP1 PUSH1 0x40 ADD PUSH1 0x40 MSTORE DUP1 PUSH1 0x1 PUSH1 0x0 SWAP1 SLOAD SWAP1 PUSH2 0x100 EXP SWAP1 DIV PUSH20 0xFFFFFFFFFFFFFFFFFFFFFFFFFFFFFFFFFFFFFFFF AND PUSH20 0xFFFFFFFFFFFFFFFFFFFFFFFFFFFFFFFFFFFFFFFF AND DUP2 MSTORE PUSH1 0x20 ADD PUSH1 0x2 PUSH1 0x0 SWAP1 SLOAD SWAP1 PUSH2 0x100 EXP SWAP1 DIV PUSH20 0xFFFFFFFFFFFFFFFFFFFFFFFFFFFFFFFFFFFFFFFF AND PUSH20 0xFFFFFFFFFFFFFFFFFFFFFFFFFFFFFFFFFFFFFFFF AND DUP2 MSTORE POP SWAP1 POP PUSH2 0x74E PUSH8 0xFC498058C7F74EA6 PUSH1 0xC0 SHL PUSH2 0x2B1F JUMP JUMPDEST PUSH2 0x762 PUSH8 0xB0762056F5A79AB5 PUSH1 0xC0 SHL PUSH2 0x2B1F JUMP JUMPDEST PUSH1 0x0 PUSH1 0x3 SLOAD SWAP1 POP PUSH2 0x77D PUSH8 0xEF51F09A9A88E7DA PUSH1 0xC0 SHL PUSH2 0x2B1F JUMP JUMPDEST PUSH2 0x791 PUSH8 0x1C1D4F00350779A6 PUSH1 0xC0 SHL PUSH2 0x2B1F JUMP JUMPDEST PUSH1 0x0 PUSH1 0x4 SLOAD SWAP1 POP PUSH2 0x7AC PUSH8 0xC258C1C29AFAA914 PUSH1 0xC0 SHL PUSH2 0x2B1F JUMP JUMPDEST PUSH2 0x7C0 PUSH8 0x786C714C6531DED3 PUSH1 0xC0 SHL PUSH2 0x2B1F JUMP JUMPDEST PUSH2 0x7D4 PUSH8 0x5D053A39CBB6BD2C PUSH1 0xC0 SHL PUSH2 0x2B1F JUMP JUMPDEST DUP3 PUSH1 0x0 ADD MLOAD PUSH20 0xFFFFFFFFFFFFFFFFFFFFFFFFFFFFFFFFFFFFFFFF AND DUP9 DUP9 PUSH1 0x0 DUP2 DUP2 LT PUSH2 0x803 JUMPI PUSH2 0x802 PUSH2 0x34F7 JUMP JUMPDEST JUMPDEST SWAP1 POP PUSH1 0x20 MUL ADD PUSH1 0x20 DUP2 ADD SWAP1 PUSH2 0x818 SWAP2 SWAP1 PUSH2 0x3526 JUMP JUMPDEST PUSH20 0xFFFFFFFFFFFFFFFFFFFFFFFFFFFFFFFFFFFFFFFF AND EQ DUP1 ISZERO PUSH2 0x892 JUMPI POP DUP3 PUSH1 0x20 ADD MLOAD PUSH20 0xFFFFFFFFFFFFFFFFFFFFFFFFFFFFFFFFFFFFFFFF AND DUP9 DUP9 PUSH1 0x1 DUP2 DUP2 LT PUSH2 0x865 JUMPI PUSH2 0x864 PUSH2 0x34F7 JUMP JUMPDEST JUMPDEST SWAP1 POP PUSH1 0x20 MUL ADD PUSH1 0x20 DUP2 ADD SWAP1 PUSH2 0x87A SWAP2 SWAP1 PUSH2 0x3526 JUMP JUMPDEST PUSH20 0xFFFFFFFFFFFFFFFFFFFFFFFFFFFFFFFFFFFFFFFF AND EQ JUMPDEST DUP1 ISZERO PUSH2 0x8AE JUMPI POP PUSH2 0x8AD PUSH8 0x77B421798D4BBF8B PUSH1 0xC0 SHL PUSH2 0x2B22 JUMP JUMPDEST JUMPDEST DUP1 PUSH2 0x98F JUMPI POP DUP3 PUSH1 0x20 ADD MLOAD PUSH20 0xFFFFFFFFFFFFFFFFFFFFFFFFFFFFFFFFFFFFFFFF AND DUP9 DUP9 PUSH1 0x0 DUP2 DUP2 LT PUSH2 0x8E3 JUMPI PUSH2 0x8E2 PUSH2 0x34F7 JUMP JUMPDEST JUMPDEST SWAP1 POP PUSH1 0x20 MUL ADD PUSH1 0x20 DUP2 ADD SWAP1 PUSH2 0x8F8 SWAP2 SWAP1 PUSH2 0x3526 JUMP JUMPDEST PUSH20 0xFFFFFFFFFFFFFFFFFFFFFFFFFFFFFFFFFFFFFFFF AND EQ DUP1 ISZERO PUSH2 0x972 JUMPI POP DUP3 PUSH1 0x0 ADD MLOAD PUSH20 0xFFFFFFFFFFFFFFFFFFFFFFFFFFFFFFFFFFFFFFFF AND DUP9 DUP9 PUSH1 0x1 DUP2 DUP2 LT PUSH2 0x945 JUMPI PUSH2 0x944 PUSH2 0x34F7 JUMP JUMPDEST JUMPDEST SWAP1 POP PUSH1 0x20 MUL ADD PUSH1 0x20 DUP2 ADD SWAP1 PUSH2 0x95A SWAP2 SWAP1 PUSH2 0x3526 JUMP JUMPDEST PUSH20 0xFFFFFFFFFFFFFFFFFFFFFFFFFFFFFFFFFFFFFFFF AND EQ JUMPDEST DUP1 ISZERO PUSH2 0x98E JUMPI POP PUSH2 0x98D PUSH8 0x1730BA1C504F7086 PUSH1 0xC0 SHL PUSH2 0x2B22 JUMP JUMPDEST JUMPDEST JUMPDEST PUSH2 0x9CE JUMPI PUSH1 0x40 MLOAD PUSH32 0x8C379A000000000000000000000000000000000000000000000000000000000 DUP2 MSTORE PUSH1 0x4 ADD PUSH2 0x9C5 SWAP1 PUSH2 0x359F JUMP JUMPDEST PUSH1 0x40 MLOAD DUP1 SWAP2 SUB SWAP1 REVERT JUMPDEST PUSH2 0x9E2 PUSH8 0x910E99AC159E972B PUSH1 0xC0 SHL PUSH2 0x2B1F JUMP JUMPDEST PUSH2 0x9F6 PUSH8 0xC7DA7149AA2930C2 PUSH1 0xC0 SHL PUSH2 0x2B1F JUMP JUMPDEST PUSH2 0xA0A PUSH8 0x9793E7B36D7C9DC1 PUSH1 0xC0 SHL PUSH2 0x2B1F JUMP JUMPDEST PUSH1 0x0 PUSH2 0xA20 PUSH8 0xC26EDAD64174D3D6 PUSH1 0xC0 SHL PUSH2 0x2B1F JUMP JUMPDEST PUSH2 0xA34 PUSH8 0xAE950AEFC52DA0D6 PUSH1 0xC0 SHL PUSH2 0x2B1F JUMP JUMPDEST DUP4 PUSH1 0x0 ADD MLOAD PUSH20 0xFFFFFFFFFFFFFFFFFFFFFFFFFFFFFFFFFFFFFFFF AND DUP10 DUP10 PUSH1 0x0 DUP2 DUP2 LT PUSH2 0xA63 JUMPI PUSH2 0xA62 PUSH2 0x34F7 JUMP JUMPDEST JUMPDEST SWAP1 POP PUSH1 0x20 MUL ADD PUSH1 0x20 DUP2 ADD SWAP1 PUSH2 0xA78 SWAP2 SWAP1 PUSH2 0x3526 JUMP JUMPDEST PUSH20 0xFFFFFFFFFFFFFFFFFFFFFFFFFFFFFFFFFFFFFFFF AND SUB PUSH2 0xD1B JUMPI PUSH2 0xAA7 PUSH8 0x469D0B87D4D61B33 PUSH1 0xC0 SHL PUSH2 0x2B1F JUMP JUMPDEST PUSH2 0xABB PUSH8 0x23BD17533D064EE7 PUSH1 0xC0 SHL PUSH2 0x2B1F JUMP JUMPDEST PUSH2 0xACF PUSH8 0x384D6883D98B594 PUSH1 0xC0 SHL PUSH2 0x2B1F JUMP JUMPDEST DUP4 PUSH1 0x0 ADD MLOAD PUSH20 0xFFFFFFFFFFFFFFFFFFFFFFFFFFFFFFFFFFFFFFFF AND PUSH4 0x23B872DD CALLER ADDRESS DUP15 PUSH1 0x40 MLOAD DUP5 PUSH4 0xFFFFFFFF AND PUSH1 0xE0 SHL DUP2 MSTORE PUSH1 0x4 ADD PUSH2 0xB10 SWAP4 SWAP3 SWAP2 SWAP1 PUSH2 0x362B JUMP JUMPDEST PUSH1 0x20 PUSH1 0x40 MLOAD DUP1 DUP4 SUB DUP2 PUSH1 0x0 DUP8 GAS CALL ISZERO DUP1 ISZERO PUSH2 0xB2F JUMPI RETURNDATASIZE PUSH1 0x0 DUP1 RETURNDATACOPY RETURNDATASIZE PUSH1 0x0 REVERT JUMPDEST POP POP POP POP PUSH1 0x40 MLOAD RETURNDATASIZE PUSH1 0x1F NOT PUSH1 0x1F DUP3 ADD AND DUP3 ADD DUP1 PUSH1 0x40 MSTORE POP DUP2 ADD SWAP1 PUSH2 0xB53 SWAP2 SWAP1 PUSH2 0x369A JUMP JUMPDEST POP PUSH2 0xB68 PUSH8 0xDD32EEDDA0A221D6 PUSH1 0xC0 SHL PUSH2 0x2B1F JUMP JUMPDEST DUP11 DUP4 PUSH2 0xB74 SWAP2 SWAP1 PUSH2 0x33B5 JUMP JUMPDEST DUP3 DUP13 PUSH2 0xB80 SWAP2 SWAP1 PUSH2 0x33E9 JUMP JUMPDEST PUSH2 0xB8A SWAP2 SWAP1 PUSH2 0x345A JUMP JUMPDEST SWAP1 POP PUSH2 0xBA0 PUSH8 0x41BE2ABDCC9133D8 PUSH1 0xC0 SHL PUSH2 0x2B1F JUMP JUMPDEST PUSH2 0xBB4 PUSH8 0x40F627B27945C378 PUSH1 0xC0 SHL PUSH2 0x2B1F JUMP JUMPDEST PUSH2 0xBC8 PUSH8 0xFC64B40C3CFE5FC2 PUSH1 0xC0 SHL PUSH2 0x2B1F JUMP JUMPDEST DUP10 DUP2 LT ISZERO PUSH2 0xC0B JUMPI PUSH1 0x40 MLOAD PUSH32 0x8C379A000000000000000000000000000000000000000000000000000000000 DUP2 MSTORE PUSH1 0x4 ADD PUSH2 0xC02 SWAP1 PUSH2 0x3713 JUMP JUMPDEST PUSH1 0x40 MLOAD DUP1 SWAP2 SUB SWAP1 REVERT JUMPDEST PUSH2 0xC1F PUSH8 0xCA1B1C8C0325ACDD PUSH1 0xC0 SHL PUSH2 0x2B1F JUMP JUMPDEST PUSH2 0xC33 PUSH8 0xA2E91FCC53E9A097 PUSH1 0xC0 SHL PUSH2 0x2B1F JUMP JUMPDEST PUSH2 0xC47 PUSH8 0x10D62A01B41C1CDC PUSH1 0xC0 SHL PUSH2 0x2B1F JUMP JUMPDEST DUP4 PUSH1 0x20 ADD MLOAD PUSH20 0xFFFFFFFFFFFFFFFFFFFFFFFFFFFFFFFFFFFFFFFF AND PUSH4 0xA9059CBB DUP9 DUP4 PUSH1 0x40 MLOAD DUP4 PUSH4 0xFFFFFFFF AND PUSH1 0xE0 SHL DUP2 MSTORE PUSH1 0x4 ADD PUSH2 0xC86 SWAP3 SWAP2 SWAP1 PUSH2 0x3733 JUMP JUMPDEST PUSH1 0x20 PUSH1 0x40 MLOAD DUP1 DUP4 SUB DUP2 PUSH1 0x0 DUP8 GAS CALL ISZERO DUP1 ISZERO PUSH2 0xCA5 JUMPI RETURNDATASIZE PUSH1 0x0 DUP1 RETURNDATACOPY RETURNDATASIZE PUSH1 0x0 REVERT JUMPDEST POP POP POP POP PUSH1 0x40 MLOAD RETURNDATASIZE PUSH1 0x1F NOT PUSH1 0x1F DUP3 ADD AND DUP3 ADD DUP1 PUSH1 0x40 MSTORE POP DUP2 ADD SWAP1 PUSH2 0xCC9 SWAP2 SWAP1 PUSH2 0x369A JUMP JUMPDEST POP PUSH2 0xCDE PUSH8 0x8DCADB22B852870E PUSH1 0xC0 SHL PUSH2 0x2B1F JUMP JUMPDEST DUP11 DUP4 PUSH2 0xCEA SWAP2 SWAP1 PUSH2 0x33B5 JUMP JUMPDEST PUSH1 0x3 DUP2 SWAP1 SSTORE POP PUSH2 0xD04 PUSH8 0xB136FCAA71607D38 PUSH1 0xC0 SHL PUSH2 0x2B1F JUMP JUMPDEST DUP1 DUP3 PUSH2 0xD10 SWAP2 SWAP1 PUSH2 0x375C JUMP JUMPDEST PUSH1 0x4 DUP2 SWAP1 SSTORE POP PUSH2 0xF9F JUMP JUMPDEST PUSH2 0xD2F PUSH8 0xFE85DAE170D404F6 PUSH1 0xC0 SHL PUSH2 0x2B1F JUMP JUMPDEST PUSH2 0xD43 PUSH8 0x41C2A81BC2289234 PUSH1 0xC0 SHL PUSH2 0x2B1F JUMP JUMPDEST PUSH2 0xD57 PUSH8 0x65624E39AA424A1A PUSH1 0xC0 SHL PUSH2 0x2B1F JUMP JUMPDEST DUP4 PUSH1 0x20 ADD MLOAD PUSH20 0xFFFFFFFFFFFFFFFFFFFFFFFFFFFFFFFFFFFFFFFF AND PUSH4 0x23B872DD CALLER ADDRESS DUP15 PUSH1 0x40 MLOAD DUP5 PUSH4 0xFFFFFFFF AND PUSH1 0xE0 SHL DUP2 MSTORE PUSH1 0x4 ADD PUSH2 0xD98 SWAP4 SWAP3 SWAP2 SWAP1 PUSH2 0x362B JUMP JUMPDEST PUSH1 0x20 PUSH1 0x40 MLOAD DUP1 DUP4 SUB DUP2 PUSH1 0x0 DUP8 GAS CALL ISZERO DUP1 ISZERO PUSH2 0xDB7 JUMPI RETURNDATASIZE PUSH1 0x0 DUP1 RETURNDATACOPY RETURNDATASIZE PUSH1 0x0 REVERT JUMPDEST POP POP POP POP PUSH1 0x40 MLOAD RETURNDATASIZE PUSH1 0x1F NOT PUSH1 0x1F DUP3 ADD AND DUP3 ADD DUP1 PUSH1 0x40 MSTORE POP DUP2 ADD SWAP1 PUSH2 0xDDB SWAP2 SWAP1 PUSH2 0x369A JUMP JUMPDEST POP PUSH2 0xDF0 PUSH8 0x7B4C5C9FDAD7A1DC PUSH1 0xC0 SHL PUSH2 0x2B1F JUMP JUMPDEST DUP11 DUP3 PUSH2 0xDFC SWAP2 SWAP1 PUSH2 0x33B5 JUMP JUMPDEST DUP4 DUP13 PUSH2 0xE08 SWAP2 SWAP1 PUSH2 0x33E9 JUMP JUMPDEST PUSH2 0xE12 SWAP2 SWAP1 PUSH2 0x345A JUMP JUMPDEST SWAP1 POP PUSH2 0xE28 PUSH8 0xDB7C34A798D80281 PUSH1 0xC0 SHL PUSH2 0x2B1F JUMP JUMPDEST PUSH2 0xE3C PUSH8 0x5ECA881BE89A5298 PUSH1 0xC0 SHL PUSH2 0x2B1F JUMP JUMPDEST PUSH2 0xE50 PUSH8 0x678944B377108B15 PUSH1 0xC0 SHL PUSH2 0x2B1F JUMP JUMPDEST DUP10 DUP2 LT ISZERO PUSH2 0xE93 JUMPI PUSH1 0x40 MLOAD PUSH32 0x8C379A000000000000000000000000000000000000000000000000000000000 DUP2 MSTORE PUSH1 0x4 ADD PUSH2 0xE8A SWAP1 PUSH2 0x3713 JUMP JUMPDEST PUSH1 0x40 MLOAD DUP1 SWAP2 SUB SWAP1 REVERT JUMPDEST PUSH2 0xEA7 PUSH8 0xE8DC1D6487081222 PUSH1 0xC0 SHL PUSH2 0x2B1F JUMP JUMPDEST PUSH2 0xEBB PUSH8 0x5220B151C79309CA PUSH1 0xC0 SHL PUSH2 0x2B1F JUMP JUMPDEST PUSH2 0xECF PUSH8 0x3ABF66949540149E PUSH1 0xC0 SHL PUSH2 0x2B1F JUMP JUMPDEST DUP4 PUSH1 0x0 ADD MLOAD PUSH20 0xFFFFFFFFFFFFFFFFFFFFFFFFFFFFFFFFFFFFFFFF AND PUSH4 0xA9059CBB DUP9 DUP4 PUSH1 0x40 MLOAD DUP4 PUSH4 0xFFFFFFFF AND PUSH1 0xE0 SHL DUP2 MSTORE PUSH1 0x4 ADD PUSH2 0xF0E SWAP3 SWAP2 SWAP1 PUSH2 0x3733 JUMP JUMPDEST PUSH1 0x20 PUSH1 0x40 MLOAD DUP1 DUP4 SUB DUP2 PUSH1 0x0 DUP8 GAS CALL ISZERO DUP1 ISZERO PUSH2 0xF2D JUMPI RETURNDATASIZE PUSH1 0x0 DUP1 RETURNDATACOPY RETURNDATASIZE PUSH1 0x0 REVERT JUMPDEST POP POP POP POP PUSH1 0x40 MLOAD RETURNDATASIZE PUSH1 0x1F NOT PUSH1 0x1F DUP3 ADD AND DUP3 ADD DUP1 PUSH1 0x40 MSTORE POP DUP2 ADD SWAP1 PUSH2 0xF51 SWAP2 SWAP1 PUSH2 0x369A JUMP JUMPDEST POP PUSH2 0xF66 PUSH8 0x643AAE1A30CB725E PUSH1 0xC0 SHL PUSH2 0x2B1F JUMP JUMPDEST DUP1 DUP4 PUSH2 0xF72 SWAP2 SWAP1 PUSH2 0x375C JUMP JUMPDEST PUSH1 0x3 DUP2 SWAP1 SSTORE POP PUSH2 0xF8C PUSH8 0xAC16AED25EE1428C PUSH1 0xC0 SHL PUSH2 0x2B1F JUMP JUMPDEST DUP11 DUP3 PUSH2 0xF98 SWAP2 SWAP1 PUSH2 0x33B5 JUMP JUMPDEST PUSH1 0x4 DUP2 SWAP1 SSTORE POP JUMPDEST PUSH2 0xFB3 PUSH8 0x75F2A07EE0B42874 PUSH1 0xC0 SHL PUSH2 0x2B1F JUMP JUMPDEST PUSH1 0x2 PUSH8 0xFFFFFFFFFFFFFFFF DUP2 GT ISZERO PUSH2 0xFCE JUMPI PUSH2 0xFCD PUSH2 0x3790 JUMP JUMPDEST JUMPDEST PUSH1 0x40 MLOAD SWAP1 DUP1 DUP3 MSTORE DUP1 PUSH1 0x20 MUL PUSH1 0x20 ADD DUP3 ADD PUSH1 0x40 MSTORE DUP1 ISZERO PUSH2 0xFFC JUMPI DUP2 PUSH1 0x20 ADD PUSH1 0x20 DUP3 MUL DUP1 CALLDATASIZE DUP4 CALLDATACOPY DUP1 DUP3 ADD SWAP2 POP POP SWAP1 POP JUMPDEST POP SWAP5 POP PUSH2 0x1013 PUSH8 0x51BC466DD1201726 PUSH1 0xC0 SHL PUSH2 0x2B1F JUMP JUMPDEST DUP11 DUP6 PUSH1 0x0 DUP2 MLOAD DUP2 LT PUSH2 0x1028 JUMPI PUSH2 0x1027 PUSH2 0x34F7 JUMP JUMPDEST JUMPDEST PUSH1 0x20 MUL PUSH1 0x20 ADD ADD DUP2 DUP2 MSTORE POP POP PUSH2 0x1048 PUSH8 0x7DF208B2E6CB3246 PUSH1 0xC0 SHL PUSH2 0x2B1F JUMP JUMPDEST DUP1 DUP6 PUSH1 0x1 DUP2 MLOAD DUP2 LT PUSH2 0x105D JUMPI PUSH2 0x105C PUSH2 0x34F7 JUMP JUMPDEST JUMPDEST PUSH1 0x20 MUL PUSH1 0x20 ADD ADD DUP2 DUP2 MSTORE POP POP PUSH2 0x107D PUSH8 0x33EB778961420AE5 PUSH1 0xC0 SHL PUSH2 0x2B1F JUMP JUMPDEST PUSH2 0x1091 PUSH8 0x2A235AFF65F1E590 PUSH1 0xC0 SHL PUSH2 0x2B1F JUMP JUMPDEST CALLER PUSH20 0xFFFFFFFFFFFFFFFFFFFFFFFFFFFFFFFFFFFFFFFF AND PUSH32 0x631FB37DBA9BBCB8B2F3BE2D669E365AE9F1BD850CC57DFE8B7CCD7D979A2BBA DUP11 DUP11 PUSH1 0x0 DUP2 DUP2 LT PUSH2 0x10DD JUMPI PUSH2 0x10DC PUSH2 0x34F7 JUMP JUMPDEST JUMPDEST SWAP1 POP PUSH1 0x20 MUL ADD PUSH1 0x20 DUP2 ADD SWAP1 PUSH2 0x10F2 SWAP2 SWAP1 PUSH2 0x3526 JUMP JUMPDEST DUP14 DUP13 DUP13 PUSH1 0x1 DUP2 DUP2 LT PUSH2 0x1107 JUMPI PUSH2 0x1106 PUSH2 0x34F7 JUMP JUMPDEST JUMPDEST SWAP1 POP PUSH1 0x20 MUL ADD PUSH1 0x20 DUP2 ADD SWAP1 PUSH2 0x111C SWAP2 SWAP1 PUSH2 0x3526 JUMP JUMPDEST DUP6 PUSH1 0x40 MLOAD PUSH2 0x112D SWAP5 SWAP4 SWAP3 SWAP2 SWAP1 PUSH2 0x37BF JUMP JUMPDEST PUSH1 0x40 MLOAD DUP1 SWAP2 SUB SWAP1 LOG2 PUSH2 0x1149 PUSH8 0xF561CFDB2BCB030 PUSH1 0xC0 SHL PUSH2 0x2B1F JUMP JUMPDEST PUSH2 0x115D PUSH8 0x247B345F9D2A9C49 PUSH1 0xC0 SHL PUSH2 0x2B1F JUMP JUMPDEST POP POP POP POP SWAP7 SWAP6 POP POP POP POP POP POP JUMP JUMPDEST PUSH1 0x2 PUSH1 0x0 SWAP1 SLOAD SWAP1 PUSH2 0x100 EXP SWAP1 DIV PUSH20 0xFFFFFFFFFFFFFFFFFFFFFFFFFFFFFFFFFFFFFFFF AND DUP2 JUMP JUMPDEST PUSH1 0x0 DUP1 SLOAD SWAP1 PUSH2 0x100 EXP SWAP1 DIV PUSH20 0xFFFFFFFFFFFFFFFFFFFFFFFFFFFFFFFFFFFFFFFF AND DUP2 JUMP JUMPDEST PUSH1 0x5 PUSH1 0x0 SWAP1 SLOAD SWAP1 PUSH2 0x100 EXP SWAP1 DIV PUSH20 0xFFFFFFFFFFFFFFFFFFFFFFFFFFFFFFFFFFFFFFFF AND DUP2 JUMP JUMPDEST PUSH1 0x0 PUSH2 0x11F1 PUSH8 0xC0CC46DC0117B2F0 PUSH1 0xC0 SHL PUSH2 0x2B1F JUMP JUMPDEST PUSH2 0x1205 PUSH8 0x982C91054D74E958 PUSH1 0xC0 SHL PUSH2 0x2B1F JUMP JUMPDEST PUSH2 0x1219 PUSH8 0x5DD2E1E05E27B393 PUSH1 0xC0 SHL PUSH2 0x2B1F JUMP JUMPDEST PUSH1 0x0 PUSH1 0x40 MLOAD DUP1 PUSH1 0x40 ADD PUSH1 0x40 MSTORE DUP1 PUSH1 0x1 PUSH1 0x0 SWAP1 SLOAD SWAP1 PUSH2 0x100 EXP SWAP1 DIV PUSH20 0xFFFFFFFFFFFFFFFFFFFFFFFFFFFFFFFFFFFFFFFF AND PUSH20 0xFFFFFFFFFFFFFFFFFFFFFFFFFFFFFFFFFFFFFFFF AND DUP2 MSTORE PUSH1 0x20 ADD PUSH1 0x2 PUSH1 0x0 SWAP1 SLOAD SWAP1 PUSH2 0x100 EXP SWAP1 DIV PUSH20 0xFFFFFFFFFFFFFFFFFFFFFFFFFFFFFFFFFFFFFFFF AND PUSH20 0xFFFFFFFFFFFFFFFFFFFFFFFFFFFFFFFFFFFFFFFF AND DUP2 MSTORE POP SWAP1 POP PUSH2 0x12B6 PUSH8 0xFB51BEC7B9B841F6 PUSH1 0xC0 SHL PUSH2 0x2B1F JUMP JUMPDEST PUSH2 0x12CA PUSH8 0xC33A66768B73E286 PUSH1 0xC0 SHL PUSH2 0x2B1F JUMP JUMPDEST PUSH2 0x12DE PUSH8 0x4262F52215D72387 PUSH1 0xC0 SHL PUSH2 0x2B1F JUMP JUMPDEST DUP1 PUSH1 0x0 ADD MLOAD PUSH20 0xFFFFFFFFFFFFFFFFFFFFFFFFFFFFFFFFFFFFFFFF AND DUP5 PUSH20 0xFFFFFFFFFFFFFFFFFFFFFFFFFFFFFFFFFFFFFFFF AND EQ DUP1 ISZERO PUSH2 0x134C JUMPI POP DUP1 PUSH1 0x20 ADD MLOAD PUSH20 0xFFFFFFFFFFFFFFFFFFFFFFFFFFFFFFFFFFFFFFFF AND DUP4 PUSH20 0xFFFFFFFFFFFFFFFFFFFFFFFFFFFFFFFFFFFFFFFF AND EQ JUMPDEST DUP1 ISZERO PUSH2 0x1368 JUMPI POP PUSH2 0x1367 PUSH8 0xF1D1F535CFF22F97 PUSH1 0xC0 SHL PUSH2 0x2B22 JUMP JUMPDEST JUMPDEST DUP1 PUSH2 0x13F9 JUMPI POP DUP1 PUSH1 0x20 ADD MLOAD PUSH20 0xFFFFFFFFFFFFFFFFFFFFFFFFFFFFFFFFFFFFFFFF AND DUP5 PUSH20 0xFFFFFFFFFFFFFFFFFFFFFFFFFFFFFFFFFFFFFFFF AND EQ DUP1 ISZERO PUSH2 0x13DC JUMPI POP DUP1 PUSH1 0x0 ADD MLOAD PUSH20 0xFFFFFFFFFFFFFFFFFFFFFFFFFFFFFFFFFFFFFFFF AND DUP4 PUSH20 0xFFFFFFFFFFFFFFFFFFFFFFFFFFFFFFFFFFFFFFFF AND EQ JUMPDEST DUP1 ISZERO PUSH2 0x13F8 JUMPI POP PUSH2 0x13F7 PUSH8 0x295620AE867E3BAA PUSH1 0xC0 SHL PUSH2 0x2B22 JUMP JUMPDEST JUMPDEST JUMPDEST PUSH2 0x1438 JUMPI PUSH1 0x40 MLOAD PUSH32 0x8C379A000000000000000000000000000000000000000000000000000000000 DUP2 MSTORE PUSH1 0x4 ADD PUSH2 0x142F SWAP1 PUSH2 0x3850 JUMP JUMPDEST PUSH1 0x40 MLOAD DUP1 SWAP2 SUB SWAP1 REVERT JUMPDEST PUSH2 0x144C PUSH8 0xC52AFA1CE6F59BEB PUSH1 0xC0 SHL PUSH2 0x2B1F JUMP JUMPDEST PUSH2 0x1460 PUSH8 0x9B5AE3D7847C314F PUSH1 0xC0 SHL PUSH2 0x2B1F JUMP JUMPDEST PUSH2 0x1474 PUSH8 0x3E374BA16B6F705A PUSH1 0xC0 SHL PUSH2 0x2B1F JUMP JUMPDEST PUSH1 0x0 PUSH1 0x3 SLOAD SWAP1 POP PUSH2 0x148F PUSH8 0xEB2F7A1550DCA04C PUSH1 0xC0 SHL PUSH2 0x2B1F JUMP JUMPDEST PUSH2 0x14A3 PUSH8 0xD33E8F33C13A99E3 PUSH1 0xC0 SHL PUSH2 0x2B1F JUMP JUMPDEST PUSH1 0x0 PUSH1 0x4 SLOAD SWAP1 POP PUSH2 0x14BE PUSH8 0xEA01E298BF4EC32F PUSH1 0xC0 SHL PUSH2 0x2B1F JUMP JUMPDEST PUSH2 0x14D2 PUSH8 0x6D37225F6955D91C PUSH1 0xC0 SHL PUSH2 0x2B1F JUMP JUMPDEST PUSH2 0x14E6 PUSH8 0x66B7EAF003E9C2EC PUSH1 0xC0 SHL PUSH2 0x2B1F JUMP JUMPDEST PUSH1 0x0 DUP3 GT PUSH2 0x1529 JUMPI PUSH1 0x40 MLOAD PUSH32 0x8C379A000000000000000000000000000000000000000000000000000000000 DUP2 MSTORE PUSH1 0x4 ADD PUSH2 0x1520 SWAP1 PUSH2 0x38BC JUMP JUMPDEST PUSH1 0x40 MLOAD DUP1 SWAP2 SUB SWAP1 REVERT JUMPDEST PUSH2 0x153D PUSH8 0x2AFDC6DC0832A5D9 PUSH1 0xC0 SHL PUSH2 0x2B1F JUMP JUMPDEST PUSH2 0x1551 PUSH8 0x58019E569F57F1BA PUSH1 0xC0 SHL PUSH2 0x2B1F JUMP JUMPDEST DUP2 PUSH8 0xDE0B6B3A7640000 DUP3 PUSH2 0x1566 SWAP2 SWAP1 PUSH2 0x33E9 JUMP JUMPDEST PUSH2 0x1570 SWAP2 SWAP1 PUSH2 0x345A JUMP JUMPDEST SWAP4 POP PUSH2 0x1586 PUSH8 0xF549EEC4CB24472F PUSH1 0xC0 SHL PUSH2 0x2B1F JUMP JUMPDEST PUSH2 0x159A PUSH8 0x7298BF02FF6222FE PUSH1 0xC0 SHL PUSH2 0x2B1F JUMP JUMPDEST POP POP POP SWAP3 SWAP2 POP POP JUMP JUMPDEST PUSH1 0x0 DUP1 PUSH2 0x15BA PUSH8 0x58A88A2B74D18AE PUSH1 0xC0 SHL PUSH2 0x2B1F JUMP JUMPDEST PUSH2 0x15CE PUSH8 0xB7E8EDC06B2605D0 PUSH1 0xC0 SHL PUSH2 0x2B1F JUMP JUMPDEST PUSH2 0x15E2 PUSH8 0xF010D9830FA8AB0C PUSH1 0xC0 SHL PUSH2 0x2B1F JUMP JUMPDEST PUSH2 0x15F6 PUSH8 0x6F8F881DFF7B9805 PUSH1 0xC0 SHL PUSH2 0x2B1F JUMP JUMPDEST TIMESTAMP DUP4 GT PUSH2 0x1638 JUMPI PUSH1 0x40 MLOAD PUSH32 0x8C379A000000000000000000000000000000000000000000000000000000000 DUP2 MSTORE PUSH1 0x4 ADD PUSH2 0x162F SWAP1 PUSH2 0x34D7 JUMP JUMPDEST PUSH1 0x40 MLOAD DUP1 SWAP2 SUB SWAP1 REVERT JUMPDEST PUSH2 0x164C PUSH8 0xAE8D1B78A77AB705 PUSH1 0xC0 SHL PUSH2 0x2B1F JUMP JUMPDEST PUSH2 0x1660 PUSH8 0x605C5C7165039ACC PUSH1 0xC0 SHL PUSH2 0x2B1F JUMP JUMPDEST PUSH2 0x1674 PUSH8 0x3FA0FB9B46BC193D PUSH1 0xC0 SHL PUSH2 0x2B1F JUMP JUMPDEST PUSH1 0x0 PUSH1 0x40 MLOAD DUP1 PUSH1 0x40 ADD PUSH1 0x40 MSTORE DUP1 PUSH1 0x1 PUSH1 0x0 SWAP1 SLOAD SWAP1 PUSH2 0x100 EXP SWAP1 DIV PUSH20 0xFFFFFFFFFFFFFFFFFFFFFFFFFFFFFFFFFFFFFFFF AND PUSH20 0xFFFFFFFFFFFFFFFFFFFFFFFFFFFFFFFFFFFFFFFF AND DUP2 MSTORE PUSH1 0x20 ADD PUSH1 0x2 PUSH1 0x0 SWAP1 SLOAD SWAP1 PUSH2 0x100 EXP SWAP1 DIV PUSH20 0xFFFFFFFFFFFFFFFFFFFFFFFFFFFFFFFFFFFFFFFF AND PUSH20 0xFFFFFFFFFFFFFFFFFFFFFFFFFFFFFFFFFFFFFFFF AND DUP2 MSTORE POP SWAP1 POP PUSH2 0x1711 PUSH8 0x9F4BA385491B981A PUSH1 0xC0 SHL PUSH2 0x2B1F JUMP JUMPDEST PUSH2 0x1725 PUSH8 0x4A2FF02D524EA3EF PUSH1 0xC0 SHL PUSH2 0x2B1F JUMP JUMPDEST PUSH2 0x1739 PUSH8 0x22AE50B9CDA1EE45 PUSH1 0xC0 SHL PUSH2 0x2B1F JUMP JUMPDEST DUP1 PUSH1 0x0 ADD MLOAD PUSH20 0xFFFFFFFFFFFFFFFFFFFFFFFFFFFFFFFFFFFFFFFF AND DUP11 PUSH20 0xFFFFFFFFFFFFFFFFFFFFFFFFFFFFFFFFFFFFFFFF AND EQ DUP1 ISZERO PUSH2 0x17A7 JUMPI POP DUP1 PUSH1 0x20 ADD MLOAD PUSH20 0xFFFFFFFFFFFFFFFFFFFFFFFFFFFFFFFFFFFFFFFF AND DUP10 PUSH20 0xFFFFFFFFFFFFFFFFFFFFFFFFFFFFFFFFFFFFFFFF AND EQ JUMPDEST PUSH2 0x17E6 JUMPI PUSH1 0x40 MLOAD PUSH32 0x8C379A000000000000000000000000000000000000000000000000000000000 DUP2 MSTORE PUSH1 0x4 ADD PUSH2 0x17DD SWAP1 PUSH2 0x3928 JUMP JUMPDEST PUSH1 0x40 MLOAD DUP1 SWAP2 SUB SWAP1 REVERT JUMPDEST PUSH2 0x17FA PUSH8 0x7B8DC538E0050222 PUSH1 0xC0 SHL PUSH2 0x2B1F JUMP JUMPDEST PUSH2 0x180E PUSH8 0xE586009C64820BA3 PUSH1 0xC0 SHL PUSH2 0x2B1F JUMP JUMPDEST PUSH2 0x1822 PUSH8 0x284E94B5C27DB3ED PUSH1 0xC0 SHL PUSH2 0x2B1F JUMP JUMPDEST PUSH1 0x0 PUSH1 0x3 SLOAD SWAP1 POP PUSH2 0x183D PUSH8 0xF12E5C1115338A9E PUSH1 0xC0 SHL PUSH2 0x2B1F JUMP JUMPDEST PUSH2 0x1851 PUSH8 0x66E9B651C91DB0F5 PUSH1 0xC0 SHL PUSH2 0x2B1F JUMP JUMPDEST PUSH1 0x0 PUSH1 0x4 SLOAD SWAP1 POP PUSH2 0x186C PUSH8 0xC39FD16A9214FED1 PUSH1 0xC0 SHL PUSH2 0x2B1F JUMP JUMPDEST PUSH2 0x1880 PUSH8 0xD163A8741BCEE632 PUSH1 0xC0 SHL PUSH2 0x2B1F JUMP JUMPDEST PUSH1 0x0 DUP1 PUSH1 0x0 SWAP1 SLOAD SWAP1 PUSH2 0x100 EXP SWAP1 DIV PUSH20 0xFFFFFFFFFFFFFFFFFFFFFFFFFFFFFFFFFFFFFFFF AND PUSH20 0xFFFFFFFFFFFFFFFFFFFFFFFFFFFFFFFFFFFFFFFF AND PUSH4 0x18160DDD PUSH1 0x40 MLOAD DUP2 PUSH4 0xFFFFFFFF AND PUSH1 0xE0 SHL DUP2 MSTORE PUSH1 0x4 ADD PUSH1 0x20 PUSH1 0x40 MLOAD DUP1 DUP4 SUB DUP2 DUP7 GAS STATICCALL ISZERO DUP1 ISZERO PUSH2 0x18EE JUMPI RETURNDATASIZE PUSH1 0x0 DUP1 RETURNDATACOPY RETURNDATASIZE PUSH1 0x0 REVERT JUMPDEST POP POP POP POP PUSH1 0x40 MLOAD RETURNDATASIZE PUSH1 0x1F NOT PUSH1 0x1F DUP3 ADD AND DUP3 ADD DUP1 PUSH1 0x40 MSTORE POP DUP2 ADD SWAP1 PUSH2 0x1912 SWAP2 SWAP1 PUSH2 0x395D JUMP JUMPDEST SWAP1 POP PUSH2 0x1928 PUSH8 0x4DBEEDC3C678C2F0 PUSH1 0xC0 SHL PUSH2 0x2B1F JUMP JUMPDEST DUP1 DUP4 DUP13 PUSH2 0x1935 SWAP2 SWAP1 PUSH2 0x33E9 JUMP JUMPDEST PUSH2 0x193F SWAP2 SWAP1 PUSH2 0x345A JUMP JUMPDEST SWAP6 POP PUSH2 0x1955 PUSH8 0x1A1D8EF797ECBAE5 PUSH1 0xC0 SHL PUSH2 0x2B1F JUMP JUMPDEST DUP1 DUP3 DUP13 PUSH2 0x1962 SWAP2 SWAP1 PUSH2 0x33E9 JUMP JUMPDEST PUSH2 0x196C SWAP2 SWAP1 PUSH2 0x345A JUMP JUMPDEST SWAP5 POP PUSH2 0x1982 PUSH8 0x3333E06883AB31EF PUSH1 0xC0 SHL PUSH2 0x2B1F JUMP JUMPDEST PUSH2 0x1996 PUSH8 0xCA7429E72C701462 PUSH1 0xC0 SHL PUSH2 0x2B1F JUMP JUMPDEST PUSH2 0x19AA PUSH8 0x5C41997CD4734D91 PUSH1 0xC0 SHL PUSH2 0x2B1F JUMP JUMPDEST DUP10 DUP7 LT ISZERO PUSH2 0x19ED JUMPI PUSH1 0x40 MLOAD PUSH32 0x8C379A000000000000000000000000000000000000000000000000000000000 DUP2 MSTORE PUSH1 0x4 ADD PUSH2 0x19E4 SWAP1 PUSH2 0x39D6 JUMP JUMPDEST PUSH1 0x40 MLOAD DUP1 SWAP2 SUB SWAP1 REVERT JUMPDEST PUSH2 0x1A01 PUSH8 0x5CD899CD5AE0EDA3 PUSH1 0xC0 SHL PUSH2 0x2B1F JUMP JUMPDEST PUSH2 0x1A15 PUSH8 0xB5F2F36DD9A2A203 PUSH1 0xC0 SHL PUSH2 0x2B1F JUMP JUMPDEST PUSH2 0x1A29 PUSH8 0x10691983C9B7E692 PUSH1 0xC0 SHL PUSH2 0x2B1F JUMP JUMPDEST PUSH2 0x1A3D PUSH8 0xB0AF98A3A8E7192B PUSH1 0xC0 SHL PUSH2 0x2B1F JUMP JUMPDEST DUP9 DUP6 LT ISZERO PUSH2 0x1A80 JUMPI PUSH1 0x40 MLOAD PUSH32 0x8C379A000000000000000000000000000000000000000000000000000000000 DUP2 MSTORE PUSH1 0x4 ADD PUSH2 0x1A77 SWAP1 PUSH2 0x3A42 JUMP JUMPDEST PUSH1 0x40 MLOAD DUP1 SWAP2 SUB SWAP1 REVERT JUMPDEST PUSH2 0x1A94 PUSH8 0xEA24F9B24BA4A45E PUSH1 0xC0 SHL PUSH2 0x2B1F JUMP JUMPDEST PUSH2 0x1AA8 PUSH8 0xD33688DF8F105A2A PUSH1 0xC0 SHL PUSH2 0x2B1F JUMP JUMPDEST PUSH2 0x1ABC PUSH8 0x6C4F3D555A10CC11 PUSH1 0xC0 SHL PUSH2 0x2B1F JUMP JUMPDEST PUSH2 0x1AD0 PUSH8 0x7F6CA7D9A11052C0 PUSH1 0xC0 SHL PUSH2 0x2B1F JUMP JUMPDEST DUP11 PUSH1 0x0 DUP1 SLOAD SWAP1 PUSH2 0x100 EXP SWAP1 DIV PUSH20 0xFFFFFFFFFFFFFFFFFFFFFFFFFFFFFFFFFFFFFFFF AND PUSH20 0xFFFFFFFFFFFFFFFFFFFFFFFFFFFFFFFFFFFFFFFF AND PUSH4 0x70A08231 CALLER PUSH1 0x40 MLOAD DUP3 PUSH4 0xFFFFFFFF AND PUSH1 0xE0 SHL DUP2 MSTORE PUSH1 0x4 ADD PUSH2 0x1B2A SWAP2 SWAP1 PUSH2 0x2E05 JUMP JUMPDEST PUSH1 0x20 PUSH1 0x40 MLOAD DUP1 DUP4 SUB DUP2 DUP7 GAS STATICCALL ISZERO DUP1 ISZERO PUSH2 0x1B47 JUMPI RETURNDATASIZE PUSH1 0x0 DUP1 RETURNDATACOPY RETURNDATASIZE PUSH1 0x0 REVERT JUMPDEST POP POP POP POP PUSH1 0x40 MLOAD RETURNDATASIZE PUSH1 0x1F NOT PUSH1 0x1F DUP3 ADD AND DUP3 ADD DUP1 PUSH1 0x40 MSTORE POP DUP2 ADD SWAP1 PUSH2 0x1B6B SWAP2 SWAP1 PUSH2 0x395D JUMP JUMPDEST LT ISZERO PUSH2 0x1BAC JUMPI PUSH1 0x40 MLOAD PUSH32 0x8C379A000000000000000000000000000000000000000000000000000000000 DUP2 MSTORE PUSH1 0x4 ADD PUSH2 0x1BA3 SWAP1 PUSH2 0x3AAE JUMP JUMPDEST PUSH1 0x40 MLOAD DUP1 SWAP2 SUB SWAP1 REVERT JUMPDEST PUSH2 0x1BC0 PUSH8 0x7348FCFB9E689108 PUSH1 0xC0 SHL PUSH2 0x2B1F JUMP JUMPDEST PUSH2 0x1BD4 PUSH8 0xB7CE76458E49C5FA PUSH1 0xC0 SHL PUSH2 0x2B1F JUMP JUMPDEST PUSH2 0x1BE8 PUSH8 0x2F9187A6188D73C PUSH1 0xC0 SHL PUSH2 0x2B1F JUMP JUMPDEST PUSH2 0x1BFC PUSH8 0xBC6B5AED9F6E3A0A PUSH1 0xC0 SHL PUSH2 0x2B1F JUMP JUMPDEST DUP6 DUP4 LT ISZERO DUP1 ISZERO PUSH2 0x1C0C JUMPI POP DUP5 DUP3 LT ISZERO JUMPDEST PUSH2 0x1C4B JUMPI PUSH1 0x40 MLOAD PUSH32 0x8C379A000000000000000000000000000000000000000000000000000000000 DUP2 MSTORE PUSH1 0x4 ADD PUSH2 0x1C42 SWAP1 PUSH2 0x3B1A JUMP JUMPDEST PUSH1 0x40 MLOAD DUP1 SWAP2 SUB SWAP1 REVERT JUMPDEST PUSH2 0x1C5F PUSH8 0xC36BDBCF5B5E453B PUSH1 0xC0 SHL PUSH2 0x2B1F JUMP JUMPDEST PUSH2 0x1C73 PUSH8 0x3FBF57CB78685605 PUSH1 0xC0 SHL PUSH2 0x2B1F JUMP JUMPDEST PUSH2 0x1C87 PUSH8 0x590191A93CD85AEC PUSH1 0xC0 SHL PUSH2 0x2B1F JUMP JUMPDEST PUSH1 0x0 DUP1 SLOAD SWAP1 PUSH2 0x100 EXP SWAP1 DIV PUSH20 0xFFFFFFFFFFFFFFFFFFFFFFFFFFFFFFFFFFFFFFFF AND PUSH20 0xFFFFFFFFFFFFFFFFFFFFFFFFFFFFFFFFFFFFFFFF AND PUSH4 0x79CC6790 CALLER DUP14 PUSH1 0x40 MLOAD DUP4 PUSH4 0xFFFFFFFF AND PUSH1 0xE0 SHL DUP2 MSTORE PUSH1 0x4 ADD PUSH2 0x1CE2 SWAP3 SWAP2 SWAP1 PUSH2 0x3733 JUMP JUMPDEST PUSH1 0x0 PUSH1 0x40 MLOAD DUP1 DUP4 SUB DUP2 PUSH1 0x0 DUP8 DUP1 EXTCODESIZE ISZERO DUP1 ISZERO PUSH2 0x1CFC JUMPI PUSH1 0x0 DUP1 REVERT JUMPDEST POP GAS CALL ISZERO DUP1 ISZERO PUSH2 0x1D10 JUMPI RETURNDATASIZE PUSH1 0x0 DUP1 RETURNDATACOPY RETURNDATASIZE PUSH1 0x0 REVERT JUMPDEST POP POP POP POP PUSH2 0x1D28 PUSH8 0x9BBE50C252CE6C98 PUSH1 0xC0 SHL PUSH2 0x2B1F JUMP JUMPDEST PUSH2 0x1D3C PUSH8 0x45E957EFD64089C7 PUSH1 0xC0 SHL PUSH2 0x2B1F JUMP JUMPDEST DUP4 PUSH1 0x0 ADD MLOAD PUSH20 0xFFFFFFFFFFFFFFFFFFFFFFFFFFFFFFFFFFFFFFFF AND PUSH4 0xA9059CBB DUP10 DUP9 PUSH1 0x40 MLOAD DUP4 PUSH4 0xFFFFFFFF AND PUSH1 0xE0 SHL DUP2 MSTORE PUSH1 0x4 ADD PUSH2 0x1D7B SWAP3 SWAP2 SWAP1 PUSH2 0x3733 JUMP JUMPDEST PUSH1 0x20 PUSH1 0x40 MLOAD DUP1 DUP4 SUB DUP2 PUSH1 0x0 DUP8 GAS CALL ISZERO DUP1 ISZERO PUSH2 0x1D9A JUMPI RETURNDATASIZE PUSH1 0x0 DUP1 RETURNDATACOPY RETURNDATASIZE PUSH1 0x0 REVERT JUMPDEST POP POP POP POP PUSH1 0x40 MLOAD RETURNDATASIZE PUSH1 0x1F NOT PUSH1 0x1F DUP3 ADD AND DUP3 ADD DUP1 PUSH1 0x40 MSTORE POP DUP2 ADD SWAP1 PUSH2 0x1DBE SWAP2 SWAP1 PUSH2 0x369A JUMP JUMPDEST POP PUSH2 0x1DD3 PUSH8 0x778C21BC5BC4749D PUSH1 0xC0 SHL PUSH2 0x2B1F JUMP JUMPDEST PUSH2 0x1DE7 PUSH8 0x1E4C46B2F9874BD5 PUSH1 0xC0 SHL PUSH2 0x2B1F JUMP JUMPDEST DUP4 PUSH1 0x20 ADD MLOAD PUSH20 0xFFFFFFFFFFFFFFFFFFFFFFFFFFFFFFFFFFFFFFFF AND PUSH4 0xA9059CBB DUP10 DUP8 PUSH1 0x40 MLOAD DUP4 PUSH4 0xFFFFFFFF AND PUSH1 0xE0 SHL DUP2 MSTORE PUSH1 0x4 ADD PUSH2 0x1E26 SWAP3 SWAP2 SWAP1 PUSH2 0x3733 JUMP JUMPDEST PUSH1 0x20 PUSH1 0x40 MLOAD DUP1 DUP4 SUB DUP2 PUSH1 0x0 DUP8 GAS CALL ISZERO DUP1 ISZERO PUSH2 0x1E45 JUMPI RETURNDATASIZE PUSH1 0x0 DUP1 RETURNDATACOPY RETURNDATASIZE PUSH1 0x0 REVERT JUMPDEST POP POP POP POP PUSH1 0x40 MLOAD RETURNDATASIZE PUSH1 0x1F NOT PUSH1 0x1F DUP3 ADD AND DUP3 ADD DUP1 PUSH1 0x40 MSTORE POP DUP2 ADD SWAP1 PUSH2 0x1E69 SWAP2 SWAP1 PUSH2 0x369A JUMP JUMPDEST POP PUSH2 0x1E7E PUSH8 0x5D50D96A1B6CD4E5 PUSH1 0xC0 SHL PUSH2 0x2B1F JUMP JUMPDEST DUP6 DUP4 PUSH2 0x1E8A SWAP2 SWAP1 PUSH2 0x375C JUMP JUMPDEST PUSH1 0x3 DUP2 SWAP1 SSTORE POP PUSH2 0x1EA4 PUSH8 0x68392988124C1A1C PUSH1 0xC0 SHL PUSH2 0x2B1F JUMP JUMPDEST DUP5 DUP3 PUSH2 0x1EB0 SWAP2 SWAP1 PUSH2 0x375C JUMP JUMPDEST PUSH1 0x4 DUP2 SWAP1 SSTORE POP PUSH2 0x1ECA PUSH8 0xC5ED206C72D1923D PUSH1 0xC0 SHL PUSH2 0x2B1F JUMP JUMPDEST PUSH2 0x1EDE PUSH8 0x774BD6A07F92BF4A PUSH1 0xC0 SHL PUSH2 0x2B1F JUMP JUMPDEST CALLER PUSH20 0xFFFFFFFFFFFFFFFFFFFFFFFFFFFFFFFFFFFFFFFF AND PUSH32 0x1DC8BB69DF2B8E91FBDCBFCF93D951B3F0000F085A95FE3F7946D6161439245D DUP8 DUP8 DUP15 PUSH1 0x40 MLOAD PUSH2 0x1F28 SWAP4 SWAP3 SWAP2 SWAP1 PUSH2 0x3266 JUMP JUMPDEST PUSH1 0x40 MLOAD DUP1 SWAP2 SUB SWAP1 LOG2 PUSH2 0x1F44 PUSH8 0xD8B44A31F769B1B7 PUSH1 0xC0 SHL PUSH2 0x2B1F JUMP JUMPDEST PUSH2 0x1F58 PUSH8 0x983D4D7DFCDFDFAB PUSH1 0xC0 SHL PUSH2 0x2B1F JUMP JUMPDEST POP POP POP POP SWAP8 POP SWAP8 SWAP6 POP POP POP POP POP POP JUMP JUMPDEST PUSH1 0x3 SLOAD DUP2 JUMP JUMPDEST PUSH1 0x0 DUP1 PUSH1 0x0 PUSH2 0x1F87 PUSH8 0x8FA0268AB2567282 PUSH1 0xC0 SHL PUSH2 0x2B1F JUMP JUMPDEST PUSH2 0x1F9B PUSH8 0xA8551FF4BB553CBD PUSH1 0xC0 SHL PUSH2 0x2B1F JUMP JUMPDEST PUSH2 0x1FAF PUSH8 0xC9F47D9068A08ADF PUSH1 0xC0 SHL PUSH2 0x2B1F JUMP JUMPDEST PUSH1 0x0 PUSH1 0x40 MLOAD DUP1 PUSH1 0x40 ADD PUSH1 0x40 MSTORE DUP1 PUSH1 0x1 PUSH1 0x0 SWAP1 SLOAD SWAP1 PUSH2 0x100 EXP SWAP1 DIV PUSH20 0xFFFFFFFFFFFFFFFFFFFFFFFFFFFFFFFFFFFFFFFF AND PUSH20 0xFFFFFFFFFFFFFFFFFFFFFFFFFFFFFFFFFFFFFFFF AND DUP2 MSTORE PUSH1 0x20 ADD PUSH1 0x2 PUSH1 0x0 SWAP1 SLOAD SWAP1 PUSH2 0x100 EXP SWAP1 DIV PUSH20 0xFFFFFFFFFFFFFFFFFFFFFFFFFFFFFFFFFFFFFFFF AND PUSH20 0xFFFFFFFFFFFFFFFFFFFFFFFFFFFFFFFFFFFFFFFF AND DUP2 MSTORE POP SWAP1 POP PUSH2 0x204C PUSH8 0x2DC9FF18DFC75CED PUSH1 0xC0 SHL PUSH2 0x2B1F JUMP JUMPDEST PUSH2 0x2060 PUSH8 0x1690BCD39DF79E5F PUSH1 0xC0 SHL PUSH2 0x2B1F JUMP JUMPDEST PUSH2 0x2074 PUSH8 0xDA8675B78BE003E7 PUSH1 0xC0 SHL PUSH2 0x2B1F JUMP JUMPDEST TIMESTAMP DUP6 GT PUSH2 0x20B6 JUMPI PUSH1 0x40 MLOAD PUSH32 0x8C379A000000000000000000000000000000000000000000000000000000000 DUP2 MSTORE PUSH1 0x4 ADD PUSH2 0x20AD SWAP1 PUSH2 0x34D7 JUMP JUMPDEST PUSH1 0x40 MLOAD DUP1 SWAP2 SUB SWAP1 REVERT JUMPDEST PUSH2 0x20CA PUSH8 0x30BF962F7D2CA538 PUSH1 0xC0 SHL PUSH2 0x2B1F JUMP JUMPDEST PUSH2 0x20DE PUSH8 0xA7FC02C9B8C02B52 PUSH1 0xC0 SHL PUSH2 0x2B1F JUMP JUMPDEST PUSH2 0x20F2 PUSH8 0x783124E0C61D488E PUSH1 0xC0 SHL PUSH2 0x2B1F JUMP JUMPDEST PUSH2 0x2106 PUSH8 0xE0C7E0D0813FBE10 PUSH1 0xC0 SHL PUSH2 0x2B1F JUMP JUMPDEST DUP1 PUSH1 0x0 ADD MLOAD PUSH20 0xFFFFFFFFFFFFFFFFFFFFFFFFFFFFFFFFFFFFFFFF AND DUP13 PUSH20 0xFFFFFFFFFFFFFFFFFFFFFFFFFFFFFFFFFFFFFFFF AND EQ DUP1 ISZERO PUSH2 0x2174 JUMPI POP DUP1 PUSH1 0x20 ADD MLOAD PUSH20 0xFFFFFFFFFFFFFFFFFFFFFFFFFFFFFFFFFFFFFFFF AND DUP12 PUSH20 0xFFFFFFFFFFFFFFFFFFFFFFFFFFFFFFFFFFFFFFFF AND EQ JUMPDEST PUSH2 0x21B3 JUMPI PUSH1 0x40 MLOAD PUSH32 0x8C379A000000000000000000000000000000000000000000000000000000000 DUP2 MSTORE PUSH1 0x4 ADD PUSH2 0x21AA SWAP1 PUSH2 0x3928 JUMP JUMPDEST PUSH1 0x40 MLOAD DUP1 SWAP2 SUB SWAP1 REVERT JUMPDEST PUSH2 0x21C7 PUSH8 0x9071602CD6CD1EF9 PUSH1 0xC0 SHL PUSH2 0x2B1F JUMP JUMPDEST PUSH2 0x21DB PUSH8 0x54B22F793E3024A7 PUSH1 0xC0 SHL PUSH2 0x2B1F JUMP JUMPDEST PUSH2 0x21EF PUSH8 0xF19BD12EA49BEEF1 PUSH1 0xC0 SHL PUSH2 0x2B1F JUMP JUMPDEST PUSH1 0x0 PUSH1 0x3 SLOAD SWAP1 POP PUSH2 0x220A PUSH8 0xE9DDFA9F7C44E81D PUSH1 0xC0 SHL PUSH2 0x2B1F JUMP JUMPDEST PUSH2 0x221E PUSH8 0x8ABE8D729780B58C PUSH1 0xC0 SHL PUSH2 0x2B1F JUMP JUMPDEST PUSH1 0x0 PUSH1 0x4 SLOAD SWAP1 POP PUSH2 0x2239 PUSH8 0xC4297A67D23A0D6E PUSH1 0xC0 SHL PUSH2 0x2B1F JUMP JUMPDEST PUSH2 0x224D PUSH8 0x50F30C0DA8329A0A PUSH1 0xC0 SHL PUSH2 0x2B1F JUMP JUMPDEST PUSH1 0x0 DUP1 PUSH1 0x0 SWAP1 SLOAD SWAP1 PUSH2 0x100 EXP SWAP1 DIV PUSH20 0xFFFFFFFFFFFFFFFFFFFFFFFFFFFFFFFFFFFFFFFF AND PUSH20 0xFFFFFFFFFFFFFFFFFFFFFFFFFFFFFFFFFFFFFFFF AND PUSH4 0x18160DDD PUSH1 0x40 MLOAD DUP2 PUSH4 0xFFFFFFFF AND PUSH1 0xE0 SHL DUP2 MSTORE PUSH1 0x4 ADD PUSH1 0x20 PUSH1 0x40 MLOAD DUP1 DUP4 SUB DUP2 DUP7 GAS STATICCALL ISZERO DUP1 ISZERO PUSH2 0x22BB JUMPI RETURNDATASIZE PUSH1 0x0 DUP1 RETURNDATACOPY RETURNDATASIZE PUSH1 0x0 REVERT JUMPDEST POP POP POP POP PUSH1 0x40 MLOAD RETURNDATASIZE PUSH1 0x1F NOT PUSH1 0x1F DUP3 ADD AND DUP3 ADD DUP1 PUSH1 0x40 MSTORE POP DUP2 ADD SWAP1 PUSH2 0x22DF SWAP2 SWAP1 PUSH2 0x395D JUMP JUMPDEST SWAP1 POP PUSH2 0x22F5 PUSH8 0x6979D86489AD5D89 PUSH1 0xC0 SHL PUSH2 0x2B1F JUMP JUMPDEST PUSH2 0x2309 PUSH8 0x9D768EF50F96D4A1 PUSH1 0xC0 SHL PUSH2 0x2B1F JUMP JUMPDEST PUSH1 0x0 DUP4 EQ DUP1 ISZERO PUSH2 0x2319 JUMPI POP PUSH1 0x0 DUP3 EQ JUMPDEST ISZERO PUSH2 0x2365 JUMPI PUSH2 0x2332 PUSH8 0x4DBD696E71AD95CD PUSH1 0xC0 SHL PUSH2 0x2B1F JUMP JUMPDEST PUSH2 0x2346 PUSH8 0x4E343CA412F45C6D PUSH1 0xC0 SHL PUSH2 0x2B1F JUMP JUMPDEST DUP13 SWAP7 POP PUSH2 0x235D PUSH8 0x2056249F187F9636 PUSH1 0xC0 SHL PUSH2 0x2B1F JUMP JUMPDEST DUP12 SWAP6 POP PUSH2 0x269C JUMP JUMPDEST PUSH2 0x2379 PUSH8 0x1342473A281AA0D PUSH1 0xC0 SHL PUSH2 0x2B1F JUMP JUMPDEST PUSH2 0x238D PUSH8 0xF8D7C3947479BA12 PUSH1 0xC0 SHL PUSH2 0x2B1F JUMP JUMPDEST PUSH2 0x23A1 PUSH8 0xBF01D5650022C49A PUSH1 0xC0 SHL PUSH2 0x2B1F JUMP JUMPDEST PUSH2 0x23B5 PUSH8 0xFCF462897F305F93 PUSH1 0xC0 SHL PUSH2 0x2B1F JUMP JUMPDEST PUSH1 0x0 DUP4 DUP4 DUP16 PUSH2 0x23C4 SWAP2 SWAP1 PUSH2 0x33E9 JUMP JUMPDEST PUSH2 0x23CE SWAP2 SWAP1 PUSH2 0x345A JUMP JUMPDEST SWAP1 POP PUSH2 0x23E4 PUSH8 0x5BB95A408CE7C547 PUSH1 0xC0 SHL PUSH2 0x2B1F JUMP JUMPDEST PUSH2 0x23F8 PUSH8 0xC980F00B79D61E15 PUSH1 0xC0 SHL PUSH2 0x2B1F JUMP JUMPDEST DUP13 DUP2 GT PUSH2 0x24D9 JUMPI PUSH2 0x2413 PUSH8 0xB81BB7DFF99C1672 PUSH1 0xC0 SHL PUSH2 0x2B1F JUMP JUMPDEST PUSH2 0x2427 PUSH8 0xE2FF51304DAE9395 PUSH1 0xC0 SHL PUSH2 0x2B1F JUMP JUMPDEST PUSH2 0x243B PUSH8 0x7DFAE0E94FE95D85 PUSH1 0xC0 SHL PUSH2 0x2B1F JUMP JUMPDEST PUSH2 0x244F PUSH8 0x58DCAB2A03794F68 PUSH1 0xC0 SHL PUSH2 0x2B1F JUMP JUMPDEST DUP11 DUP2 LT ISZERO PUSH2 0x2492 JUMPI PUSH1 0x40 MLOAD PUSH32 0x8C379A000000000000000000000000000000000000000000000000000000000 DUP2 MSTORE PUSH1 0x4 ADD PUSH2 0x2489 SWAP1 PUSH2 0x3B86 JUMP JUMPDEST PUSH1 0x40 MLOAD DUP1 SWAP2 SUB SWAP1 REVERT JUMPDEST PUSH2 0x24A6 PUSH8 0x2B75BBF1072E62A9 PUSH1 0xC0 SHL PUSH2 0x2B1F JUMP JUMPDEST PUSH2 0x24BA PUSH8 0x981F13B2C879AFDD PUSH1 0xC0 SHL PUSH2 0x2B1F JUMP JUMPDEST DUP14 SWAP8 POP PUSH2 0x24D1 PUSH8 0xCB1647703F8DEE27 PUSH1 0xC0 SHL PUSH2 0x2B1F JUMP JUMPDEST DUP1 SWAP7 POP PUSH2 0x269A JUMP JUMPDEST PUSH2 0x24ED PUSH8 0x55E6C3B224D7E826 PUSH1 0xC0 SHL PUSH2 0x2B1F JUMP JUMPDEST PUSH2 0x2501 PUSH8 0x5460B615899388BF PUSH1 0xC0 SHL PUSH2 0x2B1F JUMP JUMPDEST PUSH2 0x2515 PUSH8 0x8AEABC7E0EB11226 PUSH1 0xC0 SHL PUSH2 0x2B1F JUMP JUMPDEST PUSH2 0x2529 PUSH8 0x2F73894FCBA25966 PUSH1 0xC0 SHL PUSH2 0x2B1F JUMP JUMPDEST PUSH1 0x0 DUP4 DUP6 DUP16 PUSH2 0x2538 SWAP2 SWAP1 PUSH2 0x33E9 JUMP JUMPDEST PUSH2 0x2542 SWAP2 SWAP1 PUSH2 0x345A JUMP JUMPDEST SWAP1 POP PUSH2 0x2558 PUSH8 0x72462FD851BD0967 PUSH1 0xC0 SHL PUSH2 0x2B1F JUMP JUMPDEST PUSH2 0x256C PUSH8 0x9478B109416FEF66 PUSH1 0xC0 SHL PUSH2 0x2B1F JUMP JUMPDEST PUSH2 0x2580 PUSH8 0x7EE054120AF72FE3 PUSH1 0xC0 SHL PUSH2 0x2B1F JUMP JUMPDEST DUP15 DUP2 GT ISZERO PUSH2 0x25C3 JUMPI PUSH1 0x40 MLOAD PUSH32 0x8C379A000000000000000000000000000000000000000000000000000000000 DUP2 MSTORE PUSH1 0x4 ADD PUSH2 0x25BA SWAP1 PUSH2 0x3BF2 JUMP JUMPDEST PUSH1 0x40 MLOAD DUP1 SWAP2 SUB SWAP1 REVERT JUMPDEST PUSH2 0x25D7 PUSH8 0x7905D886B1D68E2F PUSH1 0xC0 SHL PUSH2 0x2B1F JUMP JUMPDEST PUSH2 0x25EB PUSH8 0x8A38EB051D1CAB1B PUSH1 0xC0 SHL PUSH2 0x2B1F JUMP JUMPDEST PUSH2 0x25FF PUSH8 0x62ADAF830D93CFC5 PUSH1 0xC0 SHL PUSH2 0x2B1F JUMP JUMPDEST PUSH2 0x2613 PUSH8 0xC91FFB41170E518A PUSH1 0xC0 SHL PUSH2 0x2B1F JUMP JUMPDEST DUP13 DUP2 LT ISZERO PUSH2 0x2656 JUMPI PUSH1 0x40 MLOAD PUSH32 0x8C379A000000000000000000000000000000000000000000000000000000000 DUP2 MSTORE PUSH1 0x4 ADD PUSH2 0x264D SWAP1 PUSH2 0x3C5E JUMP JUMPDEST PUSH1 0x40 MLOAD DUP1 SWAP2 SUB SWAP1 REVERT JUMPDEST PUSH2 0x266A PUSH8 0x6BAF7420B58FDF43 PUSH1 0xC0 SHL PUSH2 0x2B1F JUMP JUMPDEST PUSH2 0x267E PUSH8 0xAEFDB0D7F1F5EE23 PUSH1 0xC0 SHL PUSH2 0x2B1F JUMP JUMPDEST DUP1 SWAP9 POP PUSH2 0x2695 PUSH8 0xB2AF4A7AF0CEFCA8 PUSH1 0xC0 SHL PUSH2 0x2B1F JUMP JUMPDEST DUP14 SWAP8 POP POP JUMPDEST POP JUMPDEST PUSH2 0x26AF PUSH7 0x6742A3C13E37FD PUSH1 0xC0 SHL PUSH2 0x2B1F JUMP JUMPDEST PUSH2 0x26C3 PUSH8 0x7683D69B4A91F8AE PUSH1 0xC0 SHL PUSH2 0x2B1F JUMP JUMPDEST DUP4 PUSH1 0x0 ADD MLOAD PUSH20 0xFFFFFFFFFFFFFFFFFFFFFFFFFFFFFFFFFFFFFFFF AND PUSH4 0x23B872DD CALLER ADDRESS DUP11 PUSH1 0x40 MLOAD DUP5 PUSH4 0xFFFFFFFF AND PUSH1 0xE0 SHL DUP2 MSTORE PUSH1 0x4 ADD PUSH2 0x2704 SWAP4 SWAP3 SWAP2 SWAP1 PUSH2 0x362B JUMP JUMPDEST PUSH1 0x20 PUSH1 0x40 MLOAD DUP1 DUP4 SUB DUP2 PUSH1 0x0 DUP8 GAS CALL ISZERO DUP1 ISZERO PUSH2 0x2723 JUMPI RETURNDATASIZE PUSH1 0x0 DUP1 RETURNDATACOPY RETURNDATASIZE PUSH1 0x0 REVERT JUMPDEST POP POP POP POP PUSH1 0x40 MLOAD RETURNDATASIZE PUSH1 0x1F NOT PUSH1 0x1F DUP3 ADD AND DUP3 ADD DUP1 PUSH1 0x40 MSTORE POP DUP2 ADD SWAP1 PUSH2 0x2747 SWAP2 SWAP1 PUSH2 0x369A JUMP JUMPDEST POP PUSH2 0x275C PUSH8 0x354198F1519F388F PUSH1 0xC0 SHL PUSH2 0x2B1F JUMP JUMPDEST PUSH2 0x2770 PUSH8 0xB631B689F5570E9B PUSH1 0xC0 SHL PUSH2 0x2B1F JUMP JUMPDEST DUP4 PUSH1 0x20 ADD MLOAD PUSH20 0xFFFFFFFFFFFFFFFFFFFFFFFFFFFFFFFFFFFFFFFF AND PUSH4 0x23B872DD CALLER ADDRESS DUP10 PUSH1 0x40 MLOAD DUP5 PUSH4 0xFFFFFFFF AND PUSH1 0xE0 SHL DUP2 MSTORE PUSH1 0x4 ADD PUSH2 0x27B1 SWAP4 SWAP3 SWAP2 SWAP1 PUSH2 0x362B JUMP JUMPDEST PUSH1 0x20 PUSH1 0x40 MLOAD DUP1 DUP4 SUB DUP2 PUSH1 0x0 DUP8 GAS CALL ISZERO DUP1 ISZERO PUSH2 0x27D0 JUMPI RETURNDATASIZE PUSH1 0x0 DUP1 RETURNDATACOPY RETURNDATASIZE PUSH1 0x0 REVERT JUMPDEST POP POP POP POP PUSH1 0x40 MLOAD RETURNDATASIZE PUSH1 0x1F NOT PUSH1 0x1F DUP3 ADD AND DUP3 ADD DUP1 PUSH1 0x40 MSTORE POP DUP2 ADD SWAP1 PUSH2 0x27F4 SWAP2 SWAP1 PUSH2 0x369A JUMP JUMPDEST POP PUSH2 0x2809 PUSH8 0xAF2FCBA6BCA8394A PUSH1 0xC0 SHL PUSH2 0x2B1F JUMP JUMPDEST PUSH2 0x281D PUSH8 0x3AB423A2116CA40D PUSH1 0xC0 SHL PUSH2 0x2B1F JUMP JUMPDEST PUSH1 0x0 DUP2 SUB PUSH2 0x2868 JUMPI PUSH2 0x2839 PUSH8 0x1405CD8ACB3FFBD0 PUSH1 0xC0 SHL PUSH2 0x2B1F JUMP JUMPDEST PUSH2 0x284D PUSH8 0xA3B0C64E8C6A2649 PUSH1 0xC0 SHL PUSH2 0x2B1F JUMP JUMPDEST PUSH2 0x2861 DUP7 DUP9 PUSH2 0x285C SWAP2 SWAP1 PUSH2 0x33E9 JUMP JUMPDEST PUSH2 0x2B2D JUMP JUMPDEST SWAP5 POP PUSH2 0x28C9 JUMP JUMPDEST PUSH2 0x287C PUSH8 0x707C0AF60EB3AE95 PUSH1 0xC0 SHL PUSH2 0x2B1F JUMP JUMPDEST PUSH2 0x2890 PUSH8 0xF6DB3E0B3BC3F847 PUSH1 0xC0 SHL PUSH2 0x2B1F JUMP JUMPDEST PUSH2 0x28C6 DUP4 DUP3 DUP10 PUSH2 0x28A0 SWAP2 SWAP1 PUSH2 0x33E9 JUMP JUMPDEST PUSH2 0x28AA SWAP2 SWAP1 PUSH2 0x345A JUMP JUMPDEST DUP4 DUP4 DUP10 PUSH2 0x28B7 SWAP2 SWAP1 PUSH2 0x33E9 JUMP JUMPDEST PUSH2 0x28C1 SWAP2 SWAP1 PUSH2 0x345A JUMP JUMPDEST PUSH2 0x2CCA JUMP JUMPDEST SWAP5 POP JUMPDEST PUSH2 0x28DD PUSH8 0xF4A65CA00F605918 PUSH1 0xC0 SHL PUSH2 0x2B1F JUMP JUMPDEST PUSH2 0x28F1 PUSH8 0x7D4F831196278F5D PUSH1 0xC0 SHL PUSH2 0x2B1F JUMP JUMPDEST PUSH2 0x2905 PUSH8 0x78786C99DF27B6F9 PUSH1 0xC0 SHL PUSH2 0x2B1F JUMP JUMPDEST PUSH1 0x0 DUP6 GT PUSH2 0x2948 JUMPI PUSH1 0x40 MLOAD PUSH32 0x8C379A000000000000000000000000000000000000000000000000000000000 DUP2 MSTORE PUSH1 0x4 ADD PUSH2 0x293F SWAP1 PUSH2 0x3CCA JUMP JUMPDEST PUSH1 0x40 MLOAD DUP1 SWAP2 SUB SWAP1 REVERT JUMPDEST PUSH2 0x295C PUSH8 0xF4E1E906EA7B0ADD PUSH1 0xC0 SHL PUSH2 0x2B1F JUMP JUMPDEST PUSH2 0x2970 PUSH8 0xBF4662C534075791 PUSH1 0xC0 SHL PUSH2 0x2B1F JUMP JUMPDEST DUP7 PUSH1 0x3 PUSH1 0x0 DUP3 DUP3 SLOAD PUSH2 0x2982 SWAP2 SWAP1 PUSH2 0x33B5 JUMP JUMPDEST SWAP3 POP POP DUP2 SWAP1 SSTORE POP PUSH2 0x299D PUSH8 0x5973E2361730614 PUSH1 0xC0 SHL PUSH2 0x2B1F JUMP JUMPDEST DUP6 PUSH1 0x4 PUSH1 0x0 DUP3 DUP3 SLOAD PUSH2 0x29AF SWAP2 SWAP1 PUSH2 0x33B5 JUMP JUMPDEST SWAP3 POP POP DUP2 SWAP1 SSTORE POP PUSH2 0x29CA PUSH8 0x20CFD1775AB7A8AC PUSH1 0xC0 SHL PUSH2 0x2B1F JUMP JUMPDEST PUSH2 0x29DE PUSH8 0xC1A50FCA2E0D938B PUSH1 0xC0 SHL PUSH2 0x2B1F JUMP JUMPDEST PUSH1 0x0 DUP1 SLOAD SWAP1 PUSH2 0x100 EXP SWAP1 DIV PUSH20 0xFFFFFFFFFFFFFFFFFFFFFFFFFFFFFFFFFFFFFFFF AND PUSH20 0xFFFFFFFFFFFFFFFFFFFFFFFFFFFFFFFFFFFFFFFF AND PUSH4 0x40C10F19 DUP11 DUP8 PUSH1 0x40 MLOAD DUP4 PUSH4 0xFFFFFFFF AND PUSH1 0xE0 SHL DUP2 MSTORE PUSH1 0x4 ADD PUSH2 0x2A39 SWAP3 SWAP2 SWAP1 PUSH2 0x3733 JUMP JUMPDEST PUSH1 0x0 PUSH1 0x40 MLOAD DUP1 DUP4 SUB DUP2 PUSH1 0x0 DUP8 DUP1 EXTCODESIZE ISZERO DUP1 ISZERO PUSH2 0x2A53 JUMPI PUSH1 0x0 DUP1 REVERT JUMPDEST POP GAS CALL ISZERO DUP1 ISZERO PUSH2 0x2A67 JUMPI RETURNDATASIZE PUSH1 0x0 DUP1 RETURNDATACOPY RETURNDATASIZE PUSH1 0x0 REVERT JUMPDEST POP POP POP POP PUSH2 0x2A7F PUSH8 0x9EA4EB3CD734029 PUSH1 0xC0 SHL PUSH2 0x2B1F JUMP JUMPDEST PUSH2 0x2A93 PUSH8 0xABB8BB4DDD842D73 PUSH1 0xC0 SHL PUSH2 0x2B1F JUMP JUMPDEST CALLER PUSH20 0xFFFFFFFFFFFFFFFFFFFFFFFFFFFFFFFFFFFFFFFF AND PUSH32 0x64B83944E79C3CE8D4C297411DE637C3E102D064677AAC0C163976EBDCD6F50E DUP9 DUP9 DUP9 PUSH1 0x40 MLOAD PUSH2 0x2ADD SWAP4 SWAP3 SWAP2 SWAP1 PUSH2 0x3266 JUMP JUMPDEST PUSH1 0x40 MLOAD DUP1 SWAP2 SUB SWAP1 LOG2 PUSH2 0x2AF9 PUSH8 0x9A0AF59D3A04D5DA PUSH1 0xC0 SHL PUSH2 0x2B1F JUMP JUMPDEST PUSH2 0x2B0D PUSH8 0xAFA02FABC0D7E3A3 PUSH1 0xC0 SHL PUSH2 0x2B1F JUMP JUMPDEST POP POP POP POP SWAP9 POP SWAP9 POP SWAP9 SWAP6 POP POP POP POP POP POP JUMP JUMPDEST POP JUMP JUMPDEST PUSH1 0x0 PUSH1 0x1 SWAP1 POP SWAP2 SWAP1 POP JUMP JUMPDEST PUSH1 0x0 PUSH1 0x1 DUP3 GT PUSH2 0x2B3F JUMPI DUP2 SWAP1 POP PUSH2 0x2CC5 JUMP JUMPDEST PUSH1 0x0 DUP3 SWAP1 POP PUSH1 0x0 PUSH1 0x1 SWAP1 POP PUSH17 0x100000000000000000000000000000000 DUP3 LT PUSH2 0x2B71 JUMPI PUSH1 0x80 DUP3 SWAP1 SHR SWAP2 POP PUSH1 0x40 DUP2 SWAP1 SHL SWAP1 POP JUMPDEST PUSH9 0x10000000000000000 DUP3 LT PUSH2 0x2B90 JUMPI PUSH1 0x40 DUP3 SWAP1 SHR SWAP2 POP PUSH1 0x20 DUP2 SWAP1 SHL SWAP1 POP JUMPDEST PUSH5 0x100000000 DUP3 LT PUSH2 0x2BAB JUMPI PUSH1 0x20 DUP3 SWAP1 SHR SWAP2 POP PUSH1 0x10 DUP2 SWAP1 SHL SWAP1 POP JUMPDEST PUSH3 0x10000 DUP3 LT PUSH2 0x2BC4 JUMPI PUSH1 0x10 DUP3 SWAP1 SHR SWAP2 POP PUSH1 0x8 DUP2 SWAP1 SHL SWAP1 POP JUMPDEST PUSH2 0x100 DUP3 LT PUSH2 0x2BDC JUMPI PUSH1 0x8 DUP3 SWAP1 SHR SWAP2 POP PUSH1 0x4 DUP2 SWAP1 SHL SWAP1 POP JUMPDEST PUSH1 0x10 DUP3 LT PUSH2 0x2BF3 JUMPI PUSH1 0x4 DUP3 SWAP1 SHR SWAP2 POP PUSH1 0x2 DUP2 SWAP1 SHL SWAP1 POP JUMPDEST PUSH1 0x4 DUP3 LT PUSH2 0x2C03 JUMPI PUSH1 0x1 DUP2 SWAP1 SHL SWAP1 POP JUMPDEST PUSH1 0x1 DUP2 PUSH1 0x3 MUL SWAP1 SHR SWAP1 POP PUSH1 0x1 DUP2 DUP6 DUP2 PUSH2 0x2C1F JUMPI PUSH2 0x2C1E PUSH2 0x342B JUMP JUMPDEST JUMPDEST DIV DUP3 ADD SWAP1 SHR SWAP1 POP PUSH1 0x1 DUP2 DUP6 DUP2 PUSH2 0x2C38 JUMPI PUSH2 0x2C37 PUSH2 0x342B JUMP JUMPDEST JUMPDEST DIV DUP3 ADD SWAP1 SHR SWAP1 POP PUSH1 0x1 DUP2 DUP6 DUP2 PUSH2 0x2C51 JUMPI PUSH2 0x2C50 PUSH2 0x342B JUMP JUMPDEST JUMPDEST DIV DUP3 ADD SWAP1 SHR SWAP1 POP PUSH1 0x1 DUP2 DUP6 DUP2 PUSH2 0x2C6A JUMPI PUSH2 0x2C69 PUSH2 0x342B JUMP JUMPDEST JUMPDEST DIV DUP3 ADD SWAP1 SHR SWAP1 POP PUSH1 0x1 DUP2 DUP6 DUP2 PUSH2 0x2C83 JUMPI PUSH2 0x2C82 PUSH2 0x342B JUMP JUMPDEST JUMPDEST DIV DUP3 ADD SWAP1 SHR SWAP1 POP PUSH1 0x1 DUP2 DUP6 DUP2 PUSH2 0x2C9C JUMPI PUSH2 0x2C9B PUSH2 0x342B JUMP JUMPDEST JUMPDEST DIV DUP3 ADD SWAP1 SHR SWAP1 POP PUSH2 0x2CBE DUP2 DUP6 DUP2 PUSH2 0x2CB6 JUMPI PUSH2 0x2CB5 PUSH2 0x342B JUMP JUMPDEST JUMPDEST DIV DUP3 GT PUSH2 0x2CE1 JUMP JUMPDEST DUP2 SUB SWAP3 POP POP POP JUMPDEST SWAP2 SWAP1 POP JUMP JUMPDEST PUSH1 0x0 PUSH2 0x2CD9 DUP3 DUP5 LT DUP5 DUP5 PUSH2 0x2CED JUMP JUMPDEST SWAP1 POP SWAP3 SWAP2 POP POP JUMP JUMPDEST PUSH1 0x0 DUP2 ISZERO ISZERO SWAP1 POP SWAP2 SWAP1 POP JUMP JUMPDEST PUSH1 0x0 PUSH2 0x2CF8 DUP5 PUSH2 0x2CE1 JUMP JUMPDEST DUP3 DUP5 XOR MUL DUP3 XOR SWAP1 POP SWAP4 SWAP3 POP POP POP JUMP JUMPDEST PUSH1 0x0 DUP1 REVERT JUMPDEST PUSH1 0x0 DUP1 REVERT JUMPDEST PUSH1 0x0 DUP2 SWAP1 POP SWAP2 SWAP1 POP JUMP JUMPDEST PUSH2 0x2D24 DUP2 PUSH2 0x2D11 JUMP JUMPDEST DUP2 EQ PUSH2 0x2D2F JUMPI PUSH1 0x0 DUP1 REVERT JUMPDEST POP JUMP JUMPDEST PUSH1 0x0 DUP2 CALLDATALOAD SWAP1 POP PUSH2 0x2D41 DUP2 PUSH2 0x2D1B JUMP JUMPDEST SWAP3 SWAP2 POP POP JUMP JUMPDEST PUSH1 0x0 DUP1 PUSH1 0x0 PUSH1 0x60 DUP5 DUP7 SUB SLT ISZERO PUSH2 0x2D60 JUMPI PUSH2 0x2D5F PUSH2 0x2D07 JUMP JUMPDEST JUMPDEST PUSH1 0x0 PUSH2 0x2D6E DUP7 DUP3 DUP8 ADD PUSH2 0x2D32 JUMP JUMPDEST SWAP4 POP POP PUSH1 0x20 PUSH2 0x2D7F DUP7 DUP3 DUP8 ADD PUSH2 0x2D32 JUMP JUMPDEST SWAP3 POP POP PUSH1 0x40 PUSH2 0x2D90 DUP7 DUP3 DUP8 ADD PUSH2 0x2D32 JUMP JUMPDEST SWAP2 POP POP SWAP3 POP SWAP3 POP SWAP3 JUMP JUMPDEST PUSH2 0x2DA3 DUP2 PUSH2 0x2D11 JUMP JUMPDEST DUP3 MSTORE POP POP JUMP JUMPDEST PUSH1 0x0 PUSH1 0x20 DUP3 ADD SWAP1 POP PUSH2 0x2DBE PUSH1 0x0 DUP4 ADD DUP5 PUSH2 0x2D9A JUMP JUMPDEST SWAP3 SWAP2 POP POP JUMP JUMPDEST PUSH1 0x0 PUSH20 0xFFFFFFFFFFFFFFFFFFFFFFFFFFFFFFFFFFFFFFFF DUP3 AND SWAP1 POP SWAP2 SWAP1 POP JUMP JUMPDEST PUSH1 0x0 PUSH2 0x2DEF DUP3 PUSH2 0x2DC4 JUMP JUMPDEST SWAP1 POP SWAP2 SWAP1 POP JUMP JUMPDEST PUSH2 0x2DFF DUP2 PUSH2 0x2DE4 JUMP JUMPDEST DUP3 MSTORE POP POP JUMP JUMPDEST PUSH1 0x0 PUSH1 0x20 DUP3 ADD SWAP1 POP PUSH2 0x2E1A PUSH1 0x0 DUP4 ADD DUP5 PUSH2 0x2DF6 JUMP JUMPDEST SWAP3 SWAP2 POP POP JUMP JUMPDEST PUSH1 0x0 DUP1 REVERT JUMPDEST PUSH1 0x0 DUP1 REVERT JUMPDEST PUSH1 0x0 DUP1 REVERT JUMPDEST PUSH1 0x0 DUP1 DUP4 PUSH1 0x1F DUP5 ADD SLT PUSH2 0x2E45 JUMPI PUSH2 0x2E44 PUSH2 0x2E20 JUMP JUMPDEST JUMPDEST DUP3 CALLDATALOAD SWAP1 POP PUSH8 0xFFFFFFFFFFFFFFFF DUP2 GT ISZERO PUSH2 0x2E62 JUMPI PUSH2 0x2E61 PUSH2 0x2E25 JUMP JUMPDEST JUMPDEST PUSH1 0x20 DUP4 ADD SWAP2 POP DUP4 PUSH1 0x20 DUP3 MUL DUP4 ADD GT ISZERO PUSH2 0x2E7E JUMPI PUSH2 0x2E7D PUSH2 0x2E2A JUMP JUMPDEST JUMPDEST SWAP3 POP SWAP3 SWAP1 POP JUMP JUMPDEST PUSH2 0x2E8E DUP2 PUSH2 0x2DE4 JUMP JUMPDEST DUP2 EQ PUSH2 0x2E99 JUMPI PUSH1 0x0 DUP1 REVERT JUMPDEST POP JUMP JUMPDEST PUSH1 0x0 DUP2 CALLDATALOAD SWAP1 POP PUSH2 0x2EAB DUP2 PUSH2 0x2E85 JUMP JUMPDEST SWAP3 SWAP2 POP POP JUMP JUMPDEST PUSH1 0x0 DUP1 PUSH1 0x0 DUP1 PUSH1 0x0 DUP1 PUSH1 0xA0 DUP8 DUP10 SUB SLT ISZERO PUSH2 0x2ECE JUMPI PUSH2 0x2ECD PUSH2 0x2D07 JUMP JUMPDEST JUMPDEST PUSH1 0x0 PUSH2 0x2EDC DUP10 DUP3 DUP11 ADD PUSH2 0x2D32 JUMP JUMPDEST SWAP7 POP POP PUSH1 0x20 PUSH2 0x2EED DUP10 DUP3 DUP11 ADD PUSH2 0x2D32 JUMP JUMPDEST SWAP6 POP POP PUSH1 0x40 DUP8 ADD CALLDATALOAD PUSH8 0xFFFFFFFFFFFFFFFF DUP2 GT ISZERO PUSH2 0x2F0E JUMPI PUSH2 0x2F0D PUSH2 0x2D0C JUMP JUMPDEST JUMPDEST PUSH2 0x2F1A DUP10 DUP3 DUP11 ADD PUSH2 0x2E2F JUMP JUMPDEST SWAP5 POP SWAP5 POP POP PUSH1 0x60 PUSH2 0x2F2D DUP10 DUP3 DUP11 ADD PUSH2 0x2E9C JUMP JUMPDEST SWAP3 POP POP PUSH1 0x80 PUSH2 0x2F3E DUP10 DUP3 DUP11 ADD PUSH2 0x2D32 JUMP JUMPDEST SWAP2 POP POP SWAP3 SWAP6 POP SWAP3 SWAP6 POP SWAP3 SWAP6 JUMP JUMPDEST PUSH1 0x0 DUP2 MLOAD SWAP1 POP SWAP2 SWAP1 POP JUMP JUMPDEST PUSH1 0x0 DUP3 DUP3 MSTORE PUSH1 0x20 DUP3 ADD SWAP1 POP SWAP3 SWAP2 POP POP JUMP JUMPDEST PUSH1 0x0 DUP2 SWAP1 POP PUSH1 0x20 DUP3 ADD SWAP1 POP SWAP2 SWAP1 POP JUMP JUMPDEST PUSH2 0x2F80 DUP2 PUSH2 0x2D11 JUMP JUMPDEST DUP3 MSTORE POP POP JUMP JUMPDEST PUSH1 0x0 PUSH2 0x2F92 DUP4 DUP4 PUSH2 0x2F77 JUMP JUMPDEST PUSH1 0x20 DUP4 ADD SWAP1 POP SWAP3 SWAP2 POP POP JUMP JUMPDEST PUSH1 0x0 PUSH1 0x20 DUP3 ADD SWAP1 POP SWAP2 SWAP1 POP JUMP JUMPDEST PUSH1 0x0 PUSH2 0x2FB6 DUP3 PUSH2 0x2F4B JUMP JUMPDEST PUSH2 0x2FC0 DUP2 DUP6 PUSH2 0x2F56 JUMP JUMPDEST SWAP4 POP PUSH2 0x2FCB DUP4 PUSH2 0x2F67 JUMP JUMPDEST DUP1 PUSH1 0x0 JUMPDEST DUP4 DUP2 LT ISZERO PUSH2 0x2FFC JUMPI DUP2 MLOAD PUSH2 0x2FE3 DUP9 DUP3 PUSH2 0x2F86 JUMP JUMPDEST SWAP8 POP PUSH2 0x2FEE DUP4 PUSH2 0x2F9E JUMP JUMPDEST SWAP3 POP POP PUSH1 0x1 DUP2 ADD SWAP1 POP PUSH2 0x2FCF JUMP JUMPDEST POP DUP6 SWAP4 POP POP POP POP SWAP3 SWAP2 POP POP JUMP JUMPDEST PUSH1 0x0 PUSH1 0x20 DUP3 ADD SWAP1 POP DUP2 DUP2 SUB PUSH1 0x0 DUP4 ADD MSTORE PUSH2 0x3023 DUP2 DUP5 PUSH2 0x2FAB JUMP JUMPDEST SWAP1 POP SWAP3 SWAP2 POP POP JUMP JUMPDEST PUSH1 0x0 DUP2 SWAP1 POP SWAP2 SWAP1 POP JUMP JUMPDEST PUSH1 0x0 PUSH2 0x3050 PUSH2 0x304B PUSH2 0x3046 DUP5 PUSH2 0x2DC4 JUMP JUMPDEST PUSH2 0x302B JUMP JUMPDEST PUSH2 0x2DC4 JUMP JUMPDEST SWAP1 POP SWAP2 SWAP1 POP JUMP JUMPDEST PUSH1 0x0 PUSH2 0x3062 DUP3 PUSH2 0x3035 JUMP JUMPDEST SWAP1 POP SWAP2 SWAP1 POP JUMP JUMPDEST PUSH1 0x0 PUSH2 0x3074 DUP3 PUSH2 0x3057 JUMP JUMPDEST SWAP1 POP SWAP2 SWAP1 POP JUMP JUMPDEST PUSH2 0x3084 DUP2 PUSH2 0x3069 JUMP JUMPDEST DUP3 MSTORE POP POP JUMP JUMPDEST PUSH1 0x0 PUSH1 0x20 DUP3 ADD SWAP1 POP PUSH2 0x309F PUSH1 0x0 DUP4 ADD DUP5 PUSH2 0x307B JUMP JUMPDEST SWAP3 SWAP2 POP POP JUMP JUMPDEST PUSH1 0x0 DUP1 PUSH1 0x40 DUP4 DUP6 SUB SLT ISZERO PUSH2 0x30BC JUMPI PUSH2 0x30BB PUSH2 0x2D07 JUMP JUMPDEST JUMPDEST PUSH1 0x0 PUSH2 0x30CA DUP6 DUP3 DUP7 ADD PUSH2 0x2E9C JUMP JUMPDEST SWAP3 POP POP PUSH1 0x20 PUSH2 0x30DB DUP6 DUP3 DUP7 ADD PUSH2 0x2E9C JUMP JUMPDEST SWAP2 POP POP SWAP3 POP SWAP3 SWAP1 POP JUMP JUMPDEST PUSH1 0x0 DUP1 PUSH1 0x0 DUP1 PUSH1 0x0 DUP1 PUSH1 0x0 PUSH1 0xE0 DUP9 DUP11 SUB SLT ISZERO PUSH2 0x3104 JUMPI PUSH2 0x3103 PUSH2 0x2D07 JUMP JUMPDEST JUMPDEST PUSH1 0x0 PUSH2 0x3112 DUP11 DUP3 DUP12 ADD PUSH2 0x2E9C JUMP JUMPDEST SWAP8 POP POP PUSH1 0x20 PUSH2 0x3123 DUP11 DUP3 DUP12 ADD PUSH2 0x2E9C JUMP JUMPDEST SWAP7 POP POP PUSH1 0x40 PUSH2 0x3134 DUP11 DUP3 DUP12 ADD PUSH2 0x2D32 JUMP JUMPDEST SWAP6 POP POP PUSH1 0x60 PUSH2 0x3145 DUP11 DUP3 DUP12 ADD PUSH2 0x2D32 JUMP JUMPDEST SWAP5 POP POP PUSH1 0x80 PUSH2 0x3156 DUP11 DUP3 DUP12 ADD PUSH2 0x2D32 JUMP JUMPDEST SWAP4 POP POP PUSH1 0xA0 PUSH2 0x3167 DUP11 DUP3 DUP12 ADD PUSH2 0x2E9C JUMP JUMPDEST SWAP3 POP POP PUSH1 0xC0 PUSH2 0x3178 DUP11 DUP3 DUP12 ADD PUSH2 0x2D32 JUMP JUMPDEST SWAP2 POP POP SWAP3 SWAP6 SWAP9 SWAP2 SWAP5 SWAP8 POP SWAP3 SWAP6 POP JUMP JUMPDEST PUSH1 0x0 PUSH1 0x40 DUP3 ADD SWAP1 POP PUSH2 0x319C PUSH1 0x0 DUP4 ADD DUP6 PUSH2 0x2D9A JUMP JUMPDEST PUSH2 0x31A9 PUSH1 0x20 DUP4 ADD DUP5 PUSH2 0x2D9A JUMP JUMPDEST SWAP4 SWAP3 POP POP POP JUMP JUMPDEST PUSH1 0x0 DUP1 PUSH1 0x0 DUP1 PUSH1 0x0 DUP1 PUSH1 0x0 DUP1 PUSH2 0x100 DUP10 DUP12 SUB SLT ISZERO PUSH2 0x31D1 JUMPI PUSH2 0x31D0 PUSH2 0x2D07 JUMP JUMPDEST JUMPDEST PUSH1 0x0 PUSH2 0x31DF DUP12 DUP3 DUP13 ADD PUSH2 0x2E9C JUMP JUMPDEST SWAP9 POP POP PUSH1 0x20 PUSH2 0x31F0 DUP12 DUP3 DUP13 ADD PUSH2 0x2E9C JUMP JUMPDEST SWAP8 POP POP PUSH1 0x40 PUSH2 0x3201 DUP12 DUP3 DUP13 ADD PUSH2 0x2D32 JUMP JUMPDEST SWAP7 POP POP PUSH1 0x60 PUSH2 0x3212 DUP12 DUP3 DUP13 ADD PUSH2 0x2D32 JUMP JUMPDEST SWAP6 POP POP PUSH1 0x80 PUSH2 0x3223 DUP12 DUP3 DUP13 ADD PUSH2 0x2D32 JUMP JUMPDEST SWAP5 POP POP PUSH1 0xA0 PUSH2 0x3234 DUP12 DUP3 DUP13 ADD PUSH2 0x2D32 JUMP JUMPDEST SWAP4 POP POP PUSH1 0xC0 PUSH2 0x3245 DUP12 DUP3 DUP13 ADD PUSH2 0x2E9C JUMP JUMPDEST SWAP3 POP POP PUSH1 0xE0 PUSH2 0x3256 DUP12 DUP3 DUP13 ADD PUSH2 0x2D32 JUMP JUMPDEST SWAP2 POP POP SWAP3 SWAP6 SWAP9 POP SWAP3 SWAP6 SWAP9 SWAP1 SWAP4 SWAP7 POP JUMP JUMPDEST PUSH1 0x0 PUSH1 0x60 DUP3 ADD SWAP1 POP PUSH2 0x327B PUSH1 0x0 DUP4 ADD DUP7 PUSH2 0x2D9A JUMP JUMPDEST PUSH2 0x3288 PUSH1 0x20 DUP4 ADD DUP6 PUSH2 0x2D9A JUMP JUMPDEST PUSH2 0x3295 PUSH1 0x40 DUP4 ADD DUP5 PUSH2 0x2D9A JUMP JUMPDEST SWAP5 SWAP4 POP POP POP POP JUMP JUMPDEST PUSH1 0x0 DUP3 DUP3 MSTORE PUSH1 0x20 DUP3 ADD SWAP1 POP SWAP3 SWAP2 POP POP JUMP JUMPDEST PUSH32 0x616D6F756E74496E203C20300000000000000000000000000000000000000000 PUSH1 0x0 DUP3 ADD MSTORE POP JUMP JUMPDEST PUSH1 0x0 PUSH2 0x32E4 PUSH1 0xC DUP4 PUSH2 0x329D JUMP JUMPDEST SWAP2 POP PUSH2 0x32EF DUP3 PUSH2 0x32AE JUMP JUMPDEST PUSH1 0x20 DUP3 ADD SWAP1 POP SWAP2 SWAP1 POP JUMP JUMPDEST PUSH1 0x0 PUSH1 0x20 DUP3 ADD SWAP1 POP DUP2 DUP2 SUB PUSH1 0x0 DUP4 ADD MSTORE PUSH2 0x3313 DUP2 PUSH2 0x32D7 JUMP JUMPDEST SWAP1 POP SWAP2 SWAP1 POP JUMP JUMPDEST PUSH32 0x5265736572766573203C20300000000000000000000000000000000000000000 PUSH1 0x0 DUP3 ADD MSTORE POP JUMP JUMPDEST PUSH1 0x0 PUSH2 0x3350 PUSH1 0xC DUP4 PUSH2 0x329D JUMP JUMPDEST SWAP2 POP PUSH2 0x335B DUP3 PUSH2 0x331A JUMP JUMPDEST PUSH1 0x20 DUP3 ADD SWAP1 POP SWAP2 SWAP1 POP JUMP JUMPDEST PUSH1 0x0 PUSH1 0x20 DUP3 ADD SWAP1 POP DUP2 DUP2 SUB PUSH1 0x0 DUP4 ADD MSTORE PUSH2 0x337F DUP2 PUSH2 0x3343 JUMP JUMPDEST SWAP1 POP SWAP2 SWAP1 POP JUMP JUMPDEST PUSH32 0x4E487B7100000000000000000000000000000000000000000000000000000000 PUSH1 0x0 MSTORE PUSH1 0x11 PUSH1 0x4 MSTORE PUSH1 0x24 PUSH1 0x0 REVERT JUMPDEST PUSH1 0x0 PUSH2 0x33C0 DUP3 PUSH2 0x2D11 JUMP JUMPDEST SWAP2 POP PUSH2 0x33CB DUP4 PUSH2 0x2D11 JUMP JUMPDEST SWAP3 POP DUP3 DUP3 ADD SWAP1 POP DUP1 DUP3 GT ISZERO PUSH2 0x33E3 JUMPI PUSH2 0x33E2 PUSH2 0x3386 JUMP JUMPDEST JUMPDEST SWAP3 SWAP2 POP POP JUMP JUMPDEST PUSH1 0x0 PUSH2 0x33F4 DUP3 PUSH2 0x2D11 JUMP JUMPDEST SWAP2 POP PUSH2 0x33FF DUP4 PUSH2 0x2D11 JUMP JUMPDEST SWAP3 POP DUP3 DUP3 MUL PUSH2 0x340D DUP2 PUSH2 0x2D11 JUMP JUMPDEST SWAP2 POP DUP3 DUP3 DIV DUP5 EQ DUP4 ISZERO OR PUSH2 0x3424 JUMPI PUSH2 0x3423 PUSH2 0x3386 JUMP JUMPDEST JUMPDEST POP SWAP3 SWAP2 POP POP JUMP JUMPDEST PUSH32 0x4E487B7100000000000000000000000000000000000000000000000000000000 PUSH1 0x0 MSTORE PUSH1 0x12 PUSH1 0x4 MSTORE PUSH1 0x24 PUSH1 0x0 REVERT JUMPDEST PUSH1 0x0 PUSH2 0x3465 DUP3 PUSH2 0x2D11 JUMP JUMPDEST SWAP2 POP PUSH2 0x3470 DUP4 PUSH2 0x2D11 JUMP JUMPDEST SWAP3 POP DUP3 PUSH2 0x3480 JUMPI PUSH2 0x347F PUSH2 0x342B JUMP JUMPDEST JUMPDEST DUP3 DUP3 DIV SWAP1 POP SWAP3 SWAP2 POP POP JUMP JUMPDEST PUSH32 0x5472616E73616374206578706972656400000000000000000000000000000000 PUSH1 0x0 DUP3 ADD MSTORE POP JUMP JUMPDEST PUSH1 0x0 PUSH2 0x34C1 PUSH1 0x10 DUP4 PUSH2 0x329D JUMP JUMPDEST SWAP2 POP PUSH2 0x34CC DUP3 PUSH2 0x348B JUMP JUMPDEST PUSH1 0x20 DUP3 ADD SWAP1 POP SWAP2 SWAP1 POP JUMP JUMPDEST PUSH1 0x0 PUSH1 0x20 DUP3 ADD SWAP1 POP DUP2 DUP2 SUB PUSH1 0x0 DUP4 ADD MSTORE PUSH2 0x34F0 DUP2 PUSH2 0x34B4 JUMP JUMPDEST SWAP1 POP SWAP2 SWAP1 POP JUMP JUMPDEST PUSH32 0x4E487B7100000000000000000000000000000000000000000000000000000000 PUSH1 0x0 MSTORE PUSH1 0x32 PUSH1 0x4 MSTORE PUSH1 0x24 PUSH1 0x0 REVERT JUMPDEST PUSH1 0x0 PUSH1 0x20 DUP3 DUP5 SUB SLT ISZERO PUSH2 0x353C JUMPI PUSH2 0x353B PUSH2 0x2D07 JUMP JUMPDEST JUMPDEST PUSH1 0x0 PUSH2 0x354A DUP5 DUP3 DUP6 ADD PUSH2 0x2E9C JUMP JUMPDEST SWAP2 POP POP SWAP3 SWAP2 POP POP JUMP JUMPDEST PUSH32 0x696E76616C696420746F6B656E73000000000000000000000000000000000000 PUSH1 0x0 DUP3 ADD MSTORE POP JUMP JUMPDEST PUSH1 0x0 PUSH2 0x3589 PUSH1 0xE DUP4 PUSH2 0x329D JUMP JUMPDEST SWAP2 POP PUSH2 0x3594 DUP3 PUSH2 0x3553 JUMP JUMPDEST PUSH1 0x20 DUP3 ADD SWAP1 POP SWAP2 SWAP1 POP JUMP JUMPDEST PUSH1 0x0 PUSH1 0x20 DUP3 ADD SWAP1 POP DUP2 DUP2 SUB PUSH1 0x0 DUP4 ADD MSTORE PUSH2 0x35B8 DUP2 PUSH2 0x357C JUMP JUMPDEST SWAP1 POP SWAP2 SWAP1 POP JUMP JUMPDEST PUSH32 0x616D6F756E74496E203000000000000000000000000000000000000000000000 PUSH1 0x0 DUP3 ADD MSTORE POP JUMP JUMPDEST PUSH1 0x0 PUSH2 0x35F5 PUSH1 0xA DUP4 PUSH2 0x329D JUMP JUMPDEST SWAP2 POP PUSH2 0x3600 DUP3 PUSH2 0x35BF JUMP JUMPDEST PUSH1 0x20 DUP3 ADD SWAP1 POP SWAP2 SWAP1 POP JUMP JUMPDEST PUSH1 0x0 PUSH1 0x20 DUP3 ADD SWAP1 POP DUP2 DUP2 SUB PUSH1 0x0 DUP4 ADD MSTORE PUSH2 0x3624 DUP2 PUSH2 0x35E8 JUMP JUMPDEST SWAP1 POP SWAP2 SWAP1 POP JUMP JUMPDEST PUSH1 0x0 PUSH1 0x60 DUP3 ADD SWAP1 POP PUSH2 0x3640 PUSH1 0x0 DUP4 ADD DUP7 PUSH2 0x2DF6 JUMP JUMPDEST PUSH2 0x364D PUSH1 0x20 DUP4 ADD DUP6 PUSH2 0x2DF6 JUMP JUMPDEST PUSH2 0x365A PUSH1 0x40 DUP4 ADD DUP5 PUSH2 0x2D9A JUMP JUMPDEST SWAP5 SWAP4 POP POP POP POP JUMP JUMPDEST PUSH1 0x0 DUP2 ISZERO ISZERO SWAP1 POP SWAP2 SWAP1 POP JUMP JUMPDEST PUSH2 0x3677 DUP2 PUSH2 0x3662 JUMP JUMPDEST DUP2 EQ PUSH2 0x3682 JUMPI PUSH1 0x0 DUP1 REVERT JUMPDEST POP JUMP JUMPDEST PUSH1 0x0 DUP2 MLOAD SWAP1 POP PUSH2 0x3694 DUP2 PUSH2 0x366E JUMP JUMPDEST SWAP3 SWAP2 POP POP JUMP JUMPDEST PUSH1 0x0 PUSH1 0x20 DUP3 DUP5 SUB SLT ISZERO PUSH2 0x36B0 JUMPI PUSH2 0x36AF PUSH2 0x2D07 JUMP JUMPDEST JUMPDEST PUSH1 0x0 PUSH2 0x36BE DUP5 DUP3 DUP6 ADD PUSH2 0x3685 JUMP JUMPDEST SWAP2 POP POP SWAP3 SWAP2 POP POP JUMP JUMPDEST PUSH32 0x696E73756666696369656E7420616D6F756E744F757400000000000000000000 PUSH1 0x0 DUP3 ADD MSTORE POP JUMP JUMPDEST PUSH1 0x0 PUSH2 0x36FD PUSH1 0x16 DUP4 PUSH2 0x329D JUMP JUMPDEST SWAP2 POP PUSH2 0x3708 DUP3 PUSH2 0x36C7 JUMP JUMPDEST PUSH1 0x20 DUP3 ADD SWAP1 POP SWAP2 SWAP1 POP JUMP JUMPDEST PUSH1 0x0 PUSH1 0x20 DUP3 ADD SWAP1 POP DUP2 DUP2 SUB PUSH1 0x0 DUP4 ADD MSTORE PUSH2 0x372C DUP2 PUSH2 0x36F0 JUMP JUMPDEST SWAP1 POP SWAP2 SWAP1 POP JUMP JUMPDEST PUSH1 0x0 PUSH1 0x40 DUP3 ADD SWAP1 POP PUSH2 0x3748 PUSH1 0x0 DUP4 ADD DUP6 PUSH2 0x2DF6 JUMP JUMPDEST PUSH2 0x3755 PUSH1 0x20 DUP4 ADD DUP5 PUSH2 0x2D9A JUMP JUMPDEST SWAP4 SWAP3 POP POP POP JUMP JUMPDEST PUSH1 0x0 PUSH2 0x3767 DUP3 PUSH2 0x2D11 JUMP JUMPDEST SWAP2 POP PUSH2 0x3772 DUP4 PUSH2 0x2D11 JUMP JUMPDEST SWAP3 POP DUP3 DUP3 SUB SWAP1 POP DUP2 DUP2 GT ISZERO PUSH2 0x378A JUMPI PUSH2 0x3789 PUSH2 0x3386 JUMP JUMPDEST JUMPDEST SWAP3 SWAP2 POP POP JUMP JUMPDEST PUSH32 0x4E487B7100000000000000000000000000000000000000000000000000000000 PUSH1 0x0 MSTORE PUSH1 0x41 PUSH1 0x4 MSTORE PUSH1 0x24 PUSH1 0x0 REVERT JUMPDEST PUSH1 0x0 PUSH1 0x80 DUP3 ADD SWAP1 POP PUSH2 0x37D4 PUSH1 0x0 DUP4 ADD DUP8 PUSH2 0x2DF6 JUMP JUMPDEST PUSH2 0x37E1 PUSH1 0x20 DUP4 ADD DUP7 PUSH2 0x2D9A JUMP JUMPDEST PUSH2 0x37EE PUSH1 0x40 DUP4 ADD DUP6 PUSH2 0x2DF6 JUMP JUMPDEST PUSH2 0x37FB PUSH1 0x60 DUP4 ADD DUP5 PUSH2 0x2D9A JUMP JUMPDEST SWAP6 SWAP5 POP POP POP POP POP JUMP JUMPDEST PUSH32 0x496E76616C696420746F6B656E73000000000000000000000000000000000000 PUSH1 0x0 DUP3 ADD MSTORE POP JUMP JUMPDEST PUSH1 0x0 PUSH2 0x383A PUSH1 0xE DUP4 PUSH2 0x329D JUMP JUMPDEST SWAP2 POP PUSH2 0x3845 DUP3 PUSH2 0x3804 JUMP JUMPDEST PUSH1 0x20 DUP3 ADD SWAP1 POP SWAP2 SWAP1 POP JUMP JUMPDEST PUSH1 0x0 PUSH1 0x20 DUP3 ADD SWAP1 POP DUP2 DUP2 SUB PUSH1 0x0 DUP4 ADD MSTORE PUSH2 0x3869 DUP2 PUSH2 0x382D JUMP JUMPDEST SWAP1 POP SWAP2 SWAP1 POP JUMP JUMPDEST PUSH32 0x4E6F204120726573657276650000000000000000000000000000000000000000 PUSH1 0x0 DUP3 ADD MSTORE POP JUMP JUMPDEST PUSH1 0x0 PUSH2 0x38A6 PUSH1 0xC DUP4 PUSH2 0x329D JUMP JUMPDEST SWAP2 POP PUSH2 0x38B1 DUP3 PUSH2 0x3870 JUMP JUMPDEST PUSH1 0x20 DUP3 ADD SWAP1 POP SWAP2 SWAP1 POP JUMP JUMPDEST PUSH1 0x0 PUSH1 0x20 DUP3 ADD SWAP1 POP DUP2 DUP2 SUB PUSH1 0x0 DUP4 ADD MSTORE PUSH2 0x38D5 DUP2 PUSH2 0x3899 JUMP JUMPDEST SWAP1 POP SWAP2 SWAP1 POP JUMP JUMPDEST PUSH32 0x6261642070616972000000000000000000000000000000000000000000000000 PUSH1 0x0 DUP3 ADD MSTORE POP JUMP JUMPDEST PUSH1 0x0 PUSH2 0x3912 PUSH1 0x8 DUP4 PUSH2 0x329D JUMP JUMPDEST SWAP2 POP PUSH2 0x391D DUP3 PUSH2 0x38DC JUMP JUMPDEST PUSH1 0x20 DUP3 ADD SWAP1 POP SWAP2 SWAP1 POP JUMP JUMPDEST PUSH1 0x0 PUSH1 0x20 DUP3 ADD SWAP1 POP DUP2 DUP2 SUB PUSH1 0x0 DUP4 ADD MSTORE PUSH2 0x3941 DUP2 PUSH2 0x3905 JUMP JUMPDEST SWAP1 POP SWAP2 SWAP1 POP JUMP JUMPDEST PUSH1 0x0 DUP2 MLOAD SWAP1 POP PUSH2 0x3957 DUP2 PUSH2 0x2D1B JUMP JUMPDEST SWAP3 SWAP2 POP POP JUMP JUMPDEST PUSH1 0x0 PUSH1 0x20 DUP3 DUP5 SUB SLT ISZERO PUSH2 0x3973 JUMPI PUSH2 0x3972 PUSH2 0x2D07 JUMP JUMPDEST JUMPDEST PUSH1 0x0 PUSH2 0x3981 DUP5 DUP3 DUP6 ADD PUSH2 0x3948 JUMP JUMPDEST SWAP2 POP POP SWAP3 SWAP2 POP POP JUMP JUMPDEST PUSH32 0x41203C206D696E00000000000000000000000000000000000000000000000000 PUSH1 0x0 DUP3 ADD MSTORE POP JUMP JUMPDEST PUSH1 0x0 PUSH2 0x39C0 PUSH1 0x7 DUP4 PUSH2 0x329D JUMP JUMPDEST SWAP2 POP PUSH2 0x39CB DUP3 PUSH2 0x398A JUMP JUMPDEST PUSH1 0x20 DUP3 ADD SWAP1 POP SWAP2 SWAP1 POP JUMP JUMPDEST PUSH1 0x0 PUSH1 0x20 DUP3 ADD SWAP1 POP DUP2 DUP2 SUB PUSH1 0x0 DUP4 ADD MSTORE PUSH2 0x39EF DUP2 PUSH2 0x39B3 JUMP JUMPDEST SWAP1 POP SWAP2 SWAP1 POP JUMP JUMPDEST PUSH32 0x42203C206D696E00000000000000000000000000000000000000000000000000 PUSH1 0x0 DUP3 ADD MSTORE POP JUMP JUMPDEST PUSH1 0x0 PUSH2 0x3A2C PUSH1 0x7 DUP4 PUSH2 0x329D JUMP JUMPDEST SWAP2 POP PUSH2 0x3A37 DUP3 PUSH2 0x39F6 JUMP JUMPDEST PUSH1 0x20 DUP3 ADD SWAP1 POP SWAP2 SWAP1 POP JUMP JUMPDEST PUSH1 0x0 PUSH1 0x20 DUP3 ADD SWAP1 POP DUP2 DUP2 SUB PUSH1 0x0 DUP4 ADD MSTORE PUSH2 0x3A5B DUP2 PUSH2 0x3A1F JUMP JUMPDEST SWAP1 POP SWAP2 SWAP1 POP JUMP JUMPDEST PUSH32 0x4C50206C6F770000000000000000000000000000000000000000000000000000 PUSH1 0x0 DUP3 ADD MSTORE POP JUMP JUMPDEST PUSH1 0x0 PUSH2 0x3A98 PUSH1 0x6 DUP4 PUSH2 0x329D JUMP JUMPDEST SWAP2 POP PUSH2 0x3AA3 DUP3 PUSH2 0x3A62 JUMP JUMPDEST PUSH1 0x20 DUP3 ADD SWAP1 POP SWAP2 SWAP1 POP JUMP JUMPDEST PUSH1 0x0 PUSH1 0x20 DUP3 ADD SWAP1 POP DUP2 DUP2 SUB PUSH1 0x0 DUP4 ADD MSTORE PUSH2 0x3AC7 DUP2 PUSH2 0x3A8B JUMP JUMPDEST SWAP1 POP SWAP2 SWAP1 POP JUMP JUMPDEST PUSH32 0x7265736572766573206C6F770000000000000000000000000000000000000000 PUSH1 0x0 DUP3 ADD MSTORE POP JUMP JUMPDEST PUSH1 0x0 PUSH2 0x3B04 PUSH1 0xC DUP4 PUSH2 0x329D JUMP JUMPDEST SWAP2 POP PUSH2 0x3B0F DUP3 PUSH2 0x3ACE JUMP JUMPDEST PUSH1 0x20 DUP3 ADD SWAP1 POP SWAP2 SWAP1 POP JUMP JUMPDEST PUSH1 0x0 PUSH1 0x20 DUP3 ADD SWAP1 POP DUP2 DUP2 SUB PUSH1 0x0 DUP4 ADD MSTORE PUSH2 0x3B33 DUP2 PUSH2 0x3AF7 JUMP JUMPDEST SWAP1 POP SWAP2 SWAP1 POP JUMP JUMPDEST PUSH32 0x42206C6F77000000000000000000000000000000000000000000000000000000 PUSH1 0x0 DUP3 ADD MSTORE POP JUMP JUMPDEST PUSH1 0x0 PUSH2 0x3B70 PUSH1 0x5 DUP4 PUSH2 0x329D JUMP JUMPDEST SWAP2 POP PUSH2 0x3B7B DUP3 PUSH2 0x3B3A JUMP JUMPDEST PUSH1 0x20 DUP3 ADD SWAP1 POP SWAP2 SWAP1 POP JUMP JUMPDEST PUSH1 0x0 PUSH1 0x20 DUP3 ADD SWAP1 POP DUP2 DUP2 SUB PUSH1 0x0 DUP4 ADD MSTORE PUSH2 0x3B9F DUP2 PUSH2 0x3B63 JUMP JUMPDEST SWAP1 POP SWAP2 SWAP1 POP JUMP JUMPDEST PUSH32 0x4120686967680000000000000000000000000000000000000000000000000000 PUSH1 0x0 DUP3 ADD MSTORE POP JUMP JUMPDEST PUSH1 0x0 PUSH2 0x3BDC PUSH1 0x6 DUP4 PUSH2 0x329D JUMP JUMPDEST SWAP2 POP PUSH2 0x3BE7 DUP3 PUSH2 0x3BA6 JUMP JUMPDEST PUSH1 0x20 DUP3 ADD SWAP1 POP SWAP2 SWAP1 POP JUMP JUMPDEST PUSH1 0x0 PUSH1 0x20 DUP3 ADD SWAP1 POP DUP2 DUP2 SUB PUSH1 0x0 DUP4 ADD MSTORE PUSH2 0x3C0B DUP2 PUSH2 0x3BCF JUMP JUMPDEST SWAP1 POP SWAP2 SWAP1 POP JUMP JUMPDEST PUSH32 0x41206C6F77000000000000000000000000000000000000000000000000000000 PUSH1 0x0 DUP3 ADD MSTORE POP JUMP JUMPDEST PUSH1 0x0 PUSH2 0x3C48 PUSH1 0x5 DUP4 PUSH2 0x329D JUMP JUMPDEST SWAP2 POP PUSH2 0x3C53 DUP3 PUSH2 0x3C12 JUMP JUMPDEST PUSH1 0x20 DUP3 ADD SWAP1 POP SWAP2 SWAP1 POP JUMP JUMPDEST PUSH1 0x0 PUSH1 0x20 DUP3 ADD SWAP1 POP DUP2 DUP2 SUB PUSH1 0x0 DUP4 ADD MSTORE PUSH2 0x3C77 DUP2 PUSH2 0x3C3B JUMP JUMPDEST SWAP1 POP SWAP2 SWAP1 POP JUMP JUMPDEST PUSH32 0x7A65726F206C6971000000000000000000000000000000000000000000000000 PUSH1 0x0 DUP3 ADD MSTORE POP JUMP JUMPDEST PUSH1 0x0 PUSH2 0x3CB4 PUSH1 0x8 DUP4 PUSH2 0x329D JUMP JUMPDEST SWAP2 POP PUSH2 0x3CBF DUP3 PUSH2 0x3C7E JUMP JUMPDEST PUSH1 0x20 DUP3 ADD SWAP1 POP SWAP2 SWAP1 POP JUMP JUMPDEST PUSH1 0x0 PUSH1 0x20 DUP3 ADD SWAP1 POP DUP2 DUP2 SUB PUSH1 0x0 DUP4 ADD MSTORE PUSH2 0x3CE3 DUP2 PUSH2 0x3CA7 JUMP JUMPDEST SWAP1 POP SWAP2 SWAP1 POP JUMP INVALID LOG2 PUSH5 0x6970667358 0x22 SLT KECCAK256 SWAP12 0xDD MOD PUSH32 0x74EAF92961F1DF4F7ACDEC92803574A92AB7923B7ADCBBCFAB801C6164736F6C PUSH4 0x4300081C STOP CALLER PUSH1 0x80 PUSH1 0x40 MSTORE CALLVALUE DUP1 ISZERO PUSH2 0x10 JUMPI PUSH1 0x0 DUP1 REVERT JUMPDEST POP PUSH1 0x40 MLOAD PUSH2 0x1A83 CODESIZE SUB DUP1 PUSH2 0x1A83 DUP4 CODECOPY DUP2 DUP2 ADD PUSH1 0x40 MSTORE DUP2 ADD SWAP1 PUSH2 0x32 SWAP2 SWAP1 PUSH2 0x397 JUMP JUMPDEST DUP1 DUP4 DUP4 DUP2 PUSH1 0x3 SWAP1 DUP2 PUSH2 0x44 SWAP2 SWAP1 PUSH2 0x643 JUMP JUMPDEST POP DUP1 PUSH1 0x4 SWAP1 DUP2 PUSH2 0x54 SWAP2 SWAP1 PUSH2 0x643 JUMP JUMPDEST POP POP POP PUSH1 0x0 PUSH20 0xFFFFFFFFFFFFFFFFFFFFFFFFFFFFFFFFFFFFFFFF AND DUP2 PUSH20 0xFFFFFFFFFFFFFFFFFFFFFFFFFFFFFFFFFFFFFFFF AND SUB PUSH2 0xC9 JUMPI PUSH1 0x0 PUSH1 0x40 MLOAD PUSH32 0x1E4FBDF700000000000000000000000000000000000000000000000000000000 DUP2 MSTORE PUSH1 0x4 ADD PUSH2 0xC0 SWAP2 SWAP1 PUSH2 0x724 JUMP JUMPDEST PUSH1 0x40 MLOAD DUP1 SWAP2 SUB SWAP1 REVERT JUMPDEST PUSH2 0xD8 DUP2 PUSH2 0xFB PUSH1 0x20 SHL PUSH1 0x20 SHR JUMP JUMPDEST POP PUSH2 0xF3 PUSH8 0x3CB8A0CD5C5B4CBE PUSH1 0xC0 SHL PUSH2 0x1C1 PUSH1 0x20 SHL PUSH1 0x20 SHR JUMP JUMPDEST POP POP POP PUSH2 0x73F JUMP JUMPDEST PUSH1 0x0 PUSH1 0x5 PUSH1 0x0 SWAP1 SLOAD SWAP1 PUSH2 0x100 EXP SWAP1 DIV PUSH20 0xFFFFFFFFFFFFFFFFFFFFFFFFFFFFFFFFFFFFFFFF AND SWAP1 POP DUP2 PUSH1 0x5 PUSH1 0x0 PUSH2 0x100 EXP DUP2 SLOAD DUP2 PUSH20 0xFFFFFFFFFFFFFFFFFFFFFFFFFFFFFFFFFFFFFFFF MUL NOT AND SWAP1 DUP4 PUSH20 0xFFFFFFFFFFFFFFFFFFFFFFFFFFFFFFFFFFFFFFFF AND MUL OR SWAP1 SSTORE POP DUP2 PUSH20 0xFFFFFFFFFFFFFFFFFFFFFFFFFFFFFFFFFFFFFFFF AND DUP2 PUSH20 0xFFFFFFFFFFFFFFFFFFFFFFFFFFFFFFFFFFFFFFFF AND PUSH32 0x8BE0079C531659141344CD1FD0A4F28419497F9722A3DAAFE3B4186F6B6457E0 PUSH1 0x40 MLOAD PUSH1 0x40 MLOAD DUP1 SWAP2 SUB SWAP1 LOG3 POP POP JUMP JUMPDEST POP JUMP JUMPDEST PUSH1 0x0 PUSH1 0x40 MLOAD SWAP1 POP SWAP1 JUMP JUMPDEST PUSH1 0x0 DUP1 REVERT JUMPDEST PUSH1 0x0 DUP1 REVERT JUMPDEST PUSH1 0x0 DUP1 REVERT JUMPDEST PUSH1 0x0 DUP1 REVERT JUMPDEST PUSH1 0x0 PUSH1 0x1F NOT PUSH1 0x1F DUP4 ADD AND SWAP1 POP SWAP2 SWAP1 POP JUMP JUMPDEST PUSH32 0x4E487B7100000000000000000000000000000000000000000000000000000000 PUSH1 0x0 MSTORE PUSH1 0x41 PUSH1 0x4 MSTORE PUSH1 0x24 PUSH1 0x0 REVERT JUMPDEST PUSH2 0x22B DUP3 PUSH2 0x1E2 JUMP JUMPDEST DUP2 ADD DUP2 DUP2 LT PUSH8 0xFFFFFFFFFFFFFFFF DUP3 GT OR ISZERO PUSH2 0x24A JUMPI PUSH2 0x249 PUSH2 0x1F3 JUMP JUMPDEST JUMPDEST DUP1 PUSH1 0x40 MSTORE POP POP POP JUMP JUMPDEST PUSH1 0x0 PUSH2 0x25D PUSH2 0x1C4 JUMP JUMPDEST SWAP1 POP PUSH2 0x269 DUP3 DUP3 PUSH2 0x222 JUMP JUMPDEST SWAP2 SWAP1 POP JUMP JUMPDEST PUSH1 0x0 PUSH8 0xFFFFFFFFFFFFFFFF DUP3 GT ISZERO PUSH2 0x289 JUMPI PUSH2 0x288 PUSH2 0x1F3 JUMP JUMPDEST JUMPDEST PUSH2 0x292 DUP3 PUSH2 0x1E2 JUMP JUMPDEST SWAP1 POP PUSH1 0x20 DUP2 ADD SWAP1 POP SWAP2 SWAP1 POP JUMP JUMPDEST PUSH1 0x0 JUMPDEST DUP4 DUP2 LT ISZERO PUSH2 0x2BD JUMPI DUP1 DUP3 ADD MLOAD DUP2 DUP5 ADD MSTORE PUSH1 0x20 DUP2 ADD SWAP1 POP PUSH2 0x2A2 JUMP JUMPDEST PUSH1 0x0 DUP5 DUP5 ADD MSTORE POP POP POP POP JUMP JUMPDEST PUSH1 0x0 PUSH2 0x2DC PUSH2 0x2D7 DUP5 PUSH2 0x26E JUMP JUMPDEST PUSH2 0x253 JUMP JUMPDEST SWAP1 POP DUP3 DUP2 MSTORE PUSH1 0x20 DUP2 ADD DUP5 DUP5 DUP5 ADD GT ISZERO PUSH2 0x2F8 JUMPI PUSH2 0x2F7 PUSH2 0x1DD JUMP JUMPDEST JUMPDEST PUSH2 0x303 DUP5 DUP3 DUP6 PUSH2 0x29F JUMP JUMPDEST POP SWAP4 SWAP3 POP POP POP JUMP JUMPDEST PUSH1 0x0 DUP3 PUSH1 0x1F DUP4 ADD SLT PUSH2 0x320 JUMPI PUSH2 0x31F PUSH2 0x1D8 JUMP JUMPDEST JUMPDEST DUP2 MLOAD PUSH2 0x330 DUP5 DUP3 PUSH1 0x20 DUP7 ADD PUSH2 0x2C9 JUMP JUMPDEST SWAP2 POP POP SWAP3 SWAP2 POP POP JUMP JUMPDEST PUSH1 0x0 PUSH20 0xFFFFFFFFFFFFFFFFFFFFFFFFFFFFFFFFFFFFFFFF DUP3 AND SWAP1 POP SWAP2 SWAP1 POP JUMP JUMPDEST PUSH1 0x0 PUSH2 0x364 DUP3 PUSH2 0x339 JUMP JUMPDEST SWAP1 POP SWAP2 SWAP1 POP JUMP JUMPDEST PUSH2 0x374 DUP2 PUSH2 0x359 JUMP JUMPDEST DUP2 EQ PUSH2 0x37F JUMPI PUSH1 0x0 DUP1 REVERT JUMPDEST POP JUMP JUMPDEST PUSH1 0x0 DUP2 MLOAD SWAP1 POP PUSH2 0x391 DUP2 PUSH2 0x36B JUMP JUMPDEST SWAP3 SWAP2 POP POP JUMP JUMPDEST PUSH1 0x0 DUP1 PUSH1 0x0 PUSH1 0x60 DUP5 DUP7 SUB SLT ISZERO PUSH2 0x3B0 JUMPI PUSH2 0x3AF PUSH2 0x1CE JUMP JUMPDEST JUMPDEST PUSH1 0x0 DUP5 ADD MLOAD PUSH8 0xFFFFFFFFFFFFFFFF DUP2 GT ISZERO PUSH2 0x3CE JUMPI PUSH2 0x3CD PUSH2 0x1D3 JUMP JUMPDEST JUMPDEST PUSH2 0x3DA DUP7 DUP3 DUP8 ADD PUSH2 0x30B JUMP JUMPDEST SWAP4 POP POP PUSH1 0x20 DUP5 ADD MLOAD PUSH8 0xFFFFFFFFFFFFFFFF DUP2 GT ISZERO PUSH2 0x3FB JUMPI PUSH2 0x3FA PUSH2 0x1D3 JUMP JUMPDEST JUMPDEST PUSH2 0x407 DUP7 DUP3 DUP8 ADD PUSH2 0x30B JUMP JUMPDEST SWAP3 POP POP PUSH1 0x40 PUSH2 0x418 DUP7 DUP3 DUP8 ADD PUSH2 0x382 JUMP JUMPDEST SWAP2 POP POP SWAP3 POP SWAP3 POP SWAP3 JUMP JUMPDEST PUSH1 0x0 DUP2 MLOAD SWAP1 POP SWAP2 SWAP1 POP JUMP JUMPDEST PUSH32 0x4E487B7100000000000000000000000000000000000000000000000000000000 PUSH1 0x0 MSTORE PUSH1 0x22 PUSH1 0x4 MSTORE PUSH1 0x24 PUSH1 0x0 REVERT JUMPDEST PUSH1 0x0 PUSH1 0x2 DUP3 DIV SWAP1 POP PUSH1 0x1 DUP3 AND DUP1 PUSH2 0x474 JUMPI PUSH1 0x7F DUP3 AND SWAP2 POP JUMPDEST PUSH1 0x20 DUP3 LT DUP2 SUB PUSH2 0x487 JUMPI PUSH2 0x486 PUSH2 0x42D JUMP JUMPDEST JUMPDEST POP SWAP2 SWAP1 POP JUMP JUMPDEST PUSH1 0x0 DUP2 SWAP1 POP DUP2 PUSH1 0x0 MSTORE PUSH1 0x20 PUSH1 0x0 KECCAK256 SWAP1 POP SWAP2 SWAP1 POP JUMP JUMPDEST PUSH1 0x0 PUSH1 0x20 PUSH1 0x1F DUP4 ADD DIV SWAP1 POP SWAP2 SWAP1 POP JUMP JUMPDEST PUSH1 0x0 DUP3 DUP3 SHL SWAP1 POP SWAP3 SWAP2 POP POP JUMP JUMPDEST PUSH1 0x0 PUSH1 0x8 DUP4 MUL PUSH2 0x4EF PUSH32 0xFFFFFFFFFFFFFFFFFFFFFFFFFFFFFFFFFFFFFFFFFFFFFFFFFFFFFFFFFFFFFFFF DUP3 PUSH2 0x4B2 JUMP JUMPDEST PUSH2 0x4F9 DUP7 DUP4 PUSH2 0x4B2 JUMP JUMPDEST SWAP6 POP DUP1 NOT DUP5 AND SWAP4 POP DUP1 DUP7 AND DUP5 OR SWAP3 POP POP POP SWAP4 SWAP3 POP POP POP JUMP JUMPDEST PUSH1 0x0 DUP2 SWAP1 POP SWAP2 SWAP1 POP JUMP JUMPDEST PUSH1 0x0 DUP2 SWAP1 POP SWAP2 SWAP1 POP JUMP JUMPDEST PUSH1 0x0 PUSH2 0x540 PUSH2 0x53B PUSH2 0x536 DUP5 PUSH2 0x511 JUMP JUMPDEST PUSH2 0x51B JUMP JUMPDEST PUSH2 0x511 JUMP JUMPDEST SWAP1 POP SWAP2 SWAP1 POP JUMP JUMPDEST PUSH1 0x0 DUP2 SWAP1 POP SWAP2 SWAP1 POP JUMP JUMPDEST PUSH2 0x55A DUP4 PUSH2 0x525 JUMP JUMPDEST PUSH2 0x56E PUSH2 0x566 DUP3 PUSH2 0x547 JUMP JUMPDEST DUP5 DUP5 SLOAD PUSH2 0x4BF JUMP JUMPDEST DUP3 SSTORE POP POP POP POP JUMP JUMPDEST PUSH1 0x0 SWAP1 JUMP JUMPDEST PUSH2 0x583 PUSH2 0x576 JUMP JUMPDEST PUSH2 0x58E DUP2 DUP5 DUP5 PUSH2 0x551 JUMP JUMPDEST POP POP POP JUMP JUMPDEST JUMPDEST DUP2 DUP2 LT ISZERO PUSH2 0x5B2 JUMPI PUSH2 0x5A7 PUSH1 0x0 DUP3 PUSH2 0x57B JUMP JUMPDEST PUSH1 0x1 DUP2 ADD SWAP1 POP PUSH2 0x594 JUMP JUMPDEST POP POP JUMP JUMPDEST PUSH1 0x1F DUP3 GT ISZERO PUSH2 0x5F7 JUMPI PUSH2 0x5C8 DUP2 PUSH2 0x48D JUMP JUMPDEST PUSH2 0x5D1 DUP5 PUSH2 0x4A2 JUMP JUMPDEST DUP2 ADD PUSH1 0x20 DUP6 LT ISZERO PUSH2 0x5E0 JUMPI DUP2 SWAP1 POP JUMPDEST PUSH2 0x5F4 PUSH2 0x5EC DUP6 PUSH2 0x4A2 JUMP JUMPDEST DUP4 ADD DUP3 PUSH2 0x593 JUMP JUMPDEST POP POP JUMPDEST POP POP POP JUMP JUMPDEST PUSH1 0x0 DUP3 DUP3 SHR SWAP1 POP SWAP3 SWAP2 POP POP JUMP JUMPDEST PUSH1 0x0 PUSH2 0x61A PUSH1 0x0 NOT DUP5 PUSH1 0x8 MUL PUSH2 0x5FC JUMP JUMPDEST NOT DUP1 DUP4 AND SWAP2 POP POP SWAP3 SWAP2 POP POP JUMP JUMPDEST PUSH1 0x0 PUSH2 0x633 DUP4 DUP4 PUSH2 0x609 JUMP JUMPDEST SWAP2 POP DUP3 PUSH1 0x2 MUL DUP3 OR SWAP1 POP SWAP3 SWAP2 POP POP JUMP JUMPDEST PUSH2 0x64C DUP3 PUSH2 0x422 JUMP JUMPDEST PUSH8 0xFFFFFFFFFFFFFFFF DUP2 GT ISZERO PUSH2 0x665 JUMPI PUSH2 0x664 PUSH2 0x1F3 JUMP JUMPDEST JUMPDEST PUSH2 0x66F DUP3 SLOAD PUSH2 0x45C JUMP JUMPDEST PUSH2 0x67A DUP3 DUP3 DUP6 PUSH2 0x5B6 JUMP JUMPDEST PUSH1 0x0 PUSH1 0x20 SWAP1 POP PUSH1 0x1F DUP4 GT PUSH1 0x1 DUP2 EQ PUSH2 0x6AD JUMPI PUSH1 0x0 DUP5 ISZERO PUSH2 0x69B JUMPI DUP3 DUP8 ADD MLOAD SWAP1 POP JUMPDEST PUSH2 0x6A5 DUP6 DUP3 PUSH2 0x627 JUMP JUMPDEST DUP7 SSTORE POP PUSH2 0x70D JUMP JUMPDEST PUSH1 0x1F NOT DUP5 AND PUSH2 0x6BB DUP7 PUSH2 0x48D JUMP JUMPDEST PUSH1 0x0 JUMPDEST DUP3 DUP2 LT ISZERO PUSH2 0x6E3 JUMPI DUP5 DUP10 ADD MLOAD DUP3 SSTORE PUSH1 0x1 DUP3 ADD SWAP2 POP PUSH1 0x20 DUP6 ADD SWAP5 POP PUSH1 0x20 DUP2 ADD SWAP1 POP PUSH2 0x6BE JUMP JUMPDEST DUP7 DUP4 LT ISZERO PUSH2 0x700 JUMPI DUP5 DUP10 ADD MLOAD PUSH2 0x6FC PUSH1 0x1F DUP10 AND DUP3 PUSH2 0x609 JUMP JUMPDEST DUP4 SSTORE POP JUMPDEST PUSH1 0x1 PUSH1 0x2 DUP9 MUL ADD DUP9 SSTORE POP POP POP JUMPDEST POP POP POP POP POP POP JUMP JUMPDEST PUSH2 0x71E DUP2 PUSH2 0x359 JUMP JUMPDEST DUP3 MSTORE POP POP JUMP JUMPDEST PUSH1 0x0 PUSH1 0x20 DUP3 ADD SWAP1 POP PUSH2 0x739 PUSH1 0x0 DUP4 ADD DUP5 PUSH2 0x715 JUMP JUMPDEST SWAP3 SWAP2 POP POP JUMP JUMPDEST PUSH2 0x1335 DUP1 PUSH2 0x74E PUSH1 0x0 CODECOPY PUSH1 0x0 RETURN INVALID PUSH1 0x80 PUSH1 0x40 MSTORE CALLVALUE DUP1 ISZERO PUSH2 0x10 JUMPI PUSH1 0x0 DUP1 REVERT JUMPDEST POP PUSH1 0x4 CALLDATASIZE LT PUSH2 0xEA JUMPI PUSH1 0x0 CALLDATALOAD PUSH1 0xE0 SHR DUP1 PUSH4 0x715018A6 GT PUSH2 0x8C JUMPI DUP1 PUSH4 0x95D89B41 GT PUSH2 0x66 JUMPI DUP1 PUSH4 0x95D89B41 EQ PUSH2 0x239 JUMPI DUP1 PUSH4 0xA9059CBB EQ PUSH2 0x257 JUMPI DUP1 PUSH4 0xDD62ED3E EQ PUSH2 0x287 JUMPI DUP1 PUSH4 0xF2FDE38B EQ PUSH2 0x2B7 JUMPI PUSH2 0xEA JUMP JUMPDEST DUP1 PUSH4 0x715018A6 EQ PUSH2 0x1F5 JUMPI DUP1 PUSH4 0x79CC6790 EQ PUSH2 0x1FF JUMPI DUP1 PUSH4 0x8DA5CB5B EQ PUSH2 0x21B JUMPI PUSH2 0xEA JUMP JUMPDEST DUP1 PUSH4 0x23B872DD GT PUSH2 0xC8 JUMPI DUP1 PUSH4 0x23B872DD EQ PUSH2 0x15B JUMPI DUP1 PUSH4 0x313CE567 EQ PUSH2 0x18B JUMPI DUP1 PUSH4 0x40C10F19 EQ PUSH2 0x1A9 JUMPI DUP1 PUSH4 0x70A08231 EQ PUSH2 0x1C5 JUMPI PUSH2 0xEA JUMP JUMPDEST DUP1 PUSH4 0x6FDDE03 EQ PUSH2 0xEF JUMPI DUP1 PUSH4 0x95EA7B3 EQ PUSH2 0x10D JUMPI DUP1 PUSH4 0x18160DDD EQ PUSH2 0x13D JUMPI JUMPDEST PUSH1 0x0 DUP1 REVERT JUMPDEST PUSH2 0xF7 PUSH2 0x2D3 JUMP JUMPDEST PUSH1 0x40 MLOAD PUSH2 0x104 SWAP2 SWAP1 PUSH2 0xF89 JUMP JUMPDEST PUSH1 0x40 MLOAD DUP1 SWAP2 SUB SWAP1 RETURN JUMPDEST PUSH2 0x127 PUSH1 0x4 DUP1 CALLDATASIZE SUB DUP2 ADD SWAP1 PUSH2 0x122 SWAP2 SWAP1 PUSH2 0x1044 JUMP JUMPDEST PUSH2 0x365 JUMP JUMPDEST PUSH1 0x40 MLOAD PUSH2 0x134 SWAP2 SWAP1 PUSH2 0x109F JUMP JUMPDEST PUSH1 0x40 MLOAD DUP1 SWAP2 SUB SWAP1 RETURN JUMPDEST PUSH2 0x145 PUSH2 0x388 JUMP JUMPDEST PUSH1 0x40 MLOAD PUSH2 0x152 SWAP2 SWAP1 PUSH2 0x10C9 JUMP JUMPDEST PUSH1 0x40 MLOAD DUP1 SWAP2 SUB SWAP1 RETURN JUMPDEST PUSH2 0x175 PUSH1 0x4 DUP1 CALLDATASIZE SUB DUP2 ADD SWAP1 PUSH2 0x170 SWAP2 SWAP1 PUSH2 0x10E4 JUMP JUMPDEST PUSH2 0x392 JUMP JUMPDEST PUSH1 0x40 MLOAD PUSH2 0x182 SWAP2 SWAP1 PUSH2 0x109F JUMP JUMPDEST PUSH1 0x40 MLOAD DUP1 SWAP2 SUB SWAP1 RETURN JUMPDEST PUSH2 0x193 PUSH2 0x3C1 JUMP JUMPDEST PUSH1 0x40 MLOAD PUSH2 0x1A0 SWAP2 SWAP1 PUSH2 0x1153 JUMP JUMPDEST PUSH1 0x40 MLOAD DUP1 SWAP2 SUB SWAP1 RETURN JUMPDEST PUSH2 0x1C3 PUSH1 0x4 DUP1 CALLDATASIZE SUB DUP2 ADD SWAP1 PUSH2 0x1BE SWAP2 SWAP1 PUSH2 0x1044 JUMP JUMPDEST PUSH2 0x3CA JUMP JUMPDEST STOP JUMPDEST PUSH2 0x1DF PUSH1 0x4 DUP1 CALLDATASIZE SUB DUP2 ADD SWAP1 PUSH2 0x1DA SWAP2 SWAP1 PUSH2 0x116E JUMP JUMPDEST PUSH2 0x444 JUMP JUMPDEST PUSH1 0x40 MLOAD PUSH2 0x1EC SWAP2 SWAP1 PUSH2 0x10C9 JUMP JUMPDEST PUSH1 0x40 MLOAD DUP1 SWAP2 SUB SWAP1 RETURN JUMPDEST PUSH2 0x1FD PUSH2 0x48C JUMP JUMPDEST STOP JUMPDEST PUSH2 0x219 PUSH1 0x4 DUP1 CALLDATASIZE SUB DUP2 ADD SWAP1 PUSH2 0x214 SWAP2 SWAP1 PUSH2 0x1044 JUMP JUMPDEST PUSH2 0x4A0 JUMP JUMPDEST STOP JUMPDEST PUSH2 0x223 PUSH2 0x51A JUMP JUMPDEST PUSH1 0x40 MLOAD PUSH2 0x230 SWAP2 SWAP1 PUSH2 0x11AA JUMP JUMPDEST PUSH1 0x40 MLOAD DUP1 SWAP2 SUB SWAP1 RETURN JUMPDEST PUSH2 0x241 PUSH2 0x544 JUMP JUMPDEST PUSH1 0x40 MLOAD PUSH2 0x24E SWAP2 SWAP1 PUSH2 0xF89 JUMP JUMPDEST PUSH1 0x40 MLOAD DUP1 SWAP2 SUB SWAP1 RETURN JUMPDEST PUSH2 0x271 PUSH1 0x4 DUP1 CALLDATASIZE SUB DUP2 ADD SWAP1 PUSH2 0x26C SWAP2 SWAP1 PUSH2 0x1044 JUMP JUMPDEST PUSH2 0x5D6 JUMP JUMPDEST PUSH1 0x40 MLOAD PUSH2 0x27E SWAP2 SWAP1 PUSH2 0x109F JUMP JUMPDEST PUSH1 0x40 MLOAD DUP1 SWAP2 SUB SWAP1 RETURN JUMPDEST PUSH2 0x2A1 PUSH1 0x4 DUP1 CALLDATASIZE SUB DUP2 ADD SWAP1 PUSH2 0x29C SWAP2 SWAP1 PUSH2 0x11C5 JUMP JUMPDEST PUSH2 0x5F9 JUMP JUMPDEST PUSH1 0x40 MLOAD PUSH2 0x2AE SWAP2 SWAP1 PUSH2 0x10C9 JUMP JUMPDEST PUSH1 0x40 MLOAD DUP1 SWAP2 SUB SWAP1 RETURN JUMPDEST PUSH2 0x2D1 PUSH1 0x4 DUP1 CALLDATASIZE SUB DUP2 ADD SWAP1 PUSH2 0x2CC SWAP2 SWAP1 PUSH2 0x116E JUMP JUMPDEST PUSH2 0x680 JUMP JUMPDEST STOP JUMPDEST PUSH1 0x60 PUSH1 0x3 DUP1 SLOAD PUSH2 0x2E2 SWAP1 PUSH2 0x1234 JUMP JUMPDEST DUP1 PUSH1 0x1F ADD PUSH1 0x20 DUP1 SWAP2 DIV MUL PUSH1 0x20 ADD PUSH1 0x40 MLOAD SWAP1 DUP2 ADD PUSH1 0x40 MSTORE DUP1 SWAP3 SWAP2 SWAP1 DUP2 DUP2 MSTORE PUSH1 0x20 ADD DUP3 DUP1 SLOAD PUSH2 0x30E SWAP1 PUSH2 0x1234 JUMP JUMPDEST DUP1 ISZERO PUSH2 0x35B JUMPI DUP1 PUSH1 0x1F LT PUSH2 0x330 JUMPI PUSH2 0x100 DUP1 DUP4 SLOAD DIV MUL DUP4 MSTORE SWAP2 PUSH1 0x20 ADD SWAP2 PUSH2 0x35B JUMP JUMPDEST DUP3 ADD SWAP2 SWAP1 PUSH1 0x0 MSTORE PUSH1 0x20 PUSH1 0x0 KECCAK256 SWAP1 JUMPDEST DUP2 SLOAD DUP2 MSTORE SWAP1 PUSH1 0x1 ADD SWAP1 PUSH1 0x20 ADD DUP1 DUP4 GT PUSH2 0x33E JUMPI DUP3 SWAP1 SUB PUSH1 0x1F AND DUP3 ADD SWAP2 JUMPDEST POP POP POP POP POP SWAP1 POP SWAP1 JUMP JUMPDEST PUSH1 0x0 DUP1 PUSH2 0x370 PUSH2 0x706 JUMP JUMPDEST SWAP1 POP PUSH2 0x37D DUP2 DUP6 DUP6 PUSH2 0x70E JUMP JUMPDEST PUSH1 0x1 SWAP2 POP POP SWAP3 SWAP2 POP POP JUMP JUMPDEST PUSH1 0x0 PUSH1 0x2 SLOAD SWAP1 POP SWAP1 JUMP JUMPDEST PUSH1 0x0 DUP1 PUSH2 0x39D PUSH2 0x706 JUMP JUMPDEST SWAP1 POP PUSH2 0x3AA DUP6 DUP3 DUP6 PUSH2 0x720 JUMP JUMPDEST PUSH2 0x3B5 DUP6 DUP6 DUP6 PUSH2 0x7B5 JUMP JUMPDEST PUSH1 0x1 SWAP2 POP POP SWAP4 SWAP3 POP POP POP JUMP JUMPDEST PUSH1 0x0 PUSH1 0x12 SWAP1 POP SWAP1 JUMP JUMPDEST PUSH2 0x3DE PUSH8 0xDD498D0AD5A0BEE6 PUSH1 0xC0 SHL PUSH2 0x8A9 JUMP JUMPDEST PUSH2 0x3E6 PUSH2 0x8AC JUMP JUMPDEST PUSH2 0x3FA PUSH8 0x3B21FBC42779ECE2 PUSH1 0xC0 SHL PUSH2 0x8A9 JUMP JUMPDEST PUSH2 0x40E PUSH8 0x5C34505675F52B95 PUSH1 0xC0 SHL PUSH2 0x8A9 JUMP JUMPDEST PUSH2 0x422 PUSH8 0x1D4ED83E47A63640 PUSH1 0xC0 SHL PUSH2 0x8A9 JUMP JUMPDEST PUSH2 0x436 PUSH8 0x2CC9137215E865F6 PUSH1 0xC0 SHL PUSH2 0x8A9 JUMP JUMPDEST PUSH2 0x440 DUP3 DUP3 PUSH2 0x933 JUMP JUMPDEST POP POP JUMP JUMPDEST PUSH1 0x0 DUP1 PUSH1 0x0 DUP4 PUSH20 0xFFFFFFFFFFFFFFFFFFFFFFFFFFFFFFFFFFFFFFFF AND PUSH20 0xFFFFFFFFFFFFFFFFFFFFFFFFFFFFFFFFFFFFFFFF AND DUP2 MSTORE PUSH1 0x20 ADD SWAP1 DUP2 MSTORE PUSH1 0x20 ADD PUSH1 0x0 KECCAK256 SLOAD SWAP1 POP SWAP2 SWAP1 POP JUMP JUMPDEST PUSH2 0x494 PUSH2 0x8AC JUMP JUMPDEST PUSH2 0x49E PUSH1 0x0 PUSH2 0x9B5 JUMP JUMPDEST JUMP JUMPDEST PUSH2 0x4B4 PUSH8 0x202AC6069FE4ED4A PUSH1 0xC0 SHL PUSH2 0x8A9 JUMP JUMPDEST PUSH2 0x4BC PUSH2 0x8AC JUMP JUMPDEST PUSH2 0x4D0 PUSH8 0xCADFE75D41A50374 PUSH1 0xC0 SHL PUSH2 0x8A9 JUMP JUMPDEST PUSH2 0x4E4 PUSH8 0x3756D69B21CD7E4A PUSH1 0xC0 SHL PUSH2 0x8A9 JUMP JUMPDEST PUSH2 0x4F8 PUSH8 0xE57FB20251E3421C PUSH1 0xC0 SHL PUSH2 0x8A9 JUMP JUMPDEST PUSH2 0x50C PUSH8 0x6ED9B55B5B8AE74F PUSH1 0xC0 SHL PUSH2 0x8A9 JUMP JUMPDEST PUSH2 0x516 DUP3 DUP3 PUSH2 0xA7B JUMP JUMPDEST POP POP JUMP JUMPDEST PUSH1 0x0 PUSH1 0x5 PUSH1 0x0 SWAP1 SLOAD SWAP1 PUSH2 0x100 EXP SWAP1 DIV PUSH20 0xFFFFFFFFFFFFFFFFFFFFFFFFFFFFFFFFFFFFFFFF AND SWAP1 POP SWAP1 JUMP JUMPDEST PUSH1 0x60 PUSH1 0x4 DUP1 SLOAD PUSH2 0x553 SWAP1 PUSH2 0x1234 JUMP JUMPDEST DUP1 PUSH1 0x1F ADD PUSH1 0x20 DUP1 SWAP2 DIV MUL PUSH1 0x20 ADD PUSH1 0x40 MLOAD SWAP1 DUP2 ADD PUSH1 0x40 MSTORE DUP1 SWAP3 SWAP2 SWAP1 DUP2 DUP2 MSTORE PUSH1 0x20 ADD DUP3 DUP1 SLOAD PUSH2 0x57F SWAP1 PUSH2 0x1234 JUMP JUMPDEST DUP1 ISZERO PUSH2 0x5CC JUMPI DUP1 PUSH1 0x1F LT PUSH2 0x5A1 JUMPI PUSH2 0x100 DUP1 DUP4 SLOAD DIV MUL DUP4 MSTORE SWAP2 PUSH1 0x20 ADD SWAP2 PUSH2 0x5CC JUMP JUMPDEST DUP3 ADD SWAP2 SWAP1 PUSH1 0x0 MSTORE PUSH1 0x20 PUSH1 0x0 KECCAK256 SWAP1 JUMPDEST DUP2 SLOAD DUP2 MSTORE SWAP1 PUSH1 0x1 ADD SWAP1 PUSH1 0x20 ADD DUP1 DUP4 GT PUSH2 0x5AF JUMPI DUP3 SWAP1 SUB PUSH1 0x1F AND DUP3 ADD SWAP2 JUMPDEST POP POP POP POP POP SWAP1 POP SWAP1 JUMP JUMPDEST PUSH1 0x0 DUP1 PUSH2 0x5E1 PUSH2 0x706 JUMP JUMPDEST SWAP1 POP PUSH2 0x5EE DUP2 DUP6 DUP6 PUSH2 0x7B5 JUMP JUMPDEST PUSH1 0x1 SWAP2 POP POP SWAP3 SWAP2 POP POP JUMP JUMPDEST PUSH1 0x0 PUSH1 0x1 PUSH1 0x0 DUP5 PUSH20 0xFFFFFFFFFFFFFFFFFFFFFFFFFFFFFFFFFFFFFFFF AND PUSH20 0xFFFFFFFFFFFFFFFFFFFFFFFFFFFFFFFFFFFFFFFF AND DUP2 MSTORE PUSH1 0x20 ADD SWAP1 DUP2 MSTORE PUSH1 0x20 ADD PUSH1 0x0 KECCAK256 PUSH1 0x0 DUP4 PUSH20 0xFFFFFFFFFFFFFFFFFFFFFFFFFFFFFFFFFFFFFFFF AND PUSH20 0xFFFFFFFFFFFFFFFFFFFFFFFFFFFFFFFFFFFFFFFF AND DUP2 MSTORE PUSH1 0x20 ADD SWAP1 DUP2 MSTORE PUSH1 0x20 ADD PUSH1 0x0 KECCAK256 SLOAD SWAP1 POP SWAP3 SWAP2 POP POP JUMP JUMPDEST PUSH2 0x688 PUSH2 0x8AC JUMP JUMPDEST PUSH1 0x0 PUSH20 0xFFFFFFFFFFFFFFFFFFFFFFFFFFFFFFFFFFFFFFFF AND DUP2 PUSH20 0xFFFFFFFFFFFFFFFFFFFFFFFFFFFFFFFFFFFFFFFF AND SUB PUSH2 0x6FA JUMPI PUSH1 0x0 PUSH1 0x40 MLOAD PUSH32 0x1E4FBDF700000000000000000000000000000000000000000000000000000000 DUP2 MSTORE PUSH1 0x4 ADD PUSH2 0x6F1 SWAP2 SWAP1 PUSH2 0x11AA JUMP JUMPDEST PUSH1 0x40 MLOAD DUP1 SWAP2 SUB SWAP1 REVERT JUMPDEST PUSH2 0x703 DUP2 PUSH2 0x9B5 JUMP JUMPDEST POP JUMP JUMPDEST PUSH1 0x0 CALLER SWAP1 POP SWAP1 JUMP JUMPDEST PUSH2 0x71B DUP4 DUP4 DUP4 PUSH1 0x1 PUSH2 0xAFD JUMP JUMPDEST POP POP POP JUMP JUMPDEST PUSH1 0x0 PUSH2 0x72C DUP5 DUP5 PUSH2 0x5F9 JUMP JUMPDEST SWAP1 POP PUSH32 0xFFFFFFFFFFFFFFFFFFFFFFFFFFFFFFFFFFFFFFFFFFFFFFFFFFFFFFFFFFFFFFFF DUP2 LT ISZERO PUSH2 0x7AF JUMPI DUP2 DUP2 LT ISZERO PUSH2 0x79F JUMPI DUP3 DUP2 DUP4 PUSH1 0x40 MLOAD PUSH32 0xFB8F41B200000000000000000000000000000000000000000000000000000000 DUP2 MSTORE PUSH1 0x4 ADD PUSH2 0x796 SWAP4 SWAP3 SWAP2 SWAP1 PUSH2 0x1265 JUMP JUMPDEST PUSH1 0x40 MLOAD DUP1 SWAP2 SUB SWAP1 REVERT JUMPDEST PUSH2 0x7AE DUP5 DUP5 DUP5 DUP5 SUB PUSH1 0x0 PUSH2 0xAFD JUMP JUMPDEST JUMPDEST POP POP POP POP JUMP JUMPDEST PUSH1 0x0 PUSH20 0xFFFFFFFFFFFFFFFFFFFFFFFFFFFFFFFFFFFFFFFF AND DUP4 PUSH20 0xFFFFFFFFFFFFFFFFFFFFFFFFFFFFFFFFFFFFFFFF AND SUB PUSH2 0x827 JUMPI PUSH1 0x0 PUSH1 0x40 MLOAD PUSH32 0x96C6FD1E00000000000000000000000000000000000000000000000000000000 DUP2 MSTORE PUSH1 0x4 ADD PUSH2 0x81E SWAP2 SWAP1 PUSH2 0x11AA JUMP JUMPDEST PUSH1 0x40 MLOAD DUP1 SWAP2 SUB SWAP1 REVERT JUMPDEST PUSH1 0x0 PUSH20 0xFFFFFFFFFFFFFFFFFFFFFFFFFFFFFFFFFFFFFFFF AND DUP3 PUSH20 0xFFFFFFFFFFFFFFFFFFFFFFFFFFFFFFFFFFFFFFFF AND SUB PUSH2 0x899 JUMPI PUSH1 0x0 PUSH1 0x40 MLOAD PUSH32 0xEC442F0500000000000000000000000000000000000000000000000000000000 DUP2 MSTORE PUSH1 0x4 ADD PUSH2 0x890 SWAP2 SWAP1 PUSH2 0x11AA JUMP JUMPDEST PUSH1 0x40 MLOAD DUP1 SWAP2 SUB SWAP1 REVERT JUMPDEST PUSH2 0x8A4 DUP4 DUP4 DUP4 PUSH2 0xCD4 JUMP JUMPDEST POP POP POP JUMP JUMPDEST POP JUMP JUMPDEST PUSH2 0x8B4 PUSH2 0x706 JUMP JUMPDEST PUSH20 0xFFFFFFFFFFFFFFFFFFFFFFFFFFFFFFFFFFFFFFFF AND PUSH2 0x8D2 PUSH2 0x51A JUMP JUMPDEST PUSH20 0xFFFFFFFFFFFFFFFFFFFFFFFFFFFFFFFFFFFFFFFF AND EQ PUSH2 0x931 JUMPI PUSH2 0x8F5 PUSH2 0x706 JUMP JUMPDEST PUSH1 0x40 MLOAD PUSH32 0x118CDAA700000000000000000000000000000000000000000000000000000000 DUP2 MSTORE PUSH1 0x4 ADD PUSH2 0x928 SWAP2 SWAP1 PUSH2 0x11AA JUMP JUMPDEST PUSH1 0x40 MLOAD DUP1 SWAP2 SUB SWAP1 REVERT JUMPDEST JUMP JUMPDEST PUSH1 0x0 PUSH20 0xFFFFFFFFFFFFFFFFFFFFFFFFFFFFFFFFFFFFFFFF AND DUP3 PUSH20 0xFFFFFFFFFFFFFFFFFFFFFFFFFFFFFFFFFFFFFFFF AND SUB PUSH2 0x9A5 JUMPI PUSH1 0x0 PUSH1 0x40 MLOAD PUSH32 0xEC442F0500000000000000000000000000000000000000000000000000000000 DUP2 MSTORE PUSH1 0x4 ADD PUSH2 0x99C SWAP2 SWAP1 PUSH2 0x11AA JUMP JUMPDEST PUSH1 0x40 MLOAD DUP1 SWAP2 SUB SWAP1 REVERT JUMPDEST PUSH2 0x9B1 PUSH1 0x0 DUP4 DUP4 PUSH2 0xCD4 JUMP JUMPDEST POP POP JUMP JUMPDEST PUSH1 0x0 PUSH1 0x5 PUSH1 0x0 SWAP1 SLOAD SWAP1 PUSH2 0x100 EXP SWAP1 DIV PUSH20 0xFFFFFFFFFFFFFFFFFFFFFFFFFFFFFFFFFFFFFFFF AND SWAP1 POP DUP2 PUSH1 0x5 PUSH1 0x0 PUSH2 0x100 EXP DUP2 SLOAD DUP2 PUSH20 0xFFFFFFFFFFFFFFFFFFFFFFFFFFFFFFFFFFFFFFFF MUL NOT AND SWAP1 DUP4 PUSH20 0xFFFFFFFFFFFFFFFFFFFFFFFFFFFFFFFFFFFFFFFF AND MUL OR SWAP1 SSTORE POP DUP2 PUSH20 0xFFFFFFFFFFFFFFFFFFFFFFFFFFFFFFFFFFFFFFFF AND DUP2 PUSH20 0xFFFFFFFFFFFFFFFFFFFFFFFFFFFFFFFFFFFFFFFF AND PUSH32 0x8BE0079C531659141344CD1FD0A4F28419497F9722A3DAAFE3B4186F6B6457E0 PUSH1 0x40 MLOAD PUSH1 0x40 MLOAD DUP1 SWAP2 SUB SWAP1 LOG3 POP POP JUMP JUMPDEST PUSH1 0x0 PUSH20 0xFFFFFFFFFFFFFFFFFFFFFFFFFFFFFFFFFFFFFFFF AND DUP3 PUSH20 0xFFFFFFFFFFFFFFFFFFFFFFFFFFFFFFFFFFFFFFFF AND SUB PUSH2 0xAED JUMPI PUSH1 0x0 PUSH1 0x40 MLOAD PUSH32 0x96C6FD1E00000000000000000000000000000000000000000000000000000000 DUP2 MSTORE PUSH1 0x4 ADD PUSH2 0xAE4 SWAP2 SWAP1 PUSH2 0x11AA JUMP JUMPDEST PUSH1 0x40 MLOAD DUP1 SWAP2 SUB SWAP1 REVERT JUMPDEST PUSH2 0xAF9 DUP3 PUSH1 0x0 DUP4 PUSH2 0xCD4 JUMP JUMPDEST POP POP JUMP JUMPDEST PUSH1 0x0 PUSH20 0xFFFFFFFFFFFFFFFFFFFFFFFFFFFFFFFFFFFFFFFF AND DUP5 PUSH20 0xFFFFFFFFFFFFFFFFFFFFFFFFFFFFFFFFFFFFFFFF AND SUB PUSH2 0xB6F JUMPI PUSH1 0x0 PUSH1 0x40 MLOAD PUSH32 0xE602DF0500000000000000000000000000000000000000000000000000000000 DUP2 MSTORE PUSH1 0x4 ADD PUSH2 0xB66 SWAP2 SWAP1 PUSH2 0x11AA JUMP JUMPDEST PUSH1 0x40 MLOAD DUP1 SWAP2 SUB SWAP1 REVERT JUMPDEST PUSH1 0x0 PUSH20 0xFFFFFFFFFFFFFFFFFFFFFFFFFFFFFFFFFFFFFFFF AND DUP4 PUSH20 0xFFFFFFFFFFFFFFFFFFFFFFFFFFFFFFFFFFFFFFFF AND SUB PUSH2 0xBE1 JUMPI PUSH1 0x0 PUSH1 0x40 MLOAD PUSH32 0x94280D6200000000000000000000000000000000000000000000000000000000 DUP2 MSTORE PUSH1 0x4 ADD PUSH2 0xBD8 SWAP2 SWAP1 PUSH2 0x11AA JUMP JUMPDEST PUSH1 0x40 MLOAD DUP1 SWAP2 SUB SWAP1 REVERT JUMPDEST DUP2 PUSH1 0x1 PUSH1 0x0 DUP7 PUSH20 0xFFFFFFFFFFFFFFFFFFFFFFFFFFFFFFFFFFFFFFFF AND PUSH20 0xFFFFFFFFFFFFFFFFFFFFFFFFFFFFFFFFFFFFFFFF AND DUP2 MSTORE PUSH1 0x20 ADD SWAP1 DUP2 MSTORE PUSH1 0x20 ADD PUSH1 0x0 KECCAK256 PUSH1 0x0 DUP6 PUSH20 0xFFFFFFFFFFFFFFFFFFFFFFFFFFFFFFFFFFFFFFFF AND PUSH20 0xFFFFFFFFFFFFFFFFFFFFFFFFFFFFFFFFFFFFFFFF AND DUP2 MSTORE PUSH1 0x20 ADD SWAP1 DUP2 MSTORE PUSH1 0x20 ADD PUSH1 0x0 KECCAK256 DUP2 SWAP1 SSTORE POP DUP1 ISZERO PUSH2 0xCCE JUMPI DUP3 PUSH20 0xFFFFFFFFFFFFFFFFFFFFFFFFFFFFFFFFFFFFFFFF AND DUP5 PUSH20 0xFFFFFFFFFFFFFFFFFFFFFFFFFFFFFFFFFFFFFFFF AND PUSH32 0x8C5BE1E5EBEC7D5BD14F71427D1E84F3DD0314C0F7B2291E5B200AC8C7C3B925 DUP5 PUSH1 0x40 MLOAD PUSH2 0xCC5 SWAP2 SWAP1 PUSH2 0x10C9 JUMP JUMPDEST PUSH1 0x40 MLOAD DUP1 SWAP2 SUB SWAP1 LOG3 JUMPDEST POP POP POP POP JUMP JUMPDEST PUSH1 0x0 PUSH20 0xFFFFFFFFFFFFFFFFFFFFFFFFFFFFFFFFFFFFFFFF AND DUP4 PUSH20 0xFFFFFFFFFFFFFFFFFFFFFFFFFFFFFFFFFFFFFFFF AND SUB PUSH2 0xD26 JUMPI DUP1 PUSH1 0x2 PUSH1 0x0 DUP3 DUP3 SLOAD PUSH2 0xD1A SWAP2 SWAP1 PUSH2 0x12CB JUMP JUMPDEST SWAP3 POP POP DUP2 SWAP1 SSTORE POP PUSH2 0xDF9 JUMP JUMPDEST PUSH1 0x0 DUP1 PUSH1 0x0 DUP6 PUSH20 0xFFFFFFFFFFFFFFFFFFFFFFFFFFFFFFFFFFFFFFFF AND PUSH20 0xFFFFFFFFFFFFFFFFFFFFFFFFFFFFFFFFFFFFFFFF AND DUP2 MSTORE PUSH1 0x20 ADD SWAP1 DUP2 MSTORE PUSH1 0x20 ADD PUSH1 0x0 KECCAK256 SLOAD SWAP1 POP DUP2 DUP2 LT ISZERO PUSH2 0xDB2 JUMPI DUP4 DUP2 DUP4 PUSH1 0x40 MLOAD PUSH32 0xE450D38C00000000000000000000000000000000000000000000000000000000 DUP2 MSTORE PUSH1 0x4 ADD PUSH2 0xDA9 SWAP4 SWAP3 SWAP2 SWAP1 PUSH2 0x1265 JUMP JUMPDEST PUSH1 0x40 MLOAD DUP1 SWAP2 SUB SWAP1 REVERT JUMPDEST DUP2 DUP2 SUB PUSH1 0x0 DUP1 DUP7 PUSH20 0xFFFFFFFFFFFFFFFFFFFFFFFFFFFFFFFFFFFFFFFF AND PUSH20 0xFFFFFFFFFFFFFFFFFFFFFFFFFFFFFFFFFFFFFFFF AND DUP2 MSTORE PUSH1 0x20 ADD SWAP1 DUP2 MSTORE PUSH1 0x20 ADD PUSH1 0x0 KECCAK256 DUP2 SWAP1 SSTORE POP POP JUMPDEST PUSH1 0x0 PUSH20 0xFFFFFFFFFFFFFFFFFFFFFFFFFFFFFFFFFFFFFFFF AND DUP3 PUSH20 0xFFFFFFFFFFFFFFFFFFFFFFFFFFFFFFFFFFFFFFFF AND SUB PUSH2 0xE42 JUMPI DUP1 PUSH1 0x2 PUSH1 0x0 DUP3 DUP3 SLOAD SUB SWAP3 POP POP DUP2 SWAP1 SSTORE POP PUSH2 0xE8F JUMP JUMPDEST DUP1 PUSH1 0x0 DUP1 DUP5 PUSH20 0xFFFFFFFFFFFFFFFFFFFFFFFFFFFFFFFFFFFFFFFF AND PUSH20 0xFFFFFFFFFFFFFFFFFFFFFFFFFFFFFFFFFFFFFFFF AND DUP2 MSTORE PUSH1 0x20 ADD SWAP1 DUP2 MSTORE PUSH1 0x20 ADD PUSH1 0x0 KECCAK256 PUSH1 0x0 DUP3 DUP3 SLOAD ADD SWAP3 POP POP DUP2 SWAP1 SSTORE POP JUMPDEST DUP2 PUSH20 0xFFFFFFFFFFFFFFFFFFFFFFFFFFFFFFFFFFFFFFFF AND DUP4 PUSH20 0xFFFFFFFFFFFFFFFFFFFFFFFFFFFFFFFFFFFFFFFF AND PUSH32 0xDDF252AD1BE2C89B69C2B068FC378DAA952BA7F163C4A11628F55A4DF523B3EF DUP4 PUSH1 0x40 MLOAD PUSH2 0xEEC SWAP2 SWAP1 PUSH2 0x10C9 JUMP JUMPDEST PUSH1 0x40 MLOAD DUP1 SWAP2 SUB SWAP1 LOG3 POP POP POP JUMP JUMPDEST PUSH1 0x0 DUP2 MLOAD SWAP1 POP SWAP2 SWAP1 POP JUMP JUMPDEST PUSH1 0x0 DUP3 DUP3 MSTORE PUSH1 0x20 DUP3 ADD SWAP1 POP SWAP3 SWAP2 POP POP JUMP JUMPDEST PUSH1 0x0 JUMPDEST DUP4 DUP2 LT ISZERO PUSH2 0xF33 JUMPI DUP1 DUP3 ADD MLOAD DUP2 DUP5 ADD MSTORE PUSH1 0x20 DUP2 ADD SWAP1 POP PUSH2 0xF18 JUMP JUMPDEST PUSH1 0x0 DUP5 DUP5 ADD MSTORE POP POP POP POP JUMP JUMPDEST PUSH1 0x0 PUSH1 0x1F NOT PUSH1 0x1F DUP4 ADD AND SWAP1 POP SWAP2 SWAP1 POP JUMP JUMPDEST PUSH1 0x0 PUSH2 0xF5B DUP3 PUSH2 0xEF9 JUMP JUMPDEST PUSH2 0xF65 DUP2 DUP6 PUSH2 0xF04 JUMP JUMPDEST SWAP4 POP PUSH2 0xF75 DUP2 DUP6 PUSH1 0x20 DUP7 ADD PUSH2 0xF15 JUMP JUMPDEST PUSH2 0xF7E DUP2 PUSH2 0xF3F JUMP JUMPDEST DUP5 ADD SWAP2 POP POP SWAP3 SWAP2 POP POP JUMP JUMPDEST PUSH1 0x0 PUSH1 0x20 DUP3 ADD SWAP1 POP DUP2 DUP2 SUB PUSH1 0x0 DUP4 ADD MSTORE PUSH2 0xFA3 DUP2 DUP5 PUSH2 0xF50 JUMP JUMPDEST SWAP1 POP SWAP3 SWAP2 POP POP JUMP JUMPDEST PUSH1 0x0 DUP1 REVERT JUMPDEST PUSH1 0x0 PUSH20 0xFFFFFFFFFFFFFFFFFFFFFFFFFFFFFFFFFFFFFFFF DUP3 AND SWAP1 POP SWAP2 SWAP1 POP JUMP JUMPDEST PUSH1 0x0 PUSH2 0xFDB DUP3 PUSH2 0xFB0 JUMP JUMPDEST SWAP1 POP SWAP2 SWAP1 POP JUMP JUMPDEST PUSH2 0xFEB DUP2 PUSH2 0xFD0 JUMP JUMPDEST DUP2 EQ PUSH2 0xFF6 JUMPI PUSH1 0x0 DUP1 REVERT JUMPDEST POP JUMP JUMPDEST PUSH1 0x0 DUP2 CALLDATALOAD SWAP1 POP PUSH2 0x1008 DUP2 PUSH2 0xFE2 JUMP JUMPDEST SWAP3 SWAP2 POP POP JUMP JUMPDEST PUSH1 0x0 DUP2 SWAP1 POP SWAP2 SWAP1 POP JUMP JUMPDEST PUSH2 0x1021 DUP2 PUSH2 0x100E JUMP JUMPDEST DUP2 EQ PUSH2 0x102C JUMPI PUSH1 0x0 DUP1 REVERT JUMPDEST POP JUMP JUMPDEST PUSH1 0x0 DUP2 CALLDATALOAD SWAP1 POP PUSH2 0x103E DUP2 PUSH2 0x1018 JUMP JUMPDEST SWAP3 SWAP2 POP POP JUMP JUMPDEST PUSH1 0x0 DUP1 PUSH1 0x40 DUP4 DUP6 SUB SLT ISZERO PUSH2 0x105B JUMPI PUSH2 0x105A PUSH2 0xFAB JUMP JUMPDEST JUMPDEST PUSH1 0x0 PUSH2 0x1069 DUP6 DUP3 DUP7 ADD PUSH2 0xFF9 JUMP JUMPDEST SWAP3 POP POP PUSH1 0x20 PUSH2 0x107A DUP6 DUP3 DUP7 ADD PUSH2 0x102F JUMP JUMPDEST SWAP2 POP POP SWAP3 POP SWAP3 SWAP1 POP JUMP JUMPDEST PUSH1 0x0 DUP2 ISZERO ISZERO SWAP1 POP SWAP2 SWAP1 POP JUMP JUMPDEST PUSH2 0x1099 DUP2 PUSH2 0x1084 JUMP JUMPDEST DUP3 MSTORE POP POP JUMP JUMPDEST PUSH1 0x0 PUSH1 0x20 DUP3 ADD SWAP1 POP PUSH2 0x10B4 PUSH1 0x0 DUP4 ADD DUP5 PUSH2 0x1090 JUMP JUMPDEST SWAP3 SWAP2 POP POP JUMP JUMPDEST PUSH2 0x10C3 DUP2 PUSH2 0x100E JUMP JUMPDEST DUP3 MSTORE POP POP JUMP JUMPDEST PUSH1 0x0 PUSH1 0x20 DUP3 ADD SWAP1 POP PUSH2 0x10DE PUSH1 0x0 DUP4 ADD DUP5 PUSH2 0x10BA JUMP JUMPDEST SWAP3 SWAP2 POP POP JUMP JUMPDEST PUSH1 0x0 DUP1 PUSH1 0x0 PUSH1 0x60 DUP5 DUP7 SUB SLT ISZERO PUSH2 0x10FD JUMPI PUSH2 0x10FC PUSH2 0xFAB JUMP JUMPDEST JUMPDEST PUSH1 0x0 PUSH2 0x110B DUP7 DUP3 DUP8 ADD PUSH2 0xFF9 JUMP JUMPDEST SWAP4 POP POP PUSH1 0x20 PUSH2 0x111C DUP7 DUP3 DUP8 ADD PUSH2 0xFF9 JUMP JUMPDEST SWAP3 POP POP PUSH1 0x40 PUSH2 0x112D DUP7 DUP3 DUP8 ADD PUSH2 0x102F JUMP JUMPDEST SWAP2 POP POP SWAP3 POP SWAP3 POP SWAP3 JUMP JUMPDEST PUSH1 0x0 PUSH1 0xFF DUP3 AND SWAP1 POP SWAP2 SWAP1 POP JUMP JUMPDEST PUSH2 0x114D DUP2 PUSH2 0x1137 JUMP JUMPDEST DUP3 MSTORE POP POP JUMP JUMPDEST PUSH1 0x0 PUSH1 0x20 DUP3 ADD SWAP1 POP PUSH2 0x1168 PUSH1 0x0 DUP4 ADD DUP5 PUSH2 0x1144 JUMP JUMPDEST SWAP3 SWAP2 POP POP JUMP JUMPDEST PUSH1 0x0 PUSH1 0x20 DUP3 DUP5 SUB SLT ISZERO PUSH2 0x1184 JUMPI PUSH2 0x1183 PUSH2 0xFAB JUMP JUMPDEST JUMPDEST PUSH1 0x0 PUSH2 0x1192 DUP5 DUP3 DUP6 ADD PUSH2 0xFF9 JUMP JUMPDEST SWAP2 POP POP SWAP3 SWAP2 POP POP JUMP JUMPDEST PUSH2 0x11A4 DUP2 PUSH2 0xFD0 JUMP JUMPDEST DUP3 MSTORE POP POP JUMP JUMPDEST PUSH1 0x0 PUSH1 0x20 DUP3 ADD SWAP1 POP PUSH2 0x11BF PUSH1 0x0 DUP4 ADD DUP5 PUSH2 0x119B JUMP JUMPDEST SWAP3 SWAP2 POP POP JUMP JUMPDEST PUSH1 0x0 DUP1 PUSH1 0x40 DUP4 DUP6 SUB SLT ISZERO PUSH2 0x11DC JUMPI PUSH2 0x11DB PUSH2 0xFAB JUMP JUMPDEST JUMPDEST PUSH1 0x0 PUSH2 0x11EA DUP6 DUP3 DUP7 ADD PUSH2 0xFF9 JUMP JUMPDEST SWAP3 POP POP PUSH1 0x20 PUSH2 0x11FB DUP6 DUP3 DUP7 ADD PUSH2 0xFF9 JUMP JUMPDEST SWAP2 POP POP SWAP3 POP SWAP3 SWAP1 POP JUMP JUMPDEST PUSH32 0x4E487B7100000000000000000000000000000000000000000000000000000000 PUSH1 0x0 MSTORE PUSH1 0x22 PUSH1 0x4 MSTORE PUSH1 0x24 PUSH1 0x0 REVERT JUMPDEST PUSH1 0x0 PUSH1 0x2 DUP3 DIV SWAP1 POP PUSH1 0x1 DUP3 AND DUP1 PUSH2 0x124C JUMPI PUSH1 0x7F DUP3 AND SWAP2 POP JUMPDEST PUSH1 0x20 DUP3 LT DUP2 SUB PUSH2 0x125F JUMPI PUSH2 0x125E PUSH2 0x1205 JUMP JUMPDEST JUMPDEST POP SWAP2 SWAP1 POP JUMP JUMPDEST PUSH1 0x0 PUSH1 0x60 DUP3 ADD SWAP1 POP PUSH2 0x127A PUSH1 0x0 DUP4 ADD DUP7 PUSH2 0x119B JUMP JUMPDEST PUSH2 0x1287 PUSH1 0x20 DUP4 ADD DUP6 PUSH2 0x10BA JUMP JUMPDEST PUSH2 0x1294 PUSH1 0x40 DUP4 ADD DUP5 PUSH2 0x10BA JUMP JUMPDEST SWAP5 SWAP4 POP POP POP POP JUMP JUMPDEST PUSH32 0x4E487B7100000000000000000000000000000000000000000000000000000000 PUSH1 0x0 MSTORE PUSH1 0x11 PUSH1 0x4 MSTORE PUSH1 0x24 PUSH1 0x0 REVERT JUMPDEST PUSH1 0x0 PUSH2 0x12D6 DUP3 PUSH2 0x100E JUMP JUMPDEST SWAP2 POP PUSH2 0x12E1 DUP4 PUSH2 0x100E JUMP JUMPDEST SWAP3 POP DUP3 DUP3 ADD SWAP1 POP DUP1 DUP3 GT ISZERO PUSH2 0x12F9 JUMPI PUSH2 0x12F8 PUSH2 0x129C JUMP JUMPDEST JUMPDEST SWAP3 SWAP2 POP POP JUMP INVALID LOG2 PUSH5 0x6970667358 0x22 SLT KECCAK256 MSIZE 0xC4 0xC3 0x26 NUMBER PUSH32 0x45E295CA5A8B829310DE0E8EB6114EA67DA70556582E7B5F604564736F6C6343 STOP ADDMOD SHR STOP CALLER "},"methodIdentifiers":{"addLiquidity(address,address,uint256,uint256,uint256,uint256,address,uint256)":"e8e33700","getAmountOut(uint256,uint256,uint256)":"054d50d4","getPrice(address,address)":"ac41865a","lpToken()":"5fcbd285","owner()":"8da5cb5b","removeLiquidity(address,address,uint256,uint256,uint256,address,uint256)":"baa2abde","reserveA()":"dc5fa6c5","reserveB()":"19e36f3b","swapExactTokensForTokens(uint256,uint256,address[],address,uint256)":"38ed1739","tokenA()":"0fc63d10","tokenB()":"5f64b55b"}}}}}